:100000000EC028C027C026C025C024C023C022C0DF
:1000100021C020C01FC01EC01DC01CC01BC0112499
:100020001FBECFE5D1E0DEBFCDBF10E0A0E6B0E05F
:10003000E6EDF1E002C005900D92A036B107D9F7C8
:1000400010E0A0E6B0E001C01D92A636B107E1F7CE
:100050000CD0BFC000C01F920F920FB60F92112498
:100060000F900FBE0F901F901895BC98C498B89A27
:10007000B99ABB9ABA9AC198C09AC398C29880E3B9
:1000800095E729E130E0F9013197F1F70197D9F7C8
:10009000C29A82E087B985E886B9789489E190E0D0
:1000A000A2E066E070E028EB3BE0FC013197F1F75D
:1000B00021503040D1F7A7B93698369A28EB3BE06B
:1000C000FC013197F1F721503040D1F724B135B11F
:1000D000532F40E0FA01E20FF11DF0936100E0932D
:1000E000600020916000309161002436310544F4B5
:1000F000C09AC198C3981092650010926400D3CF43
:100100002091600030916100253631050CF45DC00E
:1001100020916400309165002530310541F4C0988C
:10012000C19AC39A7093650060936400BCCF20911C
:100130006400309165002130310539F02091640070
:100140003091650023303105A9F4C09AC19A2091FD
:100150006400309165002F5F3F4F3093650020931E
:10016000640020E335E7FC013197F1F7215030407E
:10017000D1F799CF209164003091650021153105A8
:1001800079F020916400309165002230310541F012
:1001900020916400309165002430310509F083CF4F
:1001A000C098C19A20916400309165002F5F3F4F45
:1001B000309365002093640020E335E7FC0131971C
:1001C000F1F721503040D1F76ECFC098C198C39855
:0601D0006ACFF894FFCF96
:00000001FF
