:100000000EC028C027C026C025C024C023C022C0DF
:1000100021C020C09BC01EC01DC01CC01BC011241D
:100020001FBECFE5D1E0DEBFCDBF10E0A0E6B0E05F
:10003000E6EAF1E002C005900D92A036B107D9F7CB
:1000400010E0A0E6B0E001C01D92A436B107E1F7D0
:100050000CD0A7C000C01F920F920FB60F921124B0
:100060000F900FBE0F901F901895B898BC98BA9833
:10007000C09AC498C298B99ABB9AC39882E08ABDC4
:1000800095E093BF98E099BD94E590BF90E599BF46
:100090001EBC9FEF9DBD87B985E886B9789402E0C4
:1000A00089E190E011E0E1E0F0E026B320FDFDCF32
:1000B00020916200309163002130310599F4109253
:1000C0006100109260001092630010926200C39869
:1000D0001EBC28EB3BE0DC011197F1F721503040CA
:1000E000D1F7E3CF07B93698369A28EB3BE0DC012D
:1000F0001197F1F721503040D1F724B135B1532F8A
:1001000040E0DA01A20FB11DB0936100A09360003E
:1001100017B93698369A28EB3BE0DC011197F1F7D6
:1001200021503040D1F724B135B1732F60E0DB01AD
:10013000A20FB11D9D0135952795359527952EBDAB
:10014000F0936300E0936200C39AAFCF1F920F92C7
:100150000FB60F9211248F939F938091620090911C
:10016000630081309105B1F480916000909161004D
:10017000019790936100809360008091600090915E
:1001800061001816190634F0109263001092620094
:100190001EBCC3989F918F910F900FBE0F901F9020
:0601A0001895F894FFCF52
:00000001FF
