:100000000C9489010C94A6010C94A6010C94A601F1
:100010000C94FD0D0C94873B0C94A6010C94A60146
:100020000C94A6010C94A6010C94A6010C94A601B4
:100030000C94A6010C94A92E0C94A6010C94A60174
:100040000C94A6010C94A6010C94F6300C94A60115
:100050000C944D290C940F290C94A6010C94A60124
:100060000C94A6010C94A6010C94A6010C94A60174
:100070000C94A6010C94A6010C94A60189298B2945
:10008000C429C429C429C429C429C429C429C42908
:10009000C429C429912993299529972999299B290C
:1000A0009D299F29C429A329A529A729A929AB29C5
:1000B000AD29C429AF291E2C242C272C2A2C2F2C07
:1000C000372C3F2CD12CD12CD12C4C2C4F2C582CF4
:1000D000612CD12CD12CD12CD12CD12CD12C6D2C0C
:1000E000772C832C8B2C8E2C972CA02CA52CD12CF0
:1000F000D12CAE2CB72CC22C084AD73B3BCE016E7C
:1001000084BCBFFDC12F3D6C74319ABD56833DDA6E
:100110003D00C77F11BED9E4BB4C3E916BAAAABE7D
:10012000000000803F05A84CCDB2D44EB93836A9A6
:10013000020C50B9918688083CA6AAAA2ABE0000E3
:1001400000803F7C413A007C4F763A007C57434F19
:100150003A007C506E3A007C46533A007C42663A44
:10016000007C57506F733A007C4D506F733A0053C8
:100170006C65657000446F6F723A00436865636B2D
:1001800000416C61726D00486F6D65004A6F6700D9
:10019000486F6C643A0052756E0049646C65000DDE
:1001A0000A005B6563686F3A20005B4F50543A0069
:1001B0005B5645523A312E31662E32303137303768
:1001C00031373A00244E00205300204600205400CE
:1001D00033382E005B47433A4700204700204D004C
:1001E0005B544C4F3A005B4739323A0033300032AF
:1001F00038005B47005B5052423A005B484C503A33
:10020000242420242320244720244920244E202451
:10021000783D76616C20244E783D6C696E652024B3
:100220004A3D6C696E652024534C502024432024A1
:1002300058202448207E2021203F206374726C2D9A
:10024000785D0D0A000D0A4772626C20312E31660E
:10025000205B27242720666F722068656C705D0D17
:100260000A00536C656570696E6700526573746F40
:1002700072696E67207370696E646C650052657395
:10028000746F72696E672064656661756C74730063
:1002900050676D20456E6400436865636B204C6950
:1002A0006D69747300436865636B20446F6F7200FF
:1002B00044697361626C656400456E61626C65647B
:1002C0000043617574696F6E3A20556E6C6F636B95
:1002D000656400272448277C2724582720746F2032
:1002E000756E6C6F636B00526573657420746F205C
:1002F000636F6E74696E7565005B4D53473A0041DC
:100300004C41524D3A006572726F723A006F6B0D3C
:100310000A0011241FBECFEFD0E1DEBFCDBF11E038
:10032000A0E0B1E0ECEBF5E802C005900D92A6303C
:10033000B107D9F717E0A6E0B1E001C01D92A736DA
:10034000B107E1F70E944D100C94DC420C940000C0
:1003500081E0139B80E00895139808950B9A0E9402
:10036000AC0108959091FB05992349F4882319F471
:100370000E94AC0102C086FD139A109205060895F2
:10038000DF93CF930F92CDB7DEB79091FA059230FD
:1003900031F089830E94B12289810E94B2010F90BD
:1003A000CF91DF910895F999FECF92BD81BD81E093
:1003B0008FBB80B50895F894F999FECF92BD81BDA9
:1003C00081E08FBB80B58627982F962339F06F3F49
:1003D00019F060BD84E006C084E104C0882321F0E8
:1003E00060BD84E28FBBF99A789408959F92AF9292
:1003F000BF92CF92DF92EF92FF920F931F93CF9312
:10040000DF935C016B017A01EA01992419C09920FC
:1004100049F4292D332727FD30952227330F221F3A
:10042000332702C021E030E0F60161916F01962E82
:10043000920E8C010F5F1F4F0E94DB012197C801B4
:10044000209729F7C7018A0D9B1D692D0E94DB01AA
:10045000DF91CF911F910F91FF90EF90DF90CF90A0
:10046000BF90AF909F9008959F92AF92BF92CF920E
:10047000DF92EF92FF920F931F93CF93DF936C0164
:10048000EB017A018A01CB0199241BC05C0108941D
:10049000A11CB11C0E94D301992049F4292D3327B6
:1004A00027FD30952227330F221F332702C021E07A
:1004B00030E0982E920EF60181936F0101501040AA
:1004C000C5010115110511F7C7018C0F9D1F0E9471
:1004D000D30121E030E0981611F020E030E0C901AE
:1004E000DF91CF911F910F91FF90EF90DF90CF9010
:1004F000BF90AF909F9008956FE775E080E4FB0197
:1005000011928A95E9F780E06C5D7F4F0E94642B21
:10051000882319F487E00E94C223089587E995E0B3
:100520006AE176E00E94023C08952F923F924F923A
:100530005F926F927F928F929F92AF92BF92CF9273
:10054000DF92EF92FF920F931F93DF93CF93CDB77C
:10055000DEB7E0970FB6F894DEBF0FBECDBF2C011B
:10056000AFEBB5E08AE3FD0111928A95E9F71196A8
:10057000EFE7F5E08BE001900D928150E1F7D201B9
:100580008C91843241F481E08093C0051092C105C2
:10059000CC24C39401C0CC248C2D90E0FC01E170EC
:1005A000F070FC8FEB8FC0FE0FC083E089832224A4
:1005B00033241CA21BA21DA2DD24BB2461E0E62E75
:1005C000F12C5EE5A52E5DC21982F1CF902F9154DA
:1005D0009A3110F00C941C0D8F5F8983C201BE010B
:1005E0006F5F7F4FAE014E5F5F4F0E94F414882310
:1005F00011F40C941E0D6A807B808C809D80C40158
:10060000B3010E946A420E94B13F162F70E0882712
:1006100077FD8095982F0E94DF3F9B01AC01C401BC
:10062000B3010E94573E20E030E048EC52E40E94C3
:1006300090410E94FB410E94B13FCB01073421F061
:100640000D3409F030C1DEC0183209F4CBC01932C4
:1006500000F5143170F4113108F081C0143009F440
:1006600047C0143008F459C01A3011F00C94340DFE
:1006700037C01C31A9F11D3128F4163110F00C944B
:10068000340D8AC01E3161F1163211F00C94340D14
:1006900044C01D3309F4A0C01E3388F4153341F162
:1006A000163340F41B3209F47DC0113311F00C9461
:1006B000340D78C01C3310F00C94340D88C01C35F8
:1006C00040F41A3508F050C0103511F00C94340D78
:1006D0002AC01C3529F01F3510F00C94340D56C07B
:1006E000009731F4BB2011F00C94200DBB24B3947F
:1006F0001093BF051C3129F01E3119F01C3509F08B
:1007000073C0009729F08A30910511F00C94340DD4
:10071000180F1093BF0520E06EC0BB2011F00C94A1
:10072000200D42E0B42E1093C005163209F05EC0D1
:100730008431910559F08E31910541F0883291054F
:1007400029F08233910511F00C94340D6AE070E0C9
:100750000E94974266576093C00521E04CC011513A
:100760001093C40522E043C0009729F41A55109352
:10077000C30523E040C06A30710511F00C94340DBC
:100780001A3511F40C94340D24E035C02A2D211BA8
:100790002093C10525E02BC025E1211B2093C20534
:1007A00026E025C0BB2011F00C94200D113319F464
:1007B0001092C50508C08A30910511F00C94340DD3
:1007C000F1E0F093C50528E033E0B32E14C01653D2
:1007D0001093C60529E00BC0009711F00C94340D5E
:1007E0002AE009C027E003C020E001C021E0009713
:1007F00011F00C94220DC70102C0880F991F2A9591
:10080000E2F741C0009711F00C94220D163018F455
:100810001330B8F40AC0183010F40C94340D1A30A8
:1008200000F11E3111F00C94340D112319F0113028
:1008300029F421C033E03093C7051DC01093C705CC
:100840001AC0143031F0153041F080E18093C905B1
:1008500006C090E29093C90502C01092C9058CE0D1
:100860000BC0193021F0A0E4A093C80502C010927B
:10087000C8058DE001C08BE0F70102C0EE0FFF1F3D
:100880008A95E2F7CF012BA13CA12823392321151A
:10089000310511F00C94240D2BA13CA1282B392BF0
:1008A0003CA32BA3EEC0003509F474C00135B8F4A5
:1008B0000A3409F443C00B3438F4063441F10934E6
:1008C00011F00C94340D2DC00C3409F451C00C34CB
:1008D00008F441C00E3411F00C94340D4DC00435B1
:1008E00009F476C0053540F4023509F45DC00335DE
:1008F00011F00C94340D62C0093509F485C00A3535
:1009000009F48EC0083511F00C94340D71C060925A
:10091000CB057092CC058092CD059092CE0580E0FB
:100920008AC06092CF057092D0058092D1059092D6
:10093000D2053DA131603DA381E07DC06092D30529
:100940007092D4058092D5059092D6058DA18260D3
:100950008DA382E070C06092D7057092D805809216
:10096000D9059092DA059DA194609DA383E063C0B0
:100970001093DB0584E05FC0C401B3010E94AC3F6B
:100980006093DC057093DD058093DE059093DF05B1
:1009900085E051C06092E0057092E1058092E20529
:1009A0009092E30586E047C06092E4057092E50509
:1009B0008092E6059092E70587E03DC06092E805E9
:1009C0007092E9058092EA059092EB0588E033C0C9
:1009D000C401B30120E030E04FE753E40E945341EB
:1009E000181614F40C94260D1093EC0589E023C01E
:1009F0006092ED057092EE058092EF059092F00501
:100A0000A1E0DA2A8AE017C06092F1057092F2053F
:100A10008092F3059092F405B2E0DB2A8BE00BC0E4
:100A20006092F5057092F6058092F7059092F805B0
:100A3000E4E0DE2A8CE08701082E02C0000F111FBF
:100A40000A94E2F79801222133212115310511F092
:100A50000C94280D21E633E002C0359527958A9540
:100A6000E2F720FF0CC06A817B818C819D8120E0B0
:100A700030E040E050E00E943C3F87FDEBC7202A79
:100A8000312A8981F201E80FF11D0081002309F06C
:100A90009DCDDD2021F0BB2011F492E0B92E25FE82
:100AA00011C08091DC059091DD05A091DE05B0912B
:100AB000DF05813836E9930738E9A30730E0B3074B
:100AC0000CF0CAC78B8D9C8D009719F020FC17C0C5
:100AD000D1C78091C105813061F49B2D9230D1F551
:100AE0008091C0058035B1F18823A1F120FC32C08E
:100AF000C1C780918005882369F520FE1BC08091C5
:100B0000C205813039F56091CB057091CC0580919B
:100B1000CD059091CE0523E333E34BEC51E40E94E5
:100B200090416093CB057093CC058093CD05909355
:100B3000CE0510C080918E0590918F05A0919005F3
:100B4000B09191058093CB059093CC05A093CD05F2
:100B5000B093CE0530FC10C080918A0590918B0532
:100B6000A0918C05B0918D058093E8059093E905DF
:100B7000A093EA05B093EB058091BF05843031F472
:100B800026FE6EC7AFEBBFEF2A223B228091C40541
:100B9000823088F490E0FC01E050FF4FB081BAA7AA
:100BA000FC01EE5FFE4F20812BA78C5F9E4FDC0186
:100BB000BC91B8AB05C018AAE2E0EBA7F1E0FAA738
:100BC0008091C205813041F50DEE15E0EE24FF2441
:100BD0006D2C7724C3010E2C02C0959587950A943D
:100BE000E2F780FF10C0D8016D917D918D919C91AD
:100BF00023E333E34BEC51E40E949041F80160831E
:100C00007183828393830894E11CF11C0C5F1F4F56
:100C1000F3E0EF16F104F1F62B2D233041F480912F
:100C2000C505813021F43D2D343009F017C7DE01B0
:100C30001F96E3EAF5E08CE001900D928150E1F718
:100C40008BA19CA191FF11C08091C605873008F04F
:100C500009C790918505981741F0BE01615F7F4FEC
:100C60000E94642B882309F417C7A090BF059A2D12
:100C70009A3021F09C3509F00EC19FC0DD2009F4A7
:100C800001C7C10180759070009709F4E9C66091B1
:100C9000E0057091E1058091E2059091E3050E94E5
:100CA0006A420E94B13F673008F0DCC68091DB05E4
:100CB000843129F0823009F0D7C627FCD5C66623D7
:100CC00019F061506B8F03C0A091C605AB8F8B8D5F
:100CD0006FEC75E00E94642B882309F4DDC6A090B8
:100CE000DB058091BB059091BC05A091BD05B0913D
:100CF000BE058F8F98A3A9A3BAA30FEC15E087E9CF
:100D0000E82E85E0F82E662477248D2C9924C401E2
:100D1000062C02C0959587950A94E2F780FF3AC0A9
:100D20009A2D943171F5D7016D917D918D919C91A2
:100D3000139758962D913D914D915C915B970E9430
:100D4000573EF801268D378D40A151A10E94573E94
:100D5000262F372F482F592FD8012D933D934D9390
:100D60005C931397B62DB230A9F42F8D38A149A109
:100D70005AA10E94573EF801608371838283938356
:100D800009C0F801868D978DA0A1B1A180839183C0
:100D9000A283B3830894611C711C0C5F1F4F24E075
:100DA00030E0E20EF31E33E06316710409F0AFCFBA
:100DB0008FEA9FEF282239223EC1DD2009F462C666
:100DC0008091BB059091BC05A091BD05B091BE0579
:100DD0008B8F9C8FAD8FBE8F0DEE15E0B7E9EB2E9C
:100DE000B5E0FB2EAFE08A2E912C8C0E9D1E662462
:100DF00077244D2C5524C201062C02C09595879569
:100E00000A94E2F780FF2CC0D7016D917D918D91FE
:100E10009C91F40120813181428153810E94573E8F
:100E2000D8012D913D914D915C910E94573E262F06
:100E3000372F482F592FF801208331834283538362
:100E4000F62DF230B9F42B8D3C8D4D8D5E8D0E94C8
:100E5000573ED8016D937D938D939C9313970AC051
:100E6000F701808D918DA28DB38DF80180839183E0
:100E7000A283B3830894611C711C0C5F1F4F24E094
:100E800030E0E20EF31E820E931E33E0631671040F
:100E900009F0B1CFCCC08B2D833009F489C0DD209F
:100EA00009F486C09091C3059B8F8091BB059091FA
:100EB000BC05A091BD05B091BE058F8F98A3A9A3D5
:100EC000BAA3F7E9EF2EF5E0FF2E0DEE15E0EFE007
:100ED0008E2E912C8C0E9D1E662477244D2C55242D
:100EE000C201062C02C0959587950A94E2F780FD11
:100EF0000BC0F70180819181A281B381F8018083C9
:100F00009183A283B38344C0FA2DF53309F440C022
:100F10002B8D222361F5D4016D917D918D919C9152
:100F2000F701208D318D428D538D0E94583ED8019E
:100F30002D913D914D915C910E94583E262F372F67
:100F4000482F592FF8012083318342835383F62D94
:100F5000F230F1F42F8D38A149A15AA10E94583ED8
:100F6000D8016D937D938D939C93139711C0F801D5
:100F70006081718182819381D7012D913D914D9145
:100F80005C910E94583EF801608371838283938351
:100F90000894611C711C24E030E0E20EF31E0C5F2B
:100FA0001F4F820E931E33E06316710409F098CF31
:100FB0008091BF058E3121F08533A1F18C31B9F5D7
:100FC0008C3111F486E001C087E06FEC75E00E947F
:100FD000642B882309F460C5DD2059F147E955E009
:100FE000EFECF5E020E030E06D2D70E0CB01022E5B
:100FF00002C0959587950A94E2F780FD0AC0DA0150
:10100000ED90FD900D911C911397E082F182028387
:1010100013832F5F3F4F4C5F5F4F34962330310572
:1010200029F705C08091C005823008F01FC51B8ECE
:1010300002C01B8EBB241091C005103521F4DD20A9
:1010400009F47AC215C5BB2DB23009F075C211235F
:1010500041F16091CB057091CC058091CD059091C7
:10106000CE0520E030E040E050E00E943C3F882385
:1010700009F400C51C3809F44BC21D3840F4123085
:10108000A1F01330A1F0113009F056C20AC01E3889
:1010900009F43EC21E3808F439C21F3809F04CC2A8
:1010A00035C2DD2009F447C247C2E4E0CE2ADD2084
:1010B00009F4E8C43AA5232F30E03DA72CA79BA54F
:1010C000892F90E09FA78EA781E090E08C010BA470
:1010D00002C0000F111F0A94E2F70AA402C0880F91
:1010E000991F0A94E2F7082B192B8D2D90E080238D
:1010F0009123009709F4C0C4D901AA0FBB1FAA0FFE
:10110000BB1FA154BA4FF901EE0FFF1FEE0FFF1FD7
:10111000E956FA4F9E966D917D918D919C91D19754
:1011200020813181428153810E94573EA62E472E55
:10113000582E9F8FAEA5BFA5AA0FBB1FAA0FBB1F1E
:10114000A154BA4FEEA5FFA5EE0FFF1FEE0FFF1F34
:10115000E956FA4F9E966D917D918D919C91D19714
:1011600020813181428153810E94573E6EA37FA32B
:1011700088A799A727FE16C187E995E06DEE75E06F
:101180004CE050E00E94CD42009709F47DC480916C
:10119000C2058130B1F46091E4057091E50580915C
:1011A000E6059091E70523E333E34BEC51E40E941D
:1011B00090416093E4057093E5058093E605909374
:1011C000E705E090E405F090E5050091E605109153
:1011D000E705C801B70120E030E040E850E40E9494
:1011E0009041A80197010E9490417B018C012F8DB5
:1011F0006A2D742D852D922F2A2D342D452D592F92
:101200000E9490419B01AC01C801B7010E94573E6A
:101210007B018C015EA14FA138A529A5652F742FF4
:10122000832F922FDA01F9012B2F3A2F4F2F5E2FA8
:101230000E9490419B01AC01C801B7010E94573E3A
:10124000162F072FE82E692EA801652F742F20E096
:1012500030E040E050E00E943C3F87FD0FC4A80111
:10126000652F742F8E2D962D0E9425427B018C01B7
:101270002F8D6A2D742D852D922FBEA1AFA1F8A5BB
:10128000E9A52B2F3A2F4F2F5E2F0E9429169B0185
:10129000AC01C801B70190580E94433F662E772EDB
:1012A000882E992E8091C005833021F497FA90946E
:1012B00097F89094E090E405F090E5050091E6053C
:1012C0001091E705C801B70120E030E040E050E0B0
:1012D0000E943C3F87FF10C097FA909497F8909433
:1012E00017FB109517F91095E092E405F092E505CB
:1012F0000093E6051093E705AFE7BFEF2A223B22F4
:101300000CA51DA5000F111F000F111F01531A4F2F
:101310005EA14FA138A529A5652F742F832F922F89
:10132000A40193010E9490419B01AC01EF8D6A2DB5
:10133000742D852D9E2F0E94573E20E030E040E026
:101340005FE30E949041F8016083718382839383FD
:101350000EA51FA5000F111F000F111F01531A4FDB
:101360002F8D6A2D742D852D922FA40193010E943B
:1013700090419B01AC01BEA1AFA1F8A5E9A56B2FDF
:101380007A2F8F2F9E2F0E94583E20E030E040E0C1
:101390005FE30E949041D8016D937D938D939C9360
:1013A0001397CAC0BDA16B2E772406211721011502
:1013B000110509F465C3E1EFFFEF2E223F22809172
:1013C000C205813031F50FEC15E0EE24FF24C30196
:1013D0000E2C02C0959587950A94E2F780FF10C005
:1013E000D8016D917D918D919C9123E333E34BEC7A
:1013F00051E40E949041F80160837183828393835A
:101400000894E11CF11C0C5F1F4FF3E0EF16F10490
:10141000F1F60CA51DA5000F111F000F111F0153A0
:101420001A4F2F8D6A2D742D852D922FD8012D9155
:101430003D914D915C910E94573E3B014C01EEA4C1
:10144000FFA4EE0CFF1CEE0CFF1CEFECF5E0EE0E23
:10145000FF1E5EA14FA138A529A5652F742F832FEC
:10146000922FD7012D913D914D915C910E94573E55
:101470009B01AC01C401B3010E9429163B014C0140
:10148000F8016081718182819381D7012D913D9115
:101490004D915C910E9429167B018C016093E405BB
:1014A0007093E5058093E6059093E705C401B301C9
:1014B000A80197010E94573E3B014C01E89497F820
:1014C000C401B3012AE037ED43EA5BE30E945341D4
:1014D000181694F5C401B30120E030E040E05FE36A
:1014E0000E94534118160CF4CFC2C801B7012FE671
:1014F00032E143E85AE30E9490419B01AC01C401F0
:10150000B3010E9453411816BCF4BEC2B0E1CB2A0D
:101510001E58123010F4E8E0CE2ADD2009F4B2C2E1
:1015200087E995E06DEE75E04CE050E00E94CD4219
:10153000009711F4A9C2BB248C2D90E09C0121706E
:101540003070C0FE03C0C1018E7D03C0C1018E7D1D
:101550009C7FBB2009F0937E009709F097C289E039
:10156000FE013696DF011D928A95E9F721153105B6
:1015700091F18BA19CA1867B009709F089C2809193
:10158000BF05853319F0882309F082C280918A054E
:1015900090918B05A0918C05B0918D058A879B87D2
:1015A000AC87BD878091870590918805892B8E87B0
:1015B000CE0106966FEB75E00E94660D882309F058
:1015C0006CC2A7E9B5E0EDEEF5E09CE001900D926C
:1015D0009150E1F762C28091570781FF21C080914D
:1015E000C0058150833010F0B0E4CB2ADD2031F00B
:1015F000EB2DE23019F4F0E8CF2A12C08091880573
:10160000803171F480917F058150833028F4C6FECB
:1016100007C020E2C22A04C0C6FC02C030E2C32ACE
:101620008091DC059091DD05A091DE05B091DF058C
:101630008093930590939405A0939505B093960598
:101640008091C10580938005882311F088E08E8702
:101650008091CB059091CC05A091CD05B091CE05A0
:1016600080938E0590938F05A0939005B09391057C
:101670008E839F83A887B987E090E805F090E905FD
:101680000091EA051091EB0560918A0570918B0538
:1016900080918C0590918D05A80197010E943C3F97
:1016A000882311F4C5FE21C080918805882369F044
:1016B000C7FC0BC0C6FE05C040E050E060E070E033
:1016C00002C0B801A7010E94432E8091E8059091C5
:1016D000E905A091EA05B091EB0580938A05909306
:1016E0008B05A0938C05B0938D05DC2CC6FC0CC03B
:1016F00080918A0590918B05A0918C05B0918D0504
:101700008A879B87AC87BD878091EC058093920583
:101710008091C90590918805981751F04A855B859D
:101720006C857D850E94432E8091C9058093880534
:101730008E8590918805892B8E878091C805909120
:101740008705981771F00E94C0019091C8059923F0
:1017500019F41092870505C080918705892B809325
:1017600087058E8590918705892B8E878091BF058F
:10177000843051F46091E0057091E1058091E205BB
:101780009091E3050E9436148091C40580938305EF
:101790008091C205809381058B2D833091F58091D6
:1017A000C50580938405882361F480E090E0A0E083
:1017B000B0E08093F5059093F605A093F705B093FC
:1017C000F805E090F505F090F6050091F705109109
:1017D000F8056091BB057091BC058091BD059091A5
:1017E000BE05A80197010E943C3F882351F0E0927A
:1017F000BB05F092BC050093BD051093BE050E9489
:10180000E13B8091C60590918505981769F080931A
:101810008505A3EAB5E0FE013F968CE001900D92AC
:101820008150E1F70E94E13B8091C30580938205DE
:101830008091BF05863209F446C0873240F48C316E
:1018400029F18E3119F18A3009F058C00AC08C355F
:1018500009F441C0863609F448C0883209F04EC008
:1018600034C08B8D6FEC75E00E94FF298091850557
:101870009B8D891709F042C0A3EAB5E0EFECF5E0D3
:101880008CE001900D928150E1F736C08E85816029
:101890008E87BB2039F08DEE95E0BE016A5F7F4FE9
:1018A0000E94AE108FEC95E0BE016A5F7F4F0E94F0
:1018B000AE10A7E9B5E0EFECF5E08CE001900D92F9
:1018C0008150E1F71BC086E001C087E067E975E061
:1018D0000E94FF2913C0AFEAB5E0EDEEF5E08CE021
:1018E00001900D928150E1F707C08CE0EFEAF5E03E
:1018F000DF011D928A95E9F70E94E13B8091C005C6
:1019000080937F05803509F44EC0BB2DB23009F0BD
:101910004AC0813029F0882359F48E8581608E87F2
:101920008DEE95E0BE016A5F7F4F0E94AE102DC024
:101930008250BE016A5F7F4F8230E8F40F92EDB7AC
:10194000FEB73196E090E405F090E5050091E605DC
:101950001091E70581E0D2FE80E080838DEE95E076
:1019600047E955E02FEC35E0CAA4ABA488A80E9453
:10197000E9100F900AC08E8584608E878DEE95E009
:101980004C2D0E946114882351F4A7E9B5E0EDEED7
:10199000F5E08CE001900D928150E1F704C08130B8
:1019A00011F40E948E028091C705809386058823DA
:1019B00009F470C00E94B122809186059091FA05C9
:1019C000833041F49230A9F188E00E945A3C0E9491
:1019D000A1212FC081E080937F0510928305109292
:1019E000820510928005109285051092880510924C
:1019F000870584E6809301068093020680930306A0
:101A00009230A1F080E063EA75E00E94642B8823A5
:101A100009F442C00E94E13B80E040E050E060E019
:101A200070E00E94152E80E00E94B20188E00E94C2
:101A3000E723109286052EC081E02FC082E02DC0E2
:101A400088E12BC087E129C085E127C086E225C057
:101A500089E123C084E021C08BE11FC085E21DC065
:101A60008CE11BC08DE119C084E117C08EE115C067
:101A70008FE113C086E111C080E20FC082E20DC089
:101A800083E20BC08AE109C081E207C084E205C09D
:101A900080E103C080E001C087E0E0960FB6F894D3
:101AA000DEBF0FBECDBFCF91DF911F910F91FF9091
:101AB000EF90DF90CF90BF90AF909F908F907F90EE
:101AC0006F905F904F903F902F9008950F931F93CA
:101AD000CF93DF93EC018B01FB0184859585A6856F
:101AE000B78588839983AA83BB8388858460888728
:101AF0008091570785FF06C0CB018E960E94243C3B
:101B00008823A9F4C8018E96BE010E94AE10809170
:101B1000FA05882371F40E942219009751F080E29F
:101B20008093FA050E94BC310E94622E02C08FE0B1
:101B300001C080E0DF91CF911F910F910895EBE6F6
:101B4000F0E08081897E8083E8E6F0E080818E7F0E
:101B50008083089584B1897E84B985B1866185B911
:101B60008091570783FF0BC080916B008661809343
:101B70006B008091680081608093680008950E94E6
:101B80009F0D0895CF92DF92FF920F931F93DF93E3
:101B9000CF930F92CDB7DEB793B19671809157076F
:101BA00086FD02C086E198279923E1F0CC24DD244C
:101BB000FF2401E010E08C2D99830E94FF2C998175
:101BC000892341F098010C2C02C0220F331F0A9484
:101BD000E2F7F22A0894C11CD11C23E0C216D104FA
:101BE00051F701C0FF248F2D0F90CF91DF911F91EE
:101BF0000F91FF90DF90CF9008951F920F920FB634
:101C00000F9211242F933F934F935F936F937F9382
:101C10008F939F93AF93BF93EF93FF938091FA05B8
:101C2000813049F080912606882329F40E94D2143D
:101C300081E00E942D3EFF91EF91BF91AF919F9166
:101C40008F917F916F915F914F913F912F910F9065
:101C50000FBE0F901F9018952F923F924F925F9258
:101C60006F927F928F929F92AF92BF92CF92DF92AC
:101C7000EF92FF920F931F93DF93CF93CDB7DEB711
:101C80006F970FB6F894DEBF0FBECDBF8B8F8091DC
:101C9000FB05882309F0C9C189E0FE013496DF0104
:101CA0001D928A95E9F786E08C8796E3A92E97E046
:101CB000B92E3E010894611C711CCC24DD240F2E2A
:101CC000F0E0EF2EF0E0FF2EF0E00F2FF0E01F2FFE
:101CD000F02DFB8DEF2FF0E0FA8FE98F8C2D0E9415
:101CE000EB2CD3018D933D01898D9A8D0C2C02C074
:101CF000959587950A94E2F780FF20C0F5016081F1
:101D000071818281938120E030E040EC5FEB0E94A2
:101D10009041962E872E582E292EC801B701F40126
:101D2000A52DB22D2F2F3E2FAD010E945341181625
:101D30002CF09401E32EF22E052D122D0894C11CD7
:101D4000D11C24E030E0A20EB31E33E0C316D10450
:101D500029F620905D0730905E0740905F07509015
:101D60006007CC24C39483E0882ECE010D966AE1EF
:101D700076E00E94023C609058077724FE013D9671
:101D80008AE1A82E86E0B82EB50180E090E0992483
:101D9000DD24A801970150582C8F3D8F4E8F5F8F07
:101DA000498D5A8D082E02C0559547950A94E2F741
:101DB00040FF2AC09394DB011D921D921D921C923C
:101DC0001397A301082E02C0559547950A94E2F790
:101DD00040FF03C0CC2019F007C0CC2029F0E082DE
:101DE000F1820283138308C02C8D3D8D4E8D5F8D53
:101DF0002083318342835383A1E0B0E0AC0FBD1F49
:101E0000A80FB91F2C91D22A019634966C5F7F4F90
:101E10008330910529F6692D70E080E090E00E9402
:101E2000DD3F0E9425429B01AC01D0920006C20119
:101E3000B1010E9490416C837D838E839F83CE018C
:101E40000D96BE016C5F7F4F0E94931A34E0309371
:101E5000FE050E94BC310E94622ECC20E9F00E9457
:101E6000C20DFE01319620E030E090E061915D2DE1
:101E7000562359F0DC01022E02C0B595A7950A94AD
:101E8000E2F7A0FF02C06095D6222F5F3F4F2330BC
:101E9000310561F7D09200060E94BC3180910C069A
:101EA000847339F100910C0604FF03C086E00E94A0
:101EB0002D3E05FF03C087E00E942D3ECC2039F463
:101EC0000E94C20DBB8D8B2339F088E003C002FF56
:101ED00003C089E00E942D3E80912606882329F0C8
:101EE0000E94D2140E94A121A0C084E00E94233E3F
:101EF00004C08D2D877009F0B0CF0E9448318091C9
:101F00006107909162070E94E115E1E0CE26D9F0C9
:101F100060916307709164078091650790916607EF
:101F200020E030E040EA50E40E949041E62EF72E97
:101F3000082F192F2090590730905A0740905B07BF
:101F400050905C0710C0E0906307F0906407009128
:101F500065071091660720905D0730905E074090FE
:101F60005F0750906007882011F08A94FECEC090E1
:101F70005807DD24609063077090640780906507C0
:101F8000909066071301240157FA509457F8509423
:101F900002E117E0EE24FF24C80185015601670124
:101FA0007C01298D3A8D0C2C02C0359527950A9419
:101FB000E2F720FF2AC095010C2C02C03595279529
:101FC0000A94E2F720FF11C0C401B301D70194962F
:101FD0002D913D914D915C9197970E94583EF7014C
:101FE000208131814281538107C0C201B101D701F3
:101FF0002D913D914D915C910E9490410E946041D4
:10200000F80160837183828393830894C11CD11C7F
:102010000C5F1F4F24E030E0E20EF31E33E0C316E6
:10202000D10409F0BECF1092FE056F960FB6F8945A
:10203000DEBF0FBECDBFCF91DF911F910F91FF90FB
:10204000EF90DF90CF90BF90AF909F908F907F9058
:102050006F905F904F903F902F9008950E94243C86
:102060008823D1F081E08093FD058091FA058830C6
:1020700061F40E945A3C0E94A1218091FB058823B3
:1020800059F48091FA058823B1F70E94D21482E0B6
:102090000E942D3E0E94A1210895DF92EF92FF92AF
:1020A0000F931F93CF93DF930E94E2280E94DE2CB0
:1020B0000E9476310E94673B8CE0EAE1F6E0DF01A6
:1020C0001D928A95E9F778941092FA058091570746
:1020D00084FF03C081E08093FA050AEF15E021E157
:1020E000D22E94E6F92ECEE0D6E08CE0E82E809158
:1020F000FA05F8019D2D11929A95E9F78093FA055A
:10210000F0920106F0920206F0920306DE01EE2D37
:102110001D92EA95E9F710920D0610920C061092A6
:1021200026061092F90510920B060E94D5290E94EE
:102130007C020E941E2D0E94AE010E94AA0D0E94E8
:10214000C11F0E94F4180E9448310E94A41D0E94E1
:102150008E020E9433240E94C222C9CF0F931F9384
:10216000CF93DF938C01EB018091570785FF07C068
:102170008091FA05803219F0C8010E942E108091DA
:10218000FA05823009F10E94A1218091FB05882384
:10219000D9F40E946719882319F00E94E21FF3CF37
:1021A000C801BE010E94931A882371F480915707D9
:1021B00081FF0AC0888584FF07C04C815D816E81E4
:1021C0007F8180E10E94432EDF91CF911F910F917B
:1021D00008952F923F924F925F926F927F928F92CB
:1021E0009F92AF92BF92CF92DF92EF92FF920F93A6
:1021F0001F93DF93CF93CDB7DEB7E3970FB6F89475
:10220000DEBF0FBECDBF9C8B8B8B7E876D875E8BB9
:102210004D8B1901E986FA860B871C878F86DD2492
:10222000CC0CDD1CCC0CDD1C9A012C0D3D1D3B8F14
:102230002A8FC1018C0D9D1D9D8F8C8FDC014D90CF
:102240005D906D907C90C301B201F90120813181D4
:10225000428153810E94583E6AA37BA38CA39DA315
:102260000A2D10E0000F111F000F111F2D893E894C
:10227000200F311F3F8F2E8FC101800F911F99A317
:1022800088A3DC018D909D90AD90BC90C501B401F8
:10229000F90120813181428153810E94583E6EA311
:1022A0007FA388A799A7D301C201B0588D839E83CD
:1022B000AF83B887D501C401B05889839A83AB83B3
:1022C000BC83EB89FC89EC0DFD1D608171818281ED
:1022D0009381BAA1ABA1FCA1EDA12B2F3A2F4F2FD7
:1022E0005E2F0E94573EC62EA72E882E292EEB89E0
:1022F000FC89E00FF11F6081718182819381BEA111
:10230000AFA1F8A5E9A52B2F3A2F4F2F5E2F0E94E2
:10231000573EF62E072F182FE92E6D817E818F8173
:1023200098852F2D302F412F5E2D0E9490412B013B
:102330003C0169817A818B819C812C2D3A2D482D1D
:10234000522D0E9490419B01AC01C301B2010E9439
:10235000573E2B013C016D817E818F8198852C2D0C
:102360003A2D482D522D0E9490415B016C016981EC
:102370007A818B819C812F2D302F412F5E2D0E94E1
:1023800090419B01AC01C601B5010E94583E9B01E2
:10239000AC01C301B2010E94D03EF62E172FC82E09
:1023A000092F29968FAD29978823B9F06F2D712FAA
:1023B0008C2D902F2DEB37E346E055EB0E945341D7
:1023C00087FD25C06F2D712F8C2D902F2BED3FE0B9
:1023D00049EC50E40E94573E16C06F2D712F8C2D92
:1023E000902F2DEB37E346E055E30E943C3F181653
:1023F00074F06F2D712F8C2D902F2BED3FE049EC59
:1024000050E40E94583EF62E172FC82E092F8090B8
:102410004B0790904C07A0904D07B0904E076985F0
:102420007A858B859C859B01AC010E94583EA50155
:1024300094010E94573E9B01AC01C501B4010E946A
:1024400090410E9425424B015C016F2D712F8C2D14
:10245000902F20E030E040E05FE30E94904129852A
:102460003A854B855C850E9490419F77A501940138
:102470000E94433F0E941A400E94B13F7A8B698BB1
:10248000DB01109709F4D3C1ED85FE85A084A3FE7E
:1024900017C080E090E00E94DD3F9B01AC01AD855C
:1024A000BE856D917D918D919C910E949041ED85AD
:1024B000FE8560837183828393838A2D877F8087E3
:1024C00029893A89B90180E090E00E94DD3F4B0103
:1024D0005C016F2D712F8C2D902FA50194010E940E
:1024E000433F362E7F8B888F998F3F85832F90E0D7
:1024F000880F991F880F991FAD89BE89A80FB91F32
:10250000B88BAF87EB89FC898E0F9F1FDC016D9123
:102510007D918D919C91EF85F88920813181428157
:1025200053810E94573EA50194010E94433F68AB2E
:1025300079AB8AAB9BAB4F89388D298D632D742F76
:10254000832F922FF901232D342F4F2F5E2F0E94BE
:1025500090419B01AC0160E070E080E090E40E945B
:10256000573EF62E072F182FC92E4F89388D298DEB
:10257000632D742F832F922F2BEA3AEA4AE25EE30F
:102580000E9490414B015C016F2D702F812F9C2D7B
:1025900020E030E040E850E40E94583E9B01AC014E
:1025A000C501B4010E9490416AA77BA78CA79DA793
:1025B0006F2D702F812F9C2D20E030E040E05FE3F5
:1025C0000E9490416EA77FA7982E10E021E030E096
:1025D0003A872987292E23C11C3008F05EC06D81FF
:1025E0007E818F819885BAA5ABA5FCA5EDA52B2F83
:1025F0003A2F4F2F5E2F0E9490416B017C01698121
:102600007A818B819C81BEA5AFA52B2F3A2F492DB6
:10261000522D0E9490419B01AC01C701B6010E945E
:10262000583EC62EA72E882E492E6D817E818F8121
:102630009885BEA5AFA52B2F3A2F492D522D0E946C
:102640009041F62E072FE82ED92E69817A818B8151
:102650009C81BAA5ABA5FCA5EDA52B2F3A2F4F2F3A
:102660005E2F0E9490419B01AC016F2D702F8E2D2B
:102670009D2D0E94573E262F372F482F592F2D83EF
:102680003E834F8358871F5F8C2D9A2DA82DB42D24
:1026900089839A83AB83BC8373C0A985BA85BD0146
:1026A00080E090E00E94DD3FAF89F88DE98D232D19
:1026B0003A2F4F2F5E2F0E9490417B018C017F2D7E
:1026C000912F0E94403F69837A838B839C836E2D78
:1026D0007F2D802F912F0E941B425B016C01EC8D9E
:1026E000FD8DE080F1800281138117FB109517F9B1
:1026F0001095A8A1B9A14D905D906D907C90C801F6
:10270000B70129813A814B815C810E9490416D83A0
:102710007E838F839887C301B201A60195010E9431
:1027200090419B01AC016D817E818F8198850E94D3
:10273000583E262F372F482F592F2D833E834F8306
:102740005887C801B701A60195010E9490417B01FD
:102750008C01C301B20129813A814B815C810E94C5
:1027600090419B01AC01C801B7010E94573E262F42
:10277000372F482F592F29833A834B835C8310E0EE
:102780005AA14BA13CA12DA1652F742F832F922F0D
:102790002D813E814F8158850E94583EEA8DFB8DE8
:1027A00060837183828393835EA14FA138A529A59D
:1027B000652F742F832F922F29813A814B815C8161
:1027C0000E94583EAE8DBF8D6D937D938D939C93EB
:1027D0001397EF85F8896081718182819381B8A90F
:1027E000A9A9FAA9EBA92B2F3A2F4F2F5E2F0E94F0
:1027F000583EAF85B8896D937D938D939C931397C5
:102800008D899E896D857E850E94AE108091FB0525
:10281000882399F4E985FA853196FA87E98729852D
:102820003A8589899A892817390708F4D5CE8B8982
:102830009C896D857E850E94AE10E3960FB6F89454
:10284000DEBF0FBECDBFCF91DF911F910F91FF90E3
:10285000EF90DF90CF90BF90AF909F908F907F9040
:102860006F905F904F903F902F900895EF92FF925E
:102870000F931F937B018C018091FA05823039F010
:102880000E94B122C801B70140E00E94AC151F911F
:102890000F91FF90EF9008950E949F0D84E00E9499
:1028A0002C0E83E00E942C0E0E94A1218091FB053A
:1028B000882331F40E948E020E94A41D0E94AA0D5A
:1028C0000895FF920F931F93CF93DF93EC018B0139
:1028D000F42E8091FA05823009F45BC00E94B12287
:1028E0008091FB05882309F056C01092FF0581E016
:1028F000F3FE80E00E94AF1F0E94C71F882349F0AB
:1029000084E00E942D3E0E94A12180E00E94AF1F22
:1029100042C0CE01B8010E94AE1081E080930D0646
:1029200082E00E945A3C0E94A1218091FB058823ED
:1029300091F58091FA058823B1F780910D068130D9
:1029400081F4F4FE0AC0AEE0B6E0EAE1F6E08CE025
:1029500001900D928150E1F708C085E00E942D3E64
:1029600004C081E0EAEFF5E0858310920D0680E077
:102970000E94AF1F0E94A1210E9448310E94F418BA
:102980000E94A41D0E94572581E09091FF05992384
:1029900019F480E001C082E0DF91CF911F910F9187
:1029A000FF90089580910C0684FD1DC080E10E9477
:1029B0005A3C0E94182D0E94AC019091FA05892F73
:1029C0008C7221F48091FE05867069F0943031F4A8
:1029D00080912606882329F486E001C083E00E94C6
:1029E0002D3E0E947A2E08956F927F928F929F9231
:1029F000AF92BF92CF92DF92EF92FF920F931F930D
:102A0000CF93DF933C014B015A01FB018081F3011D
:102A1000E80FF11DEF0129912D3221F4218121963A
:102A200001E005C02B3211F42181219600E0F0E095
:102A3000E0E010E060E070E080E090E0A22FA053C2
:102A4000AA30F8F4EF5FE930C0F4F11111509B01A6
:102A5000AC01B2E0220F331F441F551FBA95D1F7C6
:102A6000620F731F841F951F660F771F881F991FA2
:102A70006A0F711D811D911D09C0FF2339F41F5F6D
:102A800005C0AE3F29F4FF2319F4F1E02991D6CF18
:102A9000EE2309F451C00E94DD3FC62ED72EE82E4A
:102AA000F92E20E030E040E050E00E943C3F8823D7
:102AB00071F431C0C701B6012AE037ED43E25CE3AF
:102AC0000E949041C62ED72EE82EF92E1E5F1F3F82
:102AD0008CF31F3F79F46C2D7D2D8E2D9F2D2DECC9
:102AE0003CEC4CEC5DE30E949041C62ED72EE82EC4
:102AF000F92E11C0112379F0C701B60120E030E0B2
:102B000040E251E40E949041C62ED72EE82EF92EC5
:102B1000115011168CF3002321F0F7FAF094F7F816
:102B2000F094F501C082D182E282F38260946C0E4F
:102B3000F401608281E001C080E0DF91CF911F91BC
:102B40000F91FF90EF90DF90CF90BF90AF909F904C
:102B50008F907F906F900895EF92FF921F93CF9385
:102B6000DF93142F20E030E040EA51E40E949041CE
:102B70000E94293F0E94B13FEB0180E9E82E81E0ED
:102B8000F82E17C08091FB058823A9F4112319F4AE
:102B90000E94A12106C00E94EA1F8091FC0581FDD0
:102BA0000AC084EF91E0F7013197F1F70197D9F767
:102BB0002197209739F7DF91CF911F91FF90EF90E8
:102BC000089520EA3FE004C0F9013197F1F7019739
:102BD0000097D1F7089540EA5FE020E931E0B5E3DE
:102BE000A5E031C06A3071058105910540F4EA2FF6
:102BF000EA95F1F7615070408040904024C06436FF
:102C000071058105910540F4EB2FEA95F1F76A50C3
:102C100070408040904017C0683EE3E07E07E0E0EF
:102C20008E07E0E09E0740F4F9013197F1F7645612
:102C300070408040904007C0FA013197F1F7685E1C
:102C4000734080409040611571058105910551F6F2
:102C50000895AF92BF92CF92DF92EF92FF920F93BF
:102C60001F937B018C0159016A01A80197010E9401
:102C700090417B018C01C601B501A60195010E941E
:102C800090419B01AC01C801B7010E94583E0E94CF
:102C900025421F910F91FF90EF90DF90CF90BF9052
:102CA000AF9008956F927F929F92AF92BF92CF9212
:102CB000DF92EF92FF920F931F93CF93DF93EC017C
:102CC0003C01CC24BB24AA249924DD24F301E19007
:102CD000F190019111913F01C801B70120E030E06E
:102CE00040E050E00E943C3F882391F0C801B701CA
:102CF000A80197010E9490419B01AC016C2D7B2D96
:102D00008A2D992D0E94583EC62EB72EA82E992E98
:102D1000D394FD2DF330D1F66C2D7B2D8A2D992D7A
:102D20000E942542A62E972E682E192F60E070E093
:102D300080E89FE32A2D392D462D512F0E94433FD5
:102D4000E62ED72EC82EB92E688179818A819B8183
:102D50002E2D3D2D4C2D5B2D0E9490416883798353
:102D60008A839B836C817D818E819F812E2D3D2D59
:102D70004C2D5B2D0E9490416C837D838E839F83BD
:102D8000688579858A859B852E2D3D2D4C2D5B2D63
:102D90000E949041688779878A879B876A2D792D61
:102DA000862D912FDF91CF911F910F91FF90EF9082
:102DB000DF90CF90BF90AF909F907F906F900895DD
:102DC0006F927F928F929F92AF92BF92CF92DF923B
:102DD000EF92FF920F931F93CF93DF933C01862EC8
:102DE000972EC0E0D0E049E9D42E36E7C32E26E97D
:102DF000B22E9EE7A92EF401E190F190019111917C
:102E00004F01C801B70120E030E040E050E00E94EF
:102E10003C3F8823F9F0F301EC0FFD1F60817181C5
:102E200082819381A80197010E94433F7B018C011D
:102E3000E89417F9A6019501652F7C2D832F9A2D13
:102E4000A80197010E943C3F87FD04C0DE2CCF2CD7
:102E5000B02EA12E2496CC30D10569F6A60195019D
:102E6000652F7C2D832F9A2DDF91CF911F910F918C
:102E7000FF90EF90DF90CF90BF90AF909F908F909A
:102E80007F906F9008952F923F924F925F926F9232
:102E90007F928F929F92AF92BF92CF92DF92EF92EA
:102EA000FF920F931F93DF93CF9300D00F92CDB774
:102EB000DEB710910801112309F410E11150C09000
:102EC00007011C1509F46BC1A12EBB2482E390E01D
:102ED000A89E7001A99EF00CB89EF00C112449E048
:102EE00051E0E40EF51EF7017696D70156969C90B8
:102EF00056976180828073805A962D913D914D91B5
:102F00005C915D97CA01B9010E94583EF701268D78
:102F1000378D40A151A10E949041E62E072FF82E37
:102F2000D92E692D762D882D972D2E2D302F4F2DB2
:102F30005D2D0E943C3F87FF04C0E92C062DF82C34
:102F4000D72C82E390E0A89EF001A99EF00DB89ED8
:102F5000F00D1124E75FFE4F8E2D902FAF2DBD2D6C
:102F6000828B938BA48BB58B112309F410E1115044
:102F70001C1589F082E390E0A89E7001A99EF00CD8
:102F8000B89EF00C112449E051E0E40EF51E92E3E6
:102F9000492E512C70C080910601C81609F070C0EE
:102FA0000E9498316DC0C12EDD24C49C3001C59CA7
:102FB000700CD49C700C112489E091E0680E791E8D
:102FC000112309F410E1115080910601181711F432
:102FD0000E949831C49C1001C59C300CD49C300CCC
:102FE0001124A9E0B1E02A0E3B1EF101A688B788A2
:102FF000C08CD18C6289738984899589A6019501D9
:103000000E943C3F8823B1F1D1015A962D913D9108
:103010004D915C915D97CA01B9010E94583EF10142
:10302000268D378D40A151A10E949041D701529623
:103030002D913D914D915C9155970E94583E062FE0
:10304000F72EE82E992EA60195010E943C3F87FF9E
:103050000AC0802F9F2DAE2DB92DF101828B938B4D
:10306000A48BB58B07C0D1015296AD92BD92CD9283
:10307000DC925597730180910701181709F093CFDF
:1030800000910701202F30E082E390E0289FF001BB
:10309000299FF00D389FF00D1124E75FFE4FFB8351
:1030A000EA83102F1F5F103109F410E0F09108013E
:1030B000F98382E3282E312C6CC0412E5524429C8A
:1030C0007001439CF00C529CF00C112449E051E03B
:1030D000E40EF51EAA81BB815296AD90BD90CD90B5
:1030E000DC905597F7016288738884889588C601BB
:1030F000B501A40193010E943C3F87FF2EC0AA8125
:10310000BB815A962D913D914D915C915D97CA017D
:10311000B9010E94583EEA81FB81268D378D40A17E
:1031200051A10E9490419B01AC01C601B5010E94D2
:10313000583ED62EA72EC82EB92EA40193010E9468
:103140003C3F87FF0AC08D2D9A2DAC2DBB2DF7017A
:10315000828B938BA48BB58B012F429CF001439CF7
:10316000F00D529CF00D1124E75FFE4F62897389C8
:103170008489958926893789408D518D0E943C3FED
:10318000882309F4012F1F5F103109F410E0FB823E
:10319000EA82F9811F1709F090CF009307010F9081
:1031A0000F900F90CF91DF911F910F91FF90EF90B3
:1031B000DF90CF90BF90AF909F908F907F906F9057
:1031C0005F904F903F902F9008958F5F803109F46A
:1031D00080E00895109206011092080181E080932A
:1031E00045041092070108958CE1E9E2F4E0DF0163
:1031F0001D928A95E9F70E94EA18089590910601B8
:1032000080910801891769F0892F8F5F803109F457
:1032100080E020910701921711F4809307018093B9
:10322000060108954091080150E082E390E0489F34
:103230009001499F300D589F300D1124275F3E4F5C
:10324000C90108954091060180910801841769F031
:1032500050E082E390E0489F9001499F300D589FD5
:10326000300D1124275F3E4F02C020E030E0C9013D
:103270000895209106012F5F203109F420E080910C
:1032800008012817C9F030E082E390E0289FF001A0
:10329000299FF00D389FF00D1124E75FFE4FDF01ED
:1032A0005296728911966C91119712969C91129771
:1032B00013968C91139704C070E060E090E080E07A
:1032C000AB019C01652F742F832F922F089581E00D
:1032D0002091060190914504291380E00895AF9252
:1032E000BF92CF92DF92EF92FF920F931F93CF93F3
:1032F000DF93EC01DAA4CBA4BCA4ADA4898980FF40
:103300001DC06091020670E0882777FD8095982F98
:103310000E94DF3F2AE037ED43E25CE30E949041E8
:103320009B01AC01D601F5016B2F7A2F8F2F9E2FB9
:103330000E9490418B01F82EE92E35C082FD1DC000
:103340006091010670E0882777FD8095982F0E9494
:10335000DF3F2AE037ED43E25CE30E9490419B01AE
:10336000AC01D601F5016B2F7A2F8F2F9E2F0E9473
:103370009041D62EC72EB82EA92E0EA11FA1F8A4BB
:10338000E9A4A6019501652F7C2D832F9A2DF701C5
:10339000202F312F4F2F5E2F0E94534118161CF003
:1033A0000D2D1C2D75019701602F712F832F9E2DE0
:1033B00020E030E040E85FE30E945341181634F00B
:1033C00000E010E030E8F32E2FE3E22E9701602FAB
:1033D000712F832F9E2DDF91CF911F910F91FF9021
:1033E000EF90DF90CF90BF90AF9008954F925F9293
:1033F0006F927F928F929F92AF92BF92CF92DF9205
:10340000EF92FF920F931F93CF93DF9310910601DA
:1034100009E976E7F72E66E9E62E5EE7D52E42E368
:10342000442E512C5EC0612E7724649CE001659C83
:10343000D00D749CD00D1124C75FDE4FCE010E94C9
:103440006F19B62EA72E982E892EA5019401652FEF
:10345000742F832F922F202F3F2D4E2D5D2D0E94F4
:10346000534118164CF4602F7F2D8E2D9D2DB02FBB
:10347000AF2DFE2DED2D08C0A5019401652F742FF1
:10348000832F922FD501F4012B2F3A2F4F2F5E2F30
:103490000E9490416E8B7F8B888F998F649CE00196
:1034A000659CD00D749CD00D1124C75FDE4FCAA05F
:1034B000DBA0ECA0FDA06E897F89888D998DA70186
:1034C00096010E945341181624F4CE8ADF8AE88EB2
:1034D000F98E1F5F103109F410E00B2DFA2CE92C46
:1034E000D82C80910801181709F09DCF802F9F2DAF
:1034F000AE2DBD2D8093410490934204A0934304CC
:10350000B0934404DF91CF911F910F91FF90EF9002
:10351000DF90CF90BF90AF909F908F907F906F90F3
:103520005F904F9008952F923F924F925F926F92CB
:103530007F928F929F92AF92BF92CF92DF92EF9243
:10354000FF920F931F93DF93CF93CDB7DEB7C25493
:10355000D0400FB6F894DEBF0FBECDBF1B01E09088
:103560000801FF2422E330E0E29EA001E39E500D1B
:10357000F29E500D1124475F5E4F5AAB49ABE9A94B
:10358000FAA922E3DF011D922A95E9F7FB01608584
:10359000DA0151966C932481358146815781E9A9DE
:1035A000FAA926A737A740AB51ABDE011D9661FFF4
:1035B00008C0EAE1F6E02CE001900D922150E1F71D
:1035C00007C0E9E2F4E02CE001900D922150E1F710
:1035D000882E992EF2E14F2EF7E05F2E9E012F5F8D
:1035E0003F4F3AAF29AFAE01435F5F4F5CAF4BAF88
:1035F00082E390E0E89E8001E99E100DF89E100D98
:103600001124075F1E4FCE01499698AF8FAB9EAF36
:103610008DAF6624D8011C962196BFAFAEAF21971F
:10362000F80170962396FFAFEEAF23975701D401B0
:103630006D917D918D919D914D01D2012D913D9185
:103640004D915D912D012BAB3CAB4DAB5EAB0E9420
:1036500090410E9460419B01AC01E9ADFAAD21931C
:10366000319341935193FAAFE9AFEBADFCAD81914A
:103670009191A191B191FCAFEBAF281B390B4A0B93
:103680005B0BDA01C90157FF07C088279927DC01C6
:10369000821B930BA40BB50BF80180839183A2834B
:1036A000B3830C5F1F4F2196EEADFFAD2197C08015
:1036B000D180E280F3808C159D05AE05BF0510F426
:1036C000D701C6012196EEADFFAD2197808391838E
:1036D000A283B383CA01B9010E94DF3F2BA93CA991
:1036E0004DA95EA90E94433F9B01AC01ADADBEADAB
:1036F0002D933D934D935D93BEAFADAF20E030E091
:1037000040E050E00E943C3F87FF0EC02396EEADA4
:10371000FFAD2397E080862D0E94F52C8E292396FD
:10372000AEADBFAD23978C936394B62DB33009F043
:103730007ECF750182E390E0A89E8001A99E100DC6
:10374000B89E100D1124075F1E4FF80184859585E2
:10375000A685B7850097A105B10509F4D8C1E9E1AF
:10376000CE2ED12CCC0EDD1EC6010E945216D801E1
:103770005E966D937D938D939C9391978AE297E0EB
:10378000B6010E94E016F801628F738F848F958FC7
:103790008EE197E0B6010E94E016D80196966D93EF
:1037A0007D938D939C93999751962C91519720FFDF
:1037B00006C0F80162A773A784A795A71AC0D10114
:1037C0006D917D918D919C911397F80162A773A7DC
:1037D00084A795A723FF0DC0268D378D40A151A149
:1037E0000E949041D8019A966D937D938D939C93FE
:1037F0009D979091080180910601981771F082E3DE
:1038000090E0E89EF001E99EF00DF89EF00D112485
:10381000E75FFE4F818981FF14C082E390E0E89E5C
:10382000F001E99EF00DF89EF00D1124E75FFE4FC8
:1038300080E090E0A0E0B0E0828B938BA48BB58B0E
:10384000DCC005E314E0FE01B596FCABEBABDD2478
:10385000CC24BB24AA24D8012D903D904D905D909E
:103860008D01EFA9F8AD6190719081909190F8AFC2
:10387000EFABC201B101A40193010E9490419B01F1
:10388000AC01D601F5016B2F7C2D8F2F9A2D0E9454
:10389000573ED62EC72EB82EA92EC401B301A201C1
:1038A00091010E94573EABA9BCA96D937D938D9366
:1038B0009D93BCABABABB4E001341B0761F6A60132
:1038C0009501652F742F832F922F2FEE3FEF4FE737
:1038D0005FE30E945341181684F482E390E0E89E6F
:1038E000F001E99EF00DF89EF00D1124E75FFE4F08
:1038F00080E090E0A0E0B0E080C0A6019501652FD7
:10390000742F832F922F2FEE3FEF4FE75FEB0E9434
:103910003C3F87FF10C082E390E0E89EF001E99E03
:10392000F00DF89EF00D1124E75FFE4F89E996E750
:10393000A6E9BEE762C08E010B5D1F4FC8010E9461
:1039400052168AE297E0B8010E94E0163B014C0152
:1039500060E070E080E89FE3D601F5012B2F3A2F5D
:103960004F2F5E2F0E94573E20E030E040E05FE3A3
:103970000E9490410E9425425B016C01C401B30189
:1039800020914707309148074091490750914A07D5
:103990000E949041A60195010E9490413B014C017B
:1039A00060E070E080E89FE3A60195010E94573E29
:1039B0009B01AC01C401B3010E94433FD62E072FE7
:1039C000C82EB92E20E030E040E050E00E943C3F9D
:1039D00087FF04C0DD2400E0CC24BB2482E390E018
:1039E000E89EF001E99EF00DF89EF00D1124E75FCE
:1039F000FE4F8D2D902FAC2DBB2D82A393A3A4A39E
:103A0000B5A382E390E0E89E8001E99E100DF89E48
:103A1000100D1124075F1E4FF801818981FD79C0C7
:103A200089A99AA90E946F195B016C0160904104F9
:103A3000709042048090430490904404A401930148
:103A40000E945341181674F4C401B301A4019301F8
:103A50000E949041D80156966D937D938D939C93CF
:103A600059970BC0C601B501A60195010E9490416E
:103A7000F801668B778B808F918F82E390E0E89ED0
:103A80008001E99E100DF89E100D1124075F1E4F56
:103A9000D80192966D907D908D909C9095975696BA
:103AA0006D917D918D919C915997A40193010E94F4
:103AB000534118162CF4F801668A778A808E918E0D
:103AC000A0924104B0924204C0924304D0924404B4
:103AD000A5E3B4E0FE0179968CE001900D9281504F
:103AE000E1F7A9E2B4E0FE0131968CE001900D927D
:103AF0008150E1F780914504809308018F5F803108
:103B000009F480E0809345040E94431702C080E0DE
:103B100001C081E0CE5BDF4F0FB6F894DEBF0FBE71
:103B2000CDBFCF91DF911F910F91FF90EF90DF906C
:103B3000CF90BF90AF909F908F907F906F905F904D
:103B40004F903F902F90089580911A0690911B06F8
:103B5000A0911C06B0911D068093290490932A041D
:103B6000A0932B04B0932C0480911E0690911F0605
:103B7000A0912006B091210680932D0490932E04ED
:103B8000A0932F04B09330048091220690912306D5
:103B9000A0912406B09125068093310490933204BD
:103BA000A0933304B0933404089590910801809158
:103BB0000601981718F0815F891B08958150891BB1
:103BC00008958091080190910601891710F0891BD2
:103BD0000895805F891B08950E94983180910601A5
:103BE000809307010E9443170895EF92FF92CF93AD
:103BF000DF93E82EE7017E01F92EE70102C00E9463
:103C0000F22889918823D9F7DF91CF91FF90EF9027
:103C10000895CF93DF93EC0102C00E94F228FE01C9
:103C2000219684918823C9F7DF91CF9108950F934E
:103C30001F93843630F06AE00E948B42192F105D8A
:103C400003C08A3038F010E06AE00E948B42092FEE
:103C5000005D02C010E000E0805D0E94F2280023B9
:103C600019F0802F0E94F228112319F0812F0E9451
:103C7000F2281F910F910895DF92EF92FF920F9318
:103C80001F93DF93CF93CDB7DEB7EDB6FEB62DB75A
:103C90003EB7261B31090FB6F8943EBF0FBE2DBFAD
:103CA0000DB71EB70F5F1F4FF80190E005C0282F1A
:103CB0002170219386959F5F9617C8F3D62E09C071
:103CC000F801ED0DF11D31978081805D0E94F22891
:103CD000DA94DD20A9F70FB6F894FEBE0FBEEDBE54
:103CE000CF91DF911F910F91FF90EF90DF9008959A
:103CF0008F929F92AF92BF92CF92DF92EF92FF92FC
:103D00001F93DF93CF93CDB7DEB72A970FB6F89402
:103D1000DEBF0FBECDBF611571058105910521F490
:103D200080E30E94F22826C010E04E010894811C16
:103D3000911C2AE0C22ED12CE12CF12C5401A10EB1
:103D4000B11CA70196010E94AB42F50160831F5F81
:103D5000B901CA01611571058105910579F708C09E
:103D6000FE01E10FF11D8081805D0E94F22811505B
:103D70001123B1F72A960FB6F894DEBF0FBECDBF60
:103D8000CF91DF911F91FF90EF90DF90CF90BF9088
:103D9000AF909F908F900895EF92FF920F931F9393
:103DA0007B018C0197FF0AC08DE20E94F2286627F2
:103DB0007727CB016E197F09800B910B0E94781E2B
:103DC0001F910F91FF90EF9008956F927F928F92C5
:103DD0009F92AF92BF92CF92DF92EF92FF920F939A
:103DE0001F93DF93CF93CDB7DEB72D970FB6F8941F
:103DF000DEBF0FBECDBF7B018C01D42E20E030E0B2
:103E000040E050E00E943C3F87FF07C08DE20E94E7
:103E1000F22817FB109517F91095CD2C0EC0C8018C
:103E2000B70120E030E048EC52E40E949041E62ED9
:103E3000F72E082F192F8EEFC80EEC2DE23078F7F1
:103E4000D0FE0EC06E2D7F2D802F912F20E030E010
:103E500040E251E40E949041E62EF72E082F192FE0
:103E6000C801B70120E030E040E05FE30E94583E27
:103E70000E94AC3FEE243E010894611C711C3AE0A4
:103E8000832E912CA12CB12C0DC083010E0D111D80
:103E9000A50194010E94AB42605DF8016083E39448
:103EA000B901CA01611571058105910571F706C057
:103EB000FC01EE0DF11D2083E39403C0CE010196B9
:103EC00020E3ED14A8F3ED1499F4FE01EE0DF11DBD
:103ED00080E38183E3940CC0ED1419F48EE20E9418
:103EE000F228FE01EE0DF11D80810E94F228EA9475
:103EF000EE2091F72D960FB6F894DEBF0FBECDBF22
:103F0000CF91DF911F910F91FF90EF90DF90CF90B5
:103F1000BF90AF909F908F907F906F900895209169
:103F2000570720FF08C02BE832E441E25DE30E941E
:103F3000904144E001C043E00E94E51E08952091B5
:103F4000570720FF08C02BE832E441E25DE30E94FE
:103F5000904141E001C040E00E94E51E08951092AA
:103F600027069091570797FD03C090E2909327068C
:103F7000882331F08091270690E2892780932706D5
:103F800008950D98159A80E00E94AF1F089580B1A2
:103F9000807290912706892708950E94C71F882361
:103FA00081F010920D06AEE0B6E0EAE1F6E08CE0BA
:103FB00001900D928150E1F780910C06806480930E
:103FC0000C0608950E942219009719F082E00E94C1
:103FD0005A3C08951F93CF93DF9310912606112327
:103FE000A9F081E08093FA05812F0E94D623115019
:103FF000123050F481E00E94E72380E10E94233ECA
:1040000080910C0684FFFCCF0E94333E10910C0679
:10401000112309F407C1C12FD0E09E0124FF04C081
:1040200081E08093FB0589C1CE0180FF05C00E941D
:10403000E22681E00E94233ECE01887E90700097A8
:1040400009F46AC08091FA0590E09C0123703070F9
:104050002115310509F04FC0887290700097A1F0CA
:104060008091FC05807C81F40E94983182E08093ED
:10407000FE058091FA05803239F417FD05C0809164
:10408000FC0580688093FC058091FA05882319F46B
:1040900091E09093FC05C6FF07C085FD05C08091A7
:1040A000FC0580648093FC05C3FF07C08091FA057E
:1040B000807E19F480E18093FA05C5FF1CC086E07C
:1040C0000E94E7238091FC0587FD10C09091FA05BE
:1040D000903439F483FF07C0837E82608093FC05AF
:1040E00002C0903819F080E48093FA058091FC05B5
:1040F00080628093FC0517FF0CC08091FA05813027
:1041000029F48091FC0585608093FC0580E880930C
:10411000FA0588EE0E94233ECE01C1FF45C0887695
:1041200090700097F1F58091FA05803471F49091C8
:10413000FC0595FD0AC094FF03C01092FA0505C066
:1041400092FF03C098609093FC058091FA05882344
:1041500081F084FF26C09091FC0590FF22C0803141
:1041600041F480910406882321F08860809304063E
:1041700018C01092FE050E942219009771F08091DC
:10418000FC0586FD0AC01092FC0588E08093FA05C4
:104190000E94BC310E94622E04C01092FC05109255
:1041A000FA0582E00E94233EC2FF3CC08091FA05DE
:1041B000807DB9F08091FD05882399F48091FC05FC
:1041C00087FD0FC00E94EC1D9091FE0591FF05C078
:1041D0008091FC0581608093FC05997F9093FE059A
:1041E0001EC08091FC0587FF0AC01092FE050E9448
:1041F000F4180E9448310E948E020E94A41D8091F2
:10420000FC0585FF08C08F7781608093FC0580E402
:104210008093FA0504C01092FC051092FA0584E020
:104220000E94233E1091F905112389F10E944B3E13
:1042300040910106912F10FF02C084E601C0842F37
:1042400091FD865F92FD8A5093FD8F5F94FD8150B2
:10425000893C08F088EC8A3008F48AE03091020644
:1042600095FF02C024E601C0232F96FD22E317FD2F
:1042700029E1841711F4231751F08093010620934C
:104280000206109205060E94F6190E94EC1D10917C
:104290000B06112309F44BC00E94513E30910306D6
:1042A000812F90E010FF02C024E601C0232F81FD82
:1042B000265F82FD2A5083FD2F5F84FD2150293C1B
:1042C00008F028EC2A3008F42AE0231749F030914E
:1042D000FE0538603093FE05209303061092050614
:1042E00085FF0FC02091FA05203159F42091040672
:1042F000222311F422E003C020FF03C02460209396
:104300000406807C9070009791F08091FA058823D4
:1043100011F0887161F01091870516FF02C01F7BB4
:1043200001C01064812F0E94B20110938705809113
:10433000FA058C7F11F00E94BC31DF91CF911F9163
:104340000895BF92CF92DF92EF92FF920F931F9347
:104350000E94EA1F8091FC05882309F4FAC00E949C
:104360002219FC01009771F4C0908705809188059F
:10437000C82AE0908A05F0908B0500918C05109179
:104380008D0505C0C188E6A4F7A400A911A98091F4
:10439000570781FFD2C080E20E94423ECEC090917A
:1043A000FB05992309F0D5C0982F80FFC3C08091E9
:1043B000FA05282F207C09F476C092FD13C01092D4
:1043C000040680E040E050E060E070E00E94152EBE
:1043D00080E00E94B2018091FC058D7F8460809313
:1043E000FC05A8C08038B9F48BE00E94E72380E088
:1043F00040E050E060E070E00E94152E80E00E94F6
:10440000B2010E947A2E02C00E94EA1F8091FB0531
:104410008823D1F39EC0803449F40E94BF3B882397
:1044200029F48091FC058F7D8093FC058091FC052B
:1044300083FF80C0909188059923C1F081FD16C04B
:104440008091570781FF06C08091FE0588608093A8
:10445000FE050CC08D2DB801A7010E94152E60E04D
:1044600070E080E890E441E00E94AC1580918705FF
:10447000882371F08091FC0581FD0AC08C2D0E947B
:10448000B20160E070E080E89FE341E00E94AC157B
:104490008091FC0581FD4EC080618093FC0582E027
:1044A0000E945A3C47C0809104068823A9F190E0FD
:1044B00081FF0EC080918805882359F180E040E09B
:1044C00050E060E070E00E94152EB092040632C009
:1044D0008C709070009771F180918805882391F01D
:1044E0008AE00E94E7238091570781FF06C08091F0
:1044F000FE0588608093FE0505C08D2DB801A701DB
:104500000E94152E8091040683FF03C082E00E9462
:104510005A3C109204060EC08091FE0583FF0AC02B
:104520008D2DB801A7010E94152E8091FE05877F71
:104530008093FE050E94EA1F07C080E3D82EDC208E
:10454000BB24B39480E4C8228091FC05882309F041
:1045500026CF1F910F91FF90EF90DF90CF90BF90EB
:1045600008950E94E21F0E94A1218091FB058823EB
:1045700041F40E9422190097B1F78091FA05883022
:1045800091F308950F931F938091570783FF0AC0FB
:104590000E94C20D882331F081E08093FA0587E004
:1045A0000E94E7238091FA05817839F082E00E9429
:1045B000E72381E08093FA053DC01092FA050E943E
:1045C000BF3B882339F080910C06806280930C06F3
:1045D0000E94A12186E494E00E94C13B2BC08A3056
:1045E00011F08D3051F50E94A1218091FB058823A7
:1045F00009F055C0E02FF0E0EA5BFB4F108210FF9E
:1046000002C08BE015C080914604882389F0843273
:1046100029F486E494E00E94633C0AC08091FA0584
:10462000817211F089E004C086E494E00E94950252
:104630000E94C22300E010E025C0112321F089323E
:1046400009F51D7F1FC08132E8F08F32D9F0883222
:10465000A1F08B33A1F00F34A0F4982F9156202FA6
:1046600030E00F5F9A3120F42A5B3B4F805202C04A
:104670002A5B3B4FF901808305C012E003C014E0C0
:1046800001C011E00E9439298F3F09F0A8CF0E9494
:10469000E21F0E94A1218091FB05882399F31F91BD
:1046A0000F9108958FE991E00E94091E08958DE50C
:1046B0000E94F2280E94522308958AED91E00E9400
:1046C000091E08958DED91E00E94091E0895CF9373
:1046D000DF93EC01688179818A819B810E948F1F21
:1046E0008CE20E94F2286C817D818E819F810E94E4
:1046F0008F1F8CE20E94F228688579858A859B85C8
:104700000E948F1FDF91CF9108951F93182F84E28D
:104710000E94F228812F0E94171E8DE30E94F2282A
:104720001F910895DF93CF930F92CDB7DEB76983C2
:104730000E9485236981862F0E94171E0E945223A2
:104740000F90CF91DF910895EF92FF920F931F93F7
:10475000DF93CF930F92CDB7DEB77A018B01298318
:104760000E948523C801B7012981422F0E94E51EBE
:104770000E9452230F90CF91DF911F910F91FF90D4
:10478000EF9008951F93182F882329F48DE093E06C
:104790000E94091E09C086E093E00E94091E812F35
:1047A0000E94171E0E9452231F9108951F93182FD5
:1047B0008FEF92E00E94091E812F0E94171E0E9417
:1047C000522384EF91E00E94E1151F9108951F93F9
:1047D000182F89EF92E00E94091E163069F11730F8
:1047E00070F4133001F1143028F41130B1F01230AC
:1047F000B1F516C01430D1F0153089F51AC0193052
:1048000021F11A3028F41730D1F0183041F51AC0D0
:104810001A30F1F01B3019F51EC087EE92E01DC072
:1048200083ED92E01AC081EC92E017C089EB92E030
:1048300014C080EB92E011C085EA92E00EC088E9D6
:1048400092E00BC080E992E008C08DE792E005C0DD
:104850008BE692E002C082E692E00E94091E0E946E
:1048600057231F91089585E492E00E94091E089540
:104870008BEF91E00E94091E0895FF920F931F9302
:10488000CF93DF936091420780E070E00E94922313
:104890006091450781E070E00E9492236091430798
:1048A00082E070E00E9492236091440783E070E010
:1048B0000E9492238091570761E070E082FD02C060
:1048C00060E070E084E00E9492238091570761E0ED
:1048D00070E086FD02C060E070E085E00E949223F7
:1048E00080915707992787FD9095692F661F662746
:1048F000661F86E070E00E949223609146078AE07E
:1049000070E00E94922340914707509148076091C0
:10491000490770914A078BE023E00E94A42340914D
:104920004B0750914C0760914D0770914E078CE0FA
:1049300023E00E94A4236091570770E061707070BB
:104940008DE00E9492238091570761E070E085FD21
:1049500002C060E070E084E10E94922380915707DA
:1049600061E070E083FD02C060E070E085E10E94DC
:1049700092238091570761E070E084FD02C060E0FF
:1049800070E086E10E9492236091580787E170E011
:104990000E9492234091590750915A0760915B07FA
:1049A00070915C0788E123E00E94A42340915D0799
:1049B00050915E0760915F077091600789E123E085
:1049C0000E94A42360916107709162078AE10E94AE
:1049D000922340916307509164076091650770913D
:1049E00066078BE123E00E94A42340914F0750917A
:1049F000500760915107709152078EE120E00E94AC
:104A0000A42340915307509154076091550770912A
:104A100056078FE120E00E94A4238091570761E0B0
:104A200070E081FD02C060E070E080E20E949223AD
:104A300084E6F82E10E031C0123071F01330C9F066
:104A4000113029F0488159816A817B8117C04C85DA
:104A50005D856E857F8512C0688D798D8A8D9B8D71
:104A600020E030E041E655E40E94433FAB01BC0149
:104A700005C04CA15DA16EA17FA17058802F23E0DD
:104A80000E94A42324960F5F87E0CE31D807A1F6B9
:104A90001F5F143031F08AE0F80EC2E1D7E00F2D2D
:104AA000CBCFDF91CF911F910F91FF9008950F937E
:104AB0001F93DF93CF93CDB7DEB72C970FB6F89443
:104AC000DEBF0FBECDBF85EF91E00E94091E8E01B3
:104AD0000F5F1F4FC8016EE076E00E94023CC801E4
:104AE0000E9467238AE30E94F2288091FF050E94BA
:104AF000171E0E9457232C960FB6F894DEBF0FBEE8
:104B0000CDBFCF91DF911F910F910895FF920F9329
:104B10001F93DF93CF93CDB7DEB72C970FB6F894E2
:104B2000DEBF0FBECDBFFF248E010F5F1F4F8F2D45
:104B3000B8010E94642B882321F487E00E94C223DD
:104B40003EC082EF91E00E94091E8F2D863019F041
:104B5000873049F403C08FEE91E002C08CEE91E003
:104B60000E94091E04C08F2D8A5C0E94171E8AE3D2
:104B70000E94F228C8010E9467230E945723F394E1
:104B80008F2D8830A1F686EE91E00E94091E8FEAF3
:104B900095E00E9467230E94572380EE91E00E94D7
:104BA000091E6091BB057091BC058091BD05909177
:104BB000BE050E948F1F0E9457230E9457252C96E6
:104BC0000FB6F894DEBF0FBECDBFCF91DF911F911E
:104BD0000F91FF90089584ED91E00E94091E80914D
:104BE0007F058C3838F080ED91E00E94091E80919D
:104BF0007F058A580E94171E0E945D2380918505BB
:104C00008A5C0E94171E0E945D23809183058F5E3F
:104C10000E94171E0E945D239091810585E1891BEA
:104C20000E94171E0E945D2380918205865A0E9471
:104C3000171E0E945D23909180058EE5891B0E94BE
:104C4000171E80918605882389F00E946223809137
:104C50008605833029F08E3139F0823039F404C072
:104C600080E30E94F22802C00E94171E0E94622365
:104C700080918805803129F0803229F0882329F03D
:104C800007C083E303C084E301C085E30E94F228E8
:104C90000E94622380918705882311F088E301C078
:104CA00089E30E94F2288DEC91E00E94091E809118
:104CB00092050E94171E8AEC91E00E94091E6091E5
:104CC0008E0570918F0580919005909191050E94BD
:104CD0009F1F87EC91E00E94091E60918A057091E8
:104CE0008B0580918C0590918D0540E00E94E51E1A
:104CF0000E94572308951F93CF93DF93182FEB0142
:104D000084EC91E00E94091E812F0E94171E8DE302
:104D10000E94F228CE010E94F51D0E945223DF91CD
:104D2000CF911F9108950F931F93DF93CF930F920D
:104D3000CDB7DEB78C018EE369830E94F228C801EB
:104D40000E94F51D8AE30E94F2286981862F0E9445
:104D5000C2230F90CF91DF911F910F910895CF93B0
:104D6000DF93EC0180EB91E00E94091ECE010E94CE
:104D7000F51D0E9457238AEA91E00E94091E86E5EC
:104D80000E94F2288CE20E94F2288FE00E94171EF7
:104D90008CE20E94F22880E80E94171E0E9457238E
:104DA000DF91CF910895CF93DF93EC0182EA91E0F8
:104DB0000E94091ECE010E94F51D0E945723DF911B
:104DC000CF9108954F925F926F927F928F929F92B0
:104DD000AF92BF92DF92EF92FF920F931F93DF93F8
:104DE000CF93CDB7DEB7A4970FB6F894DEBF0FBE52
:104DF000CDBFDE011196EAE1F6E08CE001900D9264
:104E00008150E1F7CE010D96BE016F5F7F4F0E948A
:104E1000023C8CE30E94F2288091FA058830E1F090
:104E2000893050F4813071F1813098F0823069F12D
:104E3000843009F047C023C08032F1F0813220F481
:104E4000803109F03FC00BC0803411F18038D1F5BA
:104E500035C08AE991E034C086E991E031C08091A3
:104E6000FC0587FD09C080E991E00E94091E809140
:104E7000FC0580FF1BC01CC08CE891E021C087E8C6
:104E800091E01EC081E891E01BC08BE791E018C063
:104E900085E791E00E94091E8091FC0583FF02C016
:104EA00083E309C082FF06C085FF02C081E303C01F
:104EB00080E301C082E30E94F22804C08FE691E003
:104EC0000E94091E8091460790E051E0852E912CAA
:104ED0008822992280FF05C080910606882309F068
:104EE00065C04090BB055090BC056090BD057090BA
:104EF000BE05DD245E010894A11CB11CED2CFF242D
:104F0000D701AA0FBB1FAA0FBB1FAD55BA4FF701A0
:104F1000EE0FFF1FEE0FFF1FE155FA4F6D917D91D0
:104F20008D919C9120813181428153810E94583E14
:104F30008701000F111F000F111F0A0D1B1D262FC7
:104F4000372F482F592FF801208F318F428F538FE1
:104F5000FD2DF23049F4A30192010E94583EF80160
:104F6000608F718F828F938F81149104B9F48701C0
:104F7000000F111F000F111F0A0D1B1DF801648582
:104F8000758586859785208D318D428D538D0E9444
:104F9000573EF8016487758786879787D394FD2DE0
:104FA000F33009F0ABCF8114910419F088E691E059
:104FB00002C081E691E00E94091ECE010D960E947A
:104FC00067238091460781FF0FC08CE591E00E9426
:104FD000091E0E94D51D0E94171E8CE20E94F22815
:104FE0000E94C0280E94171E87E591E00E94091EBA
:104FF0000E944F3B0E949F1F8CE20E94F22860910A
:105000000706709108068091090690910A0640E013
:105010000E94E51E0E94C20DE82E0E94783B082FD8
:105020000E94C71FD82E802F8E298D2959F182E525
:1050300091E00E94091EDD2019F080E50E94F2280F
:10504000EE2079F0E0FE03C088E50E94F228E1FE40
:1050500003C089E50E94F228E2FE03C08AE50E94AF
:10506000F228002379F000FF03C082E50E94F228B5
:1050700001FF03C088E40E94F22802FF03C083E519
:105080000E94F22880910606882321F081508093A7
:10509000060618C08091FA058C7711F08DE101C0E9
:1050A00089E08093060680910506882319F481E043
:1050B000809305068CE491E00E94091ECE0149967A
:1050C0000E94672380910506882321F081508093F8
:1050D00005063BC08091FA058C7711F083E101C091
:1050E00089E08093050687E491E00E94091E809183
:1050F00001060E94171E8CE20E94F228809102068F
:105100000E94171E8CE20E94F228809103060E94E2
:10511000171E0E94092D082F0E94A801E82E0023C7
:1051200011F4882391F083E491E00E94091E00238A
:1051300039F0013011F483E501C083E40E94F228C4
:10514000E0FE03C086E40E94F2288EE30E94F2286B
:105150000E945223A4960FB6F894DEBF0FBECDBFB7
:10516000CF91DF911F910F91FF90EF90DF90BF9053
:10517000AF909F908F907F906F905F904F90089529
:105180008091970490919604981718F08058891B85
:1051900008958150891B08959091970480919604F9
:1051A000891710F0891B08958058891B08959091E4
:1051B000990480919804891710F0891B08958759E4
:1051C000891B0895E0ECF0E080818260808310927A
:1051D000C50080E18093C400E1ECF0E08081886943
:1051E00080830895E09198049E2F9F5F993639F44B
:1051F00005C020910C0624FF02C0089590E0209184
:1052000099049217B1F3F0E0E85DF94F8083909331
:1052100098048091C10080628093C10008951F921C
:105220000F920FB60F9211248F939F93EF93FF93DA
:1052300080919904E82FF0E0E85DF94F9081909318
:10524000C6008F5F893609F480E0809399049091BD
:105250009804891729F48091C1008F7D8093C10043
:10526000FF91EF919F918F910F900FBE0F901F9024
:1052700018959091970480919604891761F0E92F11
:10528000F0E0EF56F94F80819F5F913809F490E08C
:105290009093970408958FEF08951F920F920FB681
:1052A0000F9211242F933F934F935F936F937F93AC
:1052B0008F939F93AF93BF93EF93FF938091C6001B
:1052C000813299F0823218F4883189F405C08F3325
:1052D00031F08E3761F405C00E94D21455C081E0D0
:1052E00001C082E00E945A3C4FC088E0FBCF87FF9C
:1052F0003AC090E0845890408D31910508F044C048
:10530000825C9F4FFC01EE0FFF1F0590F491E02D92
:10531000099480E2E7CF8091FA0585FF35C080E4EB
:10532000E1CF81E00DC082E00BC084E009C088E0DD
:1053300007C080E105C080E203C080E401C080E8CE
:105340000E94393E21C081E00BC082E009C084E0A8
:1053500007C088E005C080E103C080E201C080E4AE
:105360000E94423E11C0E09196049E2F9F5F9138AB
:1053700009F490E020919704921731F0F0E0EF5695
:10538000F94F808390939604FF91EF91BF91AF9175
:105390009F918F917F916F915F914F913F912F914D
:1053A0000F900FBE0F901F901895809196048093D8
:1053B000970408950F931F93DF93CF930F92CDB768
:1053C000DEB78B0189830E94B12291E58981899F93
:1053D000C001112480509D4FB80140E550E00E946B
:1053E000F6010F90CF91DF911F910F910895BC01AD
:1053F0008EEA93E040E550E00E94F60108950F9395
:105400001F93DF93CF930F92CDB7DEB78B018983C4
:105410000E94B1229DE08981899FC00111248050A2
:105420009E4FB8014CE050E00E94F6010F90CF91E2
:10543000DF911F910F91089580E090E06AE00E9453
:10544000DB0181E090E062E177E045E550E00E9419
:10545000F6010895DF92EF92FF920F931F93DF936F
:10546000CF93CDB7DEB72C970FB6F894DEBF0FBE43
:10547000CDBF082F80FFAFC08AE08093420789E14B
:1054800080934507109243071092440781E0809370
:1054900046078AE097EDA3E2BCE380934707909329
:1054A0004807A0934907B0934A078FE692E1A3E02B
:1054B000BBE380934B0790934C07A0934D07B093A9
:1054C0004E0780E090E0AAE7B4E480934F07909302
:1054D0005007A0935107B093520780E090E0A0E0FE
:1054E000B0E08093530790935407A0935507B0936F
:1054F00056071092580780E090E0A8ECB1E4809342
:10550000590790935A07A0935B07B0935C0780E01C
:1055100090E0AAEFB3E480935D0790935E07A093B9
:105520005F07B09360072AEF30E030936207209363
:10553000610720E030E040E85FE3209363073093A9
:105540006407409365075093660710925707E2E19E
:10555000F7E020E030E04AE753E42093120730936D
:10556000130740931407509315072483358346830C
:105570005783208731874287538784879587A687FB
:10558000B787808B918BA28BB38B848B958BA68BEB
:10559000B78B80E090EAACE0B7E4808F918FA28F68
:1055A000B38F848F958FA68FB78F80A391A3A2A36B
:1055B000B3A380E090E0A8E4B3EC84A395A3A6A3F2
:1055C000B7A380A791A7A2A7B3A784A795A7A6A7CB
:1055D000B7A70E941C2A01FF14C09E012F5F3F4FF6
:1055E0008CE0F90111928A95E9F7FF24D22EE32E7F
:1055F0008F2D6D2D7E2D0E94FF29F394FF2DF83005
:10560000B9F702FF14C080E093E060E00E94DB0184
:1056100081E093E060E00E94DB0181E593E060E0DF
:105620000E94DB0182E593E060E00E94DB0103FF62
:105630000AC08EEA93E060E00E94DB018FEA93E00B
:1056400060E00E94DB012C960FB6F894DEBF0FBE1F
:10565000CDBFCF91DF911F910F91FF90EF90DF9021
:1056600008951F93CF93DF93182FEB0161E5869F79
:10567000B001112460507D4FCE0140E550E00E9402
:105680003402009739F41882812FBE010E94DA2972
:1056900080E001C081E0DF91CF911F910895CF9309
:1056A000DF93EC016EEA73E040E550E00E943402C3
:1056B000009731F41882CE010E94F72980E001C0E2
:1056C00081E0DF91CF910895FF920F931F93F82E01
:1056D0008B012DE0829F9001112420503E4FCB0181
:1056E000B9014CE050E00E943402009759F48CE07C
:1056F000D8011D928A95E9F78F2DB8010E94FF29E4
:1057000080E001C081E01F910F91FF90089580E03B
:1057100090E00E94D3018A3059F482E197E061E081
:1057200070E045E550E00E94340221E0009709F462
:1057300020E0822F0895DF92EF92FF920F931F9344
:10574000CF93DF93D82E7A018B01CB01BA0120E0F1
:1057500030E040E050E00E943C3F87FD20C18D2DAD
:10576000843608F456C0845690E0833008F048C070
:10577000913089F0913030F09230B1F0933009F0EF
:105780000AC12DC0C82FD0E0CC0FDD1FCC0FDD1F0C
:10579000CE5ED84F30C0C82FD0E0CC0FDD1FCC0F6D
:1057A000DD1FC25ED84F27C0C82FD0E0CC0FDD1F51
:1057B000CC0FDD1FC65DD84FC801B70120E030E037
:1057C00040E752E40E94904120E030E040E752E49C
:1057D0000E949041688379838A839B83DCC0C82FB1
:1057E000D0E0CC0FDD1FCC0FDD1FCA5CD84F17FBFC
:1057F000109517F91095E882F9820A831B83CBC0B4
:105800008A3008F4CEC09F5F943009F4CAC08A5031
:10581000ACCFC801B7010E946A420E94B13FCD2DB2
:10582000D0E0C132D10508F0BCC0C55ADF4FFE013F
:10583000EE0FFF1F0590F491E02D0994633008F4FA
:10584000B2C060934207A7C060934507A4C06093AD
:10585000430702C0609344070E940C319CC08091B2
:105860005707662311F0846094C08B7F92C08091AB
:105870005707662311F080648CC08F7B8AC08091AB
:105880005707662311F0806801C08F778093570710
:1058900080E00E94AF1F7FC0609346077CC0E0920B
:1058A0004707F09248070093490710934A0773C0CF
:1058B000E0924B07F0924C0700934D0710934E0770
:1058C0006AC080915707662311F0816001C08E7F06
:1058D000809357070E94E13B5EC080915707662383
:1058E00021F084FF62C0806254C08F7D52C08091DD
:1058F0005707662311F0886001C0877F80935707A0
:105900000E94AA0D48C080915707662311F080615C
:1059100040C08F7C3EC0609358073DC0E09259075D
:10592000F0925A0700935B0710935C0734C0E09233
:105930005D07F0925E0700935F07109360072BC02E
:10594000609361071092620726C0E0926307F092AD
:10595000640700936507109366071DC0E0924F0728
:10596000F0925007009351071093520708C0E0923D
:105970005307F092540700935507109356070E945F
:105980001E2D09C080915707662311F0826001C067
:105990008D7F809357070E941C2A80E007C084E017
:1059A00005C083E003C086E001C08AE0DF91CF91AB
:1059B0001F910F91FF90EF90DF9008950E94872B29
:1059C000882341F487E00E94C2238FEF0E942A2A95
:1059D0000E943D240895882321F0813021F482E043
:1059E000089581E0089584E00895882321F08130AE
:1059F00021F480E1089588E0089580E208958823E5
:105A000021F0813021F484E0089582E0089580E15E
:105A100008958091B00087FF09C088B18095881FE4
:105A20008827881F92E0981B892F089580E00895A9
:105A3000E0EBF0E080818F7780830895579A83E0D0
:105A40008093B00084E08093B1003F9A60914F074B
:105A50007091500780915107909152072091530700
:105A60003091540740915507509156070E94573E78
:105A70009B01AC0160E070E08EE793E40E94433F3D
:105A800060939A0470939B0480939C0490939D046C
:105A90000E94182D08958093B300882321F48091EB
:105AA000B0008F7703C08091B00080688093B00011
:105AB00008952F923F924F925F926F927F928F92B2
:105AC0009F92AF92BF92CF92DF92EF92FF920F938D
:105AD0001F931B012C0110910306A0905307B09057
