:100000001CC035C048C032C08EC030C02FC02EC00A
:100010002DC02CC02BC02AC029C028C027C026C094
:1000200025C024C023C030C239C242C24BC254C210
:100030005DC266C26FC278C281C211241FBECFEDFD
:10004000CDBF10E0A0E6B0E0E8E2F6E002C0059027
:100050000D92A036B107D9F710E0A0E6B0E001C0DC
:100060001D92AF37B107E1F78DD2DCC2C9CF1F9225
:100070000F920FB60F9211248F9380917D008823E9
:1000800019F481E080937D00909A8F910F900FBEBC
:100090000F901F9018951F920F920FB60F92112478
:1000A0002F933F934F935F936F937F938F939F9380
:1000B000AF93BF93EF93FF9380917D00813009F55B
:1000C00010927D002091790030917A0040917B0060
:1000D00050917C0060E170E480E090E066D2C9015C
:1000E000DA018093660090936700A0936800B09354
:1000F00069001092790010927A0010927B001092A1
:100100007C009098FF91EF91BF91AF919F918F915B
:100110007F916F915F914F913F912F910F900FBE03
:100120000F901F9018951F920F920FB60F921124E7
:100130002F938F939F93AF93BF9380917D008130D6
:10014000B9F58091790090917A00A0917B00B091EF
:100150007C00885E9D4FA040B040A4F4809179005F
:1001600090917A00A0917B00B0917C000196A11D36
:10017000B11D8093790090937A00A0937B00B09397
:100180007C0016C087EE93E0A0E0B0E080936600AC
:1001900090936700A0936800B09369001092790073
:1001A00010927A0010927B0010927C0010927D00D9
:1001B000BF91AF919F918F912F910F900FBE0F9094
:1001C0001F901895B89AB99ABA9ABB9ABC9ABD9AD8
:1001D000BE9ABF9AC09AC19AC29AC39AC49AC59A43
:1001E000C69AC79A8C9A8D9A8E9A949A959A969A4C
:1001F00008952F923F924F925F926F927F928F92CB
:100200009F92AF92BF92CF92DF92EF92FF920F93A5
:100210001F93CF93DF9342E8442E512C32E9232ED3
:10022000312C29E9822E912C90EB692E712C84EAD5
:10023000A82EB12CC9EFD0E000ECC02ED12CE0915B
:100240006000709162006091640018C0949A959A61
:10025000969AE8BB9498959A969A949A959A969AB3
:1002600078BB949A9598969A949A959A969A68BB20
:10027000949A959A9698949A959A969A209166004F
:1002800030916700409168005091690080916A0048
:1002900090916B00AA2797FDA095BA2F28173907D0
:1002A0004A075B0799F22091660030916700409100
:1002B00068005091690080916A0090916B00AA27B4
:1002C00097FDA095BA2F281739074A075B07B1F2A7
:1002D0008091660090916700A0916800B0916900DC
:1002E0000A97A105B105C4F410926D0010926C003C
:1002F00010926F0010926E008091660090916700DE
:10030000A0916800B0916900909371008093700093
:1003100021E02093720022C18091660090916700D5
:10032000A0916800B091690084369105A105B105DE
:10033000DCF510926D0010926C00E0906600F09079
:1003400067000091680010916900609166007091EB
:10035000670080916800909169002AE030E040E0F9
:1003600050E023D1E61AF70A080B190BC801B701B0
:100370002AE030E040E050E018D130936F00209345
:100380006E006091660070916700809168009091A6
:1003900069002AE030E040E050E007D1709371003E
:1003A000609370008AE05CC0809166009091670065
:1003B000A0916800B0916900885E9340A040B04071
:1003C0000CF0CCC0E0906600F090670000916800EF
:1003D00010916900609166007091670080916800DB
:1003E0009091690024E630E040E050E0DED0E61A6B
:1003F000F70A080B190BC801B70124E630E040E00A
:1004000050E0D3D030936D0020936C006091660073
:100410007091670080916800909169002AE030E057
:1004200040E050E0C2D0CA01B9012AE030E040E02B
:1004300050E0BBD070936F0060936E0060916600D7
:100440007091670080916800909169002AE030E027
:1004500040E050E0AAD0709371006093700084E691
:10046000809372007BC0E0917E00F0E0EE0FFF1FF2
:10047000E459FF4F0190F081E02DEA30F10508F0DA
:1004800068C0ED5EFF4F0994E0917E00F0E0EE0F52
:10049000FF1FE05AFF4FD182C0825BC0E0917E0017
:1004A000F0E0EE0FFF1FE05AFF4FD183C08351C031
:1004B000E0917E00F0E0EE0FFF1FE05AFF4FB182A7
:1004C000A08247C0E0917E00F0E0EE0FFF1FE05AEF
:1004D000FF4F718260823DC0E0917E00F0E0EE0F40
:1004E000FF1FE05AFF4F9182808233C0E0917E006F
:1004F000F0E0EE0FFF1FE05AFF4F3182208229C04B
:10050000E0917E00F0E0EE0FFF1FE05AFF4F5182B6
:1005100040821FC0E0917E00F0E0EE0FFF1FE05A26
:10052000FF4F88EF90E013C0E0917E00F0E0EE0F07
:10053000FF1FE05AFF4F80E890E009C0E0917E0085
:10054000F0E0EE0FFF1FE05AFF4F80E990E091834B
:10055000808380917E008F5F80937E0080917E00FB
:10056000833008F480CF8091660090916700A0915D
:100570006800B091690090936B0080936A001092BC
:100580007E005DCE889A90988FE085BF10EC1BBFEF
:1005900089E08EBD80E489BF84E690E09BBD8ABD82
:1005A00011DE18BB789425DEFECF97FB092E0526B9
:1005B0000ED057FD04D014D00AD0001C38F450954A
:1005C0004095309521953F4F4F4F5F4F0895F6F777
:1005D00090958095709561957F4F8F4F9F4F0895AF
:1005E000A1E21A2EAA1BBB1BFD010DC0AA1FBB1F37
:1005F000EE1FFF1FA217B307E407F50720F0A21BA9
:10060000B30BE40BF50B661F771F881F991F1A9415
:1006100069F760957095809590959B01AC01BD013F
:08062000CF010895F894FFCF0B
:00000001FF
