:100000000C94DC000C94AD020C9443030C94F900A6
:100010000C94F9000C94F9000C94F9000C94F9007C
:100020000C94F9000C94F9000C94F9000C94F9006C
:100030000C94F9000C94CF020C94F9000C94F90084
:100040000C94F9000C94F9000C94F9000C94F9004C
:100050000C942D040C9459040C94F9000C94F900A0
:100060000C94F9000C94F9000C94F9000C94F9002C
:100070000C94F9000C94F9000C94F9007365745217
:100080005443202A2A3A2A2A3A2A2A006C636444D2
:10009000726177006C6364447261772A2A2A2A00AD
:1000A0006C6364582A2A592A006C6364436C656146
:1000B00072006C65644F6666006C65642A000040DF
:1000C0007A10F35A00A0724E18090010A5D4E80067
:1000D00000E87648170000E40B54020000CA9A3B7F
:1000E000000000E1F5050000809698000000404205
:1000F0000F000000A0860100000010270000000093
:10010000E803000000006400000000000A00000096
:1001100000000100000000002C76D888DC674F0842
:1001200023DFC1DFAE59E1B1B796E5E3E453C63A48
:10013000E651997696E8E6C28426EB898C9B62EDBF
:10014000407C6FFCEFBC9C9F40F2BAA56FA5F49079
:10015000055A2AF75C936B6CF9676DC11BFCE0E4F0
:100160000D47FEF520E6B500D0ED902E0300943546
:1001700077050080841E080000204E0A000000C899
:100180000C333333330F986E12831141EF8D2114EA
:10019000893BE65516CFFEE6DB18D1844B381BF7BA
:1001A0007C1D901DA4BBE424203284725E22810059
:1001B000C9F124ECA1E53D2711241FBECFEFD0E10A
:1001C000DEBFCDBF12E0A0E0B1E0E8E3F6E202C09E
:1001D00005900D92A232B107D9F712E0A2E2B2E087
:1001E00001C01D92A13AB107E1F70E94F9030C94F6
:1001F0001A130C940000159887FD159A149886FD23
:10020000149A139885FD139A129884FD129A119AE4
:1002100085E08A95F1F7119808951F93182F0E9491
:10022000FB00812F8295807F0E94FB0088EC90E08C
:100230000197F1F71F9108951F93182F10980E94AE
:100240000D01143020F480E49FE10197F1F71F9134
:100250000895109A0E940D01809111018F5F809383
:1002600011010895CF93DF93EC0103C00E9429018F
:10027000219688818823D1F7DF91CF9108950F933C
:100280001F9380E80E941C0100E011E0C8010E9459
:10029000320180EC0E941C01C8010E94320180E8FA
:1002A0000E941C011F910F9108950F931F930A9AAA
:1002B0000B9A0C9A0D9A089A099A119810982CE2A8
:1002C00031E040E951E0CA010197F1F72150304097
:1002D000D1F788E30E94FB0080E190E40197F1F7F9
:1002E00088E30E94FB0080E991E00197F1F788E341
:1002F0000E94FB0008EC10E0C8010197F1F780E2D2
:100300000E94FB00C8010197F1F788E20E941C01DE
:1003100088E00E941C0181E00E941C0186E00E948E
:100320001C018EE00E941C011F910F9108958430E2
:1003300009F1853048F48130B9F0813098F082308D
:10034000A9F0833031F514C08730D1F0883028F41B
:10035000853091F08630E9F411C0883099F0893009
:10036000C1F414C080E30FC081E30DC082E30BC071
:1003700083E309C084E307C085E305C086E303C0C7
:1003800087E301C088E30E942901089589E30E9460
:1003900029010895CF93DF93EC018A30910510F481
:1003A0000E949701CE010A978A35910578F4CE0113
:1003B0006AE070E00E94A40F862F0E949701CE0190
:1003C0006AE070E00E94A40F0E949701CE0184565B
:1003D00090408458934038F4CE0164E670E00E9467
:1003E000A40F862F2FC0CE01885E9340885293427F
:1003F00038F4CE0168EE73E00E94A40F862F16C079
:1004000087E2C031D8079CF1CE0160E177E20E941B
:10041000A40F862F0E949701CE0168EE73E00E9420
:10042000A40FCB016AE070E00E94A40F0E94970124
:10043000CE0164E670E00E94A40FCB016AE070E098
:100440000E94A40F0E949701CE016AE070E00E9412
:10045000A40FCB016AE070E00E94A40F0E949701F4
:10046000CE016AE070E00E94A40F0E949701DF9124
:10047000CF9108951F93182F8A3010F40E9497018E
:10048000812F8A508A3568F4812F6AE00E94980F84
:100490000E949701812F6AE00E94980F892F0E9485
:1004A00097011436B0F0812F64E60E94980F0E94E5
:1004B0009701812F6AE00E94980F0E94980F892F60
:1004C0000E949701812F6AE00E94980F892F0E9455
:1004D00097011F910895409A3898419A3998429A05
:1004E0003A98439A3B985A9A5298089536B186B1F1
:1004F00026B196B1917038708470832B892B22704D
:10050000282B20932302809123028095809323023D
:100510008091230290E08F709070892BD9F08091A8
:100520002302807FB9F020E030E08091230290E048
:10053000022E02C0959587950A94E2F780FF04C0C9
:10054000822F8F5F809324022F5F3F4F243031052D
:1005500061F708951092240208951F920F920FB62A
:100560000F9211248F939F9380913702882319F45F
:1005700081E0809337028091250290912602892B99
:1005800039F45C9A81E090E09093260280932502F2
:100590009F918F910F900FBE0F901F9018951F92F3
:1005A0000F920FB60F9211241F932F933F934F93E7
:1005B0005F936F937F938F939F93AF93BF93EF93CB
:1005C000FF9380913702813009F04BC08091270260
:1005D000209128023091290240912A0260912B0239
:1005E000E0912C02A0912D0210912E02B82FB65F3F
:1005F00091E0B81708F090E0F92FF20F81E0F217C0
:1006000008F080E0782F730F81E0731708F080E026
:10061000582F540F81E0541708F080E0382F360F20
:1006200081E0361708F080E0282F2E0F81E02E178A
:1006300008F080E0982F9A0F81E09A1708F080E088
:10064000810FB0932702F0932802709329025093F0
:100650002A0230932B0220932C0290932D02809338
:100660002E02FF91EF91BF91AF919F918F917F915A
:100670006F915F914F913F912F911F910F900FBEFE
:100680000F901F9018951F920F920FB60F92112482
:10069000AF92BF92CF92DF92EF92FF920F931F9390
:1006A0002F933F934F935F936F937F938F939F937A
:1006B000AF93BF93EF93FF9380913702813009F09E
:1006C00074C0109237020E943F0183E80E941C010F
:1006D00020912702309128024091290250912A024C
:1006E00080912B0280912C0280912D0280912E020C
:1006F000B901CA014FE252E02AE030E00E94AB109B
:100700008FE292E00E943201A0902702B09028026E
:10071000C0902902D0902A02E0902B02F0902C0287
:1007200000912D0210912E0220E43DE043E050E0C4
:1007300060E070E080E090E00E947007B901CA01BB
:100740004FE252E02AE030E00E94AB108091270295
:10075000909128022091290230912A0240912B0287
:1007600050912C0260912D0270912E02892B822BC8
:10077000832B842B852B862B872B39F083EC0E94CF
:100780001C018FE292E00E94320110922702109227
:1007900028021092290210922A0210922B02109223
:1007A0002C0210922D0210922E028091250290911F
:1007B0002602019729F45C981092260210922502D5
:1007C000FF91EF91BF91AF919F918F917F916F9129
:1007D0005F914F913F912F911F910F91FF90EF905B
:1007E000DF90CF90BF90AF900F900FBE0F901F90F3
:1007F000189552985398549A559A5A9A5B9A5C98BD
:100800005D9A209A219A229A239A249A259A269AC6
:10081000279A589859985B985C985D985E985F986D
:1008200089E08093810082E080936F0080E190E016
:1008300090938900809388008FE08093690083E023
:100840008DBB0E94550182E191E00E9432015B9ACA
:1008500078945D980E943F01FFCF1F920F920FB6D0
:100860000F9211242F938F939F93EF93FF93909167
:10087000C0002091C600E0917A02EF5FEF71809195
:100880007B02E81711F482E008C0892F8871E09399
:100890007A02F0E0E85AFD4F208380937C02FF91BA
:1008A000EF919F918F912F910F900FBE0F901F90FE
:1008B00018951F920F920FB60F9211248F939F934A
:1008C000EF93FF939091780280917902981769F0E5
:1008D000E0917902EF5FEF71E0937902F0E0E85C7C
:1008E000FD4F80818093C60005C08091C1008F7D3F
:1008F0008093C100FF91EF919F918F910F900FBE58
:100900000F901F9018951092780210927902109211
:100910007A0210927B022FEF20937D029093C50004
:100920008093C40088E98093C10086E08093C20070
:10093000089590917A0280917B02981719F420E033
:1009400031E012C0E0917B02EF5FEF71E0937B0238
:10095000F0E0E85AFD4F308120917C02922F80E038
:10096000AC01430F511D9A01C901089590917B027A
:10097000980F9F71E8E5F2E0E90FF11D808108957D
:10098000282F909178029F5F9F718091790298172C
:10099000E1F3E92FF0E0E85CFD4F208390937802CB
:1009A0008091C10080628093C1000895CF93DF934E
:1009B000EC0103C021960E94C00488818823D1F7EE
:1009C000DF91CF910895CF93DF93EC0102C00E9495
:1009D000C004FE01219684918823C9F7DF91CF914D
:1009E00008958F708A3010F0895C01C0805D0E948C
:1009F000C00408951F93182F82958F700E94F104F0
:100A0000812F0E94F1041F9108958AE00E94C00482
:100A10008DE00E94C00408958DE00E94C0040895F6
:100A20000F931F93082F10E004C088E00E94C004B9
:100A30001F5F1017D0F31F910F9108950F931F930D
:100A4000082F10E004C080E20E94C0041F5F10174E
:100A5000D0F31F910F9108958CE00E94C004089577
:100A6000AC0180917D0270E0992787FD9095681711
:100A7000790701F520E030E013C0FA01E20FF31F1F
:100A80009491E0917B02EF5FE20FEF71F0E0E85AA2
:100A9000FD4F8081981711F09A3261F42F5F3F4F1C
:100AA00080917D02992787FD9095281739072CF3AF
:100AB00081E0089580E0089580917D0208950F936C
:100AC0001F9382309105C1F400E010E00BC00E943A
:100AD0009904803230F0E12FF0E0EF57FD4F808332
:100AE0001F5F0F5F033099F7E12FF0E0EF57FD4FE5
:100AF000108221E832E06CC086309105C1F400E03C
:100B000010E00BC00E949904803230F0E12FF0E039
:100B1000EC57FD4F80831F5F0F5F073099F7E12F80
:100B2000F0E0EC57FD4F108224E832E051C08430F1
:100B30009105C1F400E010E00BC00E9499048032DE
:100B400030F0E12FF0E0EA56FD4F80831F5F0F5F2A
:100B5000053099F7E12FF0E0EA56FD4F108226E9C3
:100B600032E036C085309105C1F400E010E00BC0E2
:100B70000E949904803230F0E12FF0E0E556FD4FFD
:100B800080831F5F0F5F063099F7E12FF0E0E55695
:100B9000FD4F10822BE932E01BC00A97C1F400E040
:100BA00010E00BC00E949904803230F0E12FF0E099
:100BB000E557FD4F80831F5F0F5F0B3099F7E12FE3
:100BC000F0E0E557FD4F10822BE832E001C001C094
:100BD000C9011F910F9108951F93182F83E60E945A
:100BE000C004812F0E94C0041F9108951F930E948A
:100BF0009904182F8F3118F40E949904182F0E941D
:100C00009904812F81508F3118F0812F90E000C01E
:100C10001F9108950E945F050E94641080937F02D7
:100C2000909380020895DF92EF92FF920F931F93AB
:100C3000DF93CF93CDB7DEB728970FB6F894DEBF1A
:100C40000FBECDBF7B018C01D22E86E60E94C00470
:100C500088E00E94C004C801B70141E02D2D7E014B
:100C60000894E11CF11C87010E944310C7010E94F7
:100C7000D60428960FB6F894DEBF0FBECDBFCF9135
:100C8000DF911F910F91FF90EF90DF900895CF9328
:100C9000DF93EC0183E70E94C004FE010190002075
:100CA000E9F731978E2F8C1B0E94C00489910E9416
:100CB000C00488818823D1F7DF91CF910895EF9206
:100CC000FF920F931F93DF93CF93CDB7DEB72C978F
:100CD0000FB6F894DEBF0FBECDBF7C0189E60E943F
:100CE000C0048E010F5F1F4FF80101900020E9F74B
:100CF00031978E2F801B0E94C004C701B8014AE0C3
:100D000050E00E948210C8010E94D6042C960FB6B3
:100D1000F894DEBF0FBECDBFCF91DF911F910F9131
:100D2000FF90EF900895DF93CF93CDB7DEB7619733
:100D30000FB6F894DEBF0FBECDBFBE016F5F7F4F11
:100D40004AE050E00E9482100E94D60461960FB6DD
:100D5000F894DEBF0FBECDBFCF91DF910895EF9223
:100D6000FF920F931F9389EB90E064E00E9430059F
:100D70008823C9F1E0917B02EC5FEF71F0E0E85A63
:100D8000FD4FE081E23379F0E33320F4E13309F001
:100D9000A2C006C0E33379F0E43309F09CC017C069
:100DA0009BB1909538C08BB1869580958170880FE6
:100DB0009BB19D7F09C08BB186958695809581708A
:100DC000880F880F9BB19B7F982B9BB984C08BB1F8
:100DD00086958695869580958170880F880F880FF7
:100DE0009BB1977FF1CF82EB90E066E00E943005E7
:100DF0008823B9F05B989BB1969594708BB18B7FEB
:100E0000892B8BB99BB1969592708BB18D7F892B75
:100E10008BB99BB1969591708BB18E7F892B8BB9D5
:100E20005AC089EA90E068E00E943005882309F002
:100E300052C080EA90E068E00E9430058823C1F14A
:100E4000E0917B02E85FEF71F0E0E85AFD4FE0804F
:100E5000E0917B02EB5FEF71F0E0E85AFD4F00811B
:100E6000E0917B02EA5FEF71F0E0E85AFD4FF0801D
:100E700087E191E00E94D60480EFF80E8AE0089F97
:100E8000800111248F2D800F90E00E9493068CE248
:100E90000E94C00481EDE80E81E0E8228E2D8F5F74
:100EA00090E00E9493068EE191E00E94D60413C068
:100EB00084E990E06BE00E943005882361F48CE8BF
:100EC00090E067E00E943005882329F48CE790E0E9
:100ED0006FE00E9430051F910F91FF90EF900895F1
:100EE000A2E7B0E0E6E7F7E00C940C10982E892E0C
:100EF000712E88E0FE013196DF01682E1D926A9402
:100F0000E9F729833A834B835C836D837E839F82D9
:100F10009887FE013996DF011D928A95E9F7A98627
:100F2000BA86CB86DC86ED86FE860F87188B8D8190
:100F30009E81AF81B885B7FD07C0E1961CAE1DAE9E
:100F40001EAE1FAEE19764C0219581E0121608F035
:100F500080E0319591E0131608F090E0B32FB81BB4
:100F600081E03B1708F080E0982B419531E01416A2
:100F700008F030E0A42FA91B81E04A1708F080E0B8
:100F8000382B519591E0151608F090E0F52FF31BE2
:100F900081E05F1708F080E0982B619531E016162C
:100FA00008F030E0E62FE91B81E06E1708F080E0E2
:100FB000382B719541E0171608F040E0572F531B6E
:100FC00081E0751708F080E0482B892D819591E02C
:100FD000181608F090E0682E641A462D31E0861548
:100FE00008F030E0932B882D8195891B2983BA83E3
:100FF000AB83FC83ED835E834F8388872FEF3FEFC6
:101000004FEF5FEFE1962CAF3DAF4EAF5FAFE19793
:101010008D859E85AF85B889B7FF6AC0E1964CADD6
:101020005DAD6EAD7FADE197409550956095709543
:10103000E1964CAF5DAF6EAF7FAFE197A19481E0D9
:101040001A1408F080E0B19491E01B1408F090E0CD
:101050006B2D681B81E0B61608F080E0982BC194D8
:1010600021E01C1408F020E05C2D591B81E0C5161E
:1010700008F080E0282BD19491E01D1408F090E056
:101080004D2D421B81E0D41608F080E0982BE194AE
:1010900021E01E1408F020E03E2D391B81E0E3160C
:1010A00008F080E0282BF19491E01F1408F090E004
:1010B0007F2D721B272F81E0F71608F080E0982B18
:1010C000019511E0101608F010E0802F891B982F71
:1010D00081E0091708F080E0182B872D8195811B8E
:1010E000A9866A875B874C873D872E879F87888B79
:1010F00099812A813B814C815D816E817F81A885A8
:10110000B9851A850B85FC84ED84DE84CF84B8888C
:1011100088E0E1E18E2E912C8C0E9D1EF401682E4C
:1011200011926A94E9F7998B2A8B3B8B4C8B5D8BE0
:101130006E8B7F8BA88F9E01275E3F4FF901119226
:101140008A95E9F7B98F1A8F0B8FFC8EED8EDE8EA4
:10115000CF8EB8A2298C3A8C4B8C5C8CED8CFE8C9B
:101160000F8D18A169887A888B889C8821966CAE2F
:101170007DAE8EAE9FAE21976D887E888F88988CCD
:10118000E114F1040105110509F0D9C362147304D7
:101190008404950408F057C100E0201600E03006F2
:1011A00001E0400600E0500688F41FEF21163104EC
:1011B0004104510439F030F048E0E42EF12C012DC7
:1011C000112D18C0EE24FF24870114C020E0221640
:1011D00020E0320620E0420621E0520630F038E1FD
:1011E000E32EF12C012D112D05C020E1E22EF12C72
:1011F000012D112DD201C1010E2C04C0B695A79569
:10120000979587950A94D2F78F5D9E4FDC012C91BC
:1012100080E290E0A0E0B0E08E199F09A00BB10B36
:101220007C018D01E21AF10801091109E114F104B0
:1012300001051105D1F10E2C04C0220C331C441CF5
:10124000551C0A94D2F7A40193010E2C04C0220F5E
:10125000331F441F551F0A94D2F780E290E08E1985
:101260009F0921966CAC7DAC8EAC9FAC219704C0DD
:1012700096948794779467948A95D2F7622A732A12
:10128000842A952A2196ACACBDACCEACDFAC2197BC
:1012900004C0AA0CBB1CCC1CDD1CEA94D2F721961E
:1012A000ACAEBDAECEAEDFAE21976201EE24FF2420
:1012B0002996CCAEDDAEEEAEFFAE2997920181014C
:1012C000207030702D960CAF1DAF2EAF3FAF2D9715
:1012D000C401B301A70196010E94EA0F7B018C01B2
:1012E000C401B30129962CAD3DAD4EAD5FAD29973C
:1012F0000E94EA0FC901DA013C014D01C401B301AA
:101300002D962CAD3DAD4EAD5FAD2D970E94B70F24
:101310009B01AC018701FF24EE242196ACACBDAC4F
:10132000CEACDFAC2197C601AA27BB2757016801C5
:10133000A82AB92ACA2ADB2AA216B306C406D506E9
:10134000E0F408946108710881089108A20CB31CAC
:10135000C41CD51CA214B304C404D50470F0A21696
:10136000B306C406D50648F40894610871088108DC
:101370009108A20CB31CC41CD51CA21AB30AC40A3F
:10138000D50AC601B50129962CAD3DAD4EAD5FAD78
:1013900029970E94EA0F7B018C01C601B5012996AD
:1013A0002CAD3DAD4EAD5FAD29970E94EA0FC9014E
:1013B000DA015C016D01C601B5012D962CAD3DAD84
:1013C0004EAD5FAD2D970E94B70F9B01AC01870119
:1013D000FF24EE2421968CAD9DADAEADBFAD21971F
:1013E000A070B070E82AF92A0A2B1B2BE216F3062C
:1013F00004071507C0F40894A108B108C108D10872
:10140000E20CF31C041D151DE214F304040515057C
:1014100050F0E216F3060407150728F40894A10813
:10142000B108C108D108D301992788278601750121
:10143000E82AF92A0A2B1B2B2596ECAEFDAE0EAF3F
:101440001FAF2597EBC4211431044104510471F4FA
:1014500061E070E080E090E020E030E040E050E0CB
:101460000E94EA0FC901DA011C012D0100E02016DB
:1014700000E0300601E0400600E0500688F41FEF6F
:10148000211631044104510431F028F048E050E0C5
:1014900060E070E017C040E050E060E070E012C033
:1014A00020E0221620E0320620E0420621E052062B
:1014B00028F048E150E060E070E004C040E150E016
:1014C00060E070E0D201C101042E04C0B695A7957A
:1014D000979587950A94D2F78F5D9E4FDC012C91EA
:1014E000E0E2EE2EF12C012D112DD801C701841B55
:1014F000950BA60BB70B821B9109A109B1090097A7
:10150000A105B10561F464015301A218B308C40830
:10151000D50831E0632E712C812C912C24C1E396E7
:101520008FAFE397082E04C0220C331C441C551CBB
:101530000A94D2F7EE2DE81B640153010E2E04C06D
:10154000D694C794B794A7940A94D2F7A4019301B0
:10155000E3960FACE39704C0220F331F441F551FBF
:101560000A94D2F721966CAC7DAC8EAC9FAC2197DF
:101570000E2E04C096948794779467940A94D2F7B9
:1015800084017301E22AF32A042B152BE9AEFAAE8B
:101590000BAF1CAF32018824992492018101207085
:1015A000307061960CAF1DAF2EAF3FAF6197C60193
:1015B000B501A40193010E94EA0F7B018C01C601D1
:1015C000B501A40193010E94EA0FC901DA016596F1
:1015D0008CAF9DAFAEAFBFAF6597BC01CD0161963B
:1015E0002CAD3DAD4EAD5FAD61970E94B70F9B0135
:1015F000AC018701FF24EE24A9ACBAACCBACDCACC7
:10160000C601AA27BB275C016D01AE28BF28C02AEE
:10161000D12AA216B306C406D50660F565966CAD50
:101620007DAD8EAD9FAD659761507040804090401C
:1016300065966CAF7DAF8EAF9FAF6597A20CB31C64
:10164000C41CD51CA214B304C404D50498F0A2167B
:10165000B306C406D50670F46150704080409040D7
:1016600065966CAF7DAF8EAF9FAF6597A20CB31C34
:10167000C41CD51CA21AB30AC40AD50AC601B501F6
:10168000A40193010E94EA0F7B018C01C601B50100
:10169000A40193010E94EA0FC901DA013C014D0146
:1016A000C401B30161962CAD3DAD4EAD5FAD619708
:1016B0000E94B70F9B01AC018701FF24EE2489AD86
:1016C0009AADABADBCADA070B07057016801A82A4F
:1016D000B92ACA2ADB2AA216B306C406D506E0F444
:1016E00008946108710881089108A20CB31CC41CFD
:1016F000D51CA214B304C404D50470F0A216B3061A
:10170000C406D50648F40894610871088108910858
:10171000A20CB31CC41CD51C21968CAD9DADAEADE6
:10172000BFAD2197E3960FACE39704C0880F991FD4
:10173000AA1FBB1F0A94D2F721968CAF9DAFAEAF04
:10174000BFAF2197A21AB30AC40AD50A6596ECACBA
:10175000FDAC0EAD1FAD6597D70199278827682A84
:10176000792A8A2A9B2A82012227332769960CAF7D
:101770001DAF2EAF3FAF6997A2019101407050702D
:101780006D962CAF3DAF4EAF5FAF6D97C601B50103
:1017900069962CAD3DAD4EAD5FAD69970E94EA0FE5
:1017A0007B018C01C601B50169962CAD3DAD4EADF6
:1017B0005FAD69970E94EA0FC901DA01A1968CAF6B
:1017C0009DAFAEAFBFAFA197BC01CD016D962CAD63
:1017D0003DAD4EAD5FAD6D970E94B70F9B01AC0163
:1017E0008701FF24EE242196ACACBDACCEACDFACBF
:1017F0002197C601AA27BB2757016801A82AB92A41
:10180000CA2ADB2AA216B306C406D50660F5A1963D
:101810006CAD7DAD8EAD9FADA197615070408040A5
:101820009040A1966CAF7DAF8EAF9FAFA197A20CF9
:10183000B31CC41CD51CA214B304C404D50498F072
:10184000A216B306C406D50670F4615070408040FD
:101850009040A1966CAF7DAF8EAF9FAFA197A20CC9
:10186000B31CC41CD51CA21AB30AC40AD50AC601EB
:10187000B50169962CAD3DAD4EAD5FAD69970E9447
:10188000EA0F7B018C01C601B50169962CAD3DAD17
:101890004EAD5FAD69970E94EA0FC901DA015C01A4
:1018A0006D01C601B5016D962CAD3DAD4EAD5FAD80
:1018B0006D970E94B70F9B01AC018701FF24EE24B6
:1018C00021968CAD9DADAEADBFAD2197A070B0702F
:1018D000E82AF92A0A2B1B2BE216F3060407150740
:1018E000C0F40894A108B108C108D108E20CF31CA7
:1018F000041D151DE214F3040405150550F0E2164D
:10190000F3060407150728F40894A108B108C108D4
:10191000D108A196ECACFDAC0EAD1FADA197D701DF
:101920009927882796018501082B192B2A2B3B2BF9
:1019300025960CAF1DAF2EAF3FAF259772C26E1428
:101940007F048006910608F45FC220E0E21620E0E2
:10195000F20621E0020720E0120788F43FEFE316C9
:10196000F1040105110531F028F048E050E060E095
:1019700070E017C040E050E060E070E012C040E06E
:10198000E41640E0F40640E0040741E0140728F0C4
:1019900048E150E060E070E004C040E150E060E009
:1019A00070E0D801C701042E04C0B695A79597959D
:1019B00087950A94D2F78F5D9E4FDC012C9130E21F
:1019C000A32EB12CC12CD12CD601C501841B950BA3
:1019D000A60BB70B821B9109A109B1090097A105BC
:1019E000B10599F4E614F7040805190508F4FEC1D9
:1019F00021966CAC7DAC8EAC9FAC219762147304C5
:101A00008404950408F0F2C1FFC1E2968FAFE2971B
:101A1000082E04C0EE0CFF1C001F111F0A94D2F701
:101A20006A2D681BD201C101062E04C0B695A79588
:101A3000979587950A94D2F75C016D01AE28BF286F
:101A4000C02AD12AADAABEAACFAAD8AE720161011E
:101A5000E2960FACE29704C0CC0CDD1CEE1CFF1C20
:101A60000A94D2F7C9AADAAAEBAAFCAA6401530124
:101A7000062E04C0D694C794B794A7940A94D2F7BC
:101A8000D401C301E2960FACE29704C0880F991FFE
:101A9000AA1FBB1F0A94D2F72196ECACFDAC0EAD89
:101AA0001FAD219704C016950795F794E7946A95A2
:101AB000D2F737014801682A792A8A2A9B2A6DA61B
:101AC0007EA68FA698AAEDA8FEA80FA918AD38018A
:101AD000882499249801870120703070A5960CAF56
:101AE0001DAF2EAF3FAFA597C601B501A40193016D
:101AF0000E94EA0F7B018C01C601B501A40193018C
:101B00000E94EA0FC901DA011C012D01C201B101D5
:101B1000A5962CAD3DAD4EAD5FADA5970E94B70F1C
:101B20009B01AC018701FF24EE24ADA4BEA4CFA489
:101B3000D8A8C601AA27BB2757016801A82AB92A35
:101B4000CA2ADB2AA216B306C406D50600F50894F5
:101B50002108310841085108EDA8FEA80FA918ADC9
:101B6000AE0CBF1CC01ED11EAE14BF04C006D106F1
:101B700070F0A216B306C406D50648F408942108EE
:101B8000310841085108AE0CBF1CC01ED11EA21A5C
:101B9000B30AC40AD50AC601B501A40193010E9483
:101BA000EA0F7B018C01C601B501A40193010E94DB
:101BB000EA0FC901DA013C014D01C401B301A59648
:101BC0002CAD3DAD4EAD5FADA5970E94B70F9B010B
:101BD000AC018701FF24EE248DA59EA5AFA5B8A971
:101BE000A070B07057016801A82AB92ACA2ADB2A56
:101BF000A216B306C406D50600F50894610871085C
:101C0000810891086DA97EA98FA998ADA60EB71E6F
:101C1000C81ED91EA616B706C806D90670F0A216A9
:101C2000B306C406D50648F4089461087108810813
:101C30009108A60EB71EC81ED91ED601C501821B6B
:101C4000930BA40BB50B89A79AA7ABA7BCA7D1018F
:101C50009927882764015301A82AB92ACA2ADB2AAE
:101C60002596ACAEBDAECEAEDFAE25978601750132
:101C70002FEF3FEF40E050E0E222F3220423152350
:101C8000A60166277727AD964CAF5DAF6EAF7FAFED
:101C9000AD97A9A8BAA8CBA8DCA86FEF7FEF80E02A
:101CA00090E0A622B722C822D92289A99AA9ABA975
:101CB000BCA91D0144245524C801B701A601950102
:101CC0000E94B70FA9966CAF7DAF8EAF9FAFA9975B
:101CD000C801B701A20191010E94B70F3B014C015D
:101CE000AD966CAD7DAD8EAD9FADAD97A601950166
:101CF0000E94B70F7B018C01AD966CAD7DAD8EADB2
:101D00009FADAD97A20191010E94B70F5B016C01DD
:101D1000A8019701260D371D481D591DA9966CACC9
:101D20007DAC8EAC9FACA997C401AA27BB27280F16
:101D3000391F4A1F5B1F2E153F054007510748F406
:101D4000E12CF12C61E0062F112DAE0CBF1CC01E42
:101D5000D11ECA01AA27BB27BC01CD016A0D7B1D7C
:101D60008C1D9D1D69A47AA48BA49CA4661677067D
:101D70008806990650F1661577058805990509F0DA
:101D80004DC0D90199278827A9962CAD3DAD4EAD00
:101D90005FADA99740705070820F931FA41FB51FAD
:101DA00021962CAD3DAD4EAD5FAD2197E2960FACC7
:101DB000E29704C0220F331F441F551F0A94D2F725
:101DC000281739074A075B0748F525960CAD1DAD66
:101DD0002EAD3FAD25970150104020403040259654
:101DE0000CAF1DAF2EAF3FAF259718C066247724E8
:101DF000430121E030E040E050E025962CAF3DAFBC
:101E00004EAF5FAF25970DC066247724430125961A
:101E10001CAE1DAE1EAE1FAE259703C066247724F0
:101E20004301FE01B19688E0DF011D928A95E9F732
:101E30002596ACACBDACCEACDFAC2597A9A2BAA2BE
:101E4000CBA2DCA26DA27EA28FA298A622962FAD75
:101E500022973AA14BA15CA1662D7EA1DFA098A597
:101E6000E196ECACFDAC0EAD1FADE197E114F104D1
:101E70000105110509F456C0219581E0121608F0FC
:101E800080E03195E1E0131608F0E0E0932E981A17
:101E900081E0391508F080E0E82B4195F1E0141657
:101EA00008F0F0E0A42EAE1A81E04A1508F080E0B8
:101EB000F82B5195E1E0151608F0E0E0B52EBF1AB9
:101EC00081E05B1508F080E0E82B6195F1E01616E3
:101ED00008F0F0E0A62FAE1B81E06A1708F080E062
:101EE000F82B7195E1E0171608F0E0E0C72ECF1A45
:101EF00081E07C1508F080E0E82B8D2D8195F1E0E4
:101F0000181608F0F0E0D82EDE1AE1E08D1508F082
:101F1000E0E0FE2B892F8195392DA5016A2F7C2DBC
:101F2000982F9F1B8D2DCE58DF4FE2E10C94281087
:101F3000991B79E004C0991F961708F0961B881F1B
:101F40007A95C9F78095089597FB092E07260AD040
:101F500077FD04D02BD006D000201AF4709561953F
:101F60007F4F0895F6F7909581959F4F0895629F52
:101F7000D001739FF001829FE00DF11D649FE00D81
:101F8000F11D929FF00D839FF00D749FF00D659FE2
:101F9000F00D9927729FB00DE11DF91F639FB00DE1
:101FA000E11DF91FBD01CF0111240895AA1BBB1B20
:101FB00051E107C0AA1FBB1FA617B70710F0A61B49
:101FC000B70B881F991F5A95A9F780959095BC016A
:101FD000CD010895A1E21A2EAA1BBB1BFD010DC065
:101FE000AA1FBB1FEE1FFF1FA217B307E407F507C9
:101FF00020F0A21BB30BE40BF50B661F771F881FA5
:10200000991F1A9469F760957095809590959B013A
:10201000AC01BD01CF0108952F923F924F925F9284
:102020006F927F928F929F92AF92BF92CF92DF92E8
:10203000EF92FF920F931F93CF93DF93CDB7DEB74D
:10204000CA1BDB0B0FB6F894DEBF0FBECDBF0994E1
:102050002A88398848885F846E847D848C849B8438
:10206000AA84B984C884DF80EE80FD800C811B8146
:10207000AA81B981CE0FD11D0FB6F894DEBF0FBE75
:10208000CDBFED010895EF92FF920F931F93F22FB2
:10209000F02E47FD02C0E4E001C0E4E1242F332725
:1020A00027FD309537FF03C0309521953F4F4F2DC9
:1020B000512F0F2FEE2E0E94D0108F2D912F1F9198
:1020C0000F91FF90EF900895FC0188279927E894DD
:1020D00021912032E9F3293010F02E30C8F32B3251
:1020E00041F02D3239F4689404C00E94A310820F8D
:1020F000911D219120532A30C0F31EF490958195B3
:102100009F4F0895FB019F01E8944230C4F045328F
:10211000B4F44A3029F497FB1EF4909581959F4FB3
:10212000642F77270E94D60F805D8A330CF0895D7B
:102130008193CB010097A1F716F45DE251931082D1
:10214000C9010C940A137AE0979F902D879F802DE8
:10215000910D11240895FA01CF93FF93EF9322304C
:10216000CCF02532BCF4C22F2C2F3327442755271F
:10217000FF93EF930E94EA0FEF91FF91605D6A3346
:102180000CF0695D6193B901CA01605070408040F4
:10219000904051F710828F919F91CF910C940A1328
:1021A000A9E0B0E0E6EDF0E10C9410106A01122F06
:1021B000A02EBE2C2BE3201718F42CE3922E02C085
:1021C000902E9394AE014F5F5F4F27E0092D0E9440
:1021D0003212BC018981E82EFF24C70189709070FA
:1021E000019711F4ADE209C0B1FE02C0ABE205C037
:1021F000B0FC02C0A0E001C0A0E2E3FE3BC0AA2305
:1022000011F423E001C024E0211710F020E002C007
:10221000121B212FEB2CB4FE02C0322F0AC0F60194
:10222000322F80E202C0819331503323E1F7C20E96
:10223000D11CAA2319F0F601A1936F01F601319682
:10224000E2FE05C09EE4D6019C9381E404C09EE6B4
:10225000D6019C9381E611968C9391833296DF018F
:10226000832F90E202C09D9381508823E1F7E30F12
:10227000F11D40C0E2FE42C0AA2311F423E001C0D8
:1022800024E0211710F020E002C0121B212FEB2CBC
:10229000B4FE02C0922F0AC0F601922F80E202C063
:1022A000819391509923E1F7C20ED11CAA2319F012
:1022B000F601A1936F01F6013196E2FE08C089E4B0
:1022C000D6018C938EE411968C9386E407C089E640
:1022D000D6018C938EE611968C9386E68183329696
:1022E000DF01892F20E202C02D9381508823E1F77E
:1022F000E90FF11D10822EEF3FEFAFC01616170643
:102300001CF041E050E003C0AB014F5F5F4FAA20DB
:1023100019F480E090E003C08A2D90E0019620E05F
:1023200030E0AA2311F021E030E0240F351F280F00
:10233000391F812F90E02817390714F020E002C0E0
:10234000121B212F4B2D50E0CA0180719070B4FCFC
:102350000DC0B3FC0BC0F601322F40E202C0419326
:1023600031503323E1F7C20ED11C01C0322FAA2312
:1023700019F0F601A1936F01892B11F0132F0AC0F8
:10238000F601132F80E302C0819311501123E1F76E
:10239000C30ED11C092D060FBA8090E1892E912C15
:1023A0008E209F20E4FE04C0F1E3BF1609F4015023
:1023B000101614F001E003C0093008F008E09B019A
:1023C00077FF02C020E030E0CB010196821B930B27
:1023D000FE013196E80FF91F8EE2F82E3B01601ADC
:1023E00071088A2D90E044275527481B590B8FEF21
:1023F0002F3F380719F4D601FD926D01621773075C
:102400002CF06216730614F4808101C080E3215021
:10241000304031962417350724F0D6018D936D0195
:10242000E6CF2617370749F4B5E3BB1528F0BB16EE
:1024300021F48114910409F481E3F6018193D6011A
:10244000812F90E202C09C93815011968823D9F786
:10245000E10FF11D108220E030E0C9012996EEE085
:102460000C942C10283008F027E03327DA01990F5C
:10247000311D87FD916000966105710539F4326068
:102480002E5F3D9330E32A95E1F708959F3F30F0AA
:1024900080387105610509F03C5F3C5F3D939130E8
:1024A00008F08068911DDF93CF931F930F93FF92E5
:1024B000EF92192F987F9695E92F96959695E90FAB
:1024C000FF27E85EFE4F99273327EE24FF24A7015C
:1024D000E70105900894079428F4360FE71EF81ECC
:1024E000491F511D660F771F881F991F0694A1F77A
:1024F0000590079428F4E70EF81E491F561FC11DCA
:10250000770F881F991F661F0694A1F705900794FF
:1025100028F4F80E491F561FC71FD11D880F991F99
:10252000661F771F0694A1F70590079420F4490FC2
:10253000561FC71FD81F990F661F771F881F069445
:10254000A9F784911095177041F0D695C7955795C6
:102550004795F794E7941A95C1F7EEEBF0E068948D
:102560001590159135916591959105907FE2739540
:10257000E118F10A430B560BC90BD009C0F7E10C67
:10258000F11E431F561FC91FD01D7EF4703311F476
:102590008A95E6CFE894015030F0080F0AF400273E
:1025A000021708F4202F2395022F7A3328F079E3BD
:1025B0007D932A95E9F710C07D932A9589F60694B4
:1025C00097956795379517951794E118F10A430B7E
:1025D000560BC90BD00998F023957E9173957A33E9
:1025E00008F070E37C932013B8F77E9170617D93BF
:1025F00030F0839571E37D9370E32A95E1F7112420
:10260000EF90FF900F911F91CF91DF91992787FD58
:1026100090950895DC01FC01672F71917723E1F714
:10262000329704C07C916D9370836291AE17BF079F
:08263000C8F30895F894FFCFF0
:102638002020202020202020202020202020202092
:10264800008031323334006C636458592800290AF9
:102658000000010202030303030404040404040445
:102668000405050505050505050505050505050513
:1026780005060606060606060606060606060606F3
:1026880006060606060606060606060606060606E2
:1026980006070707070707070707070707070707C3
:1026A80007070707070707070707070707070707B2
:1026B80007070707070707070707070707070707A2
:1026C8000707070707070707070707070707070792
:1026D8000708080808080808080808080808080873
:1026E8000808080808080808080808080808080862
:1026F8000808080808080808080808080808080852
:102708000808080808080808080808080808080841
:102718000808080808080808080808080808080831
:102728000808080808080808080808080808080821
:102738000808080808080808080808080808080811
:102748000808080808080808080808080808080801
:02275800080077
:00000001FF
