:100000001CC036C0B7C634C033C032C0C4C730C04D
:100010002FC02EC02DC02CC02BC02AC029C028C084
:1000200027C026C025C07EC987C990C999C9A2C961
:10003000ABC9B4C9BDC9C6C9CFC911241FBECFE55C
:10004000D4E0DEBFCDBF11E0A0E6B0E0E4E8F5E12A
:1000500002C005900D92A836B107D9F711E0A8E6C5
:10006000B1E001C01D92A139B107E1F7D9D988CA21
:10007000C7CFEF92FF920F931F937B018C0120E07B
:1000800030E040E05FE480D388237CF0C801B70112
:1000900020E030E040E05FE45ED126D49B01AC017B
:1000A000205030404040504805C0C801B7011CD422
:1000B0009B01AC01B901CA011F910F91FF90EF9014
:1000C0000895A0E0B0E0E6E6F0E023CADC012B01F1
:1000D000FA019C91923008F439C1EB018881823099
:1000E00008F433C1943069F4843009F02FC11196BB
:1000F0009C9111978981981709F428C1A0E6B0E076
:1001000025C1843009F421C18230A9F4923009F06C
:100110001DC19A01AD0188E0EA010990AE01E90133
:1001200009929E018150C1F7E201898111969C914B
:100130008923818308C1923009F407C112962D905A
:100140003C901397EB018A819B811496AD90BD90F2
:10015000CD90DC901797EC80FD800E811F8191017E
:10016000281B390BB90137FF04C066277727621BAC
:10017000730B603271050CF061C0121613066CF53A
:1001800037014801062E04C09694879477946794AB
:100190000A94D2F721E030E040E050E004C0220FA2
:1001A000331F441F551F6A95D2F7215030404040FD
:1001B00050402E213F214023512321153105410577
:1001C000510521F021E030E040E050E079018A0162
:1001D000E628F728082919293CC0232BD1F1260E3F
:1001E000371E35014601062E04C0969487947794F5
:1001F00067940A94D2F721E030E040E050E004C078
:10020000220F331F441F551F6A95D2F721503040EB
:10021000404050402A213B214C215D2121153105D0
:100220004105510521F021E030E040E050E0590166
:100230006A01A628B728C828D9280BC082159305BB
:100240002CF01C01AA24BB24650103C0EE24FF246A
:10025000870111969C91D20111968C91981709F4FF
:1002600045C0992339F0A80197012A193B094C0987
:100270005D0906C0A60195012E193F09400B510BDF
:1002800057FD08C01182338222822483358346833E
:1002900057831DC081E0818333822282882799277A
:1002A000DC01821B930BA40BB50B84839583A6837F
:1002B000B7830DC0220F331F441F551F248335837E
:1002C000468357838281938101979383828324811C
:1002D000358146815781DA01C9010197A109B10928
:1002E0008F5F9F4FAF4FBF4328F30BC09183338283
:1002F0002282EA0CFB1C0C1D1D1DE482F582068384
:10030000178383E08083248135814681578157FF9D
:100310001AC0C901AA2797FDA095BA2F81709070C5
:10032000A070B0705695479537952795822B932BE3
:10033000A42BB52B84839583A683B7838281938175
:10034000019693838283DF0101C0D201CD01CDB735
:10035000DEB7E2E1FAC8A0E2B0E0E0EBF1E0E5C828
:1003600069837A838B839C832D833E834F83588755
:10037000E9E0EE2EF12CEC0EFD1ECE010196B70148
:1003800028D48E010F5E1F4FCE010596B80121D4EF
:100390008A8991E089278A8BC701B801AE01475E3F
:1003A0005F4F8FDE41D3A096E6E0DBC8A0E2B0E06D
:1003B000EBEDF1E0BAC869837A838B839C832D834C
:1003C0003E834F835887F9E0EF2EF12CEC0EFD1E93
:1003D000CE010196B701FDD38E010F5E1F4FCE01F6
:1003E0000596B801F6D3C701B801AE01475E5F4F6D
:1003F00068DE1AD3A096E6E0B4C8A0E2B0E0E2E07E
:10040000F2E087C869837A838B839C832D833E8344
:100410004F835887CE010196BE01675F7F4FD9D3C6
:10042000CE010596BE016F5E7F4FD3D39985923082
:1004300088F089898230C8F0943019F4823051F400
:1004400004C0843029F4923081F480E690E0C6C084
:10045000923049F420E09A858A89981321E02A870E
:10046000CE010996BBC0823049F420E09A858A8982
:10047000981321E02A8BCE014196B0C02D843E8492
:100480004F8458886D887E888F88988CEE24FF244E
:100490008701AA24BB24650140E050E060E070E0E1
:1004A000E0E0F0E0C10181709070892BE9F0E60C8A
:1004B000F71C081D191D9A01AB012A0D3B1D4C1D8F
:1004C0005D1D80E090E0A0E0B0E0E614F7040805D0
:1004D000190520F481E090E0A0E0B0E0BA01A901A4
:1004E000480F591F6A1F7B1FAA0CBB1CCC1CDD1CAC
:1004F00097FE08C081E090E0A0E0B0E0A82AB92A09
:10050000CA2ADB2A3196E032F10549F0660C771CE5
:10051000881C991C5694479437942794C3CFFA8526
:10052000EA892B893C898B859C85280F391F2E5F92
:100530003F4F17C0CA0181709070892B61F01695EA
:100540000795F794E79480E090E0A0E0B0E8E82A0F
:10055000F92A0A2B1B2B76956795579547952F5FA0
:100560003F4F77FDE7CF0CC0440F551F661F771F25
:1005700017FD4160EE0CFF1C001F111F2150304081
:10058000403090E0590790E0690790E4790760F304
:100590002B8F3C8FDB01CA018F779070A070B070F9
:1005A00080349105A105B10561F447FD0AC0E1144D
:1005B000F1040105110529F0405C5F4F6F4F7F4F3B
:1005C00040781A8EFE1711F081E08A8F4D8F5E8F72
:1005D0006F8F78A383E0898FCE01499625D2A096AC
:1005E000E2E1B3C7A8E1B0E0E7EFF2E09AC76983C0
:1005F0007A838B839C832D833E834F835887B9E016
:10060000EB2EF12CEC0EFD1ECE010196B701E1D2CE
:100610008E010F5E1F4FCE010596B801DAD22985F3
:10062000223008F47EC03989323010F4B8017CC021
:100630008A859A8989278A87243011F0223031F4FB
:10064000231709F06EC060E670E06EC0343039F4F4
:100650001D861E861F86188A1C861B8604C03230A3
:1006600021F484E08987B7015FC02B853C858B89A5
:100670009C89281B390B3C872B87ED84FE840F85D2
:100680001889AD88BE88CF88D88CEA14FB040C0585
:100690001D0540F4EE0CFF1C001F111F21503040BF
:1006A0003C872B8720E030E040E050E080E090E0A5
:1006B000A0E0B0E460E070E0EA14FB040C051D0566
:1006C00040F0282B392B4A2B5B2BEA18FB080C092E
:1006D0001D09B695A79597958795EE0CFF1C001FF1
:1006E000111F6F5F7F4F6F31710531F7DA01C9015B
:1006F0008F779070A070B07080349105A105B1051E
:1007000061F427FD0AC0E114F1040105110529F087
:10071000205C3F4F4F4F5F4F20782D873E874F879C
:10072000588BBE01675F7F4FCB017ED16896EAE0B0
:1007300014C7A8E1B0E0EEE9F3E0F7C669837A8375
:100740008B839C832D833E834F83588789E0E82EDB
:10075000F12CEC0EFD1ECE010196B7013AD28E01AE
:100760000F5E1F4FCE010596B80133D289858230C6
:1007700038F08989823020F0C701B801A2D201C0C7
:100780008FEF6896E6E0EDC6A8E1B0E0E9ECF3E0B3
:10079000CCC669837A838B839C832D833E834F836E
:1007A000588789E0E82EF12CEC0EFD1ECE01019653
:1007B000B7010FD28E010F5E1F4FCE010596B80113
:1007C00008D28985823038F08989823020F0C701CB
:1007D000B80177D201C08FEF6896E6E0C2C6A8E103
:1007E000B0E0E4EFF3E0A1C669837A838B839C8356
:1007F0002D833E834F83588789E0E82EF12CEC0E41
:10080000FD1ECE010196B701E4D18E010F5E1F4F90
:10081000CE010596B801DDD18985823038F089890D
:10082000823020F0C701B8014CD201C081E0689647
:10083000E6E097C6A8E0B0E0EFE1F4E073C69B0104
:10084000AC0183E08983DA01C9018827B7FD83956C
:100850009927AA27BB27B82E211531054105510537
:1008600019F482E0898339C08823A9F0203080E020
:10087000380780E0480780E8580729F460E070E016
:1008800080E09FEC2EC0EE24FF248701E21AF30AD9
:10089000040B150B02C079018A018EE1C82ED12C00
:1008A000DC82CB82ED82FE820F831887C801B701FC
:1008B0006CD001971816190684F4082E04C0EE0CAB
:1008C000FF1C001F111F0A94D2F7ED82FE820F83D6
:1008D0001887C81AD90ADC82CB82BA82CE01019667
:1008E000A3D02896E9E03AC6ACE0B0E0E9E7F4E04E
:1008F00020C669837A838B839C83CE010196BE01D7
:100900006B5F7F4F66D18D81823061F1823050F113
:10091000843021F48E81882351F12EC02F813885B7
:1009200037FD20C06E812F3131051CF06623F9F0B0
:1009300023C08EE190E0821B930B29853A854B857D
:100940005C8504C056954795379527958A95D2F7CB
:100950006623B1F050954095309521953F4F4F4F0C
:100960005F4F0EC020E030E040E050E009C02FEFC4
:100970003FEF4FEF5FE704C020E030E040E050E899
:10098000B901CA012C96E2E0F0C5EF92FF920F93F5
:100990001F937B018C0180E0E81680E0F80681E07F
:1009A000080780E0180788F48FEFE816F1040105C6
:1009B000110531F028F088E090E0A0E0B0E017C029
:1009C00080E090E0A0E0B0E012C080E0E81680E0B7
:1009D000F80680E0080781E0180728F088E190E039
:1009E000A0E0B0E004C080E190E0A0E0B0E020E250
:1009F00030E040E050E0281B390B4A0B5B0B04C091
:100A000016950795F794E7948A95D2F7F701E85978
:100A1000FF4F8081281B310941095109C9011F91EC
:100A20000F91FF90EF900895DF92EF92FF920F9356
:100A30001F93FC01E480F58006811781D1808081BD
:100A4000823048F480E090E0A0E1B0E0E82AF92AA2
:100A50000A2B1B2BA5C0843009F49FC0823021F4DF
:100A6000EE24FF24870105C0E114F10401051105FE
:100A700019F4E0E0F0E096C0628173819FEF623884
:100A800079070CF05BC022E83FEF261B370B2A31B9
:100A900031052CF020E030E040E050E02AC0B80101
:100AA000A701022E04C076956795579547950A943D
:100AB000D2F781E090E0A0E0B0E004C0880F991F79
:100AC000AA1FBB1F2A95D2F70197A109B1098E2150
:100AD0009F21A023B1230097A105B10521F081E05A
:100AE00090E0A0E0B0E09A01AB01282B392B4A2B13
:100AF0005B2BDA01C9018F779070A070B0708034E1
:100B00009105A105B10539F427FF09C0205C3F4FCD
:100B10004F4F5F4F04C0215C3F4F4F4F5F4FE0E0AE
:100B2000F0E02030A0E03A07A0E04A07A0E45A072E
:100B300010F0E1E0F0E079018A0127C0603871052A
:100B400064F5FB01E158FF4FD801C7018F77907022
:100B5000A070B07080349105A105B10539F4E7FEAD
:100B60000DC080E490E0A0E0B0E004C08FE390E02E
:100B7000A0E0B0E0E80EF91E0A1F1B1F17FF05C01A
:100B800016950795F794E794319687E016950795A3
:100B9000F794E7948A95D1F705C0EE24FF248701E6
:100BA000EFEFF0E06E2F679566276795902F9F77A0
:100BB000D794DD24D7948E2F8695492F462B582F16
:100BC0005D29B701CA011F910F91FF90EF90DF904F
:100BD0000895FC01DB01408151812281622F6F77F2
:100BE00070E0221F2227221F9381892F880F822BDA
:100BF000282F30E0991F9927991F11969C931197E0
:100C000021153105A9F5411551056105710511F44D
:100C100082E037C082E89FEF13969C938E931297E1
:100C20009A01AB0167E0220F331F441F551F6A95DD
:100C3000D1F783E08C930DC0220F331F441F551F43
:100C400012968D919C911397019713969C938E9376
:100C50001297203080E0380780E0480780E458078A
:100C600058F314962D933D934D935C9317970895E5
:100C70002F3F310579F4411551056105710519F4CE
:100C800084E08C93089564FF03C081E08C9312C0CC
:100C90001C9210C02F57304013963C932E931297FE
:100CA00083E08C9387E0440F551F661F771F8A955A
:100CB000D1F7706414964D935D936D937C93179761
:100CC00008951F93DC01FB019C91923008F447C00A
:100CD0008081823008F443C0943051F411961C9105
:100CE000843099F58181682F70E0611B71093FC0E4
:100CF000843021F0923031F48230B9F1818188233F
:100D000089F12DC011961C9111978230F1F08181EB
:100D10001817D9F412962D913C91139782819381E3
:100D20008217930794F028173907BCF014968D9119
:100D30009D910D90BC91A02D2481358146815781D4
:100D4000281739074A075B0718F4112341F00AC036
:100D500082179307A407B50740F4112319F061E047
:100D600070E005C06FEF7FEF02C060E070E0CB0184
:100D70001F9108951F920F920FB60F921124AF92F8
:100D8000BF92CF92DF92EF92FF920F931F932F9318
:100D90003F934F935F936F937F938F939F93AF9303
:100DA000BF93CF93DF93EF93FF938091890190914D
:100DB0008A01892B09F0D0C0949A919880916E0194
:100DC00090916F01A0917001B091710185369105EC
:100DD000A105B1050CF46AC0EE24FF248701C9E126
:100DE000D0E00CC080E197E2FE013197F1F7019766
:100DF000D9F70894E11CF11C011D111D60916E01D1
:100E000070916F01809170019091710124E630E042
:100E100040E050E041D3E216F3060407150714F34F
:100E2000F0928801E092870160916E0170916F01EC
:100E3000809170019091710124E630E040E050E033
:100E40002BD32AE030E040E050E007D3F3DC5B0135
:100E50006C0120E030E04AE753E4CFDA7B018C01FB
:100E600020E030E040E85FE3BADC88230CF43CC0CB
:100E7000C801B70120E03FEF4FE757E45ADC1816EE
:100E80000CF052C0C601B50120E030E040E251E470
:100E9000B4DAEFD889E190E005C0FC013197F1F7B1
:100EA0006150704061157105C1F744C060916E01D9
:100EB00070916F0180917001909171012AE030E092
:100EC00040E050E0CAD2B6DC5B016C0120E030E0CB
:100ED0004AE753E492DA7B018C0120E030E040E8FD
:100EE0005FE37DDC88231CF461E070E020C0C80172
:100EF000B70120E03FEF4FE757E41BDC1816A4F4DE
:100F0000C601B50120E030E040E251E476DAB1D824
:100F100089E190E005C0FC013197F1F76150704024
:100F200061157105C1F706C0C801B701A2D8CB0190
:100F30000197F1F79498919A80E197E229E130E0E6
:100F4000F9013197F1F70197D9F781E090E090939B
:100F50008A018093890104C010928A01109289014C
:100F6000FF91EF91DF91CF91BF91AF919F918F91C1
:100F70007F916F915F914F913F912F911F910F91B1
:100F8000FF90EF90DF90CF90BF90AF900F900FBE8B
:100F90000F901F9018951F920F920FB60F92112469
:100FA0002F933F934F935F936F937F938F939F9371
:100FB000AF93BF93EF93FF93A998AA98AB983698F5
:100FC000369A24B130E030938C0120938B0145B1E7
:100FD00040938D0110928E01742F60E0620F731F99
:100FE0007093900160938F01882777FD8095982FEB
:100FF00021DC23E333E343E85FE3F4DA20E030E08D
:1010000040EF51E4A8D970DC60936E0170936F01DA
:10101000809370019093710180916E0190916F01A6
:10102000A0917001B0917101B7FF08C010926E01DC
:1010300010926F011092700110927101FF91EF9167
:10104000BF91AF919F918F917F916F915F914F91E0
:101050003F912F910F900FBE0F901F901895B89A47
:10106000B99ABA9ABB9ABC9ABD9ABE9ABF9AC098CE
:10107000C198C298C398C498C598C698C798A19AB1
:10108000A29AA39AA99AAA9AAB9A08952F923F92EC
:101090004F925F926F927F928F929F92AF92BF9288
:1010A000CF92DF92EF92FF920F931F93CF93DF9334
:1010B00048EF242E312C32E9632E712C29E9422E7F
:1010C000512C90EBA92EB12C84EA882E912C09EF9B
:1010D000C02ED12CC0ECD0E0609168016F77E09118
:1010E0006A0170916C0118C0A998AA98AB9868BB66
:1010F000A99AAA98AB98A998AA98AB98E8BBA9987E
:10110000AA9AAB98A998AA98AB9878BBA998AA98DC
:10111000AB9AA998AA98AB9820916E0130916F0173
:101120004091700150917101809172019091730111
:10113000AA2797FDA095BA2F281739074A075B07FA
:1011400099F220916E0130916F01409170015091A0
:1011500071018091720190917301AA2797FDA0956A
:10116000BA2F281739074A075B07B1F280916E0141
:1011700090916F01A0917001B09171010A97A10542
:10118000B105C4F4109275011092740110927701A8
:101190001092760180916E0190916F01A091700183
:1011A000B0917101909379018093780121E02093AF
:1011B0007B0122C180916E0190916F01A09170011D
:1011C000B091710184369105A105B105DCF510924D
:1011D000750110927401E0906E01F0906F01009122
:1011E00070011091710160916E0170916F01809199
:1011F0007001909171012AE030E040E050E04CD164
:10120000E61AF70A080B190BC801B7012AE030E00B
:1012100040E050E041D13093770120937601609116
:101220006E0170916F0180917001909171012AE0BF
:1012300030E040E050E030D1709379016093780164
:101240008AE05CC080916E0190916F01A091700165
:10125000B0917101885E9340A040B0400CF0CCC0CA
:10126000E0906E01F0906F0100917001109171019A
:1012700060916E0170916F01809170019091710188
:1012800024E630E040E050E007D1E61AF70A080B08
:10129000190BC801B70124E630E040E050E0FCD073
:1012A000309375012093740160916E0170916F010C
:1012B00080917001909171012AE030E040E050E0AF
:1012C000EBD0CA01B9012AE030E040E050E0E4D0C0
:1012D000709377016093760160916E0170916F0158
:1012E00080917001909171012AE030E040E050E07F
:1012F000D3D0709379016093780184E680937B0169
:101300007BC0E0917A01F0E0EE0FFF1FEC58FE4F3A
:101310000190F081E02DEA30F10508F068C0ED5E43
:10132000FF4F0994E0917A01F0E0EE0FFF1FE859BA
:10133000FE4FD183C0835BC0E0917A01F0E0EE0FF5
:10134000FF1FE859FE4FD182C08251C0E0917A015F
:10135000F0E0EE0FFF1FE859FE4F9182808247C0F8
:10136000E0917A01F0E0EE0FFF1FE859FE4FB182E5
:10137000A0823DC0E0917A01F0E0EE0FFF1FE85936
:10138000FE4F5182408233C0E0917A01F0E0EE0FCF
:10139000FF1FE859FE4F7182608229C0E0917A01F7
:1013A000F0E0EE0FFF1FE859FE4F82E890E01DC00D
:1013B000E0917A01F0E0EE0FFF1FE859FE4F318215
:1013C000208215C0E0917A01F0E0EE0FFF1FE8598E
:1013D000FE4F80E890E009C0E0917A01F0E0EE0F66
:1013E000FF1FE859FE4F80E990E091838083809150
:1013F0007A018F5F80937A0180917A01833008F4BB
:1014000080CF80916E0190916F01A0917001B09199
:101410007101909373018093720110927A015CCEF6
:10142000A098A89A899A919A8B98939A8C9A949852
:1014300010EC17B985E886B98DE08EBD82E08BBDD2
:101440008EEF8ABD80E189BF88E085BF80E88BBFD1
:1014500006DE18BB78941ADEFECF629FD001739F20
:10146000F001829FE00DF11D649FE00DF11D929F40
:10147000F00D839FF00D749FF00D659FF00D99277F
:10148000729FB00DE11DF91F639FB00DE11DF91FA3
:10149000BD01CF011124089597FB092E05260ED01A
:1014A00057FD04D014D00AD0001C38F45095409554
:1014B000309521953F4F4F4F5F4F0895F6F7909528
:1014C0008095709561957F4F8F4F9F4F0895A1E252
:1014D0001A2EAA1BBB1BFD010DC0AA1FBB1FEE1FAE
:1014E000FF1FA217B307E407F50720F0A21BB30BF9
:1014F000E40BF50B661F771F881F991F1A9469F775
:1015000060957095809590959B01AC01BD01CF01D0
:1015100008952F923F924F925F926F927F928F9297
:101520009F92AF92BF92CF92DF92EF92FF920F9372
:101530001F93CF93DF93CDB7DEB7CA1BDB0B0FB67C
:10154000F894DEBF0FBECDBF09942A883988488839
:101550005F846E847D848C849B84AA84B984C884CF
:10156000DF80EE80FD800C811B81AA81B981CE0FC6
:10157000D11D0FB6F894DEBF0FBECDBFED010895AB
:04158000F894FFCF0D
:101584000000000000000000000102020303030346
:1015940004040404040404040505050505050505FF
:1015A40005050505050505050606060606060606DF
:1015B40006060606060606060606060606060606C7
:1015C40006060606060606060707070707070707AF
:1015D4000707070707070707070707070707070797
:1015E4000707070707070707070707070707070787
:1015F4000707070707070707070707070707070777
:10160400070707070707070708080808080808085E
:101614000808080808080808080808080808080846
:101624000808080808080808080808080808080836
:101634000808080808080808080808080808080826
:101644000808080808080808080808080808080816
:101654000808080808080808080808080808080806
:1016640008080808080808080808080808080808F6
:1016740008080808080808080808080808080808E6
:0816840008080808080808081E
:00000001FF
