:1000000012C0C3C91ECA2AC029C028C027C026C022
:1000100025C09DC923C022C021C020C01FC01EC052
:100020001DC01CC01BC011241FBECFE5D4E0DEBF25
:10003000CDBF11E0A0E6B0E0EEE7F7E102C0059029
:100040000D92A63DB107D9F711E0A6EDB1E001C0D0
:100050001D92A93DB107E1F79AD88FCBD1CFEF928E
:10006000FF920F931F937B018C0120E030E040E072
:100070005FE45BD387FD0FC0C801B70120E030E02B
:1000800040E05FE485D17CD39B01AC01205030403F
:100090004040504805C0C801B70172D39B01AC0174
:1000A000B901CA011F910F91FF90EF900895A0E050
:1000B000B0E0ECE5F0E0FFCAFC01EA0180818230AB
:1000C00008F43AC1DB019C91923008F432C18430CB
:1000D00059F4943009F030C1918111968C911197A7
:1000E000981709F023C128C1943009F422C1923035
:1000F000B1F4823009F020C1CA01AF0128E0DA0171
:100100000D90AD01DC010D92CD012150C1F7DB0155
:1001100011968C9111979181892389830CC182302A
:1001200009F407C1C280D380DB0112966D907C90E8
:10013000139724813581468157811496ED90FD9067
:100140000D911C911797C601861997095C0197FFBD
:1001500004C0AA24BB24A81AB90AB0E2AB16B104A1
:100160000CF062C0181619066CF5370148010A2C0C
:1001700004C096948794779467940A94D2F781E0A8
:1001800090E0A0E0B0E00A2C04C0880F991FAA1FDD
:10019000BB1F0A94D2F70197A109B1098E219F21B3
:1001A000A023B123EE24FF248701E3940097A10547
:1001B000B10519F4EE24FF248701E628F728082961
:1001C00019293EC00097E1F1CA0CDB1C39014A0134
:1001D0000A2C04C096948794779467940A94D2F773
:1001E00081E090E0A0E0B0E00A2C04C0880F991FE5
:1001F000AA1FBB1F0A94D2F70197A109B109822354
:100200009323A423B52321E030E040E050E00097A1
:10021000A105B10521F420E030E040E050E02629BE
:100220003729482959290CC06C147D0424F4EE2484
:10023000FF24870105C0630120E030E040E050E08A
:100240008181FB019181891709F445C0882349F018
:10025000D801C701821B930BA40BB50B9C01AD0108
:1002600004C02E193F09400B510B57FD04C01982E1
:10027000DB82CA820BC081E08983DB82CA8250950F
:100280004095309521953F4F4F4F5F4F2C833D83D5
:100290004E835F830DC0880F991FAA1FBB1F8C83DD
:1002A0009D83AE83BF838A819B8101979B838A83D1
:1002B0008C819D81AE81BF819C01AD012150304078
:1002C000404050402F3FEFEF3E07EFEF4E07EFE388
:1002D0005E0708F30BC08983DB82CA822E0D3F1DA7
:1002E000401F511F2C833D834E835F8383E08883AF
:1002F0002C813D814E815F8157FF1DC0DA01C9010C
:1003000081709070A070B07056954795379527957D
:10031000822B932BA42BB52B8C839D83AE83BF8321
:100320008A819B8101969B838A8305C0EAE6F0E07F
:1003300003C0FB0101C0FE01CF01CDB7DEB7EEE087
:10034000D6C9A0E2B0E0E6EAF1E0BDC969837A83EC
:100350008B839C832D833E834F83588789E0E82ECF
:10036000F12CEC0EFD1ECE010196B701F9D38E01E2
:100370000F5E1F4FCE010596B801F2D3C701B80139
:10038000AE01475E5F4F93DE1BD3A096E6E0B7C990
:10039000A0E2B0E0EDECF1E096C969837A838B834B
:1003A0009C832D833E834F8358878E01075F1F4FA9
:1003B000CE010196B801D4D391E1E92EF12CEC0ED7
:1003C000FD1ECE010596B701CBD38A8991E089271E
:1003D0008A8BC801B701AE01475E5F4F68DEF0D27D
:1003E000A096E6E08CC9A0E2B0E0E8EFF1E05FC9DA
:1003F00069837A838B839C832D833E834F835887C5
:10040000CE010196BE01675F7F4FAAD3CE0105964C
:10041000BE016F5E7F4FA4D39985923078F08989B1
:100420008230C0F0943019F4823041F4CEC0843070
:1004300019F4923079F4C9C0923051F481E02A85E0
:100440009A89291709F480E08A87CE010996BFC0EE
:10045000823051F481E02A859A89291709F480E0D5
:100460008A8BCE014196B3C06D847E848F84988838
:10047000ED88FE880F89188DE0E2F0E080E090E0E2
:10048000A0E0B0E0AA24BB24650120E030E040E019
:1004900050E0B3016170707061157105D9F02E0DD7
:1004A0003F1D401F511F15012601280E391E4A1EEF
:1004B0005B1E81E090E0A0E0B0E02E153F05400714
:1004C000510720F080E090E0A0E0B0E0820D931DA5
:1004D000A41DB51DAA0CBB1CCC1CDD1C17FF09C03C
:1004E00061E0262E312C412C512CA228B328C4289F
:1004F000D528319749F0EE0CFF1C001F111F969470
:10050000879477946794C5CF6B897C89EB85FC854C
:100510006E0F7F1F6E5F7F4F7C8F6B8F61E0EA8570
:100520007A89E71709F460E06A8F6B8D7C8D10C0C3
:10053000FC01E170F070309729F05695479537959A
:1005400027955068B695A795979587956F5F7F4FCC
:10055000B7FDEECF0CC0880F991FAA1FBB1F57FD18
:100560008160220F331F441F551F6150704080303F
:10057000E0E09E07E0E0AE07E0E4BE0760F36B8FCB
:100580007C8F6FE7E62EF12C012D112DE822F92248
:100590000A231B2360E4E616F1040105110561F44A
:1005A00087FD0AC0211531054105510529F0805C00
:1005B0009F4FAF4FBF4F80788D8F9E8FAF8FB8A367
:1005C00083E0898FCE01499602C08AE690E0F8D197
:1005D000A096E2E188C8A8E1B0E0E0EFF2E06FC8E1
:1005E00069837A838B839C832D833E834F835887D3
:1005F0008E01075F1F4FCE010196B801B1D281E194
:10060000E82EF12CEC0EFD1ECE010596B701A8D206
:100610009985923008F484C08989823008F47CC0BE
:100620002A853A8923272A87943011F0923021F4C1
:10063000981709F06DC072C0843039F41D861E868B
:100640001F86188A1C861B866BC0823019F484E0D2
:10065000898766C08B859C852B893C89821B930B7F
:100660009C878B872D853E854F855889ED88FE8830
:100670000F89188D2E153F054007510738F4220FBA
:10068000331F441F551F01979C878B876FE170E0D4
:10069000A12CB12CC12CA0E4DA2E80E090E0A0E0E7
:1006A000B0E02E153F054007510740F08A299B29ED
:1006B000AC29BD292E193F09400B510BD694C79484
:1006C000B794A794220F331F441F551F61507040E9
:1006D00041F76FE7E62EF12C012D112DE822F922CA
:1006E0000A231B2360E4E616F1040105110561F4F9
:1006F00087FD0AC0211531054105510529F0805CAF
:100700009F4FAF4FBF4F80788D879E87AF87B88B45
:100710008E01075F1F4F04C0870102C00AE610E088
:10072000C8014ED16896EAE0E6C7A8E1B0E0EAE980
:10073000F3E0C9C769837A838B839C832D833E83CF
:100740004F8358878E01075F1F4FCE010196B80176
:1007500007D281E1E82EF12CEC0EFD1ECE010596AC
:10076000B701FED18985823038F08989823020F046
:10077000C801B7015ED201C08FEF6896E6E0BFC73F
:10078000ACE0B0E0E5ECF3E0A2C769837A838B8349
:100790009C83CE010196BE016B5F7F4FE1D18D81BD
:1007A000823081F1823070F1843021F48E8188238F
:1007B00071F10AC02F81388537FD24C06E812F3139
:1007C00031053CF0662319F120E030E040E050E8CC
:1007D00022C08EE190E0821B930B29853A854B85E0
:1007E0005C8504C056954795379527958A95D2F72D
:1007F000662389F050954095309521953F4F4F4F96
:100800005F4F09C020E030E040E050E004C02FEF2F
:100810003FEF4FEF5FE7B901CA012C96E2E073C7E3
:10082000A8E0B0E0E5E1F4E04CC77B018C011A825E
:10083000611571058105910519F482E089835FC016
:1008400083E089838EE1C82ED12CDC82CB82ED82BD
:10085000FE820F831887C801B70157D0FC0131977A
:10086000F7FF3BC0AA27BB27AE1BBF0B21E030E040
:1008700040E050E00A2E04C0220F331F441F551FD2
:100880000A94D2F721503040404050402E213F2161
:100890004023512361E070E080E090E021153105B4
:1008A0004105510521F460E070E080E090E004C073
:1008B00016950795F794E794AA95D2F7E62AF72AB2
:1008C000082B192BED82FE820F8318878EE190E0B2
:1008D0008E1B9F0B9C838B8312C0309781F00E2E52
:1008E00004C0EE0CFF1C001F111F0A94D2F7ED820A
:1008F000FE820F831887CE1ADF0ADC82CB82CE01FC
:1009000001965ED02896E8E0F8C6AF92BF92CF92EB
:10091000DF92EF92FF920F931F937B018C0180E097
:10092000E81680E0F80681E0080780E0180760F428
:10093000EFEFEE16F1040105110509F098F480E0DF
:1009400090E0A0E0B0E017C0F0E0EF16F0E0FF06A6
:10095000F0E00F07F1E01F0750F480E190E0A0E025
:10096000B0E009C088E090E0A0E0B0E004C088E119
:1009700090E0A0E0B0E020E230E040E050E0281B52
:10098000390B4A0B5B0B5701680104C0D694C7941E
:10099000B794A7948A95D2F7D601C5018E589F4F78
:1009A000FC018081281B310941095109C9011F91AE
:1009B0000F91FF90EF90DF90CF90BF90AF90089590
:1009C000EF92FF920F931F93CF93DF93FC0124814B
:1009D00035814681578161818081823020F4406178
:1009E000EFEFF0E0A6C0843009F49DC0823009F436
:1009F00094C0211531054105510509F491C00280CB
:100A0000F381E02D8FEFE238F8070CF05CC0C2E80C
:100A1000DFEFCE1BDF0BCA31D10574F579018A01F6
:100A20000C2E04C016950795F794E7940A94D2F714
:100A300081E090E0A0E0B0E00C2E04C0880F991F88
:100A4000AA1FBB1F0A94D2F70197A109B1098223FB
:100A50009323A423B52321E030E040E050E0009749
:100A6000A105B10521F420E030E040E050E02E295E
:100A70003F29402B512B04C020E030E040E050E003
:100A8000DA01C9018F779070A070B0708034910541
:100A9000A105B10539F427FF09C0205C3F4F4F4F36
:100AA0005F4F04C0215C3F4F4F4F5F4FE1E0F0E0EC
:100AB000203080E0380780E0480780E4580728F5B8
:100AC000E0E0F0E022C0E038F1056CF5E158FF4FBE
:100AD000DA01C9018F779070A070B07080349105F1
:100AE000A105B10539F427FF09C0205C3F4F4F4FE6
:100AF0005F4F04C0215C3F4F4F4F5F4F57FF05C012
:100B00005695479537952795319687E056954795A1
:100B1000379527958A95D1F70CC0E0E0F0E005C045
:100B2000E0E0F0E006C0EFEFF0E020E030E040E091
:100B300050E08E2F879588278795942F9F7767950C
:100B400066276795E695E22EA92FA82BFE2FF62B98
:100B5000622F732F8A2F9F2FCDB7DEB7E6E0CFC568
:100B6000DC01FB012C9111963C91119712968C910E
:100B70001297482F4F7750E0982F991F9927991F68
:100B800013966C911397862F880F892B90E0661F20
:100B90006627661F6183009739F5211531054105E8
:100BA000510511F482E029C082E89FEF938382838C
:100BB00067E0220F331F441F551F6A95D1F783E06A
:100BC000808309C0220F331F441F551F82819381E8
:100BD000019793838283203080E0380780E04807C4
:100BE00080E4580778F320C08F3F910579F42115F0
:100BF00031054105510519F484E08083089544FFCF
:100C000003C081E0808310C010820EC08F579040D7
:100C10009383828383E0808387E0220F331F441F06
:100C2000551F8A95D1F750642483358346835783B3
:100C30000895FC01DB019081923008F449C08C9149
:100C4000823008F445C0943051F461818430B1F5AC
:100C500011962C91119730E0261B310941C0843048
:100C600021F0923041F48230B1F111968C911197BC
:100C70008823A1F12DC06181823001F111968C9100
:100C800011976817D9F42281338112968D919C9126
:100C900013978217930794F028173907BCF0248123
:100CA00035814681578114968D919D910D90BC910F
:100CB000A02D82179307A407B50718F4662341F007
:100CC0000DC0281739074A075B0728F4662331F05F
:100CD00021E030E005C020E030E002C02FEF3FEF20
:100CE000C90108951F93182F0DD488E73ED480E8DA
:100CF0003CD4812F3AD411D41F9108951F93182FFB
:100D000001D488E732D480E430D4812F2ED405D4A6
:100D10001F91089581E0E6DF84EF91E020E931E062
:100D2000F9013197F1F70197D9F789E3DBDF86E025
:100D3000D9DF8CE0D7DF8BE1D5DF85E5D3DF8DE62A
:100D4000D1DF8FE7CFDF88E3CDDF8EE3CBDF82E03B
:100D5000C9DF85E0C7DF89E0C5DF8EE1C3DF80E85A
:100D6000C1DF089589E3BEDF809172018F708059E1
:100D7000B9DF8091720190E08073907024E09595C6
:100D800087952A95E1F7845AADDF0895909880E41D
:100D90009CE90197F1F7909A80E29EE40197F1F7C0
:100DA0008AE3A0DF8EE19EDF89E39CDF8CE19ADF9E
:100DB00089E798DF8DE596DF8DE694DF8CE092DFA2
:100DC00081E090DF80917201CDDF84EF91E020E936
:100DD00031E0F9013197F1F70197D9F70895EF92D2
:100DE000FF92CF93DF93E82EE7017E01F92EE70112
:100DF00001C0BBD389918823E1F7DF91CF91FF90A8
:100E0000EF900895662321F490E080589F4F14C01E
:100E1000613021F490E080569F4F0EC0623021F483
:100E200090E080549F4F08C0633021F490E08052DE
:100E30009F4F02C080E090E055DF089563D388E7BC
:100E400094D380E892D381E090D367D30895CF9371
:100E5000DF93EC0157D388E788D380E486D3CE01B3
:100E6000BEDF5BD3DF91CF9108950F931F93DF9384
:100E7000CF93CDB7DEB727970FB6F894DEBF0FBE7E
:100E8000CDBF8C013FD388E770D380E46ED3C80117
:100E90008E010F5F1F4FB8014AE050E03FD4C801F8
:100EA0009EDF3BD327960FB6F894DEBF0FBECDBFB3
:100EB000CF91DF911F910F9108958F929F92AF92E2
:100EC000BF92CF92DF92EF92FF920F931F93DF9327
:100ED000CF93CDB7DEB760970FB6F894DEBF0FBEE5
:100EE000CDBFFC01F62EBE016F5F7F4F80E1DB01BD
:100EF0001D928A95E9F7222351F0F7FF06C08DE293
:100F00008983F095E195FF4F02C080E28983EE244A
:100F1000E394442309F4EE248F2D90E08E0D911D6F
:100F200061E070E0222311F060E070E0861B970B17
:100F30009E012F5F3F4F280F391F69010894C11C84
:100F4000D11C00E010E0A42EBB244AE0842E912C9A
:100F50000AC0CF01B40184D3805DF60182936F0192
:100F6000FB010F5F1F4F0A151B059CF32A193B0954
:100F7000EE2029F08EE2D9018C9321503040FF20E1
:100F800049F0CF016AE070E06BD3805DD9018C93AA
:100F900021503040CF016AE070E062D3FB0169016B
:100FA0000894C11CD11C21E030E0EF2CFF240AE0A2
:100FB00010E012C01E161F062CF4CF01B80150D34A
:100FC000805D01C080E2D6018E936D01CF01B80132
:100FD00047D3FB012F5F3F4F2E153F055CF392D2A5
:100FE00088E7C3D280E4C1D2CE010196F8DE95D263
:100FF00060960FB6F894DEBF0FBECDBFCF91DF91E4
:101000001F910F91FF90EF90DF90CF90BF90AF9026
:101010009F908F900895EF92FF920F931F93CF931D
:10102000DF93EC017A018B01CB01BA012881398170
:101030004A815B81D8D92C813D814E815F8181D9E4
:10104000A8019701D0D9288539854A855B8579D94A
:10105000A8019701C8D92C853D854E855F8571D93A
:10106000A8019701C0D9288939894A895B8969D93A
:10107000A8019701B8D92C893D894E895F8961D92A
:1010800020E030E048EC52E4AED9DF91CF911F91DF
:101090000F91FF90EF900895BC0180E090E0413007
:1010A000B1F4BEDB9B01AC0160E070E080E095E450
:1010B00092DA20E030E040E85FE36AD99B01AC01BE
:1010C00060E070EC86EF94E486DAC9D70895A8DB77
:1010D0009B01AC0160E070E080E894E47CDA20E001
:1010E00030E040E85FE354D99B01AC0160E070EC74
:1010F00086EF94E470DAB3D70895009709F440C0FE
:101100006630F0F5413009F040E0C6DF683522E096
:10111000720720E0820720E0920730F481DBAB0108
:10112000BC0186E791E029C0603127E2720720E028
:10113000820720E0920739F1603D27E0720720E046
:10114000820720E0920730F46BDBAB01BC018EE834
:1011500091E013C0683223E2720720E0820720E0AA
:10116000920730F45DDBAB01BC0186EA91E005C07B
:1011700057DBAB01BC018EEB91E04DDF01DB05C01D
:101180006FE077E202C06AEF70E0CB010895A098AB
:10119000A198A298A398A498A598889AB99ABD9A5C
:1011A0008A988B988E9A8F9AA898A998AA98AB98A3
:1011B000AC98AD98909AC19A929A939A969897986B
:1011C000C59A80EC87B997E896B99AE095BF8BBF2E
:1011D00085E083BF84EF82BF81E089BF8ED17894A0
:1011E000D5DD8AE063E00EDE80E690E030DE84E666
:1011F00090E02DDE8091730190E062E040E020E01D
:101200005CDE80E060E0FEDDFF24C0E9D1E084E642
:10121000882E912C8091D601805487B9369A88EE19
:1012200093E0FE013197F1F70197D9F7369A88EEEE
:1012300093E0FE013197F1F70197D9F784B195B1A9
:10124000B92EAA249501280F311DC90133E0893E2A
:101250009307C4F08091D601805C87B9369A88EEF6
:1012600093E0FE013197F1F70197D9F784B195B179
:101270006091D601D92ECC249601280F311DC901C9
:1012800040E003C06091D60141E037DF8C018091DE
:10129000D601823091F0833028F4882351F08130D8
:1012A000C9F509C0843081F1843050F0853091F562
:1012B0002EC080E02AC080E02BC080E062E029C020
:1012C00020917301C801B401CBD130E062177307DC
:1012D000ACF0EF2CE3943F2D343188F4C59880EDC9
:1012E00097E0FE013197F1F70197D9F7C59A83E1AD
:1012F00063E088DD86E690E0AADD01C0EF2C80E0A7
:1013000063E080DDFE2C06C08AE060E002C08AE077
:1013100061E078DD88E690E09ADD8091D60190E08A
:101320000196A3DD84E690E092DDC80165E042E02D
:1013300020E0C3DD8091D6018F5F8093D60180913C
:10134000D601863008F466CF1092D60163CF1F9283
:101350000F920FB60F9211248F939F938091D70114
:101360009091D80101969093D8018093D701803451
:10137000910521F41092D8011092D7019F918F917D
:101380000F900FBE0F901F9018951F920F920FB6DF
:101390000F9211242F933F934F935F936F937F93FB
:1013A0008F939F93AF93BF93EF93FF938EE063E090
:1013B00029DD809173018F5F8093730180917301A8
:1013C00090E062E040E020E078DD8091D60182305C
:1013D00091F0833028F4882351F08130C1F409C0A2
:1013E000843079F0843050F0853089F40DC080E08D
:1013F00009C080E00AC080E062E008C080E063E0ED
:1014000005C08AE060E002C08AE061E0FBDC80EDBC
:1014100097E020E931E0F9013197F1F70197D9F729
:10142000FF91EF91BF91AF919F918F917F916F91BC
:101430005F914F913F912F910F900FBE0F901F9092
:1014400018951F920F920FB60F9211242F933F936E
:101450004F935F936F937F938F939F93AF93BF93BC
:10146000EF93FF938EE063E0CDDC809173018150B8
:10147000809373018091730190E062E040E020E08E
:101480001CDD8091D601823091F0833028F48823CE
:1014900051F08130C1F409C0843079F0843050F0CB
:1014A000853089F40DC080E009C080E00AC080E08A
:1014B00062E008C080E063E005C08AE060E002C04E
:1014C0008AE061E09FDC80ED97E020E931E0F901FE
:1014D0003197F1F70197D9F7FF91EF91BF91AF9154
:1014E0009F918F917F916F915F914F913F912F913C
:1014F0000F900FBE0F901F9018958C9A899A949A0E
:10150000919A0895949A919A8AE1982F9A95F1F771
:1015100091988A95F1F794980895919894988AE112
:10152000982F9A95F1F7949A982F9A95F1F7919AA6
:101530008A95F1F70895919885E3982F9A95F1F798
:10154000949A982F9A95F1F794988A95F1F70895BF
:10155000919A85E3982F9A95F1F7949A982F9A95F6
:10156000F1F794988A95F1F7089528E09AE1949814
:10157000392F3A95F1F787FF02C0919A01C09198EF
:10158000392F3A95F1F7949A392F3A95F1F730B30C
:1015900034FFFDCF215011F0880FE9CF94988AE1F4
:1015A000982F9A95F1F7919A982F9A95F1F7949A26
:1015B000982F9A95F1F790B394988A95F1F781E076
:1015C00091FD80E00895F82F20E030E080E0EAE12E
:1015D00060E870E094989E2F9A95F1F7949A9E2F68
:1015E0009A95F1F740B34295417092B392959170FC
:1015F00050E002C0559547959A95E2F740FFF2CF2B
:1016000040B34695417092B39695917050E002C0F8
:10161000559547959A95E2F740FF08C0AB01022E19
:1016200002C0559547950A94E2F7842B2F5F3F4FF0
:101630002830310579F694989AE19A95F1F7FF23CD
:1016400011F0919801C0919A9AE1292F2A95F1F70A
:10165000949A292F2A95F1F794989A95F1F708957D
:1016600097FB092E07260AD077FD04D00CD006D0B0
:1016700000201AF4709561957F4F0895F6F79095C4
:1016800081959F4F0895AA1BBB1B51E107C0AA1F5C
:10169000BB1FA617B70710F0A61BB70B881F991F13
:1016A0005A95A9F780959095BC01CD0108952F9288
:1016B0003F924F925F926F927F928F929F92AF92E2
:1016C000BF92CF92DF92EF92FF920F931F93CF932F
:1016D000DF93CDB7DEB7CA1BDB0B0FB6F894DEBFC6
:1016E0000FBECDBF09942A88398848885F846E84EC
:1016F0007D848C849B84AA84B984C884DF80EE8036
:10170000FD800C811B81AA81B981CE0FD11D0FB63E
:10171000F894DEBF0FBECDBFED010895FB019F0120
:10172000E8944230BCF04532ACF44A3029F497FBDF
:101730001EF4909581959F4F642F7727A4DF805DDD
:101740008A330CF0895D8193CB010097A9F716F4D9
:101750005DE251931082C90100C0DC01FC01672FDA
:1017600071917723E1F7329704C07C916D93708378
:0E1770006291AE17BF07C8F30895F894FFCF3B
:10177E005A6164003A002A00540000000000000084
:10178E000000000102020303030304040404040422
:10179E0004040505050505050505050505050505ED
:1017AE0005050606060606060606060606060606CD
:1017BE0006060606060606060606060606060606BB
:1017CE00060607070707070707070707070707079D
:1017DE00070707070707070707070707070707078B
:1017EE00070707070707070707070707070707077B
:1017FE00070707070707070707070707070707076B
:10180E00070708080808080808080808080808084C
:10181E00080808080808080808080808080808083A
:10182E00080808080808080808080808080808082A
:10183E00080808080808080808080808080808081A
:10184E00080808080808080808080808080808080A
:10185E0008080808080808080808080808080808FA
:10186E0008080808080808080808080808080808EA
:10187E0008080808080808080808080808080808DA
:10188E0008081E46B6072306F5AB84069231B1A3AF
:10189E0094B6049C143B9B8F3BBF3D0A6443145B80
:1018AE0094A758F70C2E879FDBB3D4E13639EE5F41
:1018BE0039BECD4C2643448F4CA27817CD296C8C63
:1018CE00A6B00C8D0E374B9312BDEC51DD420000CD
:1018DE0000009168F8249B2328AD13D1B534AAB526
:0618EE00D5BB14AE8142DF
:00000001FF
