:1000000012C019C018C017C016C015C014C013C044
:1000100012C011C010C00FC00EC00DC00CC00BC06C
:100020000AC009C008C011241FBECFE5D4E0DEBF5E
:10003000CDBFAED0BBC0E4CF7F928F929F92AF92E4
:10004000BF92CF92DF92EF92FF920F931F93DF93B5
:10005000CF9300D000D0CDB7DEB79FEF97BB82E043
:1000600088BB91BB12BA40E014E0712EB0E18B2E38
:1000700024EC39E0A8E79A2E52E0F2E1BF2EE4E347
:10008000AE2E78E1C72E69E0E62E9CE7D92E80E4FB
:10009000F82E50C060FF16C058BB9923B1F09130C4
:1000A000C9F09230E1F09330F9F0943011F19530CD
:1000B00021F1963031F1973041F1983051F199307A
:1000C00081F52BC078BA4A3010F4F2BA27C0E98122
:1000D000EA3010F4D2BA22C0FA81FA3010F4E2BA4F
:1000E0001DC0EB81EA3010F4C2BA18C0FC81FA30AE
:1000F00010F4A2BA13C00A3010F4B2BA0FC01A300A
:1001000010F452BB0BC0BA3010F492BA07C0AA3038
:1001100010F412BA03C08A3020F482BAF901319780
:10012000F1F76F5F7F4F6436710509F0B3CF4F5F12
:100130004436D1F0842F6AE02DD060E070E0842F47
:100140008A508983E42FE451EA83F42FFE51FB8324
:100150008E518C83042F0253142F1C53B42FB6548A
:10016000A42FA055825396CF80E090E00F900F907F
:100170000F900F90CF91DF911F910F91FF90EF9013
:10018000DF90CF90BF90AF909F908F907F90089519
:1001900053DFFECF991B79E004C0991F961708F032
:1001A000961B881F7A95C9F780950895F894FFCF1C
:00000001FF
