:100000000C94BB000C94D8000C94D8000C94D8002D
:100010000C94D8000C94D8000C94D8000C94D80000
:100020000C94D8000C94D8000C94D8000C94D800F0
:100030000C94D8000C94D8000C94D8000C94D800E0
:100040000C94D8000C94D8000C94D8000C94D800D0
:100050000C940B0C0C94390C0C94D8000C94D80014
:100060000C94D8000C94D8000C94D8000C94D800B0
:100070000C94D20C0C94000D0C94D80000407A1013
:10008000F35A00A0724E18090010A5D4E80000E849
:100090007648170000E40B54020000CA9A3B0000A7
:1000A00000E1F505000080969800000040420F0036
:1000B0000000A08601000000102700000000E803F7
:1000C000000000006400000000000A0000000000C2
:1000D0000100000000002C76D888DC674F0823DF81
:1000E000C1DFAE59E1B1B796E5E3E453C63AE65154
:1000F000997696E8E6C28426EB898C9B62ED407C7B
:100100006FFCEFBC9C9F40F2BAA56FA5F490055A16
:100110002AF75C936B6CF9676DC11BFCE0E40D473B
:10012000FEF520E6B500D0ED902E0300943577055E
:100130000080841E080000204E0A000000C80C3316
:100140003333330F986E12831141EF8D2114893BA5
:10015000E65516CFFEE6DB18D1844B381BF77C1D25
:10016000901DA4BBE424203284725E228100C9F178
:1001700024ECA1E53D2711241FBECFEFD0E1DEBF67
:10018000CDBF12E0A0E0B1E0E8EAF0E202C00590E5
:100190000D92A232B107D9F712E0A2E2B2E001C09B
:1001A0001D92A43BB107E1F70E94EA0B0C94521098
:1001B0000C940000A0E0B0E0E0EEF0E00C94D00D74
:1001C000FC01EA018081823008F43AC1DB019C9194
:1001D000923008F432C1843059F4943009F030C1BF
:1001E000918111968C911197981709F023C128C11C
:1001F000943009F422C19230B1F4823009F020C168
:10020000CA01AF0128E0DA010D90AD01DC010D92C9
:10021000CD012150C1F7DB0111968C91119791818D
:10022000892389830CC1823009F407C1C280D3803D
:10023000DB0112966D907C90139724813581468165
:1002400057811496ED90FD900D911C911797C60162
:10025000861997095C0197FF04C0AA24BB24A81A39
:10026000B90AB0E2AB16B1040CF062C01816190658
:100270006CF5370148010A2C04C096948794779452
:1002800067940A94D2F781E090E0A0E0B0E00A2CF5
:1002900004C0880F991FAA1FBB1F0A94D2F70197A9
:1002A000A109B1098E219F21A023B123EE24FF24AF
:1002B0008701E3940097A105B10519F4EE24FF240A
:1002C0008701E628F728082919293EC00097E1F19F
:1002D000CA0CDB1C39014A010A2C04C0969487948D
:1002E000779467940A94D2F781E090E0A0E0B0E0C0
:1002F0000A2C04C0880F991FAA1FBB1F0A94D2F7AB
:100300000197A109B10982239323A423B52321E0F6
:1003100030E040E050E00097A105B10521F420E075
:1003200030E040E050E026293729482959290CC0FF
:100330006C147D0424F4EE24FF24870105C06301BE
:1003400020E030E040E050E08181FB01918189179D
:1003500009F445C0882349F0D801C701821B930BDB
:10036000A40BB50B9C01AD0104C02E193F09400B35
:10037000510B57FD04C01982DB82CA820BC081E099
:100380008983DB82CA8250954095309521953F4FF5
:100390004F4F5F4F2C833D834E835F830DC0880F8B
:1003A000991FAA1FBB1F8C839D83AE83BF838A8145
:1003B0009B8101979B838A838C819D81AE81BF81C4
:1003C0009C01AD0121503040404050402F3FEFEFA5
:1003D0003E07EFEF4E07EFE35E0708F30BC089839C
:1003E000DB82CA822E0D3F1D401F511F2C833D838F
:1003F0004E835F8383E088832C813D814E815F81C2
:1004000057FF1DC0DA01C90181709070A070B070F3
:100410005695479537952795822B932BA42BB52B73
:100420008C839D83AE83BF838A819B8101969B834E
:100430008A8305C0E9E1F1E003C0FB0101C0FE01D0
:10044000CF01CDB7DEB7EEE00C94EC0DA0E2B0E04A
:10045000ECE2F2E00C94D80D69837A838B839C8361
:100460002D833E834F83588789E0E82EF12CEC0ED4
:10047000FD1ECE010196B7010E949D058E010F5E03
:100480001F4FCE010596B8010E949D05C701B80116
:10049000AE01475E5F4F0E94DA000E94CC04A09636
:1004A000E6E00C94F40DA0E2B0E0E9E5F2E00C9493
:1004B000D80D69837A838B839C832D833E834F83FE
:1004C00058878E01075F1F4FCE010196B8010E9429
:1004D0009D0591E1E92EF12CEC0EFD1ECE01059655
:1004E000B7010E949D058A8991E089278A8BC801FE
:1004F000B701AE01475E5F4F0E94DA000E94CC0454
:10050000A096E6E00C94F40DA0E2B0E0EAE8F2E098
:100510000C94CC0D69837A838B839C832D833E83DB
:100520004F835887CE010196BE01675F7F4F0E94BF
:100530009D05CE010596BE016F5E7F4F0E949D0511
:100540009985923078F089898230C0F0943019F41E
:10055000823041F4CEC0843019F4923079F4C9C0AD
:10056000923051F481E02A859A89291709F480E0B4
:100570008A87CE010996BFC0823051F481E02A8576
:100580009A89291709F480E08A8BCE014196B3C07D
:100590006D847E848F849888ED88FE880F89188DFD
:1005A000E0E2F0E080E090E0A0E0B0E0AA24BB242C
:1005B000650120E030E040E050E0B3016170707010
:1005C00061157105D9F02E0D3F1D401F511F1501FA
:1005D0002601280E391E4A1E5B1E81E090E0A0E035
:1005E000B0E02E153F054007510720F080E090E075
:1005F000A0E0B0E0820D931DA41DB51DAA0CBB1C8C
:10060000CC1CDD1C17FF09C061E0262E312C412CCB
:10061000512CA228B328C428D528319749F0EE0CD4
:10062000FF1C001F111F9694879477946794C5CF81
:100630006B897C89EB85FC856E0F7F1F6E5F7F4F1A
:100640007C8F6B8F61E0EA857A89E71709F460E0B7
:100650006A8F6B8D7C8D10C0FC01E170F07030975B
:1006600029F056954795379527955068B695A795E3
:10067000979587956F5F7F4FB7FDEECF0CC0880FC2
:10068000991FAA1FBB1F57FD8160220F331F441FF4
:10069000551F615070408030E0E09E07E0E0AE07FB
:1006A000E0E4BE0760F36B8F7C8F6FE7E62EF12CE2
:1006B000012D112DE822F9220A231B2360E4E616FE
:1006C000F1040105110561F487FD0AC0211531050A
:1006D0004105510529F0805C9F4FAF4FBF4F807897
:1006E0008D8F9E8FAF8FB8A383E0898FCE014996FF
:1006F00002C089E191E00E94CC04A096E2E10C9452
:10070000E80DA8E1B0E0E7E8F3E00C94D80D6983C8
:100710007A838B839C832D833E834F8358878E01FE
:10072000075F1F4FCE010196B8010E949D0581E130
:10073000E82EF12CEC0EFD1ECE010596B7010E94AD
:100740009D058985823040F08989823028F0C80172
:10075000B7010E94060601C08FEF6896E6E00C9490
:10076000F40DA8E1B0E0E7EBF3E00C94D80D698359
:100770007A838B839C832D833E834F8358878E019E
:10078000075F1F4FCE010196B8010E949D0581E1D0
:10079000E82EF12CEC0EFD1ECE010596B7010E944D
:1007A0009D058985823040F08989823028F0C80112
:1007B000B7010E94060601C081E06896E6E00C944D
:1007C000F40DA8E1B0E0E7EEF3E00C94D80D6983F6
:1007D0007A838B839C832D833E834F8358878E013E
:1007E000075F1F4FCE010196B8010E949D0581E170
:1007F000E82EF12CEC0EFD1ECE010596B7010E94ED
:100800009D058985823040F08989823028F0C801B1
:10081000B7010E94060601C081E06896E6E00C94EC
:10082000F40DA8E0B0E0E7E1F4E00C94D80D7B0112
:100830008C0183E08983D801C7018827B7FD8395A0
:100840009927AA27BB27282F8A83E114F1040105E1
:10085000110519F482E0898337C08EE190E09C8312
:100860008B83222389F080E0E81680E0F80680E0A0
:10087000080780E8180769F110950095F094E09456
:10088000E11CF11C011D111DED82FE820F831887F2
:10089000C801B7010E9471049C012150304012161A
:1008A000130694F4022E04C0EE0CFF1C001F111F4F
:1008B0000A94D2F7ED82FE820F8318878EE190E0D2
:1008C000821B930B9C838B83CE0101960E94CC04E8
:1008D00004C060E070E080E09FEC2896E6E00C94B5
:1008E000F40DAF92BF92CF92DF92EF92FF920F93EF
:1008F0001F937B018C0180E0E81680E0F80681E020
:10090000080780E0180760F4EFEFEE16F104010528
:10091000110509F098F480E090E0A0E0B0E017C085
:10092000F0E0EF16F0E0FF06F0E00F07F1E01F0740
:1009300050F480E190E0A0E0B0E009C088E090E0F1
:10094000A0E0B0E004C088E190E0A0E0B0E020E2E8
:1009500030E040E050E0281B390B4A0B5B0B57019D
:10096000680104C0D694C794B794A7948A95D2F727
:10097000D601C5018F5D9E4FFC018081281B310986
:1009800041095109C9011F910F91FF90EF90DF902C
:10099000CF90BF90AF900895EF92FF920F931F9367
:1009A000CF93DF93FC01248135814681578161819A
:1009B0008081823020F44061EFEFF0E0A6C0843007
:1009C00009F49DC0823009F494C021153105410518
:1009D000510509F491C00280F381E02D8FEFE238D8
:1009E000F8070CF05CC0C2E8DFEFCE1BDF0BCA31AA
:1009F000D10574F579018A010C2E04C0169507956E
:100A0000F794E7940A94D2F781E090E0A0E0B0E098
:100A10000C2E04C0880F991FAA1FBB1F0A94D2F77F
:100A20000197A109B10982239323A423B52321E0CF
:100A300030E040E050E00097A105B10521F420E04E
:100A400030E040E050E02E293F29402B512B04C0DC
:100A500020E030E040E050E0DA01C9018F7790708B
:100A6000A070B07080349105A105B10539F427FF5D
:100A700009C0205C3F4F4F4F5F4F04C0215C3F4F88
:100A80004F4F5F4FE1E0F0E0203080E0380780E03A
:100A9000480780E4580728F5E0E0F0E022C0E0389D
:100AA000F1056CF5E158FF4FDA01C9018F779070BD
:100AB000A070B07080349105A105B10539F427FF0D
:100AC00009C0205C3F4F4F4F5F4F04C0215C3F4F38
:100AD0004F4F5F4F57FF05C0569547953795279560
:100AE000319687E056954795379527958A95D1F7A2
:100AF0000CC0E0E0F0E005C0E0E0F0E006C0EFEFA1
:100B0000F0E020E030E040E050E08E2F879588272D
:100B10008795942F9F77679566276795E695E22ED0
:100B2000A92FA82BFE2FF62B622F732F8A2F9F2F12
:100B3000CDB7DEB7E6E00C94F40DDC01FB012C919F
:100B400011963C91119712968C911297482F4F77DE
:100B500050E0982F991F9927991F13966C9113971E
:100B6000862F880F892B90E0661F6627661F61839A
:100B7000009739F5211531054105510511F482E041
:100B800029C082E89FEF9383828367E0220F331F9F
:100B9000441F551F6A95D1F783E0808309C0220F57
:100BA000331F441F551F8281938101979383828352
:100BB000203080E0380780E0480780E4580778F369
:100BC00020C08F3F910579F421153105410551056C
:100BD00019F484E08083089544FF03C081E080839A
:100BE00010C010820EC08F5790409383828383E0A1
:100BF000808387E0220F331F441F551F8A95D1F74A
:100C0000506424833583468357830895FC01DB01B8
:100C10009081923008F449C08C91823008F445C02C
:100C2000943051F461818430B1F511962C91119773
:100C300030E0261B310941C0843021F0923041F46C
:100C40008230B1F111968C9111978823A1F12DC0BA
:100C50006181823001F111968C9111976817D9F456
:100C60002281338112968D919C911397821793075D
:100C700094F028173907BCF02481358146815781CB
:100C800014968D919D910D90BC91A02D8217930784
:100C9000A407B50718F4662341F00DC028173907DB
:100CA0004A075B0728F4662331F021E030E005C0F5
:100CB00020E030E002C02FEF3FEFC901089528B1D6
:100CC00081E090E00090220202C0880F991F0A94F0
:100CD000E2F7382F3095232328B927B1282B27B9DD
:100CE00080E897E00197F1F787B1832387B988E01F
:100CF00091E00197F1F788E796E00197F1F780E03E
:100D0000089597B121E030E00090220202C0220F46
:100D1000331F0A94E2F7922B97B995E09A95F1F771
:100D2000882321F097B12095292327B99AE49A9531
:100D3000F1F726B19091220230E0092E02C03595DC
:100D400027950A94E2F720FF80E020EF2A95F1F73B
:100D500047B121E030E002C0220F331F9A95E2F73D
:100D60002095242327B908950F931F93182F08E087
:100D7000812F81700E9481061695811110680150A3
:100D8000B9F7812F1F910F9108958FEF0E94B4063C
:100D900008952F923F924F925F926F927F928F921F
:100DA0009F92AF92BF92CF92DF92EF92FF920F93FA
:100DB0001F93DF93CF93CDB7DEB72A970FB6F89482
:100DC000DEBF0FBECDBF682EA62E4A871901B02EFA
:100DD000F9018081813049F480EC0E94EC0880E1C7
:100DE00090E00E941609F1011082FB2DF23071F0A3
:100DF000F33018F4F13089F406C08B2D833041F0C4
:100E0000843059F407C01092220207C081E003C069
:100E100082E001C083E0809322020E945F068CEC96
:100E20000E94B40684E40E94B406809126028130B8
:100E300051F48CEA93E020E931E0F9013197F1F7C0
:100E40000197D9F73EC0823051F488E597E020E958
:100E500031E0F9013197F1F70197D9F732C08330CA
:100E600099F484EC99E020E931E0F9013197F1F748
:100E70000197D9F782EE94E020E931E0F90131974A
:100E8000F1F70197D9F71DC08430D9F484EC99E0CB
:100E900020E931E0F9013197F1F70197D9F784ECB6
:100EA00099E020E931E0F9013197F1F70197D9F79D
:100EB00084EC99E020E931E0F9013197F1F70197ED
:100EC000D9F70E945F068CEC0E94B4068EEB0E945C
:100ED000B4060E94C506882E0E94C506182FE82F6A
:100EE000EE1FEE27EE1FE9870E945F06482C55246F
:100EF000712F777060E0640D751D882777FD8095F0
:100F0000982F0E94110420E030E040E85DE30E9449
:100F10008402162F072F982E792E7801D82EC92EED
:100F2000F985FF2309F470C0A7019601652F7E2D76
:100F3000832F922F20E030E04EEF52E40E94810395
:100F40001816B4F4682D6F7070E0882777FD8095CF
:100F5000982F0E94110420E030E040E85DE30E94F9
:100F600084029B01AC0160E070E080E89FE346C032
:100F7000A7019601652F7E2D832F922F20E030E070
:100F800040EE52E40E948103181614F5A701960161
:100F9000652F7E2D832F922F20E030E04EEF52E41C
:100FA0000E94E1031816A4F0B201882777FD80950E
:100FB000982F0E94110420E030E040E85DE30E9499
:100FC00084029B01AC0160E070E080E891E416C00F
:100FD000A801652F702F892D972D20E030E040EE7D
:100FE00052E40E94E10318167CF060E070E080E0BB
:100FF00093E4D8012B2F302F492D572D0E945302F7
:10100000F62EE72ED82EC92EA7019601652F7E2D2C
:10101000832F9C2D41E02A858E010F5F1F4F0E9478
:10102000030EAA2011F080EC01C080E8860D0E941A
:10103000EC0880E091E00E9402098B2D0E946C096F
:1010400082E091E00E940209A7019601652F7E2DA2
:10105000832F9C2D20E030E046EC52E40E94810377
:10106000181674F0A7019601652F7E2D832F9C2DF5
:1010700020E030E040E251E40E94B10387FF03C06A
:1010800086EC0E94EC08AA2011F080EC01C080E8F8
:10109000962D9D5F890F0E94EC088985882319F0A1
:1010A0008DE20E94F908CE0101960E940209AA2051
:1010B00011F080EC01C080E8162D1A5F9A85910F1F
:1010C000890F0E94EC08F1018081813041F0AA2053
:1010D00011F080EC01C080E8810F0E94EC082A9694
:1010E0000FB6F894DEBF0FBECDBFCF91DF911F9139
:1010F0000F91FF90EF90DF90CF90BF90AF909F90B7
:101100008F907F906F905F904F903F902F900895B9
:1011100080932602623069F0633018F4613081F404
:1011200005C0633041F0643059F407C010922202C8
:1011300007C081E003C082E001C083E08093220207
:101140000E945F068CEC0E94B4068EE40E94B406F6
:1011500080E00E94B40680E00E94B40680912602DE
:10116000813011F48FE10BC0823011F48FE307C09E
:10117000833011F48FE503C0843019F48FE70E94A7
:10118000B4060E945F0688E40E94B4060E945F06CF
:10119000809126020895159887FD159A149886FD6A
:1011A000149A139885FD139A129884FD129A119A35
:1011B00085E08A95F1F7119808951F93182F0E94E2
:1011C000CB08812F8295807F0E94CB0888EC90E02D
:1011D0000197F1F71F9108951F93182F10980E94FF
:1011E000DD08143020F480E49FE10197F1F71F91AE
:1011F0000895109A0E94DD08809121028F5F8093EC
:1012000021020895EF92FF92CF93DF93E82EE7013A
:101210007E01F92EE70102C00E94F9088991882316
:10122000D9F7DF91CF91FF90EF900895CF93DF939F
:1012300080E80E94EC08C4E0D1E0CE010E940209DF
:1012400080EC0E94EC08CE010E94020980E80E9416
:10125000EC08DF91CF910895CF93DF930A9A0B9A10
:101260000C9A0D9A089A099A119810988CE291E0BC
:1012700020E931E0F9013197F1F70197D9F788E3D7
:101280000E94CB0880E190E40197F1F788E30E9487
:10129000CB0880E991E00197F1F788E30E94CB0841
:1012A000C8ECD0E0CE010197F1F780E20E94CB08B4
:1012B0002197F1F788E20E94EC0888E00E94EC0890
:1012C00081E00E94EC0886E00E94EC088CE00E941D
:1012D000EC08DF91CF910895843009F1853048F40E
:1012E0008130B9F0813098F08230A9F0833031F547
:1012F00014C08730D1F0883028F4853091F08630E2
:10130000E9F411C0883099F08930C1F414C080E349
:101310000FC081E30DC082E30BC083E309C084E307
:1013200007C085E305C086E303C087E301C088E307
:101330000E94F908089589E30E94F9080895FF9230
:101340000F931F93CF93DF93EC018A30910510F434
:101350000E946C09CE010A978A35910560F4CE018E
:101360006AE070E00E94A50D082F862F0E946C098C
:10137000802F0E946C09CE018456904023E084386F
:101380009207B8F4CE0164E670E00E94A50D862FA6
:101390000E946C092AE030E0CE01B9010E94A50D3F
:1013A000082FCB01B9010E94A50D0E946C09802F66
:1013B00047C0CE01885E934033E28832930780F4C1
:1013C000CE0168EE73E00E94A50D862F0E946C0985
:1013D000CE0164E670E00E94A50D0AE010E01EC098
:1013E00087E2C031D80774F1CE0160E177E20E9454
:1013F000A50D862F0E946C09CE0168EE73E00E9455
:10140000A50D0AE010E0CB01B8010E94A50D0E94D5
:101410006C09CE0164E670E00E94A50DCB01B80115
:101420000E94A50D0E946C09CE01B8010E94A50D75
:10143000F82ECB01B8010E94A50D0E946C098F2DDA
:101440000E946C09DF91CF911F910F91FF90089539
:101450001F93DF93CF930F92CDB7DEB7182F8A304B
:1014600010F40E946C09812F8A508A3550F4812F24
:101470006AE00E94990D99830E946C099981892FD5
:1014800014C01436A0F0812F64E60E94990D0E94CA
:101490006C092AE0812F622F0E94990D192F0E945A
:1014A000990D892F0E946C09812F0E946C090F9061
:1014B000CF91DF911F91089584EA8093BC008091C1
:1014C000BC0087FFFCCF089584E98093BC00809125
:1014D000BC0084FDFCCF08958093BB0084E880931A
:1014E000BC008091BC0087FFFCCF08951F93DF9361
:1014F000CF930F92CDB7DEB7182F0E945C0A82EA15
:101500000E946C0A812F0E946C0A0E945C0A83EA86
:101510000E946C0A84E88093BC008091BC0087FF25
:10152000FCCF8091BB0089830E94640A89810F905F
:10153000CF91DF911F9108951F93DF93CF930F9267
:10154000CDB7DEB7182F69830E945C0A82EA0E9439
:101550006C0A812F0E946C0A6981862F0E946C0A96
:101560000E94640A0F90CF91DF911F9108950E940D
:10157000760A982F92959F70990F292F220F220F8C
:10158000290F8F70820F089580E00E94760A809361
:10159000270280912702827080932802809127027F
:1015A00008950E94C40A809127028F7B80932702AE
:1015B0006091270280E00E949C0A08950E94C40A5C
:1015C000809127028064809327026091270280E047
:1015D0000E949C0A0895CF92DF92EF92FF920F93A0
:1015E0001F93DF93CF930F92CDB7DEB7182F042F41
:1015F00069830E94DE0A81E00E94B70AF82E82E029
:101600000E94B70AE82E83E00E94B70AD82E84E031
:101610000E94B70AC82E0E94D10A802F815069818A
:10162000843008F03FC0662311F080EC01C080E8F0
:10163000810F0E94EC088C2D8A3018F480E30E9400
:10164000F9088C2D0E94280A802F8250833050F593
:101650008AE30E94F908ED2DEA3018F480E30E9435
:10166000F9088D2D0E94280A802F83508230D0F4F3
:101670008AE30E94F908FE2DFA3018F480E30E94F4
:10168000F9088E2D0E94280A043061F48AE30E9432
:10169000F9088F2D8A3018F480E30E94F9088F2D05
:1016A0000E94280A0F90CF91DF911F910F91FF9018
:1016B000EF90DF90CF900895AF92BF92CF92DF92DC
:1016C000EF92FF920F931F93CF93DF93182F062F64
:1016D000F42E0E94DE0A85E00E94760AE82E86E05B
:1016E0000E94760AD82E0E94D10A80E10E94760AD2
:1016F000C82E81E10E94760A382F20E0CC2DD0E060
:10170000C22BD32B2C2F30E023703070EE2DE295BE
:10171000E695E695E370F0E02E173F0751F021962D
:1017200080E16C2F0E949C0A81E15E016B2D0E947A
:101730009C0A8F2D8150843008F041C0002311F0A5
:1017400080EC01C080E89E2D9695969596959670B2
:10175000092F000F000F090F9E2D9F70090F810F99
:101760000E94EC080A3018F480E30E94F908802FE8
:101770000E94280A8F2D8250833008F58D2D869582
:10178000869586958270182F110F110F180F8D2DC9
:101790008F70180F8EE20E94F9081A3018F480E357
:1017A0000E94F908812F0E94280A8F2D83508230D1
:1017B00030F48EE20E94F908CE010E949F09DF9169
:1017C000CF911F910F91FF90EF90DF90CF90BF903E
:1017D000AF9008950E942C098CE090E00E94630C69
:1017E00085E191E00E94770D0E94160980E80E9431
:1017F000EC08C0E9D1E080E197E2FE013197F1F712
:101800000197D9F70E94440D182F0E94620D812F75
:101810000E94280AF0CF1F920F920FB60F92112448
:101820002F938F939F93EF93FF939091C00080919C
:10183000C600E0919002EF5FEF7120919102E217F4
:1018400041F09C71E0939002F0E0EE56FD4F8083F2
:1018500001C092E08091B202892B8093B202FF9185
:10186000EF919F918F912F910F900FBE0F901F902E
:1018700018951F920F920FB60F9211248F939F937A
:10188000EF93FF9390916E0280916F02981769F029
:10189000E0916F02EF5FEF71E0936F02F0E0E059CB
:1018A000FD4F80818093C60005C08091C1008F7D6F
:1018B0008093C100FF91EF919F918F910F900FBE88
:1018C0000F901F90189510926E0210926F02109256
:1018D00090021092910297FF03C022E02093C00073
:1018E000292F20782093C5008093C40088E9809335
:1018F000C10086E08093C20008959091900280918B
:1019000091029817A1F0809191028F5F8F71E82F5B
:10191000F0E0EE56FD4F90814091B202809391022B
:101920001092B202342F20E0290F311D02C020E0B6
:1019300031E0C901089590916E029F5F9F712091DF
:101940006F029217E1F3E92FF0E0E059FD4F808339
:1019500090936E028091C10080628093C1000895CF
:10196000EF92FF92CF93DF93E82EE7017E01F92EED
:10197000E70102C00E949B0C89918823D9F7DF916F
:10198000CF91FF90EF900895CF93DF93EC0102C0C9
:101990000E949B0CFE01219684918823C9F7DF9158
:1019A000CF9108951F920F920FB60F9211242F938B
:1019B0008F939F93EF93FF939091C8008091CE00F7
:1019C000E0914B02EF5FEF7120914C02E21741F082
:1019D0009C71E0934B02F0E0E35BFD4F808301C01C
:1019E00092E080916D02892B80936D02FF91EF91BF
:1019F0009F918F912F910F900FBE0F901F90189570
:101A00001F920F920FB60F9211248F939F93EF9313
:101A1000FF939091290280912A02981769F0E09132
:101A20002A02EF5FEF71E0932A02F0E0E55DFD4FDF
:101A300080818093CE0005C08091C9008F7D809306
:101A4000C900FF91EF919F918F910F900FBE0F9062
:101A50001F9018951092290210922A0210924B02A0
:101A600010924C0297FF03C022E02093C800292F58
:101A700020782093CD008093CC0088E98093C90022
:101A800086E08093CA00089590914B0280914C02A9
:101A90009817A1F080914C028F5F8F71E82FF0E0D2
:101AA000E35BFD4F908140916D0280934C02109258
:101AB0006D02342F20E0290F311D02C020E031E0FB
:101AC000C9010895909129029F5F9F7120912A0278
:101AD0009217E1F3E92FF0E0E55DFD4F80839093ED
:101AE00029028091C90080628093C9000895EF9215
:101AF000FF92CF93DF93E82EE7017E01F92EE701F5
:101B000002C00E94620D89918823D9F7DF91CF919D
:101B1000FF90EF900895CF93DF93EC0102C00E94F5
:101B2000620DFE01219684918823C9F7DF91CF9140
:101B30000895991B79E004C0991F961708F0961B29
:101B4000881F7A95C9F78095089597FB092E072677
:101B50000AD077FD04D00CD006D000201AF470957E
:101B600061957F4F0895F6F7909581959F4F089561
:101B7000AA1BBB1B51E107C0AA1FBB1FA617B707B3
:101B800010F0A61BB70B881F991F5A95A9F78095CF
:101B90009095BC01CD0108952F923F924F925F9294
:101BA0006F927F928F929F92AF92BF92CF92DF926D
:101BB000EF92FF920F931F93CF93DF93CDB7DEB7D2
:101BC000CA1BDB0B0FB6F894DEBF0FBECDBF099466
:101BD0002A88398848885F846E847D848C849B84BD
:101BE000AA84B984C884DF80EE80FD800C811B81CB
:101BF000AA81B981CE0FD11D0FB6F894DEBF0FBEFA
:101C0000CDBFED010895EF92FF920F931F93322FF6
:101C1000F02E47FF02C0A4E101C0A4E0E42FFF279B
:101C2000E7FDF095F7FF03C0F095E195FF4F4F2DCD
:101C3000512F2E2F032FEA2E0E94250E8F2D912F2C
:101C40001F910F91FF90EF900895A9E0B0E0EBE2B3
:101C5000FEE00C94D40D6A01F22E102F0C3318F410
:101C6000B02EB39402C0ECE3BE2EAE014F5F5F4FC7
:101C700027E00B2D0E947A0F298130E0A9014970DD
:101C800050704130510531F0E1FC06C0E0FE06C065
:101C9000E0E205C0EDE203C0EBE201C0E0E023FFBB
:101CA00036C0EE2311F084E001C083E08F1510F4FC
:101CB000F81A01C0FF24E4FC0BC08F2DD60190E27E
:101CC00002C09D9381508823E1F7CF0CD11CFF24E3
:101CD000EE2319F0D601ED936D01F6013196E2FE87
:101CE00005C08EE4D6018C9391E404C08EE6D60143
:101CF0008C9391E611969C93818332968F2DDF0110
:101D000090E202C09D9381508823E1F73CC022FFFE
:101D100040C0EE2311F084E001C083E08F1510F481
:101D2000F81A01C0FF24E4FC0BC08F2DD60190E20D
:101D300002C09D9381508823E1F7CF0CD11CFF2472
:101D4000EE2319F0D601ED936D01F6013196E2FE16
:101D500009C089E4D6018C938EE411968C93119777
:101D600086E407C089E6D6018C938EE611968C93A3
:101D700086E6818332968F2DDF0190E202C09D932B
:101D800081508823E1F7EF0DF11D10822EEF3FEF18
:101D9000ACC041E050E0EE2311F440E050E01816F2
:101DA000190624F4BC016F5F7F4F02C061E070E050
:101DB000640F751F112329F0412F50E04F5F5F4FD3
:101DC00002C040E050E0460F571F6F2D70E04617ED
:101DD00057071CF40F2D041B01C000E0FF24A701CE
:101DE00040715070E4FC0DC0E3FC0BC0602FD601C5
:101DF00070E202C07D9361506623E1F7C00ED11CF2
:101E000000E0EE2319F0D601ED936D014115510567
:101E100059F4402FF60150E302C05193415044233E
:101E2000E1F7C00ED11C00E0B80EFA80A9014071A4
:101E3000507024FF04C0BF2DB13309F4BA941B14B1
:101E40002CF4AB2DA93018F0A8E001C0A1E09C0152
:101E500097FF02C020E030E0BC016F5F7F4F621B44
:101E6000730BFE013196E60FF71F6EE2E62EBC0102
:101E70006A1B7109A12FB0E0AA24BB24AA1ABB0ACD
:101E80001FEF2F3F310719F4D601ED926D01821734
:101E900093072CF06217730714F4108101C010E34C
:101EA0002150304031962A153B0524F0D6011D9370
:101EB0006D01E6CF2817390749F4BF2DB63328F452
:101EC000B53321F44115510509F411E3F6011193DD
:101ED000802FDF0190E202C09D9381508823E1F7BB
:101EE000E00FF11D108220E030E0C9012996EAE000
:101EF0000C94F00D283008F027E03327DA01990F11
:101F0000311D87FD916000966105710539F43260DD
:101F10002E5F3D9330E32A95E1F708959F3F30F01F
:101F200080387105610509F03C5F3C5F3D9391305D
:101F300008F08068911DDF93CF931F930F93FF925A
:101F4000EF92192F987F9695E92F96959695E90F20
:101F5000FF27EA52FF4F99273327EE24FF24A701DA
:101F6000E70105900894079428F4360FE71EF81E41
:101F7000491F511D660F771F881F991F0694A1F7EF
:101F80000590079428F4E70EF81E491F561FC11D3F
:101F9000770F881F991F661F0694A1F70590079475
:101FA00028F4F80E491F561FC71FD11D880F991F0F
:101FB000661F771F0694A1F70590079420F4490F38
:101FC000561FC71FD81F990F661F771F881F0694BB
:101FD000A9F784911095177041F0D695C79557953C
:101FE0004795F794E7941A95C1F7ECE7F0E0689409
:101FF0001590159135916591959105907FE27395B6
:10200000E118F10A430B560BC90BD009C0F7E10CDC
:10201000F11E431F561FC91FD01D7EF4703311F4EB
:102020008A95E6CFE894015030F0080F0AF40027B3
:10203000021708F4202F2395022F7A3328F079E332
:102040007D932A95E9F710C07D932A9589F6069429
:1020500097956795379517951794E118F10A430BF3
:10206000560BC90BD00998F023957E9173957A335E
:1020700008F070E37C932013B8F77E9170617D9334
:1020800030F0839571E37D9370E32A95E1F7112495
:10209000EF90FF900F911F91CF91DF91992787FDCE
:0820A00090950895F894FFCF1C
:1020A80054003A002020202020202020202020201A
:1020B8002020202000686A6B00000000000000005B
:1020C80000000102020303030304040404040404DB
:1020D80004050505050505050505050505050505A9
:1020E8000506060606060606060606060606060689
:1020F8000606060606060606060606060606060678
:102108000607070707070707070707070707070758
:102118000707070707070707070707070707070747
:102128000707070707070707070707070707070737
:102138000707070707070707070707070707070727
:102148000708080808080808080808080808080808
:1021580008080808080808080808080808080808F7
:1021680008080808080808080808080808080808E7
:1021780008080808080808080808080808080808D7
:1021880008080808080808080808080808080808C7
:1021980008080808080808080808080808080808B7
:1021A80008080808080808080808080808080808A7
:1021B8000808080808080808080808080808080897
:0221C80008808D
:00000001FF
