:1000000012C02CC02BC02AC029C028C069C426C079
:1000100025C0C6C423C022C021C020C01FC01EC02E
:100020001DC01CC01BC011241FBECFE5D4E0DEBF25
:10003000CDBF10E0A0E6B0E0EAE1FCE002C0059030
:100040000D92A236B107D9F710E0A2E6B0E001C0E8
:100050001D92A638B107E1F723D4DDC5D1CF4F9269
:100060005F926F927F928F929F92AF92BF92CF9248
:10007000DF92EF92FF920F931F93CF93DF938FEF57
:1000800087BB18BA81BB12BA8FE384BB15BA81E073
:1000900080936A00809379008093720084E080935B
:1000A0007B008093810080937E00109273001092F9
:1000B000760040E0E0E0F0E020E011E030E2F32EF6
:1000C00090E1E92E88E0D82E04E0C02EB2E0BB2EED
:1000D000ACE39A2ECEEED2E070E2872E6CE3A62E31
:1000E00055E0752E33E6632E9DE0592E88E1482EAB
:1000F0009C9B03C01093600002C01092600080912E
:100100006000882311F488B318BA809160008130B0
:1001100079F700E080917B0080917E008F3139F487
:1001200080917B008F5F80937B0010937E00809195
:100130007B0080917E008E3139F480917B008F5F4F
:1001400080937B0010937E0080917B00823099F435
:1001500080918100843078F480917E008D3121F08F
:1001600080917E008C3139F480917B008F5F809389
:100170007B0010937E0080916600882309F0BAC04E
:10018000989B0BC080916B00882339F480916800A4
:100190008F5F8093680010936400999B0BC08091DF
:1001A0007D00882339F480917D008F5F80937D00EE
:1001B000109377009A9B0BC080917100882339F4CB
:1001C000809171008F5F80937100109366009B9BFC
:1001D0000FC080916D00882359F480916D008F5F6E
:1001E00080936D001092640010926800C698C798C2
:1001F00080916400882329F480917700882309F492
:10020000979A802F66E0D4D49923A9F48091640052
:10021000813009F4979880917700813019F48091AA
:10022000810002C0809170006AE0C2D4492FC59855
:1002300088B381275EC09130A9F480916400813039
:1002400009F4979A80917700813019F480918100A8
:1002500002C0809170006AE0ABD4482FC09888B388
:100260008B2547C0923081F480917700813019F45A
:1002700080917B0002C0809173006AE099D4492F7D
:10028000C19888B38C2535C0933081F48091770074
:10029000813019F480917B0002C0809173006AE084
:1002A00087D4482FC29888B38D2523C0943081F419
:1002B00080917700813019F480917E0002C0809196
:1002C00076006AE075D4492FC39888B38E2511C093
:1002D000953081F480917700813019F480917E000F
:1002E00002C0809176006AE063D4482FC49888B336
:1002F0008F2588BB80916600813009F07FC2989B72
:10030000AFC080916B00882309F0AAC080916B0078
:100310008F5F80936B00F13071F5213069F480912B
:10032000720081508093720080917200882309F0DE
:1003300097C04092720094C0223069F48091790095
:1003400081508093790080917900882309F088C0DA
:10035000A092790085C0233009F082C080916A00A4
:10036000815080936A0080916A00882309F078C0E8
:10037000A0926A0075C0F23071F5213069F4809165
:10038000720081508093720080917200882309F07E
:1003900067C08092720064C0223069F48091790055
:1003A00081508093790080917900882309F058C0AA
:1003B0005092790055C0233009F052C080916A00F4
:1003C000815080936A0080916A00882309F048C0B8
:1003D00060926A0045C0F43079F4213009F040C0E1
:1003E0008091720081508093720080917200882306
:1003F000B9F57092720034C0F63069F5213069F4B5
:1004000080917200815080937200809172008823E5
:1004100039F584E68093720023C0223069F480911C
:100420007900815080937900809179008823C1F40C
:1004300084E68093790014C0233091F480916A009F
:10044000815080936A0080916A00882349F484E691
:1004500080936A0005C0E23010F4E6E001C0E1508C
:10046000999BA1C080917D00882309F09CC0809158
:100470007D008F5F80937D00F13061F5213059F46C
:10048000809172008F5F8093720080917200893139
:1004900009F089C064C0223069F4809179008F5FCF
:1004A00080937900809179008C3309F07CC0F093BF
:1004B000790079C0233009F076C080916A008F5F9F
:1004C00080936A0080916A008C3309F06CC0F093CD
:1004D0006A0069C0F23041F5213059F48091720010
:1004E0008F5F8093720080917200803209F05BC050
:1004F00036C0223059F4809179008F5F8093790063
:10050000809179008D3009F04EC037C0233009F05A
:100510004AC080916A008F5F80936A0080916A0070
:10052000833609F040C037C0F43061F42130D9F58A
:10053000809172008F5F809372008091720085308D
:1005400091F50DC0F63051F5213061F480917200C3
:100550008F5F8093720080917200843621F5209322
:10056000720021C0223061F4809179008F5F809306
:100570007900809179008436B1F41093790013C02A
:10058000233089F480916A008F5F80936A008091A4
:100590006A00843641F410936A0005C0E63010F01A
:1005A000E1E001C0EF5F9A9B7BC0809171008823DE
:1005B00009F076C0809171008F5F809371002F5F8A
:1005C000243009F068C0E130B1F480916A008150B4
:1005D00080937000809179008150809373008091A6
:1005E0007200815080937600E0936A00E093790076
:1005F000E09372004DC0E23081F480916A00815036
:100600008093810080917900815080937B0080915C
:100610007200815080937E0035C0E33081F4809178
:100620006A00815080936F0080917900815080939F
:1006300084008091720081508093740023C0E43064
:1006400031F4809172008150809365001BC0E530C9
:10065000C9F0E63021F5809172002091790025568D
:1006600034E6839FC0011124280F209369008091F4
:10067000690020916A002150899DC0011124280F32
:100680002093670010936A00109379001093720012
:10069000E0E020E004C0E33011F4F1E001C0FE2FFF
:1006A0009B9B0BC080916D00882339F480916D0075
:1006B0008F5F80936D0010926600809164008823A4
:1006C00029F480917700882309F4979A3091660085
:1006D000313009F069C0802F66E06AD2992361F455
:1006E00080916A0090E001976AE070E06DD2482F37
:1006F000C59888B3832757C0913061F480916A0010
:1007000090E001976AE070E05FD2462FC09888B30E
:100710008B2549C09230A1F480917900F53039F0F1
:1007200090E001976AE070E04FD2482F05C08091B9
:100730007A006AE03DD2492FC19888B38C2533C036
:100740009330B9F480917900F53039F090E0019759
:100750006AE070E039D2462F08C080917A0064E6E2
:1007600027D2892F6AE024D2482FC29888B38D25DA
:100770001AC09430C9F480917200F53039F090E0DD
:1007800001976AE070E020D2482F0AC080917A0079
:1007900090E068EE73E018D264E670E015D2462F60
:1007A000C39888B38E2588BBFF2319F488B3807C57
:1007B00088BB802F66E0FCD1953001F58091660002
:1007C000813041F48091720090E001976AE070E01E
:1007D000FBD1462FF53059F480917A0090E060E12A
:1007E00077E2F2D168EE73E0EFD1462F03C0FF232A
:1007F00009F44E2FC49888B38F2588BB442329F46D
:1008000082B3807882BB969A43C0413031F482B380
:10081000807882BB82B38C6733C0423031F482B3BC
:10082000807882BB82B389602BC0433031F482B3BD
:10083000807882BB82B3886123C0443031F482B3B4
:10084000807882BB82B384631BC0453031F482B3AD
:10085000807882BB82B3826113C0463029F482B3B0
:10086000807882BB919A14C0473031F482B380788B
:1008700082BB82B3886704C0483021F482B3807899
:1008800082BB06C0493039F482B3807882BB949A27
:10089000CE010197F1F70F5F0C3309F03BCC28CC68
:1008A00083B7856083BF89B7816089BF80B7816066
:1008B00080BF1FBC8CE08EBD89B7806189BF7894F2
:1008C00086E49FE09BBD8ABDA098A198A298A398BA
:1008D000A498A89AA99AAA9AAB9AAC9AC0DBFECF20
:1008E0001F920F920FB60F9211248F939F938091B6
:1008F00070008F5F8093700080917C008F5F809389
:100900007C00809170008C33E9F41092700080912B
:1009100073008F5F80937300809173008C3391F428
:1009200010927300809176008F5F809376008091A3
:100930007600883139F480917E008F5F80937E004D
:100940001092760080916700882319F190916700DA
:1009500080917C009817E9F4809170008F5F8093FC
:10096000700010927C00809170008C3339F41092EA
:100970007000809173008F5F80937300809173008B
:100980008C3339F410927300809176008F5F8093DE
:1009900076009F918F910F900FBE0F901F9018952A
:1009A0001F920F920FB60F9211248F939F938091F5
:1009B0006000813009F0EEC080916B00813069F4F5
:1009C000809180008F5F80938000809180008230D2
:1009D00021F410926B001092800080917D00813094
:1009E00069F4809175008F5F809375008091750028
:1009F000823021F410927D00109275008091710078
:100A0000813069F4809183008F5F809383008091AF
:100A10008300823021F41092710010928300809143
:100A20006D00813069F4809162008F5F8093620075
:100A300080916200823021F410926D001092620069
:100A4000809164008130A9F49091760080917400C7
:100A5000981779F49091730080918400981749F465
:100A60009091700080916F00981719F482E0809344
:100A7000680080916800823009F065C0809165004F
:100A8000813079F480916E008F5F80936E00809149
:100A90006E00823031F488B390E4892788BB1092CD
:100AA0006E0080916500823071F480916E008F5FDE
:100AB00080936E0080916E00823029F488B3805854
:100AC00088BB10926E0080916500833029F580917B
:100AD0006E008F5F80936E0080916E00823021F4F3
:100AE00088B390E4892788BB80916E00843021F41C
:100AF00088B390E4892788BB80916E00863019F412
:100B000088B3805888BB80916E00883029F488B300
:100B1000805888BB10926E0080916500843099F4F3
:100B200080916E008F5F80936E0080916E008230A6
:100B300011F4C69AC79880916E00843021F4C6984B
:100B4000C79A10926E00809185008A3078F4809167
:100B500085008F5F8093850080918500823031F41D
:100B600085B390E2892785BB10928500809177003C
:100B70008130B9F4809182008F5F809382009798D2
:100B8000809182008A3069F410927700979A1092CF
:100B9000820007C080916000882319F488B318BAD6
:100BA000AD989F918F910F900FBE0F901F90189549
:100BB000991B79E004C0991F961708F0961B881FAF
:100BC0007A95C9F78095089597FB092E07260AD0D4
:100BD00077FD04D00CD006D000201AF470956195F2
:100BE0007F4F0895F6F7909581959F4F0895AA1B22
:100BF000BB1B51E107C0AA1FBB1FA617B70710F008
:100C0000A61BB70B881F991F5A95A9F78095909539
:0A0C1000BC01CD010895F894FFCF58
:020C1A000100D7
:00000001FF
