:100000000C94CB010C94E31B0C9432160C94E80175
:100010000C94E8010C94E8010C9446160C94E80149
:100020000C94E8010C94E8010C94E8010C94E801AC
:100030000C94E8010C9493160C94E8010C94E801DC
:100040000C9450160C94E8010C94E8010C94E8010F
:100050000C94551C0C94BA1C0C94E8010C94E80107
:100060000C94E8010C94E8010C9497090C94E801B5
:100070000C94531D0C94811D0C94E801D70DEE0DCA
:10008000050E1C0E330E750E540EFE0FFE0F8D0E58
:10009000AE0EC60EDE0EF60E170F2F0F470F680FAF
:1000A000890FAA0FC20FDE0F000E010F110F0403FC
:1000B0000204000E1010110E000E111F101E080673
:1000C0000C04060C04040E00020400161911111190
:1000D0000204000E1111110E0204000E100E011E7A
:1000E0000204001F0204081F04001F0204081F006E
:1000F000000E151513110E00040604060406090669
:100100000C12120C00000000001F110A0A041F004C
:10011000010204081F02040803070F1F1F0F070333
:10012000030509111109050300000000000000008B
:1001300018040804180000000C12120C1F00000024
:100140001F1F1F1F1F1F1F1F000000000000001F98
:1001500007020F080010101007020F0808101010F7
:1001600007020F080018101007020F0800101810DF
:1001700007020F080010101807020F080010101FC8
:1001800007020F080810101F07020F080018101FA1
:1001900007020F080010181F07020F0800101F1F8A
:1001A000000E0E1F1F1F1F00000E0E15151F1F0033
:1001B000000E0E15151B1B00010204081F02040887
:1001C000060910080402110E000A000E1111110E8A
:1001D000000A000E010F110F000A00111111110E7B
:1001E000000A00111111110E000A00111111110E57
:1001F0001F0E04110E00110E1F0E040000110E0040
:100200001F0E04000411040E0E0400040E04040A60
:100210000E04000000000000001F1111110A04006C
:10022000001F1F1F1F0E04001F151F001F1F0E0E93
:10023000110A0A040A0A1100A800B000B800C000A0
:10024000C800D000D800E000E800F000F80000018D
:100250000801100118012001280130013801400176
:100260004801500158016001680170017801800166
:10027000880190019801A001A801B001B801C00156
:10028000C801D001D801E001E801F001F801000245
:1002900008021002180220022802300200407A10E0
:1002A000F35A00A0724E18090010A5D4E80000E827
:1002B0007648170000E40B54020000CA9A3B000085
:1002C00000E1F505000080969800000040420F0014
:1002D0000000A08601000000102700000000E803D5
:1002E000000000006400000000000A0000000000A0
:1002F0000100000000002C76D888DC674F0823DF5F
:10030000C1DFAE59E1B1B796E5E3E453C63AE65131
:10031000997696E8E6C28426EB898C9B62ED407C58
:100320006FFCEFBC9C9F40F2BAA56FA5F490055AF4
:100330002AF75C936B6CF9676DC11BFCE0E40D4719
:10034000FEF520E6B500D0ED902E0300943577053C
:100350000080841E080000204E0A000000C80C33F4
:100360003333330F986E12831141EF8D2114893B83
:10037000E65516CFFEE6DB18D1844B381BF77C1D03
:10038000901DA4BBE424203284725E228100C9F156
:1003900024ECA1E53D2711241FBECFEFD0E1DEBF45
:1003A000CDBF13E0A0E0B1E0E8E9F8E402C00590B9
:1003B0000D92A637B107D9F716E0A6E7B3E001C062
:1003C0001D92A83DB107E1F70E94451B0C944A24F9
:1003D0000C940000A0E0B0E0E0EFF1E00C94C01E4F
:1003E000FC01EA018081823008F43AC1DB019C9172
:1003F000923008F432C1843059F4943009F030C19D
:10040000918111968C911197981709F023C128C1F9
:10041000943009F422C19230B1F4823009F020C145
:10042000CA01AF0128E0DA010D90AD01DC010D92A7
:10043000CD012150C1F7DB0111968C91119791816B
:10044000892389830CC1823009F407C1C280D3801B
:10045000DB0112966D907C90139724813581468143
:1004600057811496ED90FD900D911C911797C60140
:10047000861997095C0197FF04C0AA24BB24A81A17
:10048000B90AB0E2AB16B1040CF062C01816190636
:100490006CF5370148010A2C04C096948794779430
:1004A00067940A94D2F781E090E0A0E0B0E00A2CD3
:1004B00004C0880F991FAA1FBB1F0A94D2F7019787
:1004C000A109B1098E219F21A023B123EE24FF248D
:1004D0008701E3940097A105B10519F4EE24FF24E8
:1004E0008701E628F728082919293EC00097E1F17D
:1004F000CA0CDB1C39014A010A2C04C0969487946B
:10050000779467940A94D2F781E090E0A0E0B0E09D
:100510000A2C04C0880F991FAA1FBB1F0A94D2F788
:100520000197A109B10982239323A423B52321E0D4
:1005300030E040E050E00097A105B10521F420E053
:1005400030E040E050E026293729482959290CC0DD
:100550006C147D0424F4EE24FF24870105C063019C
:1005600020E030E040E050E08181FB01918189177B
:1005700009F445C0882349F0D801C701821B930BB9
:10058000A40BB50B9C01AD0104C02E193F09400B13
:10059000510B57FD04C01982DB82CA820BC081E077
:1005A0008983DB82CA8250954095309521953F4FD3
:1005B0004F4F5F4F2C833D834E835F830DC0880F69
:1005C000991FAA1FBB1F8C839D83AE83BF838A8123
:1005D0009B8101979B838A838C819D81AE81BF81A2
:1005E0009C01AD0121503040404050402F3FEFEF83
:1005F0003E07EFEF4E07EFE35E0708F30BC089837A
:10060000DB82CA822E0D3F1D401F511F2C833D836C
:100610004E835F8383E088832C813D814E815F819F
:1006200057FF1DC0DA01C90181709070A070B070D1
:100630005695479537952795822B932BA42BB52B51
:100640008C839D83AE83BF838A819B8101969B832C
:100650008A8305C0E4E4F2E003C0FB0101C0FE01AF
:10066000CF01CDB7DEB7EEE00C94DC1EA0E2B0E027
:10067000ECE3F3E00C94C81E69837A838B839C833C
:100680002D833E834F83588789E0E82EF12CEC0EB2
:10069000FD1ECE010196B7010E94AD068E010F5ED0
:1006A0001F4FCE010596B8010E94AD06C701B801E3
:1006B000AE01475E5F4F0E94EA010E94DC05A096F2
:1006C000E6E00C94E41EA0E2B0E0E9E6F3E00C946E
:1006D000C81E69837A838B839C832D833E834F83DB
:1006E00058878E01075F1F4FCE010196B8010E9407
:1006F000AD0691E1E92EF12CEC0EFD1ECE01059622
:10070000B7010E94AD068A8991E089278A8BC801CA
:10071000B701AE01475E5F4F0E94EA010E94DC050F
:10072000A096E6E00C94E41EA0E2B0E0EAE9F3E073
:100730000C94BC1E69837A838B839C832D833E83B8
:100740004F835887CE010196BE01675F7F4F0E949D
:10075000AD06CE010596BE016F5E7F4F0E94AD06CD
:100760009985923078F089898230C0F0943019F4FC
:10077000823041F4CEC0843019F4923079F4C9C08B
:10078000923051F481E02A859A89291709F480E092
:100790008A87CE010996BFC0823051F481E02A8554
:1007A0009A89291709F480E08A8BCE014196B3C05B
:1007B0006D847E848F849888ED88FE880F89188DDB
:1007C000E0E2F0E080E090E0A0E0B0E0AA24BB240A
:1007D000650120E030E040E050E0B30161707070EE
:1007E00061157105D9F02E0D3F1D401F511F1501D8
:1007F0002601280E391E4A1E5B1E81E090E0A0E013
:10080000B0E02E153F054007510720F080E090E052
:10081000A0E0B0E0820D931DA41DB51DAA0CBB1C69
:10082000CC1CDD1C17FF09C061E0262E312C412CA9
:10083000512CA228B328C428D528319749F0EE0CB2
:10084000FF1C001F111F9694879477946794C5CF5F
:100850006B897C89EB85FC856E0F7F1F6E5F7F4FF8
:100860007C8F6B8F61E0EA857A89E71709F460E095
:100870006A8F6B8D7C8D10C0FC01E170F070309739
:1008800029F056954795379527955068B695A795C1
:10089000979587956F5F7F4FB7FDEECF0CC0880FA0
:1008A000991FAA1FBB1F57FD8160220F331F441FD2
:1008B000551F615070408030E0E09E07E0E0AE07D9
:1008C000E0E4BE0760F36B8F7C8F6FE7E62EF12CC0
:1008D000012D112DE822F9220A231B2360E4E616DC
:1008E000F1040105110561F487FD0AC021153105E8
:1008F0004105510529F0805C9F4FAF4FBF4F807875
:100900008D8F9E8FAF8FB8A383E0898FCE014996DC
:1009100002C084E492E00E94DC05A096E2E10C941F
:10092000D81EA8E1B0E0E7E9F4E00C94C81E6983A2
:100930007A838B839C832D833E834F8358878E01DC
:10094000075F1F4FCE010196B8010E94AD0681E1FD
:10095000E82EF12CEC0EFD1ECE010596B7010E948B
:10096000AD068985823040F08989823028F0C8013F
:10097000B7010E94160701C08FEF6896E6E00C945D
:10098000E41EA8E1B0E0E7ECF4E00C94C81E698333
:100990007A838B839C832D833E834F8358878E017C
:1009A000075F1F4FCE010196B8010E94AD0681E19D
:1009B000E82EF12CEC0EFD1ECE010596B7010E942B
:1009C000AD068985823040F08989823028F0C801DF
:1009D000B7010E94160701C081E06896E6E00C941A
:1009E000E41EA8E1B0E0E7EFF4E00C94C81E6983D0
:1009F0007A838B839C832D833E834F8358878E011C
:100A0000075F1F4FCE010196B8010E94AD0681E13C
:100A1000E82EF12CEC0EFD1ECE010596B7010E94CA
:100A2000AD068985823040F08989823028F0C8017E
:100A3000B7010E94160701C081E06896E6E00C94B9
:100A4000E41EA8E0B0E0E7E2F5E00C94C81E7B01EC
:100A50008C0183E08983D801C7018827B7FD83957E
:100A60009927AA27BB27282F8A83E114F1040105BF
:100A7000110519F482E0898337C08EE190E09C83F0
:100A80008B83222389F080E0E81680E0F80680E07E
:100A9000080780E8180769F110950095F094E09434
:100AA000E11CF11C011D111DED82FE820F831887D0
:100AB000C801B7010E9481059C01215030401216E7
:100AC000130694F4022E04C0EE0CFF1C001F111F2D
:100AD0000A94D2F7ED82FE820F8318878EE190E0B0
:100AE000821B930B9C838B83CE0101960E94DC05B5
:100AF00004C060E070E080E09FEC2896E6E00C9493
:100B0000E41EAF92BF92CF92DF92EF92FF920F93CB
:100B10001F937B018C0180E0E81680E0F80681E0FD
:100B2000080780E0180760F4EFEFEE16F104010506
:100B3000110509F098F480E090E0A0E0B0E017C063
:100B4000F0E0EF16F0E0FF06F0E00F07F1E01F071E
:100B500050F480E190E0A0E0B0E009C088E090E0CF
:100B6000A0E0B0E004C088E190E0A0E0B0E020E2C6
:100B700030E040E050E0281B390B4A0B5B0B57017B
:100B8000680104C0D694C794B794A7948A95D2F705
:100B9000D601C501845B9D4FFC018081281B310972
:100BA00041095109C9011F910F91FF90EF90DF900A
:100BB000CF90BF90AF900895EF92FF920F931F9345
:100BC000CF93DF93FC012481358146815781618178
:100BD0008081823020F44061EFEFF0E0A6C08430E5
:100BE00009F49DC0823009F494C0211531054105F6
:100BF000510509F491C00280F381E02D8FEFE238B6
:100C0000F8070CF05CC0C2E8DFEFCE1BDF0BCA3187
:100C1000D10574F579018A010C2E04C0169507954B
:100C2000F794E7940A94D2F781E090E0A0E0B0E076
:100C30000C2E04C0880F991FAA1FBB1F0A94D2F75D
:100C40000197A109B10982239323A423B52321E0AD
:100C500030E040E050E00097A105B10521F420E02C
:100C600030E040E050E02E293F29402B512B04C0BA
:100C700020E030E040E050E0DA01C9018F77907069
:100C8000A070B07080349105A105B10539F427FF3B
:100C900009C0205C3F4F4F4F5F4F04C0215C3F4F66
:100CA0004F4F5F4FE1E0F0E0203080E0380780E018
:100CB000480780E4580728F5E0E0F0E022C0E0387B
:100CC000F1056CF5E158FF4FDA01C9018F7790709B
:100CD000A070B07080349105A105B10539F427FFEB
:100CE00009C0205C3F4F4F4F5F4F04C0215C3F4F16
:100CF0004F4F5F4F57FF05C056954795379527953E
:100D0000319687E056954795379527958A95D1F77F
:100D10000CC0E0E0F0E005C0E0E0F0E006C0EFEF7E
:100D2000F0E020E030E040E050E08E2F879588270B
:100D30008795942F9F77679566276795E695E22EAE
:100D4000A92FA82BFE2FF62B622F732F8A2F9F2FF0
:100D5000CDB7DEB7E6E00C94E41EDC01FB012C917C
:100D600011963C91119712968C911297482F4F77BC
:100D700050E0982F991F9927991F13966C911397FC
:100D8000862F880F892B90E0661F6627661F618378
:100D9000009739F5211531054105510511F482E01F
:100DA00029C082E89FEF9383828367E0220F331F7D
:100DB000441F551F6A95D1F783E0808309C0220F35
:100DC000331F441F551F8281938101979383828330
:100DD000203080E0380780E0480780E4580778F347
:100DE00020C08F3F910579F421153105410551054A
:100DF00019F484E08083089544FF03C081E0808378
:100E000010C010820EC08F5790409383828383E07E
:100E1000808387E0220F331F441F551F8A95D1F727
:100E2000506424833583468357830895FC01DB0196
:100E30009081923008F449C08C91823008F445C00A
:100E4000943051F461818430B1F511962C91119751
:100E500030E0261B310941C0843021F0923041F44A
:100E60008230B1F111968C9111978823A1F12DC098
:100E70006181823001F111968C9111976817D9F434
:100E80002281338112968D919C911397821793073B
:100E900094F028173907BCF02481358146815781A9
:100EA00014968D919D910D90BC91A02D8217930762
:100EB000A407B50718F4662341F00DC028173907B9
:100EC0004A075B0728F4662331F021E030E005C0D3
:100ED00020E030E002C02FEF3FEFC90108952BB1B1
:100EE00081E090E00090310402C0880F991F0A94BD
:100EF000E2F7382F309523232BB92AB1282B2AB9B2
:100F000080E897E00197F1F78AB183238AB988E0F6
:100F100091E00197F1F788E796E00197F1F780E01B
:100F200008959AB121E030E00090310402C0220F10
:100F3000331F0A94E2F7922B9AB995E09A95F1F74C
:100F4000882321F09AB1209529232AB99AE49A9509
:100F5000F1F729B19091310430E0092E02C03595A6
:100F600027950A94E2F720FF80E020EF2A95F1F719
:100F70004AB121E030E002C0220F331F9A95E2F718
:100F8000209524232AB908950F931F93182F08E062
:100F9000812F81700E949107169581111068015070
:100FA000B9F7812F1F910F9108958FEF0E94C40709
:100FB00008952F923F924F925F926F927F928F92FD
:100FC0009F92AF92BF92CF92DF92EF92FF920F93D8
:100FD0001F93DF93CF93CDB7DEB729970FB6F89461
:100FE000DEBF0FBECDBF382EB62E49873901F901BD
:100FF0008081813049F480EC0E944E1380E190E0C2
:101000000E947813F30110820E946F078CEC0E94FB
:10101000C4078EEB0E94C4070E94D507882E0E9449
:10102000D507182F282E221C2224221C0E946F076D
:10103000482C5524712F777060E0640D751D88274A
:1010400077FD8095982F0E94210520E030E040E850
:101050005DE30E949403162F072FA82E992E780186
:10106000D82EC92E222009F470C0A7019601652F41
:101070007E2D832F922F20E030E04EEF52E40E942D
:1010800091041816B4F4682D6F7070E0882777FD0E
:101090008095982F0E94210520E030E040E85DE334
:1010A0000E9494039B01AC0160E070E080E89FE344
:1010B00046C0A7019601652F7E2D832F922F20E039
:1010C00030E040EE52E40E949104181614F5A70196
:1010D0009601652F7E2D832F922F20E030E04EEF7A
:1010E00052E40E94F1041816A4F0B201882777FD9B
:1010F0008095982F0E94210520E030E040E85DE3D4
:101100000E9494039B01AC0160E070E080E891E4F0
:1011100016C0A801652F702F8A2D992D20E030E090
:1011200040EE52E40E94F10418167CF060E070E09A
:1011300080E093E4D8012B2F302F4A2D592D0E94A7
:101140006303F62EE72ED82EC92EA7019601652F30
:101150007E2D832F9C2D41E029858E010F5F1F4F2F
:101160000E94F31EBB2011F080EC01C080E8830DCB
:101170000E944E13A7019601652F7E2D832F9C2D73
:1011800020E030E046EC52E40E949104181674F01E
:10119000A7019601652F7E2D832F9C2D20E030E046
:1011A00040E251E40E94C10487FF03C086EC0E9424
:1011B0004E13BB2011F080EC01C080E8830D0E942B
:1011C0004E13222019F08DE20E945B13CE0101968E
:1011D0000E946413BB2011F080EC01C080E8132D45
:1011E0001D5F9985910F890F0E944E13F301808135
:1011F000813041F0BB2011F080EC01C080E8810F0C
:101200000E944E1329960FB6F894DEBF0FBECDBFD5
:10121000CF91DF911F910F91FF90EF90DF90CF90D2
:10122000BF90AF909F908F907F906F905F904F9006
:101230003F902F9008950F931F93DF93CF930F92BA
:10124000CDB7DEB78C01FC018081813059F480EC90
:1012500069830E944E1380E190E00E947813F801A8
:1012600010826981623049F0633018F4613041F4D2
:1012700004C0633011F0643019F487E080933104C6
:101280000E946F078CEC0E94C40784E40E94C4078C
:101290008FEF0F90CF91DF911F910F910895809361
:1012A0008403623049F0633018F4613041F404C0C3
:1012B000633011F0643019F487E0809331040E94A8
:1012C0006F078CEC0E94C4078EE40E94C40780E084
:1012D0000E94C40780E00E94C4078091840381308B
:1012E00011F48FE10BC0823011F48FE307C083301B
:1012F00011F48FE503C0843019F48FE70E94C4070E
:101300000E946F0788E40E94C4070E946F078091C3
:1013100084030895880F8093BA0085EC8093BC0005
:101320000895ECEBF0E080818B7B808308951F9221
:101330000F920FB60F9211242F938F939F93EF93D9
:10134000FF938091B900887F803609F442C0809174
:10135000B900887F8038D9F48091BB00882321F4BC
:1013600081E08093320431C08A3519F485B192E06E
:1013700004C08B3529F485B194E0892785B925C04F
:10138000E0913304F0E0ED5CFA4F808319C0809166
:10139000B900887F883B51F59091BB0085B124E06E
:1013A000822785B9809133048F3F11F490933304E1
:1013B000E0913304F0E0EC5CFB4F80818093BB0054
:1013C000809133048F5F80933304809133048F3F87
:1013D00021F08091BC00856C0CC08091BC008F7B9B
:1013E0008093BC008091BC00856803C08091BC00E4
:1013F00085648093BC00FF91EF919F918F912F9115
:101400000F900FBE0F901F9018958EBD0DB407FE64
:10141000FDCF8EB50895DF93CF930F92CDB7DEB792
:101420002C98880F8E7769830E94050A6981862F20
:101430000E94050A2C9A0F90CF91DF9108952C9865
:10144000880F8E7780680E94050A80E00E94050A56
:101450002C9A08951F93DF93CF930F92CDB7DEB7E9
:10146000182F69830E941F0A6981682B812F0E94AF
:101470000B0A0F90CF91DF911F9108951F93DF9377
:10148000CF930F92CDB7DEB7182F69830E941F0A42
:10149000698160956823812F0E940B0A0F90CF917C
:1014A000DF911F91089584E10E941F0A90E08370EC
:1014B0009070009721F484E163E00E942A0A089565
:1014C00084E163E00E943E0A089581E06FE00E949B
:1014D0000B0A08958FEF85B98FEB84B98CB58165C0
:1014E0008CBD0E94650A8AE26DE80E940B0A8BE2BD
:1014F0006EE30E940B0A8DE26EE10E940B0A8CE201
:1015000060E00E940B0A85E160E40E940B0A81E121
:101510006DE30E940B0A0E94530A08954F925F9256
:101520007F928F929F92AF92BF92CF92DF92EF9273
:10153000FF920F931F93DF93CF9300D0CDB7DEB709
:10154000F82EA62E722E832E68018C50833050F414
:1015500090E0FC01E159FC4FE0808E589C4FFC016B
:10156000908002C09924EE246E2D606882E0498349
:101570007A830E940B0A84E060E80E943E0A8AE0B7
:1015800060E80E942A0A81E060E00E940B0A7A81EA
:101590000A2D172F442455244981A42EBB2409C0A9
:1015A000F80161918F0189E00E940B0A0894411CA7
:1015B000511C4A145B04A0F381E06F2D0E940B0ABA
:1015C000FF2DFC3021F48DE060E80E942A0A60EDD6
:1015D000A62E67E0B62E84E00E941F0A082F08940A
:1015E000A108B108A114B10421F080FD02C0892135
:1015F00091F38DE060E80E943E0AA114B10409F461
:1016000048C086E00E941F0A8B7109F042C0E022A8
:1016100081E0E822EF2DEC30F1F58AE00E941F0A0C
:10162000982F8CE099830E941F0A87709981292F37
:1016300030E0882351F02150304053E0220F331F17
:101640005A95E1F7280F311D05C043E0220F331FE3
:101650004A95E1F7F60131832083992319F09131FE
:1016600018F403C091E001C090E1072D182DAA24C1
:10167000BB24C92EDD2409C089E00E941F0AF8019D
:1016800081938F010894A11CB11CAC14BD04A0F37C
:1016900002C082E0E82E8E2D0F900F90CF91DF9147
:1016A0001F910F91FF90EF90DF90CF90BF90AF9080
:1016B0009F908F907F905F904F900895FF920F932F
:1016C0001F93DF93CF9300D0CDB7DEB7F82E8B01F9
:1016D0008DE067E00E940B0AF801F0828CE0B8010F
:1016E00041E098018E010F5F1F4F0E948E0A8823F0
:1016F00029F429813A812031310509F082E00F90E7
:101700000F90CF91DF911F910F91FF900895EF926D
:10171000FF920F931F93DF93CF9300D0CDB7DEB727
:101720007C018DE060E00E940B0A83E9F701808371
:1017300080E281838CE0B70142E097018E010F5F68
:101740001F4F0E948E0A882361F4F70190E020E089
:10175000319193272F5F2430D9F7F7012481921319
:1017600082E00F900F90CF91DF911F910F91FF902A
:10177000EF900895CF92DF92EF92FF920F931F9315
:10178000DF93CF930F92CDB7DEB7F82EE62E8A0106
:1017900085E064E099830E943E0A8AE060E80E9446
:1017A0002A0A99816F2D792F6B0106C0F60161918C
:1017B0006F0189E00E940B0A8C2D8F198E15B0F3F2
:1017C00081E063E00E940B0AFF24FA9485E00E9406
:1017D0001F0AFA9411F082FFF9CF82E20E941F0AD9
:1017E000F801808381E20E941F0AF80181830F9033
:1017F000CF91DF911F910F91FF90EF90DF90CF90ED
:1018000008950F931F93DF93CF93CDB7DEB72B9738
:101810000FB6F894DEBF0FBECDBF23E92B8320E7C0
:101820002C83282F392FD901FE013596CE010A9637
:101830002D912193E817F907D9F78E010D5F1F4FFE
:10184000C80167E0AE01465F5F4F0E94BA0B8CE0B3
:10185000B80149E098018E010F5F1F4F0E948E0A68
:10186000882339F489819A818831910511F48B811B
:1018700001C080E02B960FB6F894DEBF0FBECDBF3F
:10188000CF91DF911F910F9108950F931F93DF93D5
:10189000CF93CDB7DEB72E970FB6F894DEBF0FBE4D
:1018A000CDBFF9018B836C83842F952FBE016B5FB5
:1018B0007F4F9E01255F3F4FDC014D91CD01DB0144
:1018C0004D93BD01A217B307B9F780818B87818142
:1018D0008C8782818D8783818E879E012D5F3F4F0C
:1018E0008EE0B9014CE08E010F5F1F4F0E948E0AFF
:1018F000182F882321F488E00E941F0A83FF12E03A
:10190000812F2E960FB6F894DEBF0FBECDBFCF91BC
:10191000DF911F910F9108950F931F93DF93CF9342
:1019200000D0CDB7DEB78B0190E3FB0190838183BC
:10193000AB014E5F5F4FCB0162E00E94BA0B8CE0BF
:10194000B80144E098018E010F5F1F4F0E948E0A7C
:10195000882329F429813A812039310509F082E070
:101960000F900F90CF91DF911F910F910895CF921B
:10197000DF92EF92FF920F931F93DF93CF93CDB738
:10198000DEB764970FB6F894DEBF0FBECDBFD62E7C
:10199000C72E90EA9B838C8373E0E72EF12CEC0E2C
:1019A000FD1EC70162E0AE014B5F5F4F0E94BA0BA4
:1019B0008CE0B70144E097018E010F5F1F4F0E943A
:1019C0008E0A882399F589819A818430910571F571
:1019D0008B818F708A3051F59601832F922FDC0115
:1019E000F701CE0143962D912193E817F907D9F716
:1019F0008E010D5F1F4FC80160E1AE014D5E5F4F6C
:101A00000E94BA0B8CE0B80142E198018E010F5F91
:101A10001F4F0E948E0A882349F429813A8124307D
:101A2000310521F49B819F709A3009F082E0649621
:101A30000FB6F894DEBF0FBECDBFCF91DF911F91DF
:101A40000F91FF90EF90DF90CF9008950F931F9329
:101A5000DF93CF9300D000D000D0CDB7DEB780E5C4
:101A60008B831C828E010D5F1F4FC80162E0AE01A7
:101A70004B5F5F4F0E94BA0B8CE0B80144E09801C5
:101A80008E010F5F1F4F0E948E0A26960FB6F894A4
:101A9000DEBF0FBECDBFCF91DF911F910F91089593
:101AA000AF92BF92DF92EF92FF920F931F93DF935B
:101AB000CF930F92CDB7DEB7082FE62E5C9A28ECB5
:101AC00030E040E951E0FA013197F1F72150304020
:101AD000D1F78EEF99830E941C1D8AE68A95F1F753
:101AE0009981192FAA24BB24FF248AE6D82E0BC083
:101AF000F80181918F010E941C1D8D2D8A95F1F7AF
:101B00000894A11CB11CAE14BF0494F38EEF0E9484
:101B10001C1D88EC90E020E931E0F9013197F1F7E4
:101B20000197D9F75C9888EC90E020E931E0F90161
:101B30003197F1F70197D9F780E00F90CF91DF91BE
:101B40001F910F91FF90EF90DF90BF90AF9008959D
:101B5000549A5C9888E090E00E94E41C0895EF920B
:101B6000FF920F931F93DF93CF93CDB7DEB76E979E
:101B70000FB6F894DEBF0FBECDBF8B01FE013196CC
:101B80009EE1DF011D929A95E9F79AE099838A8395
:101B900090E049978631910508F030C2825C9F4FF2
:101BA000FC01EE0FFF1F0590F491E02D0994CE018A
:101BB000019662E00E94500D8EE1D8011D928A9537
:101BC000E9F740E4E42E4CE9F42E03C0C701019785
:101BD000F1F70E941A1E8823C9F3EBC1CE010196CA
:101BE00062E00E94500D8EE1D8011D928A95E9F7BE
:101BF00030E4E32E3CE9F32E03C0C7010197F1F76F
:101C00000E941A1E8823C9F3D4C1CE01019662E056
:101C10000E94500D8EE1D8011D928A95E9F720E4CB
:101C2000E22E2CE9F22E03C0C7010197F1F70E94C2
:101C30001A1E8823C9F3BDC1CE01019662E00E943D
:101C4000500D8EE1D8011D928A95E9F790E4E92EB6
:101C50009CE9F92E03C0C7010197F1F70E941A1EF3
:101C60008823C9F3A6C14B83CE01019663E00E948D
:101C7000500D8EE1D8011D928A95E9F780E4E82E97
:101C80008CE9F82E03C0C7010197F1F70E941A1ED4
:101C90008823C9F3B4E1EB2E0E94FE1CF801819366
:101CA0008F01EA94C9F7AAC14B83CE01019663E084
:101CB0000E94500D8EE1D8011D928A95E9F7A0E4AB
:101CC000EA2EACE9FA2E03C0C7010197F1F70E9492
:101CD0001A1E8823C9F3FAE0EF2E0E94FE1CF801B9
:101CE00081938F01EA94C9F789C14B83CE01019694
:101CF00063E00E94500D8EE1D8011D928A95E9F7AC
:101D0000E0E4EE2EECE9FE2E03C0C7010197F1F7E7
:101D10000E941A1E8823C9F34CC14B83CE01019641
:101D200063E00E94500D8EE1D8011D928A95E9F77B
:101D300070E4E72E7CE9F72E03C0C7010197F1F7A5
:101D40000E941A1E8823C9F364E1E62E0E94FE1C3D
:101D5000F80181938F01EA94C9F750C14B83CE01FA
:101D6000019663E00E94500D8EE1D8011D928A9584
:101D7000E9F750E4E52E5CE9F52E03C0C7010197B1
:101D8000F1F70E941A1E8823C9F313C14B83CE01B9
:101D9000019663E00E94500D8EE1D8011D928A9554
:101DA000E9F740E4E42E4CE9F42E03C0C7010197A3
:101DB000F1F70E941A1E8823C9F3FBC04B83CE01A2
:101DC000019663E00E94500D8EE1D8011D928A9524
:101DD000E9F730E4E32E3CE9F32E03C0C701019795
:101DE000F1F70E941A1E8823C9F3E3C04B83CE018A
:101DF000019663E00E94500D8EE1D8011D928A95F4
:101E0000E9F720E4E22E2CE9F22E03C0C701019786
:101E1000F1F70E941A1E8823C9F39AE0E92E0E9466
:101E2000FE1CF80181938F01EA94C9F7E7C04B8348
:101E3000CE01019663E00E94500D8EE1D8011D9203
:101E40008A95E9F780E4E82E8CE9F82E03C0C701F3
:101E50000197F1F70E941A1E8823C9F3AAC04B8389
:101E6000CE01019663E00E94500D8EE1D8011D92D3
:101E70008A95E9F7B0E4EB2EBCE9FB2E03C0C7015D
:101E80000197F1F70E941A1E8823C9F392C04B8371
:101E9000CE01019663E00E94500D8EE1D8011D92A3
:101EA0008A95E9F7A0E4EA2EACE9FA2E03C0C7014F
:101EB0000197F1F70E941A1E8823C9F3F8E0EF2E6C
:101EC0000E94FE1CF80181938F01EA94C9F796C025
:101ED0004B83CE01019663E00E94500D8EE1D80144
:101EE0001D928A95E9F7E0E4EE2EECE9FE2E03C0A0
:101EF000C7010197F1F70E941A1E8823C9F374E104
:101F0000E72E0E94FE1CF80181938F01EA94C9F725
:101F100075C04B83CE01019663E00E94500D8EE1A7
:101F2000D8011D928A95E9F760E4E62E6CE9F62E59
:101F300003C0C7010197F1F70E941A1E8823C9F355
:101F400054E1E52E0E94FE1CF80181938F01EA9472
:101F5000C9F754C04B83CE01019663E00E94500D37
:101F60008EE1D8011D928A95E9F740E4E42E4CE910
:101F7000F42E03C0C7010197F1F70E941A1E8823AF
:101F8000C9F317C04B83CE01019663E00E94500D48
:101F90008EE1D8011D928A95E9F730E4E32E3CE901
:101FA000F32E03C0C7010197F1F70E941A1E882380
:101FB000C9F30E94FE1CF801808320C04B83CE0130
:101FC000019663E00E94500D8EE1D8011D928A9522
:101FD000E9F720E4E22E2CE9F22E03C0C7010197B5
:101FE000F1F70E941A1E8823C9F395E0E92E0E949A
:101FF000FE1CF80181938F01EA94C9F76E960FB623
:10200000F894DEBF0FBECDBFCF91DF911F910F912E
:10201000FF90EF900895DF93CF93CDB7DEB7A397EE
:102020000FB6F894DEBF0FBECDBF282FCB01FE0147
:10203000319633E2DF011D923A95E9F72AA34BA3CB
:10204000243209F480C02532A8F4203209F43DC0BE
:10205000213248F42E3109F476C02F3168F52D3144
:1020600009F074C020C0223209F441C0233208F0C4
:102070006AC034C02A3209F455C02B3250F42732DA
:1020800009F461C0293209F444C0263209F05EC067
:1020900037C02C3209F457C02C3208F44CC02D3212
:1020A00009F054C050C0262F392FD90124E10D90DA
:1020B00001922150E1F747C0262F392FD9012AE09C
:1020C0000D9001922150E1F73EC0262F392FD90102
:1020D0002EE00D9001922150E1F735C0262F392FC7
:1020E000D90125E00D9001922150E1F72CC0262F57
:1020F000392FD90124E10D9001922150E1F723C03D
:10210000262F392FD90129E00D9001922150E1F7B6
:102110001AC0262F392FD90128E00D9001922150A5
:10212000E1F711C0262F392FD90123E10D9001923B
:102130002150E1F708C0262F392FD90124E10D9055
:1021400001922150E1F763E20E94500DA3960FB671
:10215000F894DEBF0FBECDBFCF91DF910895CF922F
:10216000DF92EF92FF920F931F93DF93CF93CDB740
:10217000DEB76F970FB6F894DEBF0FBECDBF8B01F1
:102180006E010894C11CD11C9EE1D6011D929A9546
:10219000E9F7803221F0813209F063C01CC0FB01F5
:1021A00016869BE099838A83DE0113968EE0019068
:1021B0000D928150E1F7F80101900020E9F7319785
:1021C000E01BF10BEC0FFD1F4383CE01019662E192
:1021D0000E94500D46C0DB0114961C92898372E068
:1021E000E72EF12CEC0EFD1EC701B8014F8F0E94A7
:1021F000331FF80101900020E9F73197E01BF10B44
:10220000EE0DFF1D4F8D4083C60167E00E94500D0B
:1022100060E4E62E6CE9F62E03C0C7010197F1F7E2
:102220000E941A1E8823C9F3FE0131968EE1DF0158
:102230001D928A95E9F76F0158E1E52EF12CEC0E1D
:10224000FD1E0E94FE1CF60181936F01EE15FF0535
:10225000C1F7D801FE01319687E101900D928150BE
:10226000E1F76F960FB6F894DEBF0FBECDBFCF91EA
:10227000DF911F910F91FF90EF90DF90CF90089525
:10228000DF93CF9300D00F92CDB7DEB71B829CE0D7
:1022900099838A83CE01019662E00E94500D0F90CF
:1022A0000F900F90CF91DF910895DF93CF9300D0DF
:1022B00000D0CDB7DEB71C829CE099838A836B8304
:1022C000CE01019663E00E94500D0F900F900F9089
:1022D0000F90CF91DF9108951F93DF93CF930F92CB
:1022E000CDB7DEB7182F5C9A28EC30E040E951E01A
:1022F000FA013197F1F721503040D1F7112341F025
:10230000812F69830E941C1D8AE68A95F1F76981F5
:10231000862F0E941C1D8AE68A95F1F7112319F079
:10232000812F0E941C1D88EC90E020E931E0F9012A
:102330003197F1F70197D9F75C9888EC90E020E9A4
:1023400031E0F9013197F1F70197D9F780E00F906B
:10235000CF91DF911F9108958EEF60E10E946C1183
:1023600008958EEF6EE00E946C110895AF92BF92B7
:10237000CF92DF92EF92FF920F931F93DF93CF9351
:1023800000D0CDB7DEB7D82EE42E5C9A28EC30E032
:10239000E0E9F1E0CF010197F1F721503040D1F7AA
:1023A0008D2D69837A830E941C1D8AE68A95F1F738
:1023B00069817A81062F172FAA24BB24FF24EAE61D
:1023C000CE2E0BC0F80181918F010E941C1D8C2D17
:1023D0008A95F1F70894A11CB11CAE14BF0494F3C4
:1023E0008D2D0E941C1D88EC90E020E931E0F90160
:1023F0003197F1F70197D9F75C9888EC90E020E9E4
:1024000031E0F9013197F1F70197D9F780E00F90AA
:102410000F90CF91DF911F910F91FF90EF90DF9080
:10242000CF90BF90AF9008950E941A1E882319F094
:102430000E94FE1C089580E00895EF92FF920F9392
:102440001F93CF93DF938C010E941A1E8823E1F320
:1024500080E49CE90197F1F7FF24F5E3EF2E09C032
:102460000E94FE1CC00FD11F88838E2D8A95F1F724
:10247000F3940E941A1ECF2DD0E0882389F7C00F55
:10248000D11F18828F2DDF91CF911F910F91FF9057
:10249000EF9008950F931F93DF93CF93CDB7DEB7DF
:1024A00064970FB6F894DEBF0FBECDBFFE01319624
:1024B00084E1DF011D928A95E9F781E0809387032B
:1024C0000E94FE1C8C3F910509F0B6C088EC90E09C
:1024D00020E931E0F9013197F1F70197D9F70E942E
:1024E000FE1C8530910509F4A1C08630910598F451
:1024F0008230910561F18330910528F48130910596
:1025000009F09AC020C08330910521F184309105F3
:1025100009F092C025C081319105C9F18231910540
:1025200028F48630910509F087C084C08231910576
:1025300009F441C08E3F910509F07EC08EEF6AEF2D
:102540000E946C1179C081E080937F0375C0109266
:102550007F0372C00E94781380E80E944E136CC003
:102560000E941412082F0E941412182FCE010196F7
:102570000E941D12112311F080EC01C080E8800F31
:102580000E944E13CE0101960E94641355C08E0125
:102590000F5F1F4FC8010E941D1280EC0E944E1356
:1025A000C8010E946413C8010E94151F909353062E
:1025B0008093520641C08E010F5F1F4FC8010E94D9
:1025C0001D1284E1F80111928A95E9F78DB79EB743
:1025D00008970FB6F8949EBF0FBE8DBFEDB7FEB73C
:1025E0003196ADB7BEB712961C930E93119780E04B
:1025F00091E09383828380913A0690913B06A0916B
:102600003C06B0913D0684839583A683B7830E94E0
:10261000631FEDB7FEB738960FB6F894FEBF0FBE36
:10262000EDBFC80166E00E94500D06C081E08093B6
:10263000800302C0109280031092870364960FB645
:10264000F894DEBF0FBECDBFCF91DF911F910F91E8
:1026500008955C9A08955C980895129887FD129ADF
:10266000139886FD139A149885FD149A159884FD85
:10267000159A169A85E08A95F1F7169808951F9392
:10268000182F0E942D13812F8295807F0E942D1379
:1026900088EC90E00197F1F71F9108951F93182F90
:1026A00017980E943F13143020F480E49FE10197B3
:1026B000F1F71F910895179A0E943F1380914C03E0
:1026C0008F5F80934C030895EF92FF92CF93DF9337
:1026D000E82EE7017E01F92EE70102C00E945B139C
:1026E00089918823D9F7DF91CF91FF90EF900895DA
:1026F000CF93DF9380E80E944E13C6E0D1E0CE0175
:102700000E94641380EC0E944E13CE010E94641359
:1027100080E80E944E13DF91CF910895CF93DF930D
:102720000D9A0C9A0B9A0A9A0F9A0E9A099A169871
:10273000179811988CE291E020E931E0F901319786
:10274000F1F70197D9F788E30E942D1380E190E417
:102750000197F1F788E30E942D1380E991E001973A
:10276000F1F788E30E942D13C8ECD0E0CE01019769
:10277000F1F780E20E942D132197F1F788E20E9481
:102780004E1388E00E944E1381E00E944E1386E0B3
:102790000E944E138EE00E944E13DF91CF91089558
:1027A0000F931F93DF93CF9300D000D0CDB7DEB748
:1027B00019821A821B821C8200D000D000D0EDB793
:1027C000FEB731968E010F5F1F4FADB7BEB71296A1
:1027D0001C930E93119727E131E033832283848386
:1027E00015820E94631F8DB79EB706960FB6F894A8
:1027F0009EBF0FBE8DBFC8010E9464130F900F9043
:102800000F900F90CF91DF911F910F910895843019
:1028100009F1853048F48130B9F0813098F0823088
:10282000A9F0833031F514C08730D1F0883028F416
:10283000853091F08630E9F411C0883099F0893004
:10284000C1F414C080E30FC081E30DC082E30BC06C
:1028500083E309C084E307C085E305C086E303C0C2
:1028600087E301C088E30E945B13089589E30E9417
:102870005B130895FF920F931F93CF93DF93EC01A7
:102880008A30910510F40E940714CE010A978A3508
:10289000910560F4CE016AE070E00E94A91E082F45
:1028A000862F0E940714802F0E940714CE018456A1
:1028B000904023E084389207B8F4CE0164E670E0DB
:1028C0000E94A91E862F0E9407142AE030E0CE0144
:1028D000B9010E94A91E082FCB01B9010E94A91EAF
:1028E0000E940714802F47C0CE01885E934033E2D8
:1028F0008832930780F4CE0168EE73E00E94A91E2F
:10290000862F0E940714CE0164E670E00E94A91E83
:102910000AE010E01EC087E2C031D80774F1CE0192
:1029200060E177E20E94A91E862F0E940714CE0163
:1029300068EE73E00E94A91E0AE010E0CB01B80126
:102940000E94A91E0E940714CE0164E670E00E9456
:10295000A91ECB01B8010E94A91E0E940714CE0136
:10296000B8010E94A91EF82ECB01B8010E94A91E31
:102970000E9407148F2D0E940714DF91CF911F91A1
:102980000F91FF9008951F93DF93CF930F92CDB7D0
:10299000DEB7182F8A3010F40E940714812F8A5056
:1029A0008A3550F4812F6AE00E94891E99830E9423
:1029B00007149981892F14C01436A0F0812F64E682
:1029C0000E94891E0E9407142AE0812F622F0E9414
:1029D000891E192F0E94891E892F0E940714812F9A
:1029E0000E9407140F90CF91DF911F910895EF92ED
:1029F000FF920F931F93CF93DF93082F000F000FC9
:102A0000000FE62EE7017E01F72EE70110E0812F8F
:102A1000800F8F7380640E944E13FE0184910E9488
:102A20005B131F5F2196183091F7DF91CF911F91B3
:102A30000F91FF90EF9008951F93DF93CF9300D0F5
:102A4000CDB7DEB7182F80E44A8369830E944E1306
:102A50004A816981442311F080EC01C080E8860F2F
:102A60000E944E13812F0E945B1380EC0E944E1334
:102A70000F900F90CF91DF911F910895382F3170F3
:102A800098B19E7F932B98B9982F9095917027B10C
:102A90002E7F292B27B9432F440F28B12D7F242BBC
:102AA00028B9492F440F27B12D7F242B27B9432F55
:102AB000440F440F440F25B1277F242B25B9492FFC
:102AC000440F440F440F24B1277F242B24B9330F24
:102AD000330F25B12B7F232B25B9990F990F24B1E3
:102AE0002B7F292B24B9982F90959170392F330F74
:102AF00025B12D7F232B25B98170382F330F24B1B9
:102B00002D7F232B24B925B12E7F292B25B924B164
:102B10002E7F282B24B9292F2295220F220F207CCB
:102B200098B19F7B922B98B98295880F880F807CF3
:102B300097B19F7B982B97B9089581E090E00E9410
:102B40003E155A9A5298089523B1220F83B1869563
:102B500096B136B1317028708470822B832B9270BD
:102B6000982B9093770380E090E00E943E1588ECCC
:102B700090E020E931E0F9013197F1F70197D9F7B9
:102B80003091770326B183B1817093B1990F990F7A
:102B9000990F20748295880F807E822B832B9071F1
:102BA000982B909377038091770380958093770398
:102BB0008091770390E08F709070009781F1809101
:102BC0007703807761F140E080E090E02091770327
:102BD00030E0082E02C0359527950A94E2F720FFD1
:102BE00002C04093780301964D5F4C3079F784E042
:102BF00090E02091770330E0082E02C035952795AC
:102C00000A94E2F720FF06C020917803280F235092
:102C10002093780301968730910559F702C01092EE
:102C2000780381E090E00E943E150895259A2D9842
:102C300053985B9A089582E084BD85BD92E397BD69
:102C400080936E000895109280008DE08093810043
:102C500089E09DE3909389008093880082E08093CF
:102C60006F0008951F920F920FB60F9211248F9349
:102C700089B18695869586958170809580931A0492
:102C80008F910F900FBE0F901F9018951F920F926B
:102C90000FB60F9211240F900FBE0F901F90189532
:102CA0001F920F920FB60F9211248F939F938091D2
:102CB000200490912104009759F180912204909171
:102CC00023040097D9F483B185FD02C02D9A11C069
:102CD0002D988091200490912104181619064CF427
:102CE0008091200490912104019790932104809376
:102CF0002004809124049091250405C08091220431
:102D0000909123040197909323048093220404C09C
:102D100010922304109222049F918F910F900FBE66
:102D20000F901F9018951F920F920FB60F921124BB
:102D30008F939F93809153038F5F80935303809170
:102D400053038C3309F088C01092530380915603CB
:102D50008F5F80935603809156038C3309F07CC0BB
:102D600010925603809157038F5F80935703809191
:102D70005703883109F070C01092570380915803AF
:102D80009091590301969093590380935803809131
:102D900058039091590380329105C9F180915803ED
:102DA000909159038F319105E9F480915A039091E4
:102DB0005B038430910559F180915A0390915B0334
:102DC0008630910521F180915A0390915B038930FF
:102DD0009105E9F080915A0390915B038B30910546
:102DE00029F515C080915803909159038E319105B2
:102DF00039F080915803909159038D319105B1F4C8
:102E000080915A0390915B038230910579F480910F
:102E10005A0390915B03019690935B0380935A034E
:102E200081E090E0909359038093580380915A0376
:102E300090915B038D30910579F481E090E090935F
:102E40005B0380935A0380915C0390915D0301962C
:102E500090935D0380935C0380916503909166037A
:102E6000009759F01198809165039091660301973E
:102E7000909366038093650301C0119A8091670364
:102E8000882329F0809167038150809367038091A4
:102E90006803882329F08091680381508093680338
:102EA00081E0809314049F918F910F900FBE0F903B
:102EB0001F90189580E090E0FC01EA5DFB4F1082C6
:102EC00001968A309105C1F708950F931F93CF9310
:102ED000DF9320E030E0122FF901EA5DFB4F908193
:102EE000992319F48823C1F514C09A3029F482304B
:102EF00080F0833089F50DC09C3019F4833060F583
:102F000008C0122F1F5F2F5F3F4F2A30310519F77E
:102F100002C0222309F11A30F9F0C0E0D0E020E02D
:102F200030E040E050E0FE01EA5DFB4F00810B30F5
:102F300009F400E0CA01B9012AE030E040E050E0C5
:102F40000E946A1E9B01AC01200F311D411D511DC5
:102F50002196C11744F304C02FEF3FEF4FEF5FEF0F
:102F6000B901CA01DF91CF911F910F910895DF92AE
:102F7000EF92FF920F931F93DF93CF9300D0CDB7C3
:102F8000DEB719821A8280EC0E944E138AE191E02A
:102F90000E94641380E090E061E070E0AE014F5F5A
:102FA0005F4F20916D0330916E03FB01082E02C02C
:102FB000EE0FFF1F0A94E2F72E233F232115310560
:102FC00091F020916B0330916C032E233F23E1E0BD
:102FD000F0E02115310511F0E0E0F0E0E40FF51F1D
:102FE00020812F5F208301968A309105D1F600E081
:102FF00010E060E091E0E92EF12C40916D035091DA
:103000006E0380916B0390916C039701002E02C0B8
:10301000220F331F0A94E2F78423952382239323FC
:10302000009789F08091690390916A03822393232A
:10303000009711F083E001C084E0D62ED39441E0E4
:103040000E941C156D2D0F5F1F4F0A301105A9F648
:1030500060E18A81681B00E010E081E0E82EF12C3D
:1030600040916D0350916E0380916B0390916C03BE
:103070009701002E02C0220F331F0A94E2F78095B9
:1030800090958423952382239323009789F0809140
:10309000690390916A0382239323009711F083E0E0
:1030A00001C084E0D62ED39441E00E941C156D2D02
:1030B0000F5F1F4F0A30110599F60F900F90CF91B7
:1030C000DF911F910F91FF90EF90DF9008951F9374
:1030D00080916403813079F580E065E040E00E94F2
:1030E0001C1586E80E944E13809156031AE0612F4A
:1030F0000E94891E805D0E945B1380915603612FA0
:103100000E94891E892F805D0E945B138AE30E94C2
:103110005B1380915303612F0E94891E805D0E9482
:103120005B1380915303612F0E94891E892F805D5C
:103130000E945B1315C080916403882389F481E0A9
:103140006AE040E00E941C1585E80E944E138BE265
:1031500091E00E94641382E06AE040E00E941C1546
:1031600080911C0480FD13C080911E0480FD0FC05F
:1031700080911B0480FF03C086E061E022C080E8EC
:103180000E944E1381E391E00E94641324C0809159
:103190001B0480FF0AC08091530380FF06C086E0B5
:1031A00061E040E00E941C1506C081E80E944E13B9
:1031B00080E20E945B138091530380FF06C087E08A
:1031C00060E040E00E941C1506C080E80E944E139B
:1031D00080E20E945B1380911C0481FD13C08091EA
:1031E0001E0481FD0FC080911B0481FF03C086E097
:1031F0006EE022C08EE80E944E1384E391E00E94AC
:10320000641324C080911B0481FF0AC08091530382
:1032100080FF06C086E06EE040E00E941C1506C0FC
:103220008EE80E944E1380E20E945B13809153034C
:1032300080FF06C087E06FE040E00E941C1506C0DA
:103240008FE80E944E1380E20E945B130E94B71722
:103250001F9108959C0177FF07C08FEF9FEF909318
:103260002104809320040FC0629FC001639F900DD2
:10327000729F900D112468EE73E00E94951E70936A
:1032800021046093200480E29EE4B9010E94951E0F
:103290007093250460932404089580916203882329
:1032A00061F0809120049091210497FD06C088E987
:1032B00098E068EE73E00E942A1908958091300426
:1032C0008823E1F0809178038823C1F080E090E0CA
:1032D000FC01EA5DFB4F2081222321F480917803D9
:1032E0008083089501968A30910591F78CE291E0F0
:1032F00068EE73E00E942A190E945A170895EF920F
:10330000FF920F931F938091160490918503981755
:1033100059F00E94781380EC0E944E13809116049D
:103320008093850311E001C010E00E945E19809136
:103330001604823009F49BC0833030F4882359F09E
:10334000813009F097C119C0833009F4F5C0843089
:1033500009F090C15CC11092170486E391E00E94CD
:10336000311D113021F48CE491E00E9464138091AE
:103370005303863008F482C16DC180931704109204
:1033800018048DE591E00E94311D113011F40E9466
:103390005A170E94671882E00E9465177B018C0112
:1033A00097FD40C089E791E00E94311DC7010E944E
:1033B000231E8EE891E00E94311D0E945A1788E07A
:1033C000E816F1040105110509F47AC0E114F104CD
:1033D0000105110529F482E08093160483E00AC0F8
:1033E00081E0E816F1040105110539F482E08093CB
:1033F000160481E080931B0441C182E0E816F104C9
:103400000105110521F482E080931604F3CF109298
:103410001B0480911B04882309F430C182E080934F
:1034200016042CC183E00E9465177B018C0197FD77
:1034300072C081E991E00E94311DC7010E94231EE4
:103440008EE891E00E94311D0E945A17E114F104A8
:103450000105110519F41092150410C110921504FC
:1034600080911504882309F409C186E0D8CF81E052
:10347000809317041092180486EA91E00E94311D8F
:10348000113011F40E945A170E94671882E00E94BE
:1034900065177B018C0197FD3EC089E791E00E9492
:1034A000311DC7010E94231E8EE891E00E94311D4C
:1034B0000E945A1788E0E816F1040105110511F47D
:1034C00084E0ADCFE114F1040105110539F482E087
:1034D0008093160480911B0483608CCF81E0E816F2
:1034E000F1040105110539F482E0809316048091FE
:1034F0001B0481607FCF82E0E816F104010511050D
:1035000039F482E08093160480911B04826072CFAC
:1035100010921B049AC080913004882309F4AEC035
:10352000809178038A3009F0A9C08091640391E00A
:10353000892780936403A2C081E0809317041092CE
:10354000180483EC91E00E94311D113041F484ECA9
:1035500099E06FEF7FEF0E942A190E945A170E948C
:10356000671882E00E9465177B018C0197FD32C0CD
:1035700089E791E00E94311DC7010E94231E8EE859
:1035800091E00E94311D0E945A1710921B048091F5
:103590001B04882369F190911C0480911B048923EA
:1035A00080931C0480911C04882341F084EC99E0F2
:1035B00060E070E00E942A1982E009C084EC99E082
:1035C00060E070E00E942A1910921E0481E080934E
:1035D00016040EC080913004882351F08091780346
:1035E0008A3031F48091640391E0892780936403E9
:1035F000809178038B3009F041C081E080931604FC
:1036000010921E0410921C0410921B0437C081E01B
:10361000809317041092180482EE91E00E94311DED
:10362000113011F40E945A170E94671880EC0E9412
:103630004E138EEF91E00E94641380913004882332
:1036400059F0809178038A3039F480911B048823E3
:1036500009F0E4CE81E0E3CE80913004882371F05C
:10366000809178038C3051F483E08093160480932A
:103670001E0404C08EE092E00E94311D10923004BE
:103680001F910F91FF90EF90089553985B9A0E94BD
:1036900016160E941B160E9423160E948E13119864
:1036A0000E949D1580E060EF70E00E94F71481E0B9
:1036B00068EF70E00E94F71482E060E071E00E9421
:1036C000F71483E068E072E00E94F71484E060E1A0
:1036D00072E00E94F71485E068E172E00E94F7143E
:1036E00086E060E272E00E94F71487E068E272E030
:1036F0000E94F7140E94A80D109269008DB3836098
:103700008DBB0E946A0A88E893E120E931E0F90163
:103710003197F1F70197D9F782E061E00E944F09F4
:1037200086E26DE576E00E945E0B80937106882349
:1037300011F580E80E944E138AE191E00E94641323
:1037400080E80E944E138DE596E00E94870B8093DF
:10375000710680E26DE576E041E00E94AF10CDE5B4
:10376000D6E089910E94D01380E20E945B1386E02C
:10377000C236D807B1F70E94781384E292E00E9423
:10378000641388E893E120E931E0F9013197F1F71A
:103790000197D9F7789483E392E00E94311DC0E449
:1037A000DCE980911404882321F00E947F19109293
:1037B0001404CE010197F1F7F4CF80E0089580E082
:1037C000089580E008951F920F920FB60F92112472
:1037D0001F932F933F934F935F936F937F938F9399
:1037E0009F93AF93BF93EF93FF9381E08093140473
:1037F000109178030E94A41580911704882391F1F9
:1038000080917803811771F180917803863029F1D6
:10381000873070F4833009F1843028F48130E9F086
:103820008230E9F41AC08430C1F08530C1F415C08B
:10383000893099F08A3028F4873079F0883079F42B
:103840000CC08B3029F08B3040F08C3041F405C037
:103850000E944D1910921A0402C00E944D1981E075
:103860008093300484EF91E020E931E0F901319751
:10387000F1F70197D9F780915E0390915F039093E0
:10388000660380936503FF91EF91BF91AF919F9184
:103890008F917F916F915F914F913F912F911F91E8
:1038A0000F900FBE0F901F9018951F920F920FB69A
:1038B0000F9211241F932F933F934F935F936F9316
:1038C0007F938F939F93AF93BF93EF93FF93109149
:1038D000C0008091C6001C71909186039923B1F4B9
:1038E0008C3F89F5E0918903EF5FEF719091880338
:1038F000E91739F0E0938903F0E0EF50FC4F808343
:1039000001C012E081E0809386031DC09130D9F49C
:103910008C3F79F0E0918903EF5FEF71909188031C
:10392000E91781F0E0938903F0E0EF50FC4F8083CA
:103930000AC080918703882331F4109286030E9485
:103940004A1201C012E080911104812B809311046E
:10395000FF91EF91BF91AF919F918F917F916F9167
:103960005F914F913F912F911F910F900FBE0F903C
:103970001F9018951F920F920FB60F9211248F93DC
:103980009F93EF93FF939091CF038091D00398176B
:1039900069F0E091D003EF5FEF71E093D003F0E0C6
:1039A000EF52FC4F80818093C60005C08091C1001A
:1039B0008F7D8093C100FF91EF919F918F910F9028
:1039C0000FBE0F901F9018951092CF031092D00346
:1039D000109289031092880397FF03C022E020937E
:1039E000C000292F20782093C5008093C40088E967
:1039F0008093C10086E08093C2000895909189036E
:103A0000809188039817A1F0809188038F5F8F7150
:103A1000E82FF0E0EF50FC4F90814091110480932B
:103A2000880310921104342F20E0290F311D02C0A9
:103A300020E031E0C90108959091CF039F5F9F710D
:103A40002091D0039217E1F3E92FF0E0EF52FC4F01
:103A500080839093CF038091C10080628093C100E6
:103A60000895EF92FF92CF93DF93E82EE7017E0156
:103A7000F92EE70102C00E941C1D89918823D9F705
:103A8000DF91CF91FF90EF900895CF93DF93EC01FA
:103A900002C00E941C1DFE01219684918823C9F753
:103AA000DF91CF9108951F920F920FB60F921124BC
:103AB0002F938F939F93EF93FF939091C8008091E2
:103AC000CE00E091AC03EF5FEF712091AD03E21700
:103AD00041F09C71E093AC03F0E0E255FC4F808331
:103AE00001C092E08091CE03892B8093CE03FF9199
:103AF000EF919F918F912F910F900FBE0F901F907C
:103B000018951F920F920FB60F9211248F939F93C7
:103B1000EF93FF9390918A0380918B03981769F03C
:103B2000E0918B03EF5FEF71E0938B03F0E0E457DC
:103B3000FC4F80818093CE0005C08091C9008F7DAD
:103B40008093C900FF91EF919F918F910F900FBECD
:103B50000F901F90189510928A0310928B03109269
:103B6000AC031092AD0397FF03C022E02093C8007E
:103B7000292F20782093CD008093CC0088E9809372
:103B8000C90086E08093CA0008959091AC038091AB
:103B9000AD039817A1F08091AD038F5F8F71E82F6F
:103BA000F0E0E255FC4F90814091CE038093AD034D
:103BB0001092CE03342F20E0290F311D02C020E0E7
:103BC00031E0C901089590918A039F5F9F71209110
:103BD0008B039217E1F3E92FF0E0E457FC4F808369
:103BE00090938A038091C90080628093C9000895F0
:103BF000EF92FF92CF93DF93E82EE7017E01F92E3B
:103C0000E70102C00E94E31D89918823D9F7DF9163
:103C1000CF91FF90EF900895CF93DF93EC0102C016
:103C20000E94E31DFE01219684918823C9F7DF914C
:103C3000CF910895209188039091890381E02917FD
:103C400009F480E008950F931F93DF93CF93CDB7CE
:103C5000DEB72C970FB6F894DEBF0FBECDBF8E0136
:103C60000F5F1F4FB8014AE050E00E943A1FC801A1
:103C70000E94311D2C960FB6F894DEBF0FBECDBF4B
:103C8000CF91DF911F910F9108951F93E4E7F6E024
:103C9000119286E0E83DF807D9F710E005C02C58EE
:103CA000394FF90180831F5F0E94FE1C212F30E0F5
:103CB0008823A9F72C58394FF90110828091740696
:103CC000882319F420E030E002C024E736E0C9017F
:103CD0001F910895629FD001739FF001829FE00DB4
:103CE000F11D649FE00DF11D929FF00D839FF00D7B
:103CF000749FF00D659FF00D9927729FB00DE11D27
:103D0000F91F639FB00DE11DF91FBD01CF01112403
:103D10000895991B79E004C0991F961708F0961B27
:103D2000881F7A95C9F780950895AA1BBB1B51E19E
:103D300007C0AA1FBB1FA617B70710F0A61BB70B1B
:103D4000881F991F5A95A9F780959095BC01CD01C0
:103D5000089597FB092E07260AD077FD04D0E5DFEA
:103D600006D000201AF4709561957F4F0895F6F7FC
:103D7000909581959F4F08952F923F924F925F9219
:103D80006F927F928F929F92AF92BF92CF92DF926B
:103D9000EF92FF920F931F93CF93DF93CDB7DEB7D0
:103DA000CA1BDB0B0FB6F894DEBF0FBECDBF099464
:103DB0002A88398848885F846E847D848C849B84BB
:103DC000AA84B984C884DF80EE80FD800C811B81C9
:103DD000AA81B981CE0FD11D0FB6F894DEBF0FBEF8
:103DE000CDBFED010895EF92FF920F931F93322FF5
:103DF000F02E47FF02C0A4E101C0A4E0E42FFF279A
:103E0000E7FDF095F7FF03C0F095E195FF4F4F2DCB
:103E1000512F2E2F032FEA2E0E946D218F2D912FCF
:103E20001F910F91FF90EF900895FC01882799272B
:103E3000E89421912032E9F3293010F02E30C8F3B4
:103E40002B3241F02D3239F4689404C00E945B1F7C
:103E5000820F911D219120532A30C0F31EF49095BA
:103E600081959F4F0895FB01DC0101900D92002088
:103E7000E1F70895FB019F01E8944230C4F0453218
:103E8000B4F44A3029F497FB1EF4909581959F4F26
:103E9000642F77270E94951E805D8A330CF0895D20
:103EA0008193CB010097A1F716F45DE25193108244
:103EB000C9010C94B0237AE0979F902D879F802DA5
:103EC000910D11240895AEE0B0E0E9E6FFE10C9415
:103ED000CA1E0D891E8986E08C831A8309838FEFA1
:103EE0009FE79E838D839E01275E3F4FCE01019603
:103EF0006F89788DA9010E94861FEF81F885E00FF8
:103F0000F11F10822E96E4E00C94E61EACE0B0E0C7
:103F1000ECE8FFE10C94BC1E6C011B018A01FC0162
:103F200017821682838181FFD1C12E010894411C22
:103F3000511CF6019381F10193FD859193FF8191CD
:103F40001F01882309F4BEC1853239F493FD8591A0
:103F500093FF81911F01853229F490E0B6010E9400
:103F6000C023E7CFEE24FF2420E02032B0F48B32D0
:103F700069F08C3228F4803251F0833271F40BC036
:103F80008D3239F0803349F421602CC022602460E6
:103F900029C0286027C0206125C027FD2CC0382FEC
:103FA00030533A3098F426FF08C08E2D880FE82E43
:103FB000EE0CEE0CE80EE30E15C08F2D880FF82ED8
:103FC000FF0CFF0CF80EF30E20620CC08E3221F4B1
:103FD00026FD78C1206406C08C3611F4206802C02A
:103FE000883649F4F10193FD859193FF81911F017A
:103FF000882309F0BACF982F9554933018F0905237
:10400000933028F40C5F1F4FFFE3F9830DC0833614
:1040100031F0833771F0833509F060C022C0F801B8
:10402000808189830E5F1F4F420171E0A72EB12C62
:1040300016C062E0662E712C600E711EF801808041
:10404000918026FF03C06E2D70E002C06FEF7FEFFE
:10405000C4012C870E94A5235C0183012C852F7746
:1040600017C052E0652E712C600E711EF801808021
:10407000918026FF03C06E2D70E002C06FEF7FEFCE
:10408000C4012C870E949A235C012C85206883013F
:1040900023FD20C008C080E290E0B6012C870E947A
:1040A000C023FA942C858F2D90E0A816B90698F3BA
:1040B00011C0F40127FD859127FF81914F0190E008
:1040C000B6012C870E94C0232C85F110FA94089425
:1040D000A108B108A114B10461F7F1C0843611F050
:1040E000893649F527FF08C0F80160817181828116
:1040F00093810C5F1F4F09C0F8016081718188278F
:1041000077FD8095982F0E5F1F4F4FE6B42EB22299
:1041100097FF09C090958095709561957F4F8F4F5F
:104120009F4FF0E8BF2AA2012AE030E00E94EC2372
:10413000782E741845C0853731F43FEEB32EB22285
:104140002AE030E025C099EFB92EB2228F36C1F0B7
:10415000803720F4883509F0B5C00DC0803721F0D4
:10416000883709F0AFC002C020E1B22AB4FE0BC00C
:1041700084E0B82A08C0B4FE09C0E6E0BE2A06C042
:1041800028E030E005C020E130E002C020E132E06C
:10419000B7FE08C0F80160817181828193810C5F54
:1041A0001F4F07C0F8016081718180E090E00E5FD1
:1041B0001F4FA2010E94EC23782E7418FFE7BF2244
:1041C000B6FE0BC02EEFB2227E1438F4B4FE07C048
:1041D000B2FC05C08FEEB82202C0A72C01C0AE2CE5
:1041E0008B2D90E0B4FE0DC0FE01E70DF11D208186
:1041F000203319F4E9EEBE2209C0A394B2FE06C032
:1042000004C086789070009709F0A3948B2C9924B1
:10421000B3FC14C0B0FE0FC0AF1428F4E72CEF0CB1
:10422000EA18AF2C08C0E72C06C080E290E0B60187
:104230000E94C023A394AF14C0F304C0AF1410F4C1
:10424000FA1801C0FF2484FE0FC080E390E0B6019D
:104250000E94C02382FE1FC081FE03C088E590E05B
:1042600010C088E790E00DC0C40186789070009778
:1042700091F081FC02C080E201C08BE2B7FC8DE2CC
:1042800090E0B6010E94C02306C080E390E0B60132
:104290000E94C023EA947E14C0F37A94F201E70DE1
:1042A000F11D808190E0B6010E94C0237720A9F71C
:1042B00006C080E290E0B6010E94C023FA94FF207D
:1042C000C1F737CEF6012681378102C02FEF3FEFCD
:1042D000C9012C96E2E10C94D81EA9E0B0E0E3E716
:1042E000F1E20C94C41E6A01F22E102F0C3318F464
:1042F000B02EB39402C0ECE3BE2EAE014F5F5F4F11
:1043000027E00B2D0E94C222298130E0A9014970CB
:1043100050704130510531F0E1FC06C0E0FE06C0AE
:10432000E0E205C0EDE203C0EBE201C0E0E023FF04
:1043300036C0EE2311F084E001C083E08F1510F445
:10434000F81A01C0FF24E4FC0BC08F2DD60190E2C7
:1043500002C09D9381508823E1F7CF0CD11CFF242C
:10436000EE2319F0D601ED936D01F6013196E2FED0
:1043700005C08EE4D6018C9391E404C08EE6D6018C
:104380008C9391E611969C93818332968F2DDF0159
:1043900090E202C09D9381508823E1F73CC022FF48
:1043A00040C0EE2311F084E001C083E08F1510F4CB
:1043B000F81A01C0FF24E4FC0BC08F2DD60190E257
:1043C00002C09D9381508823E1F7CF0CD11CFF24BC
:1043D000EE2319F0D601ED936D01F6013196E2FE60
:1043E00009C089E4D6018C938EE411968C931197C1
:1043F00086E407C089E6D6018C938EE611968C93ED
:1044000086E6818332968F2DDF0190E202C09D9374
:1044100081508823E1F7EF0DF11D10822EEF3FEF61
:10442000ACC041E050E0EE2311F440E050E018163B
:10443000190624F4BC016F5F7F4F02C061E070E099
:10444000640F751F112329F0412F50E04F5F5F4F1C
:1044500002C040E050E0460F571F6F2D70E0461736
:1044600057071CF40F2D041B01C000E0FF24A70117
:1044700040715070E4FC0DC0E3FC0BC0602FD6010E
:1044800070E202C07D9361506623E1F7C00ED11C3B
:1044900000E0EE2319F0D601ED936D0141155105B1
:1044A00059F4402FF60150E302C051934150442388
:1044B000E1F7C00ED11C00E0B80EFA80A9014071EE
:1044C000507024FF04C0BF2DB13309F4BA941B14FB
:1044D0002CF4AB2DA93018F0A8E001C0A1E09C019C
:1044E00097FF02C020E030E0BC016F5F7F4F621B8E
:1044F000730BFE013196E60FF71F6EE2E62EBC014C
:104500006A1B7109A12FB0E0AA24BB24AA1ABB0A16
:104510001FEF2F3F310719F4D601ED926D0182177D
:1045200093072CF06217730714F4108101C010E395
:104530002150304031962A153B0524F0D6011D93B9
:104540006D01E6CF2817390749F4BF2DB63328F49B
:10455000B53321F44115510509F411E3F601119326
:10456000802FDF0190E202C09D9381508823E1F704
:10457000E00FF11D108220E030E0C9012996EAE049
:104580000C94E01E283008F027E03327DA01990F59
:10459000311D87FD916000966105710539F4326027
:1045A0002E5F3D9330E32A95E1F708959F3F30F069
:1045B00080387105610509F03C5F3C5F3D939130A7
:1045C00008F08068911DDF93CF931F930F93FF92A4
:1045D000EF92192F987F9695E92F96959695E90F6A
:1045E000FF27EA50FD4F99273327EE24FF24A70128
:1045F000E70105900894079428F4360FE71EF81E8B
:10460000491F511D660F771F881F991F0694A1F738
:104610000590079428F4E70EF81E491F561FC11D88
:10462000770F881F991F661F0694A1F705900794BE
:1046300028F4F80E491F561FC71FD11D880F991F58
:10464000661F771F0694A1F70590079420F4490F81
:10465000561FC71FD81F990F661F771F881F069404
:10466000A9F784911095177041F0D695C795579585
:104670004795F794E7941A95C1F7ECE9F2E068944E
:104680001590159135916591959105907FE27395FF
:10469000E118F10A430B560BC90BD009C0F7E10C26
:1046A000F11E431F561FC91FD01D7EF4703311F435
:1046B0008A95E6CFE894015030F0080F0AF40027FD
:1046C000021708F4202F2395022F7A3328F079E37C
:1046D0007D932A95E9F710C07D932A9589F6069473
:1046E00097956795379517951794E118F10A430B3D
:1046F000560BC90BD00998F023957E9173957A33A8
:1047000008F070E37C932013B8F77E9170617D937D
:1047100030F0839571E37D9370E32A95E1F71124DE
:10472000EF90FF900F911F91CF91DF91992787FD17
:1047300090950895FC010590615070400110D8F7E4
:10474000809590958E0F9F1F0895FC0161507040D9
:1047500001900110D8F7809590958E0F9F1F0895B6
:10476000DC01FC01672F71917723E1F7329704C0D8
:104770007C916D9370836291AE17BF07C8F3089563
:104780000F931F93CF93DF938C01EB018B8181FFFC
:104790001BC082FF0DC02E813F818C819D81281717
:1047A000390764F4E881F9810193F983E88306C04D
:1047B000E885F985802F0995009731F48E819F81D6
:1047C00001969F838E8302C00FEF1FEFC801DF9118
:1047D000CF911F910F910895FA01AA27283051F126
:1047E000203181F1E8946F936E7F6E5F7F4F8F4F22
:1047F0009F4FAF4FB1E03ED0B4E03CD0670F781F81
:10480000891F9A1FA11D680F791F8A1F911DA11D65
:104810006A0F711D811D911DA11D20D009F468949E
:104820003F912AE0269F11243019305D3193DEF646
:10483000CF010895462F4770405D4193B3E00FD0FC
:10484000C9F7F6CF462F4F70405D4A3318F0495DE7
:1048500031FD4052419302D0A9F7EACFB4E0A695CA
:104860009795879577956795BA95C9F700976105EC
:10487000710508959B01AC010A2E06945795479542
:1048800037952795BA95C9F7620F731F841F951F37
:08489000A01D0895F894FFCF6C
:1048980025302E31660020202020202020202020B6
:1048A8002020202020200025580020202020202003
:1048B80020202020202020202020002D32312E37BB
:1048C800002020002000436F6E74726F6C4C6F6F75
:1048D800705F537461727475700A0D0020494E49F7
:1048E8005449414C49534154494F4E2000436F6E3F
:1048F80074726F6C4C6F6F705F4D61696E5669654D
:10490800775F49646C650A0D004B45595041445F17
:10491800434F4D4D414E445F484153483A000A0DBC
:10492800004B45595041445F434F4D4D414E445F04
:10493800535441523A00436F6E74726F6C4C6F6FF0
:10494800705F4D61696E566965775F566967696C16
:104958000A0D00436F6E74726F6C4C6F6F705F4D11
:1049680061696E566965775F416C61726D65640A4D
:104978000D00436F6E74726F6C4C6F6F705F506197
:104988006E69635F436F6E6669726D0A0D002A2057
:104998004E6F202020202020596573202300436F6C
:1049A8006E74726F6C4C6F6F705F64656661756C66
:1049B800740A0D0053797374656D20737461727491
:1049C80065640053797374656D20737461727465DE
:1049D800640A0D000000000000000000000102024F
:1049E800030303030404040404040404050505057F
:1049F800050505050505050505050505060606065B
:104A0800060606060606060606060606060606063E
:104A1800060606060606060606060606070707072A
:104A2800070707070707070707070707070707070E
:104A380007070707070707070707070707070707FE
:104A480007070707070707070707070707070707EE
:104A580007070707070707070707070708080808DA
:104A680008080808080808080808080808080808BE
:104A780008080808080808080808080808080808AE
:104A8800080808080808080808080808080808089E
:104A9800080808080808080808080808080808088E
:104AA800080808080808080808080808080808087E
:104AB800080808080808080808080808080808086E
:104AC800080808080808080808080808080808085E
:104AD80008080808080808080808080880FFFFFFF1
:104AE800FFFFFF000000000001000100E2073C009A
:104AF800141E0101013C00141EAA02F003FF0377F3
:064B080000123000100055
:00000001FF
