:1000000099C0F3C54DC6B1C0B0C0AFC0AFC7ADC099
:10001000ACC077C6AAC050C878C8A7C0A6C0A5C043
:10002000A4C0A3C0A2C038C139C13AC13BC13CC1C0
:100030003DC13EC13FC140C142C100407A10F35AA8
:1000400000A0724E18090010A5D4E80000E8764818
:10005000170000E40B54020000CA9A3B000000E1C4
:10006000F505000080969800000040420F00000057
:10007000A08601000000102700000000E803000037
:1000800000006400000000000A0000000000010001
:10009000000000002C76D888DC674F0823DFC1DF22
:1000A000AE59E1B1B796E5E3E453C63AE651997625
:1000B00096E8E6C28426EB898C9B62ED407C6FFC5F
:1000C000EFBC9C9F40F2BAA56FA5F490055A2AF7A1
:1000D0005C936B6CF9676DC11BFCE0E40D47FEF5AA
:1000E00020E6B500D0ED902E030094357705008012
:1000F000841E080000204E0A000000C80C33333371
:10010000330F986E12831141EF8D2114893BE65510
:1001100016CFFEE6DB18D1844B381BF77C1D901DF3
:10012000A4BBE424203284725E228100C9F124EC55
:10013000A1E53D2711241FBECFE5D4E0DEBFCDBF32
:1001400012E0A0E6B0E0E6E9FBE102C005900D9206
:10015000AE31B107D9F712E0AEE1B2E001C01D92B5
:10016000A73DB107E1F71BD414CD4ACFC59887FD51
:10017000C59AC49886FDC49AC39885FDC39AC2984F
:1001800084FDC29AC19A85E08A95F1F7C1980895D5
:100190001F93182FEBDF812F8295807FE7DF88EC9C
:1001A00090E00197F1F71F9108951F93182FC098C1
:1001B000EFDF143020F480E49FE10197F1F71F9105
:1001C0000895C09AE5DF8091A3008F5F8093A3001C
:1001D0000895EF92FF92CF93DF93E82EE7017E011F
:1001E000F92EE70101C0EDDF89918823E1F7DF9166
:1001F000CF91FF90EF900895CF93DF9380E8D5DF04
:10020000C0E6D0E0CE01E5DF80ECCFDFCE01E1DF5C
:1002100080E8CBDFDF91CF910895CF93DF93BA9A37
:10022000BB9ABC9ABD9AB89AB99AC198C0988CE208
:1002300091E020E931E0F9013197F1F70197D9F721
:1002400088E394DF80E190E40197F1F788E38EDFA3
:1002500080E991E00197F1F788E388DFC8ECD0E00E
:10026000CE010197F1F780E281DF2197F1F788E273
:100270009CDF88E09ADF81E098DF86E096DF8EE001
:1002800094DFDF91CF910895E82FF0E0EA30F10597
:10029000C0F4ED5EFF4F099480E30FC081E30DC011
:1002A00082E30BC083E309C084E307C085E305C094
:1002B00086E303C087E301C088E383DF089589E311
:1002C00080DF0895FF920F931F93CF93DF93EC018C
:1002D0008A30910508F4D8DFCE010A978A35910556
:1002E00048F4CE016AE070E050D9082F862FCCDFA9
:1002F000802FCADFCE018456904023E084389207D5
:1003000090F4CE0164E670E040D9862FBDDF2AE08C
:1003100030E0CE01B90139D9082FCB01B90135D967
:10032000B3DF802F39C0CE01885E934033E288323C
:10033000930768F4CE0168EE73E027D9862FA4DF17
:10034000CE0164E670E021D90AE010E018C087E22F
:10035000C031D80714F1CE0160E177E216D9862FBB
:1003600093DFCE0168EE73E010D90AE010E0CB0114
:10037000B8010BD989DFCE0164E670E006D9CB0164
:10038000B80103D981DFCE01B801FFD8F82ECB0127
:10039000B801FBD879DF8F2D77DFDF91CF911F91E7
:1003A0000F91FF9008951F93DF93CF930F92CDB7D6
:1003B000DEB7182F8A3008F467DF812F8A508A351C
:1003C00040F4812F6AE0D5D899835EDF9981892F27
:1003D0000FC0143670F0812F64E6CBD855DF2AE0C9
:1003E000812F622FC6D8192FC4D8892F4DDF812FB6
:1003F0004BDF0F90CF91DF911F9108952F923F9285
:100400004F925F926F927F928F929F92AF92BF9224
:10041000CF92DF92EF92FF920F931F93CF93DF93D0
:10042000C0E0D0E0CC24DD24EE24FF2400E010E086
:10043000F4E1AF2EB12CE0E94E2EE1E05E2E71E04A
:10044000672E712C6FE0862E912C59E0252E312CD1
:1004500082C2D2DE80E8A9DE0A9DC0010B9D900D0C
:100460001A9D900D11248A539F4FB3DE80EC9DDEC0
:100470000B30110531F00930110519F086EB91E0D0
:10048000A8DE87EC92DE0A30110509F4A9C00B3012
:10049000110509F4BBC009301105A9F480EC85DE13
:1004A000C114D10419F081E790E093DE9701235F36
:1004B0003F4F2A9DC0012B9D900D3A9D900D112418
:1004C0008A539F4FA2C00830110509F1809127027D
:1004D00090912802009759F4F801EE0FFF1FEE5C8F
:1004E000FD4F8081982F990F990F890F0AC086ECD4
:1004F0005CDE81E790E06DDE9E01220F220F822FED
:100500008C0F51DF8AEC51DE83E790E07EC0809152
:1005100032029091330220913402309135028217D9
:10052000930751F5209136023091370282179307D5
:1005300019F5209138023091390282179307E1F4BE
:1005400020913A0230913B0282179307A9F420913F
:100550003C0230913D028217930771F420913E02D4
:1005600030913F028217930739F420914002309175
:1005700041028217930739F0209127023091280217
:100580002115310551F120912702309128022115C2
:10059000310521F4282F220F220F0DC0C531D105BE
:1005A00069F086EC02DE81E790E013DE9E01220F07
:1005B000220F822F9E01820FF6DE08C086ECF5DD49
:1005C00081E790E006DE85E790E003DE8AECEDDD72
:1005D000C531D10509F098CF19C08AE790E015C060
:1005E0008091270290912802009719F4879B0BC0F5
:1005F00007C086ECDADD81E790E0EBDD209719F0AB
:100600008FE790E002C083E890E0E3DD88EB9BE0B9
:10061000F2013197F1F70197D9F780912902909172
:100620002A02009731F480912B0290912C020097BE
:10063000A1F380912B0290912C02009709F47DC0C8
:1006400080912702909128020097F1F4C114D104FF
:10065000D9F480912F02813049F40B3011051CF43C
:100660000F5F1F4F66C000E010E063C080912F0253
:10067000823009F062C00115110519F001501040D7
:1006800058C00BE010E055C009301105D4F480913A
:100690002F02813069F4C431D10514F4219608C0C9
:1006A0000830110529F4C431D10511F4C5E1D0E0B9
:1006B00080912F028230E9F51C161D06D4F5219792
:1006C00038C00A30110569F480912F02813021F47D
:1006D000209711F4C1E0D0E080912F02823049F5DB
:1006E00022C00930110529F580912F02813069F46B
:1006F000C114D10451F033E0E316F10424F408945A
:10070000E11CF11C02C0EE24FF2480912F028230F4
:1007100081F4C114D10469F0E114F10439F00894B2
:10072000E108F10806C0C0E0D0E003C033E0E32EEA
:10073000F12C10922C0210922B02809129029091A0
:100740002A02009709F407C180912702909128029C
:10075000009709F44BC00830110544F4F801EE0F7E
:10076000FF1FEE5CFD4FD183C0833BC008301105F5
:1007700069F5C531D10509F1D0933302C093320236
:10078000D0933502C0933402D0933702C09336021F
:10079000D0933902C0933802D0933B02C0933A02FF
:1007A000D0933D02C0933C02D0933F02C0933E02DF
:1007B000D0934102C093400214C030924302209271
:1007C000420270922402609223020BC00A3011058B
:1007D00041F49E0127952227279582B38F77822B9C
:1007E00082BB1092280210922702B1C00B30110573
:1007F00009F4B8C009301105A4F47092280260927F
:1008000027020830110541F0F801EE0FFF1FEE5CE2
:10081000FD4FC081D1819BC0C0913202D091330283
:1008200096C00A30110549F470922802609227029E
:10083000879B82C0C1E0D0E08AC00930110509F071
:1008400086C0C114D10409F47AC033E0E316F10480
:1008500009F479C0E114F10421F5B0923302A092B9
:100860003202B0923502A0923402B0923702A092C6
:100870003602B0923902A0923802B0923B02A092A6
:100880003A02B0923D02A0923C02B0923F02A09286
:100890003E02B0924102A0924002979ACC24DD24FD
:1008A00056C081E0E816F10409F590923302809277
:1008B00032029092350280923402909237028092F6
:1008C0003602909239028092380290923B028092D6
:1008D0003A0290923D0280923C0290923F028092B6
:1008E0003E0290924102809240022DC022E0E21628
:1008F000F10469F51092330210923202109235021F
:10090000109234021092370210923602109239027D
:100910001092380210923B0210923A0210923D025D
:1009200010923C0210923F0210923E02109241023D
:1009300010924002979807C0C0E0D0E008C081E064
:10094000C82ED12C04C0CC24DD24EE24FF24109228
:100950002A02109229028091250290912602009786
:1009600009F077CD109226021092250210922E02E5
:1009700010922D0280E090E0DF91CF911F910F91B6
:10098000FF90EF90DF90CF90BF90AF909F908F90AF
:100990007F906F905F904F903F902F9008958A982E
:1009A0008B988C988F9A929A939A949AA09AA19ADB
:1009B000A29AA39AA49AA59A8D9A8E9A85E083BF4B
:1009C00085E682BF8CE08EBD81E189BF8FE190E03A
:1009D0009BBD8ABD8AE085BF80EC8BBF1EDC87E8AB
:1009E00090E0F7DB8CE090E0B5D3789405DC80E80C
:1009F000DCDB8CE890E0EDDB80E8D7DB8FE890E093
:100A0000E8DB00E911E085E0E82EF12CB1E0CB2E27
:100A1000D12C97D58093A102882309F4D7C08436BE
:100A200019F08337B1F76CC084EF91E0F80131978A
:100A3000F1F70197D9F784E8B8DB82E090E076D44B
:100A4000BC018AE992E006D68AE992E0C2DB8DE831
:100A5000ACDB82E090E06AD4BC0186E992E0FAD592
:100A600086E992E0B6DBC0919302D0919402CE0168
:100A7000D4D5823391052CF0979AD0924502C0923A
:100A8000440280914402909145028130910551F4D5
:100A9000CE01C3D5823391052CF49798109245026C
:100AA0001092440280EC81DB85E090E03FD4BC01F1
:100AB0008FEA92E0CFD58FEA92E08BDB8091B10292
:100AC000803311F0833329F48091B202803309F42A
:100AD000979A8091B102803311F0833329F4809189
:100AE000B202813309F4979886EC5FDB8AE090E0EC
:100AF0001DD4BC0184EA92E0ADD584EA92E073C0D3
:100B000084EF91E0F8013197F1F70197D9F719D502
:100B10008093A102813309F07CCF13D58093A10289
:100B20008033B9F484E090E001D4BC018DE992E017
:100B300091D510922402109223028DE992E06DD596
:100B40008436910511F4979A3DC00097D9F597988E
:100B500039C090E0C097909343028093420284E0B2
:100B600090E0E4D3BC018DE992E074D58DE992E088
:100B700054D58936910514F52091420230914302F3
:100B80002930310569F0E0914202F0914302EE0F05
:100B9000FF1FE05DFD4FB701F8D47183608312C081
:100BA000C2E3D2E08DE992E038D5B701EED4699383
:100BB000799382E0C234D807A9F704C0D092240206
:100BC000C092230280EA90E00DD323CF80912502CA
:100BD00090912602009709F41CCF10DC0DDB80E811
:100BE000E4DA8FE890E0F5DA14CF1F920F920FB697
:100BF0000F9211248F939F9385E38A95F1F784993F
:100C00000DC083990BC080919902813019F0833017
:100C100019F482E080932F0210929902849B10C0F5
:100C200083990EC080919902823011F481E003C053
:100C3000882319F482E080932F0281E08093990247
:100C4000849910C0839B0EC080919902833011F467
:100C500081E003C0813019F482E080932F0282E0AA
:100C600080939902849B0FC0839B0DC08091990251
:100C7000882311F481E002C0823011F480932F02A6
:100C800083E08093990281E090E090932C0280931E
:100C90002B029F918F910F900FBE0F901F90189570
:100CA0001F920F920FB60F9211248F939F938091F2
:100CB000290290912A02009739F481E090E0909304
:100CC0002A028093290206C081E090E090932E02D0
:100CD00080932D028091250290912602009751F475
:100CE00081E090E0909326028093250210922A02E0
:100CF000109229029F918F910F900FBE0F901F901D
:100D000018951F920F920FB60F9211242F933F93B5
:100D10004F935F936F937F938F939F93AF93BF9303
:100D2000CF93DF93EF93FF938AE992E076D4EC01BF
:100D30009093A3028093A20286E992E06ED49093EE
:100D4000940280939302C80FD91FD0932002C093BE
:100D50001F02809148029091490221E08C32920753
:100D600009F0ECC08091230290912402009709F4CD
:100D7000E0C080919A02873409F4DBC08A3539F4E7
:100D800081E090E090934B0280934A02D2C0809120
:100D90004A0290914B028130910509F0CAC020911E
:100DA0001F02309120022A3531052CF410922202C4
:100DB0001092210251C020911F023091200224364E
:100DC00031050CF445C080911F02909120028E36AF
:100DD00091051CF482E090E03BC080911F0290914D
:100DE0002002883791051CF483E090E031C08091A7
:100DF0001F0290912002823891051CF484E090E05B
:100E000027C080911F02909120028C3891051CF41C
:100E100085E090E01DC080911F02909120028139F1
:100E200091051CF486E090E013C080911F02909120
:100E30002002863991051CF487E090E009C080917A
:100E40001F0290912002803A910534F488E090E0EE
:100E5000909322028093210280914202909143025A
:100E600089309105C9F1A0912102B0912202E0914F
:100E70004202F0914302AA0FBB1FAC55BF4FEE0FC9
:100E8000FF1FEA54FF4F2D913C9111978081918172
:100E900028173907B4F0E0914202F0914302A09183
:100EA0002102B0912202EE0FFF1FE05DFD4FAA0F5D
:100EB000BB1FAC55BF4F8D919C911197918380833F
:100EC00034C0E0914202F0914302EE0FFF1FE05D5B
:100ED000FD4F1182108229C0C8EBD0E0A2E3B2E03E
:100EE000E0912102F091220289919991EE0FFF1F6A
:100EF000EC55FF4F208131812817390774F0E091BC
:100F00002102F0912202EE0FFF1FEC55FF4F80816E
:100F1000918111969C938E9303C011961C921E9200
:100F2000129680E0C83CD807D9F610924B02109276
:100F30004A02109249021092480205C0019690930D
:100F4000490280934802FF91EF91DF91CF91BF91C9
:100F5000AF919F918F917F916F915F914F913F9151
:100F60002F910F900FBE0F901F9018951F920F9208
:100F70000FB60F9211242F933F938F939F938091DD
:100F8000320290913302009749F02091460230914D
:100F900047028217930714F0A89A01C0A89880917D
:100FA000340290913502009749F020914602309129
:100FB00047028217930714F0A99A01C0A99880915B
:100FC000360290913702009749F020914602309105
:100FD00047028217930714F0AA9A01C0AA98809139
:100FE000380290913902009749F0209146023091E1
:100FF00047028217930714F0AB9A01C0AB98809117
:101000003A0290913B02009749F0209146023091BC
:1010100047028217930714F0AC9A01C0AC988091F4
:101020003C0290913D02009749F020914602309198
:1010300047028217930714F0AD9A01C0AD988091D2
:101040003E0290913F02009749F020914602309174
:1010500047028217930714F0959A01C095988091E2
:10106000400290914102009749F020914602309150
:1010700047028217930714F0969A01C096988091C0
:101080004602909147020196909347028093460250
:1010900080914602909147028431910521F410928B
:1010A0004702109246029F918F913F912F910F908E
:1010B0000FBE0F901F9018951F920F920FB60F92B0
:1010C00011242F938F939F93EF93FF938BB19CB138
:1010D000E0919002EF5FEF7120916F02E21741F013
:1010E0008871E0939002F0E0E059FD4F908301C0D9
:1010F00082E080939102FF91EF919F918F912F91C8
:101100000F900FBE0F901F9018951F920F920FB661
:101110000F9211248F939F93EF93FF9390914D0221
:1011200080914E02981761F0E0914E02EF5FEF71EF
:10113000E0934E02F0E0E15BFD4F80818CB901C08D
:101140005598FF91EF919F918F910F900FBE0F9047
:101150001F90189510924D0210924E02109290021C
:1011600010926F022FEF20934C0290BD89B988E94D
:101170008AB986E880BD08959091900280916F02AF
:10118000981789F0E0916F02EF5FEF71E0936F02C3
:10119000F0E0E059FD4F808190919102392F20E0DD
:1011A000280F311D02C020E031E0C901089590915F
:1011B0006F02980F9F71E0E7F2E0E90FF11D808167
:1011C000089590914D029F5F9F7120914E0292175A
:1011D000E1F3E92FF0E0E15BFD4F808390934D0256
:1011E000559A0895EF92FF92CF93DF93E82EE7018F
:1011F0007E01F92EE70101C0E4DF89918823E1F740
:10120000DF91CF91FF90EF900895CF93DF93EC01A2
:1012100001C0D7DFFE01219684918823D1F7DF91A9
:10122000CF910895DF93CF93CDB7DEB761970FB617
:10123000F894DEBF0FBECDBFBE016F5F7F4F4AE0A7
:1012400050E00FD2CFDF61960FB6F894DEBF0FBE2D
:10125000CDBFCF91DF9108958F708A3010F0895CF7
:1012600001C0805DAEDF08951F93182F82958F70A7
:10127000F3DF812FF1DF1F9108958AE0A2DF8DE077
:10128000A0DF08958DE09DDF08950F931F93082F31
:1012900010E003C088E095DF1F5F1017D8F31F919F
:1012A0000F9108950F931F93082F10E003C080E261
:1012B00088DF1F5F1017D8F31F910F9108958CE0FE
:1012C00080DF0895FF920F931F93CF93DF93EC017C
:1012D00080914C0270E0992787FD909568177907F7
:1012E000D9F400E010E00EC0FE01E00FF11FF49011
:1012F000802F8F5F5CDFF81619F08F2D8A3261F432
:101300000F5F1F4F80914C02992787FD909508171A
:10131000190754F381E001C080E0DF91CF911F9164
:101320000F91FF90089580914C0208950F931F93A1
:1013300082309105B9F410E000E00AC01DDF803270
:1013400030F0A12FB0E0A954BD4F8C931F5F0F5F09
:101350000330A1F7E12FF0E0E954FD4F108227EBB5
:1013600032E069C086309105B9F410E000E00AC0AF
:1013700003DF803230F0A12FB0E0A654BD4F8C9334
:101380001F5F0F5F0730A1F7E12FF0E0E654FD4F3C
:1013900010822AEB32E04FC084309105B9F410E09E
:1013A00000E00AC0E9DE803230F0A12FB0E0A453A3
:1013B000BD4F8C931F5F0F5F0530A1F7E12FF0E069
:1013C000E453FD4F10822CEC32E035C0853091059E
:1013D000B9F410E000E00AC0CFDE803230F0A12F77
:1013E000B0E0AF52BD4F8C931F5F0F5F0630A1F787
:1013F000E12FF0E0EF52FD4F108221ED32E01BC0F3
:101400008A309105B9F410E000E00AC0B5DE803200
:1014100030F0A12FB0E0AF53BD4F8C931F5F0F5F33
:101420000B30A1F7E12FF0E0EF53FD4F108221ECDC
:1014300032E001C001C0C9011F910F910895EF92E0
:10144000FF920F931F93DF93CF93CDB7DEB72C9707
:101450000FB6F894DEBF0FBECDBF7C0189E6B1DECA
:101460008E010F5F1F4FF80101900020E9F7CF01B7
:101470000197801BA6DEC701B8014AE050E0F1D019
:10148000C801B0DE2C960FB6F894DEBF0FBECDBFFC
:10149000CF91DF911F910F91FF90EF9008951F93CF
:1014A000182F83E68EDE812F8CDE1F910895EF9238
:1014B000FF92CF93DF93EC0183E783DE7E01EC2F75
:1014C000FF2DDF010D900020E9F7CD0101978C1B66
:1014D00078DE899176DE88818823D9F7DF91CF91F4
:1014E000FF90EF900895EF92FF920F931F93DF9379
:1014F000CF93CDB7DEB729970FB6F894DEBF0FBEF6
:10150000CDBF7B018C0186E629875BDE88E059DE52
:10151000C801B70141E029857E010894E11CF11C56
:1015200087015AD0C7015EDE29960FB6F894DEBF58
:101530000FBECDBFCF91DF911F910F91FF90EF9024
:1015400008951F9319DE182F8F3110F415DE182F10
:1015500013DE812F81508F3118F0812F90E000C071
:101560001F910895E3DE59D08093B5029093B6029F
:101570000895991B79E004C0991F961708F0961BEF
:10158000881F7A95C9F78095089597FB092E07263D
:101590000AD077FD04D00CD006D000201AF4709544
:1015A00061957F4F0895F6F7909581959F4F089527
:1015B000AA1BBB1B51E107C0AA1FBB1FA617B70779
:1015C00010F0A61BB70B881F991F5A95A9F7809595
:1015D0009095BC01CD010895EF92FF920F931F9358
:1015E000322FF02E47FF02C0A4E101C0A4E0E42F97
:1015F000FF27E7FDF095F7FF03C0F095E195FF4F5A
:101600004F2D512F2E2F032FEA2E52D08F2D912F99
:101610001F910F91FF90EF900895FC018827992763
:10162000E89421912032E9F3293010F02E30C8F3EC
:101630002B3239F02D3231F4689403C031D0820F4F
:10164000911D219120532A30C8F31EF49095819565
:101650009F4F0895FB01DC0101900D920020E1F7FE
:101660000895FB019F01E8944230BCF04532ACF490
:101670004A3029F497FB1EF4909581959F4F642F73
:10168000772796DF805D8A330CF0895D8193CB01EB
:101690000097A9F716F45DE251931082C90132C296
:1016A0007AE0979F902D879F802D910D11240895AA
:1016B000A9E0B0E0EDE5FBE03DC26A01F22E102F9B
:1016C0000C3318F4B02EB39402C0ECE3BE2EAE017E
:1016D0004F5F5F4F27E00B2D3DD1298130E0A901FD
:1016E000497050704130510531F0E1FC06C0E0FE18
:1016F00006C0E0E205C0EDE203C0EBE201C0E0E0BD
:1017000023FF36C0EE2311F084E001C083E08F1583
:1017100010F4F81A01C0FF24E4FC0BC08F2DD60191
:1017200090E202C09D9381508823E1F7CF0CD11C39
:10173000FF24EE2319F0D601ED936D01F6013196E9
:10174000E2FE05C08EE4D6018C9391E404C08EE6DF
:10175000D6018C9391E611969C93818332968F2DBE
:10176000DF0190E202C09D9381508823E1F73CC0E5
:1017700022FF40C0EE2311F084E001C083E08F150A
:1017800010F4F81A01C0FF24E4FC0BC08F2DD60121
:1017900090E202C09D9381508823E1F7CF0CD11CC9
:1017A000FF24EE2319F0D601ED936D01F601319679
:1017B000E2FE09C089E4D6018C938EE411968C93E5
:1017C000119786E407C089E6D6018C938EE61196C0
:1017D0008C9386E6818332968F2DDF0190E202C0E2
:1017E0009D9381508823E1F7EF0DF11D10822EEFBC
:1017F0003FEFACC041E050E0EE2311F440E050E098
:101800001816190624F4BC016F5F7F4F02C061E017
:1018100070E0640F751F112329F0412F50E04F5FD6
:101820005F4F02C040E050E0460F571F6F2D70E041
:10183000461757071CF40F2D041B01C000E0FF24BE
:10184000A70140715070E4FC0DC0E3FC0BC0602F99
:10185000D60170E202C07D9361506623E1F7C00EAD
:10186000D11C00E0EE2319F0D601ED936D01411576
:10187000510559F4402FF60150E302C051934150F5
:101880004423E1F7C00ED11C00E0B80EFA80A90194
:101890004071507024FF04C0BF2DB13309F4BA94D5
:1018A0001B142CF4AB2DA93018F0A8E001C0A1E066
:1018B0009C0197FF02C020E030E0BC016F5F7F4FCA
:1018C000621B730BFE013196E60FF71F6EE2E62EE8
:1018D000BC016A1B7109A12FB0E0AA24BB24AA1A7B
:1018E000BB0A1FEF2F3F310719F4D601ED926D01AE
:1018F000821793072CF06217730714F4108101C04C
:1019000010E32150304031962A153B0524F0D601D2
:101910001D936D01E6CF2817390749F4BF2DB63363
:1019200028F4B53321F44115510509F411E3F6010A
:101930001193802FDF0190E202C09D938150882394
:10194000E1F7E00FF11D108220E030E0C901299697
:10195000EAE00CC1283008F027E03327DA01990FBC
:10196000311D87FD916000966105710539F4326083
:101970002E5F3D9330E32A95E1F708959F3F30F0C5
:1019800080387105610509F03C5F3C5F3D93913003
:1019900008F08068911DDF93CF931F930F93FF9200
:1019A000EF92192F987F9695E92F96959695E90FC6
:1019B000FF27EC56FF4F99273327EE24FF24A7017A
:1019C000E70105900894079428F4360FE71EF81EE7
:1019D000491F511D660F771F881F991F0694A1F795
:1019E0000590079428F4E70EF81E491F561FC11DE5
:1019F000770F881F991F661F0694A1F7059007941B
:101A000028F4F80E491F561FC71FD11D880F991FB4
:101A1000661F771F0694A1F70590079420F4490FDD
:101A2000561FC71FD81F990F661F771F881F069460
:101A3000A9F784911095177041F0D695C7955795E1
:101A40004795F794E7941A95C1F7EAE3F0E06894B4
:101A50001590159135916591959105907FE273955B
:101A6000E118F10A430B560BC90BD009C0F7E10C82
:101A7000F11E431F561FC91FD01D7EF4703311F491
:101A80008A95E6CFE894015030F0080F0AF4002759
:101A9000021708F4202F2395022F7A3328F079E3D8
:101AA0007D932A95E9F710C07D932A9589F60694CF
:101AB00097956795379517951794E118F10A430B99
:101AC000560BC90BD00998F023957E9173957A3304
:101AD00008F070E37C932013B8F77E9170617D93DA
:101AE00030F0839571E37D9370E32A95E1F711243B
:101AF000EF90FF900F911F91CF91DF91992787FD74
:101B000090950895DC01FC01672F71917723E1F72F
:101B1000329704C07C916D9370836291AE17BF07BA
:101B2000C8F308952F923F924F925F926F927F92E7
:101B30008F929F92AF92BF92CF92DF92EF92FF92DD
:101B40000F931F93CF93DF93CDB7DEB7CA1BDB0B89
:101B50000FB6F894DEBF0FBECDBF09942A8839882E
:101B600048885F846E847D848C849B84AA84B98435
:101B7000C884DF80EE80FD800C811B81AA81B98141
:101B8000CE0FD11D0FB6F894DEBF0FBECDBFED0155
:061B90000895F894FFCF58
:101B9600202020202020202020202020202020203F
:101BA600003E0025004175746F002D2D2D2D005A25
:101BB600616C0057796C0031323334006162004742
:101BC60050553A20202720204350553A2020270000
:101BD6004F4B00800400060009000C000F001000A7
:101BE600120014001400060006000400030004009E
:101BF600030003000000426F6B2073776965636121
:101C060063792031202000000000426F6B2073773B
:101C160069656361637920322020000000005072FC
:101C26007A6F642073696563616379202020000000
:101C3600000050727A6F64206E7377696563616322
:101C4600792000000000476F726120737769656331
:101C560061637920202000000000476F7261206ECA
:101C6600696573776965636163790000000054797B
:101C76006C20202020202020202020202020000052
:101C8600000043686C6F646E696361202020202029
:101C960020200000000057737A7973746B69652001
:101CA6002020202020200000000050726F66696C02
:101CB6006520202020202020202000000000506FDA
:101CC6006D70612020202020202020202020000070
:101CD600000057796A73633F2020202020202020AF
:101CE6002020000000005374616E3A20202020203E
:101CF60020202020202000000000456B73747265B0
:101D06006D616C6E696520202020000000004E6128
:101D16002073706F6B6F6A6E69652020202000004B
:101D2600000043616C6D20646F776E20626162799A
:101D3600202000000000436F666E696A2020202084
:0E1D46002020202020200000000000010203C9
:00000001FF
