:100000000C94C3000C94E0000C94E0000C94E0000D
:100010000C94E0000C94E0000C94E0000C94E000E0
:100020000C94E0000C94E0000C94E0000C94E000D0
:100030000C94E0000C94E0000C94E0000C94E000C0
:100040000C94E0000C94E0000C94E0000C94E000B0
:100050000C94E0000C94E0000C94E0000C94E000A0
:100060000C94E0000C94E0000C94E0000C94E00090
:100070000C94E0000C94E0000C94E0000A0D632066
:10008000202020646973706C61792043534420728E
:10009000656769737465720A0D2B202020206D6FCF
:1000A000766520746F206E65787420736563746F55
:1000B000720A0D2D202020206D6F7665206261630D
:1000C0006B206F6E6520736563746F720A0D732009
:1000D00020202070726F6D707420746F20656E74B4
:1000E0006572206120736563746F72206E756D6236
:1000F00065720A0D7220202020726561642063758C
:100100007272656E7420736563746F722066726FAD
:100110006D20534420636172640A0D7720202020F3
:10012000777269746520666978656420706174749B
:1001300065726E20746F2063757272656E742073C1
:100140006563746F720A0D652020202065726173EB
:10015000652063757272656E7420736563746F7267
:1001600020746F20307866660A0D0A0D000A0D7340
:10017000645F726567697374657220726574757205
:100180006E732025640011241FBECFEFD0E1DEBFC7
:10019000CDBF12E0A0E0B1E0ECEFF0E602C00590C8
:1001A0000D92AC31B107D9F714E0ACE1B2E001C077
:1001B0001D92AB36B107E1F70E94CA270C947C3040
:1001C0000C94000088EE93E020E931E0F9013197CA
:1001D000F1F70197D9F788EB84B91CBC08950000AA
:1001E00000000000000008958EBD0DB407FEFDCF95
:1001F00008958EBD0DB407FEFDCF8EB508952F98DE
:1002000087FF02C02D9A01C02D982F9A2F9886FF44
:1002100002C02D9A01C02D982F9A2F9885FF02C0F9
:100220002D9A01C02D982F9A2F9884FF02C02D9AE5
:1002300001C02D982F9A2F9883FF02C02D9A01C0DC
:100240002D982F9A2F9882FF02C02D9A01C02D98C9
:100250002F9A2F9881FF02C02D9A01C02D982F9AB6
:100260002F9880FF02C02D9A01C02D982F9A0895D3
:100270002F982D9A2F9A90E00E94FF0008952F98B2
:100280002D982F9A90E00E94FF0008952F982D9AA4
:100290002F9A0E94FF0008952F982D982F9A0E9460
:1002A000FF000895FF920F931F93082F162FF42E2F
:1002B00080911C02882371F412951F70007F102B0F
:1002C0001093350280EFF822F092370281E080939C
:1002D0001C0215C010921C02809135020E9446013A
:1002E00002950F7080913702802B0E944601F29494
:1002F0008FE0F822107F8F2D812B0E9446011F91E5
:100300000F91FF90089582E380931E028FEF8EBDC0
:100310000DB407FEFDCF8EB52FEF2EBD0DB407FE39
:10032000FDCF9EB59F3F21F080911E028823A9F743
:10033000892F0895FC0184E180931D029FEF9EBDEB
:100340000DB407FEFDCF8EB58F3F29F480911D02BD
:100350008823A9F72EC08E3F61F59FEF9EBD0DB497
:1003600007FEFDCF8EB580839EBD0DB407FEFDCF89
:100370008EB581839EBD0DB407FEFDCF8EB5828301
:100380009EBD0DB407FEFDCF8EB5838364507040D3
:1003900011F03496E3CF8FEF8EBD0DB407FEFDCF85
:1003A0008EB58FEF8EBD0DB407FEFDCF8EB581E00B
:1003B000089580E008951F93CF93DF93EC01162FEB
:1003C0000E9483018F3F11F090E02EC01EBD0DB43E
:1003D00007FEFDCF1D3F11F491E026C090E088811B
:1003E0008EBD0DB407FEFDCF89818EBD0DB407FE15
:1003F000FDCF915011F02296F2CF8FEF8EBD0DB44C
:1004000007FEFDCF8FEF8EBD0DB407FEFDCF8FEF42
:100410008EBD0DB407FEFDCF8EB590E08F71853097
:1004200009F091E081E09827892FDF91CF911F910A
:100430000895DF92EF92FF920F931F93D82E7A01C7
:100440008B0187FF0CC087E740E050E060E070E080
:100450000E941902823008F04CC08FE7D8222A9AF5
:100460002A980E9483018F3F11F08FEF42C0DEBCBB
:100470000DB407FEFDCF812F9927AA27BB278EBD7C
:100480000DB407FEFDCFC801AA27BB278EBD0DB452
:1004900007FEFDCFBB27A12F902F8F2D8EBD0DB452
:1004A00007FEFDCFEEBC0DB407FEFDCF80E4D816ED
:1004B00011F485E906C088E4D81611F487E801C074
:1004C00081E08EBD0DB407FEFDCF8CE4D81631F46B
:1004D0008FEF8EBD0DB407FEFDCF8EB59AE02FEFE6
:1004E0002EBD0DB407FEFDCF8EB587FF02C0915023
:1004F000B9F71F910F91FF90EF90DF900895882337
:1005000011F081E008958091160208950F93CF9322
:10051000DF93EB01882309F04CC0002309F449C0A4
:100520008091160280FF02C003E044C080911F0248
:1005300083FD07C069E0220F331F441F551F6A95D2
:10054000D1F7013089F481E5BA01A9010E941902AD
:10055000882321F5CE0160E072E00E949A0100E05C
:100560008823E1F401E01AC082E5BA01A9010E94E2
:100570001902882399F4CE0160E072E00E949A018A
:10058000882329F0015019F0C050DE4FF4CF8CE4DD
:1005900040E050E060E070E00E9419022A9A8FEF7C
:1005A0008EBD0DB407FEFDCF8EB5002319F001E01E
:1005B00001C004E0802FDF91CF910F910895CF9279
:1005C000DF92EF92FF920F93CF93DF93EB016901DC
:1005D0007A01882309F05AC0002309F457C080919A
:1005E000160280FF02C003E052C08091160282FF13
:1005F00002C002E04CC080911F0290E083FD07C062
:1006000079E0CC0CDD1CEE1CFF1C7A95D1F7013093
:1006100069F488E5B701A6010E941902882359F5FB
:10062000CE016EEF0E94DB0100E022C08670907068
:10063000892B39F0402F50E060E070E087ED0E9498
:10064000190289E5B701A6010E941902882399F4CD
:10065000CE016CEF0E94DB01882329F0015019F0D4
:10066000C050DE4FF5CF80E090E06DEF0E94DB01DF
:10067000882309F401E02A9A8FEF8EBD0DB407FE9E
:10068000FDCF8EB5002319F001E001C004E0802FFA
:10069000DF91CF910F91FF90EF90DF90CF90089571
:1006A000FF920F931F93DF93CF93CDB7DEB7609781
:1006B0000FB6F894DEBF0FBECDBF8A01882309F0C4
:1006C00092C16430F9F4FA0180818130C9F081303F
:1006D00020F0823009F087C110C02A980E9483015F
:1006E0002A9A8FEF8EBD0DB407FEFDCF8EB5809197
:1006F000160281608093160203C081E0FA018183B3
:1007000090E072C18091160280FF02C093E06CC13C
:100710006A3009F41BC16B3050F46130F1F0613084
:10072000A0F0623009F47AC0633069F47DC06C30A7
:1007300009F413C16C3008F40EC16D3009F41AC10C
:100740006E3009F430C194E046C12A980E948301BA
:1007500090E08F3F09F03EC13EC189E440E050E0A7
:1007600060E070E00E941902882309F033C1CE01D5
:10077000019660E170E00E949A01882309F42AC181
:10078000898182958695869583707A8549858130A1
:1007900089F4872F90E00196342F20E0820F931F79
:1007A000A0E0B0E02AE0880F991FAA1FBB1F2A957E
:1007B000D1F7C5C04295469546954370288530E0EF
:1007C000220F331F220F331F240F311D2F5F3F4F86
:1007D0008F8190E083709070982F8827990F990FE0
:1007E000280F391F40E050E08E818F706B85661FA7
:1007F0006627661F860F8E5F7370770F870F90E0F6
:10080000099704C0220F331F441F551F8A95D2F742
:10081000F801208331834283538396C080E092E0C5
:10082000FA019183808390C080911F02F82E82FF8D
:1008300031C08DEC40E050E060E070E00E941902B1
:10084000882309F0C7C08FEF8EBD0DB407FEFDCF22
:100850008EB5CE01019660E170E00E949A01882376
:1008600009F4B8C080E39FEF9EBD0DB407FEFDCF35
:100870002EB58150C9F72B8522952F7080E190E02D
:10088000A0E0B0E004C0880F991FAA1FBB1F2A95E3
:10089000D2F755C089E440E050E060E070E00E948B
:1008A0001902882309F096C0CE01019660E170E03C
:1008B0000E949A01882309F48DC04B858C85F1FE36
:1008C0001BC0881F8827881F90E00196242F30E0E6
:1008D0002F733070220F331F820F931F2E852295A6
:1008E00026952695237030E02150304002C0880FB5
:1008F000991F2A95E2F721C0282F30E0237030702D
:10090000F3E0220F331FFA95E1F782958695877001
:10091000280F311D2F5F3F4F842F90E08C77907010
:1009200095958795959587950196AC01249FC00173
:10093000259F900D349F900D1124A0E0B0E0F801A8
:1009400080839183A283B38390E045C080911F028E
:10095000FA018083F9CF89E401C08AE440E050E0E5
:1009600060E070E00E9419028823A1F5C80160E1EF
:1009700070E02BC08AE740E050E060E070E00E9449
:100980001902882339F5F8019FEF98012D5F3F4F39
:100990009EBD0DB407FEFDCF8EB58083E217F30731
:1009A00099F23196F5CF8DEC40E050E060E070E0D8
:1009B0000E941902882371F48FEF8EBD0DB407FEDB
:1009C000FDCF8EB5C80160E470E00E949A0190E00E
:1009D000882309F491E02A9A8FEF8EBD0DB407FEAB
:1009E000FDCF8EB501C094E0892F60960FB6F894C4
:1009F000DEBF0FBECDBFCF91DF911F910F91FF9052
:100A0000089580911D02882319F0815080931D0262
:100A100080911E02882319F0815080931E0210924B
:100A200016020895CF92DF92EF92FF920F931F93D9
:100A3000DF93CF9300D000D0CDB7DEB70E94B82CA3
:100A40002A9A249A1AE00E94BE2C1150E1F780E401
:100A500040E050E060E070E00E941902813009F04F
:100A600069C088E44AEA51E060E070E00E9419023F
:100A70008130E1F56E010894C11CD11C76018E0114
:100A80000B5F1F4F0E94BE2CF70181937F01E0177F
:100A9000F107C1F78B81813009F04CC08C818A3A13
:100AA00009F048C000E117E206C00E94CB2C0150BB
:100AB000104009F43FC089EE40E050E060E070E48F
:100AC0000E941902882389F74CC00E94BE2CF601AF
:100AD00081936F01EE15FF05C1F7898186FD03C083
:100AE00074E0F72E28C06CE0F62E25C089EE40E0B9
:100AF00050E060E070E00E941902823028F051E47A
:100B0000E52EFF24F39404C049EEE42E32E0F32EE8
:100B100000E117E205C00E94CB2C0150104051F0BB
:100B20008E2D40E050E060E070E00E9419028823C2
:100B300091F722C0FF24F0921F022A9A0E94BE2C35
:100B400080E0FF2009F481E00F900F900F900F904C
:100B5000CF91DF911F910F91FF90EF90DF90CF9099
:100B600008958AE740E050E060E070E00E941902DA
:100B7000882309F4AACFDECF80E540E052E060E0B0
:100B800070E00E9419028823A9F6D5CFEF92FF9258
:100B90000F931F93CF93DF93FC017B01EB01299609
:100BA00086859785A089B1890097A105B10509F4CB
:100BB0008CC062897389DB011C969C9120E030E037
:100BC000492F50E048705070FB01E20FF31FE081A5
:100BD000E03289F0E53009F4E5EE4115510529F0E0
:100BE0008E2F81548A3108F4E05EE9932F5F3F4FE6
:100BF0002830310549F7FB018085803211F48E01E0
:100C00001EC08EE2DE018D938D01FB01292F30E0A5
:100C100020713070AE014C5F5F4F9085903279F05B
:100C20002115310529F0892F81548A3108F4905E0D
:100C3000D8019D938D013196A417B50771F7FB017B
:100C40008385D70118968C93278D30E040E050E0E3
:100C5000522F442733272227868D90E0A0E0B0E072
:100C6000DC0199278827282B392B4A2B5B2B848D75
:100C700090E0A0E0B0E0282B392B4A2B5B2B958D20
:100C800080E0A0E0B0E0282B392B4A2B5B2BF7014A
:100C90002083318342835383DB0159969C9159977A
:100CA00080E058962C91589730E0822B932B9583B7
:100CB000848357969C91579780E056962C9130E00C
:100CC000822B932B97838683E8011882DF91CF9143
:100CD0001F910F91FF90EF900895DB01882311F091
:100CE0008BE00895E0912002F0912102309709F005
:100CF0001082109709F01C92B0932102A093200259
:100D000080E00895882311F08BE00895109224026A
:100D100080E00895FC01009789F08081882371F0BC
:100D2000858196818617970749F481810E947F0209
:100D300080FD02C080E0089583E0089589E0089571
:100D40000F93CF93DF93EC019A01AB01BC016E5C72
:100D50007F4F898101E00E948602882311F023E001
:100D60003BC0CF5CDD4F988180E02A91C053D240D8
:100D700030E0822B932B85559A4A11F022E02CC04B
:100D8000DE01A859BF4FE8E1F2E082E0EB31F8075D
:100D900011F420E021C09C918081981719F41196DC
:100DA0003196F3CFDE01AC57BF4FE8E1F2E022E02D
:100DB000EB31F20749F09C918081981711F021E006
:100DC0000BC011963196F3CF20E0C65ADF4F8881D1
:100DD00087FF21E081E02827822FDF91CF910F91BB
:100DE00008956F927F928F929F92AF92BF92CF920F
:100DF000DF92EF92FF920F931F93CF93DF93DC016B
:100E0000142FED91FC9111978081282F30E0205311
:100E100030402A30310538F481818A3321F432960A
:100E2000ED93FC9304C080912402282F30E0232B03
:100E300011F08BE084C2C0912002D0912102FB010D
:100E4000D183C083209711F48CE079C288818823F4
:100E500059F089810E947F0280FD06C0112309F4A8
:100E60006BC282FD67C268C2188219820E94120595
:100E700080FF02C083E063C2112311F082FD5AC2D9
:100E8000CE0140E050E060E070E00E94A0068130BA
:100E900021F0AA24BB2465012FC0FE01E051FE4FC2
:100EA0008481882309F44AC2838590E0A0E0B0E001
:100EB000D82ECC24BB24AA24828590E0A0E0B0E008
:100EC000DC0199278827A82AB92ACA2ADB2A808523
:100ED00090E0A0E0B0E0A82AB92ACA2ADB2A9185CE
:100EE00080E0A0E0B0E0A82AB92ACA2ADB2ACE0115
:100EF000B601A5010E94A006833011F481E01FC253
:100F0000882309F01BC29EAD80E02DAD30E0822B1E
:100F1000932B8050924009F011C2C75BDF4F98813C
:100F200080E02A91C854D04030E0822B932B7C0182
:100F300000E010E0E114F1040105110541F5C75A84
:100F4000DF4F888190E0A0E0B0E0182F0027FF2459
:100F5000EE248A9190E0A0E0B0E0DC019927882798
:100F6000E82AF92A0A2B1B2B2297899190E0A0E00E
:100F7000B0E0E82AF92A0A2B1B2B9881C755D040EC
:100F800080E0A0E0B0E0E82AF92A0A2B1B2BEA8EC9
:100F9000FB8E0C8F1D8FCE5BDF4F2881C254D0405B
:100FA0002B8330E040E050E0C801B7010E94D02C14
:100FB0003B014C01CF5BDF4F988180E02A91C05408
:100FC000D04030E0822B932BA0E0B0E08A0D9B1D37
:100FD000AC1DBD1D8AA39BA3ACA3BDA38FAD8A830B
:100FE000CC5BDF4F988180E02A91C354D040422FE0
:100FF00050E0482B592B58874F83CA5BDF4F9881AD
:1010000080E02A91C554D04030E0822B932B7C01A4
:1010100000E010E0E114F1040105110541F5CB5A9F
:10102000DF4F888190E0A0E0B0E0182F0027FF2478
:10103000EE248A9190E0A0E0B0E0DC0199278827B7
:10104000E82AF92A0A2B1B2B2297899190E0A0E02D
:10105000B0E0E82AF92A0A2B1B2B9881C355D0400F
:1010600080E0A0E0B0E0E82AF92A0A2B1B2BCF5B36
:10107000DF4F988180E02A91C054D04030E0822B2D
:10108000932BA0E0B0E0E81AF90A0A0B1B0BE61854
:10109000F70808091909B4E056954795BA95E1F79C
:1010A000CA01A0E0B0E0E81AF90A0A0B1B0B2A817A
:1010B00030E040E050E0C801B7010E940E2D2E5FE5
:1010C0003F4F4F4F5F4F2E8F3F8F48A359A3273F6E
:1010D0008FE0380780E0480780E0580710F411E0FF
:1010E00007C0275F3F4F4040504008F037C112E033
:1010F0008AA19BA1ACA1BDA1860D971DA81DB91DFC
:101100008EA39FA3A8A7B9A78F819885A4E09695E1
:101110008795AA95E1F7A0E0B0E02AA13BA14CA1F8
:101120005DA1820F931FA41FB51F860D971DA81DDB
:10113000B91D8AA79BA7ACA7BDA78FEF9FEFAFEF05
:10114000BFEF8E879F87A88BB98B1C82133009F065
:10115000DCC01986CD59DF4F388120E08A91C25614
:10116000D04090E0282B392B40E050E02A0D3B1D69
:101170004C1D5D1D2A8B3B8B4C8B5D8BBE016E5CC9
:101180007F4F898101E00E948602882309F0BDC05B
:10119000CF5CDD4F988180E02A91C053D24030E08F
:1011A000822B932B85559A4A09F0AFC02DA930E0C8
:1011B00040E050E0522F4427332722278CA990E0AB
:1011C000A0E0B0E0DC0199278827282B392B4A2B97
:1011D0005B2B8AA990E0A0E0B0E0282B392B4A2BAA
:1011E0005B2B9BA980E0A0E0B0E0282B392B4A2B99
:1011F0005B2B225532454146514409F086C0C75EFB
:10120000DD4F288130E040E050E0522F4427332763
:1012100022278A9190E0A0E0B0E0DC01992788279E
:10122000282B392B4A2B5B2B2297899190E0A0E049
:10123000B0E0282B392B4A2B5B2B9881C751D24029
:1012400080E0A0E0B0E0282B392B4A2B5B2B225703
:1012500032474144514609F058C0CF5DDD4F2881E7
:1012600030E040E050E0522F4427332722278A9174
:1012700090E0A0E0B0E0DC0199278827282B392BEB
:101280004A2B5B2B2297899190E0A0E0B0E0282BBD
:10129000392B4A2B5B2B9881CF51D24080E0A0E0C4
:1012A000B0E0282B392B4A2B5B2B2A873B874C87B6
:1012B0005D87C35EDD4F288130E040E050E0522F73
:1012C0004427332722278A9190E0A0E0B0E0DC0198
:1012D00099278827282B392B4A2B5B2B229789911A
:1012E00090E0A0E0B0E0282B392B4A2B5B2B9881B3
:1012F000CB51D24080E0A0E0B0E0282B392B4A2B24
:101300005B2B2E873F87488B598B18831EA61FA601
:1013100018AA19AA1E8A1F8A188E198E8091220275
:1013200090912302019690932302809322029E8340
:101330008D8302C08AE003C080E001C08DE0DF91B0
:10134000CF911F910F91FF90EF90DF90CF90BF90C2
:10135000AF909F908F907F906F900895CF59DF4FFF
:10136000288130E040E050E0522F442733272227E5
:101370008A9190E0A0E0B0E0DC0199278827282B33
:10138000392B4A2B5B2B2297899190E0A0E0B0E0AB
:10139000282B392B4A2B5B2B9881CF55D04080E0EE
:1013A000A0E0B0E0282B392B4A2B5B2B2EA33FA3C8
:1013B00048A759A713E0A8CE6F927F928F929F9271
:1013C000AF92BF92CF92DF92EF92FF920F931F9353
:1013D000CF93DF93EC014A015B01CEA4DFA4E8A820
:1013E000F9A8C416D506E606F70609F44EC08C81A6
:1013F0008823A1F1E2E36E2E712C6C0E7D1E898193
:10140000B301A701960101E00E94DF028823D9F50C
:101410001C828A8D9B8DAC8DBD8D2AA13BA14CA1D8
:101420005DA1820F931FA41FB51FC816D906EA0637
:10143000FB06A0F41B8110C08A8D9B8DAC8DBD8DE9
:10144000C80ED91EEA1EFB1E8981B301A7019601B1
:1014500001E00E94DF021150123070F781149104F4
:10146000A104B10491F0BE016E5C7F4F8981A5019A
:10147000940101E00E948602882329F48EA69FA68B
:10148000A8AAB9AA03C081E001C080E0DF91CF9192
:101490001F910F91FF90EF90DF90CF90BF90AF9092
:1014A0009F908F907F906F9008957F928F929F92E0
:1014B000AF92BF92CF92DF92EF92FF920F931F9362
:1014C000CF93DF934C017A018B01423051056105C6
:1014D000710508F4BBC0F401868D978DA0A1B1A160
:1014E000481759076A077B0708F0B0C0A2A0B3A04D
:1014F000C4A0D5A08081823009F44DC0833009F4A6
:1015000068C0813009F0A7C0EA01D695C795C40F1D
:10151000D51FAE01452F5527469560E070E04A0D76
:101520005B1D6C1D7D1DC4010E94DC09882309F030
:1015300092C0FE01F170E80DF91D72A82196AE016E
:10154000452F5527469560E070E04A0D5B1D6C1DE8
:101550007D1DC4010E94DC09882309F07CC0672D31
:1015600070E0D170C80DD91D9AA980E0682B792B45
:10157000C70181709070892B39F044E076956795AA
:101580004A95E1F79B0122C09B0140E050E03F708B
:101590004070507064C0452F562F672F77274A0D33
:1015A0005B1D6C1D7D1DC4010E94DC09882309F0B0
:1015B00052C0F701EE0FFF1FF170E80DF91D93A95E
:1015C00080E022A930E0822B932B9C0140E050E088
:1015D00046C097E076956795579547959A95D1F7C8
:1015E0004A0D5B1D6C1D7D1DC4010E94DC09882312
:1015F00091F5F701EE0FFF1FEE0FFF1FF170E80DE1
:10160000F91D85A990E0A0E0B0E0582F44273327CA
:10161000222784A990E0A0E0B0E0DC019927882788
:10162000282B392B4A2B5B2B82A990E0A0E0B0E05D
:10163000282B392B4A2B5B2B93A980E0A0E0B0E04C
:10164000282B392B4A2B5B2B5F7009C021E030E03F
:1016500040E050E004C02FEF3FEF4FEF5FEFB901E4
:10166000CA01DF91CF911F910F91FF90EF90DF9012
:10167000CF90BF90AF909F908F907F900895AF9242
:10168000BF92CF92DF92EF92FF920F931F93CF936F
:10169000DF935C016B01DC0115967C936E931497CC
:1016A00016964D915D916D917C9119974130510540
:1016B0006105710509F4D3C0ED91FC91868D978D7C
:1016C000A0A1B1A1481759076A077B0708F0C7C056
:1016D000411551056105710581F58081833049F41B
:1016E00046A157A160A571A5411551056105710578
:1016F00021F5F50112861386148615860190F08176
:10170000E02D87819085C816D90608F0A8C0C601CB
:1017100024E0969587952A95E1F7A0E0B0E026A110
:1017200037A140A551A5820F931FA41FB51FF50136
:1017300086879787A08BB18B7AC08281082F10E0B3
:1017400084E0000F111F8A95E1F724C0CE010E94AA
:10175000550AAB01BC014F3FFFEF5F07FFEF6F077B
:10176000FFEF7F0711F481E07BC042305105610536
:10177000710508F474C0D501ED91FC91868D978DAB
:10178000A0A1B1A1481759076A077B0708F067C0F5
:10179000C01AD10AF501C081D181C016D106B0F6B8
:1017A000D5011A964D935D936D937C931D97BEEF73
:1017B000EB2EBFEFFB2EBFEF0B2FBFEF1B2FE40E67
:1017C000F51E061F171F8E8D9F8DA8A1B9A1029728
:1017D000A109B109E816F9060A071B0728F020E05D
:1017E00030E040E050E012C02A8130E040E050E0BC
:1017F000C801B7010E94D02C9B01AC018AA59BA512
:10180000ACA5BDA5280F391F4A1F5B1FC601A4E068
:1018100096958795AA95E1F7A0E0B0E0280F391FCB
:101820004A1F5B1FF50126873787408B518BFFE0EE
:10183000CF22DD24F5E0CC0CDD1CFA95E1F782E344
:1018400090E0C80ED91ED5018D919C9111978C0DF9
:101850009D1D53969C938E93529780E001C082E029
:10186000DF91CF911F910F91FF90EF90DF90CF907C
:10187000BF90AF9008952F923F924F925F926F92D8
:101880007F928F929F92AF92BF92CF92DF92EF9210
:10189000FF920F931F93CF93DF933C016A017B016B
:1018A00048015901423051056105710508F4BAC07B
:1018B000F301868D978DA0A1B1A1481759076A073A
:1018C0007B0708F0AFC022A033A044A055A08081C0
:1018D000823009F464C0833009F47AC0813011F099
:1018E00022E09CC0EA01D695C795C40FD51FAE0172
:1018F000452F5527469560E070E0420D531D641D4D
:10190000751DC3010E94DC09282F882309F086C0B9
:10191000DE01B1708601017010700115110551F0E2
:10192000F301EA0FFB1F82A98F70982D9295907F8B
:10193000982B01C0982DA60DB71DD2969C93219689
:1019400081E0F3018483AE01452F5527469560E081
:1019500070E0420D531D641D751DC3010E94DC091A
:10196000282F882309F05AC0D170012B49F084E058
:10197000B694A794979487948A95D1F7482D0BC075
:10198000F301EC0FFD1F42A9407FBB27AB2D9A2D21
:10199000892D8F70482BC60DD71D4AAB3FC0452FF0
:1019A000562F672F7727420D531D641D751DC301E8
:1019B0000E94DC09282F882389F5F601EE0FFF1F0E
:1019C000F170E60DF71D82AA892D992783AB26C0F9
:1019D000E7E07695679557954795EA95D1F7420DDB
:1019E000531D641D751DC3010E94DC09282F882327
:1019F000A9F4F601EE0FFF1FEE0FFF1FF170E60DC9
:101A0000F71D82AA892D992783ABC501AA27BB2779
:101A100084AB8B2D9927AA27BB2785AB81E0F301E7
:101A2000848301C022E0822FDF91CF911F910F911B
:101A3000FF90EF90DF90CF90BF90AF909F908F90EE
:101A40007F906F905F904F903F902F9008952F92CE
:101A50003F924F925F926F927F928F929F92AF923E
:101A6000BF92CF92DF92EF92FF920F931F93DF937B
:101A7000CF9300D000D0CDB7DEB71C012A013B01C7
:101A8000DC015E968D919D910D90BC91A02D898376
:101A90009A83AB83BC83411551056105710581F4BF
:101AA000F10182849384A484B58481149104A104F7
:101AB000B10411F188169906AA06BB06E8F421C004
:101AC000C1010E94550A9B01AC016230710581057C
:101AD000910528F421E030E040E050E093C0898196
:101AE0009A81AB81BC81281739074A075B0708F444
:101AF00089C05301420105C051E0852E912CA12CD3
:101B0000B12C750164010894C11CD11CE11CF11CAD
:101B100089819A81AB81BC81C816D906EA06FB0689
:101B200060F092E089169104A104B10408F461C048
:101B300042E0C42ED12CE12CF12CC101B701A60149
:101B40000E94550A9B01AC01611571058105910543
:101B5000A9F06F3FAFEF7A07AFEF8A07AFEF9A07B1
:101B600009F450C0613071058105910509F44AC03E
:101B7000C814D904EA04FB0431F63BC0BC2CAD2CDC
:101B80009E2C8F2CC101A601B7010FEF1FEF2FEF85
:101B90003FE00E943B0C882389F541145104610405
:101BA000710449F0C101B301A201860197010E94AD
:101BB0003B0C882319F5F101B286A38694868586AD
:101BC00086859785A089B1898F3FFFEF9F07FFEF3B
:101BD000AF07FFEFBF0751F00197A109B109F1016C
:101BE00086879787A08BB18B81E08187A7019601BB
:101BF00009C020E030E040E050E004C02FEF3FEFAC
:101C00004FEF5FEFB901CA010F900F900F900F9047
:101C1000CF91DF911F910F91FF90EF90DF90CF90C8
:101C2000BF90AF909F908F907F906F905F904F90FC
:101C30003F902F9008952F923F924F925F926F9214
:101C40007F928F929F92AF92BF92CF92DF92EF924C
:101C5000FF920F931F93DF93CF9300D000D00F928A
:101C6000CDB7DEB79D838C833A014B01DC01129620
:101C70006D917C9113978D919C910E948A068B8324
:101C8000882309F0B7C1EC81FD81848187FD92C072
:101C9000AC81BD811A96AD90BD90CD90DC901D9722
:101CA000A614B704C804D90410F481FF02C064016B
:101CB0005301EC81FD812681378140855185168253
:101CC0001782108611868FEF8583A114B104C10499
:101CD000D10409F45BC10190F081E02DFA83E9831E
:101CE0008281682E77248824992409E0660C771C69
:101CF000881C991C0A95D1F721153105410551051C
:101D0000C1F119012A01089421083108410851083C
:101D1000C601B5016150704080409040A40193011C
:101D20000E940E2D79018A01C201B101A401930123
:101D30000E940E2DE216F30604071507D0F088273F
:101D40009927DC0186199709A809B90982219321ED
:101D5000A421B521EC81FD8186839783A087B1877B
:101D6000A81AB90ACA0ADB0A4289538964897589A3
:101D70003AC0AC81BD811E964D915D916D917C9173
:101D80005197411551056105710529F589819A81A0
:101D900040E050E060E070E00E94270DAB01BC0124
:101DA000413051056105710541F4EC81FD8184816B
:101DB00080688483F2E0FB831DC14F3F8FEF58079B
:101DC0008FEF68078FEF7807B1F1EC81FD814687CF
:101DD0005787608B718BAC81BD8152964D935D931B
:101DE0006D937C935597411551056105710509F077
:101DF00059C0CCC0EC81FD8184812081318181FF7B
:101E00000DC0C9010E94270DAB01BC014115510550
:101E10006105710541F4640153014AC0C9010E9482
:101E2000550AAB01BC014F3FFFEF5F07FFEF6F07A4
:101E3000FFEF7F0751F4AC81BD8114968C9114970C
:101E4000806814968C93B1E096C0423051056105CC
:101E5000710508F4AACFAC81BD81ED91FC91868D0E
:101E6000978DA0A1B1A1481759076A077B0708F011
:101E70009CCFAC81BD8152964D935D936D937C93C5
:101E80005597FD0186819781A085B185860D971DA7
:101E9000A81DB91D86839783A087B187A618B708A8
:101EA000C808D9086A147B048C049D0408F4A2CFE6
:101EB000EC81FD8186819781A085B1858A0D9B1D6E
:101EC000AC1DBD1D86839783A087B187D601C50150
:101ED00019E0B695A795979587951A95D1F7E82EAD
:101EE00085838FEF91E0A0E0B0E0A822B922CA225A
:101EF000DB22A114B104C104D10409F447C08080DD
:101F00009180EEEFAE2EEFEFBE2EEFEFCE2EEFEF85
:101F1000DE2EA40EB51EC61ED71EF401868D978D2B
:101F2000A0A1B1A10297A109B109A816B906CA06D4
:101F3000DB06C0F4228130E040E050E0C601B5018C
:101F40000E94D02C9B01AC01F40182A593A5A4A50D
:101F5000B5A5280F391F4A1F5B1F21153105410503
:101F6000510559F4AC81BD8114968C911497806809
:101F700014968C93B2E0BB833DC02E0D311D411DE4
:101F8000511DE394EC81FD81E58204C020E030E046
:101F900040E050E0EC81FD8186819781A085B1858C
:101FA0009170A070B0700097A105B10569F08689A5
:101FB0009789A08DB18D281739074A075B0721F053
:101FC000268B378B408F518FEC81FD8126813781A5
:101FD0004085518582859385A485B58582179307B1
:101FE000A407B50738F4228733874487558784814F
:101FF000806284838B810F900F900F900F900F90D1
:10200000CF91DF911F910F91FF90EF90DF90CF90D4
:10201000BF90AF909F908F907F906F905F904F9008
:102020003F902F9008959F92AF92BF92CF92DF92F0
:10203000EF92FF920F931F93CF93DF93EC017A01FE
:102040008B01423051056105710508F458C08E8D31
:102050009F8DA8A1B9A1481759076A077B0708F403
:1020600041C04DC0CE01B801A7010E94550A5B01D5
:102070006C01611571058105910509F442C081E08B
:10208000A816B104C104D104D1F12FEFA2162FEF8D
:10209000B2062FEFC2062FEFD20611F481E032C054
:1020A000CE01B801A70100E010E020E030E00E947E
:1020B0003B0C882339F58E859F85A889B9898F3F88
:1020C0002FEF92072FEFA2072FEFB20741F00196F3
:1020D000A11DB11D8E879F87A88BB98B998686011C
:1020E000750102C0992493948E8D9F8DA8A1B9A1EA
:1020F000E816F9060A071B0708F4B4CF02C082E00D
:1021000001C080E0DF91CF911F910F91FF90EF9080
:10211000DF90CF90BF90AF909F900895CF92DF92C5
:10212000EF92FF920F931F93CF93DF93EC016A819D
:102130007B81888199810E948A06182F882309F063
:102140006EC06C8167FF02C012E069C061FD02C011
:1021500017E065C02E813F81488559858A859B851A
:10216000AC85BD85281739074A075B0708F057C0BB
:102170002A873B874C875D8760626C838881998161
:10218000211531054105510561F44E855F8568894A
:1021900079890E941310182F1E861F86188A198AA3
:1021A00039C04A895B896C897D890E94550A6B0117
:1021B0007C018FEFC8168FEFD8068FEFE8068FEF00
:1021C000F806B9F181E0C816D104E104F10411F474
:1021D00012E022C0E881F981868D978DA0A1B1A17E
:1021E000C816D906EA06FB06D0F44A895B896C89D1
:1021F0007D89CF010FEF1FEF2FEF3FE00E943B0CD7
:10220000182F882349F488819981B701A6010E947B
:102210001310182F112319F08C8180688C83812F63
:10222000DF91CF911F910F91FF90EF90DF90CF90B2
:10223000089511E0F1CF4F925F926F927F928F924B
:102240009F92AF92BF92CF92DF92EF92FF920F9345
:102250001F93CF93DF93EC01D62E6C807D80089482
:10226000611C711C6114710409F44CC18E859F8539
:10227000A889B9890097A105B10509F443C11FE0F8
:10228000412E512C462057204114510409F027C1FA
:102290000196A11DB11D8E879F87A88BB98B4A859A
:1022A0005B856C857D85E881F98141155105610566
:1022B000710539F4878190856816790608F40FC195
:1022C00021C1828190E001979301A4E03695279582
:1022D000AA95E1F782239323892B09F000C1CF014E
:1022E0000E94550A7B018C016230710581059105C0
:1022F00008F40AC18FEFE8168FEFF8068FEF080792
:102300008FEF180709F402C1E881F981868D978D56
:10231000A0A1B1A1E816F9060A071B0708F4A6C098
:10232000DD2009F4EFC04A855B856C857D85CF0192
:102330000E94270D7B018C016115710581059105B6
:1023400011F487E0E4C091E0E916F10401051105FC
:1023500009F4DAC0AFEFEA16AFEFFA06AFEF0A07FB
:10236000AFEF1A0709F4D2C08881998140E050E0AC
:1023700060E070E00E94DC09882309F0C7C0E881B2
:10238000F981F29680E092E001C011920197BFEFCF
:102390008F3F9B07D1F7888099809EEFA92E9FEFF2
:1023A000B92E9FEFC92E9FEFD92EAE0CBF1CC01EB9
:1023B000D11EF401868D978DA0A1B1A10297A1092C
:1023C000B109A816B906CA06DB0628F020E030E0FD
:1023D00040E050E015C0D40112962C9130E040E06E
:1023E00050E0C601B5010E94D02C9B01AC01F40164
:1023F00082A593A5A4A5B5A5280F391F4A1F5B1F69
:10240000D4019E962D933D934D935C93D197DD24FB
:10241000CC24C3941AC0C4828881998140E050E0E2
:1024200060E070E00E94DC09882309F06FC0E88159
:10243000F98186A597A5A0A9B1A90196A11DB11DF5
:1024400086A797A7A0ABB1ABD394E881F98182812D
:10245000D81608F386A597A5A0A9B1A98D19910949
:10246000A109B10986A797A7A0ABB1ABEA86FB8605
:102470000C871D87C880D9808EEF9FEFAFEFBFEF2D
:10248000E80EF91E0A1F1B1FF601868D978DA0A16D
:10249000B1A10297A109B109E816F9060A071B07BD
:1024A00028F020E030E040E050E015C0D601129660
:1024B0002C9130E040E050E0C801B7010E94D02CE0
:1024C0009B01AC01F60182A593A5A4A5B5A5280F93
:1024D000391F4A1F5B1F2E873F87488B598B7D8290
:1024E0006C8285E0440C551C8A95E1F782E390E00C
:1024F000480E591E88819981840D951D9B8B8A8B6E
:1025000080E005C084E003C082E001C081E0DF918B
:10251000CF911F910F91FF90EF90DF90CF90BF90E0
:10252000AF909F908F907F906F905F904F900895A5
:102530005F926F927F928F929F92AF92BF92CF9253
:10254000DF92EF92FF920F931F93CF93DF93EC01F3
:102550006B01FB0180818F3211F08C3541F40894BE
:10256000C11CD11C1E821F82188619860AC0E881F0
:10257000F98186899789A08DB18D8E839F83A887E5
:10258000B987F6018081803240F4CE0160E070E0CE
:102590000E943F0B1B8A1A8A34C130E2E32E25E0E9
:1025A000522E0C891D89F8018BE090E001C0E19268
:1025B00001972FEF8F3F9207D1F7F60180818E327E
:1025C00049F040E050E0A0E0B0E098E0A92EB12C46
:1025D000FF2421C0D80180E090E0F601E80FF91F48
:1025E000E0810196EE3231F48330910509F404C1A3
:1025F000ED93F3CFEF3229F0EC3539F0E03208F00B
:10260000FBC0E03210F424E201C020E2C80ED91E63
:10261000F801238706C1F601EA0FFB1F20811196FE
:10262000203208F468C02F3209F405C12C3509F4B2
:1026300002C12E3219F04A155B0584F0F8E0AF169E
:10264000B10409F0D9C02E3209F0D6C0FF0CFF0C3E
:1026500048E050E08BE0A82EB12CDDCF27FF02C070
:1026600083E0F82A822F81588F3118F08F558D31F1
:10267000F8F4F601EA0FFB1F3081832F80548F336B
:1026800020F080548D3708F0B7C0C5010197481776
:1026900059070CF0B1C01196F801E40FF51F208323
:1026A000CA010196F801E80FF91F3083AC0120C080
:1026B000622F70E0E0E0F1E001C031968081882374
:1026C00029F090E086179707C1F796C0822F8154B2
:1026D0008A3118F4E2E0FE2A07C0822F81568A313F
:1026E00018F4F1E0FF2A2052F801E40FF51F2083CF
:1026F0004F5F5F4F90CF9F2D64E0452B09F47CC066
:10270000F8018081853E09F45082F8E0AF16B104EB
:1027100019F49F2D990F990F292F30E0C90183706B
:102720009070019709F460612C703070243031058D
:1027300009F46860CA0EDB1EF801638772C04E851B
:102740005F8568897989888199810E94DC09482F91
:10275000882319F5EA89FB898081882311F444E0F4
:102760001CC0838583FD14C0DF018C899D899C0179
:10277000F9012BE030E0215030408FEF2F3F380738
:1027800061F09C918081981719F411963196F3CFDE
:10279000CE0160E00E941B1149C0EC89FD89938540
:1027A0009470442331F0842F443041F5992341F152
:1027B00028C0992319F5EA89FB89838584FF20C005
:1027C00075886624248930E02629372940E050E0C6
:1027D000A90133272227938C8824828D90E08829B1
:1027E0009929A0E0B0E0282B392B4A2B5B2B2E83B4
:1027F0003F8348875987D5CE86E003C0842F01C028
:1028000085E0DF91CF911F910F91FF90EF90DF90C6
:10281000CF90BF90AF909F908F907F906F905F9080
:102820000895CE0160E070E00E943F0B482F88239E
:1028300009F485CFB2CF9F2D60E05FCFCF92DF92BA
:10284000EF92FF921F93DF93CF93CDB7DEB7A4979C
:102850000FB6F894DEBF0FBECDBF9CA38BA36B0158
:102860004DE0E42EF12CEC0EFD1ECE018396B70157
:1028700040E00E94F106182F8823B1F4CE010196A2
:102880009AA389A36BA17CA1C7010E949812182F5B
:10289000882351F48F8D98A1892B11F416E004C080
:1028A000C701B6010E94C605812FA4960FB6F89401
:1028B000DEBF0FBECDBFCF91DF911F91FF90EF9094
:1028C000DF90CF9008950F931F93DF93CF93CDB7F1
:1028D000DEB72E970FB6F894DEBF0FBECDBF8C01CA
:1028E0007E876D87CE010D96B80140E00E94F1060B
:1028F000882309F046C0CE010196D80155969C93D5
:102900008E9354976D857E85C8010E949812882306
:10291000A9F5D8015296ED91FC9153973097F9F0B3
:10292000838584FF2DC0358920E0848990E0282BA1
:10293000392B40E050E0A90133272227938D80E016
:10294000628D70E0862B972BA0E0B0E0282B392B0E
:102950004A2B5B2BF8012683378340875187D801A8
:10296000ED91FC9111978581968113969C938E939E
:102970001297C80160E070E00E943F0B843009F4B8
:1029800085E02E960FB6F894DEBF0FBECDBFCF9177
:10299000DF911F910F910895EF92FF921F93DF93A4
:1029A000CF93CDB7DEB7A4970FB6F894DEBF0FBEB6
:1029B000CDBF9CA38BA3EDE0EE2EF12CEC0EFD1E03
:1029C000CE018396B70140E00E94F106182F8823BC
:1029D00009F044C0CE0101969AA389A36BA17CA102
:1029E000C7010E949812182F8823A9F5AF8DB8A1AE
:1029F000109739F4ED85FE85168A178A108E118E90
:102A00002DC01B968C911B9784FF27C0ED85FE85FA
:102A100055963C91559720E054968C91549790E0B0
:102A2000282B392B40E050E0A901332722275B9661
:102A30009C915B9780E05A966C9170E0862B972B67
:102A4000A0E0B0E0282B392B4A2B5B2B268B378B51
:102A5000408F518F03C0843009F415E0812FA49674
:102A60000FB6F894DEBF0FBECDBFCF91DF911F919F
:102A7000FF90EF900895CF93DF93EC0160E070E05A
:102A80000E943F0B482F8823E9F54E855F856889B2
:102A90007989888199810E94DC09482F882391F5E2
:102AA000EA89FB89E081E53E89F1EE2379F1CE01E7
:102AB00061E00E941B11E6CF6A897B89FB0180E2FD
:102AC00090E001C0119201972FEF8F3F9207D1F74D
:102AD0008C899D899C01D901FB012BE030E002C06B
:102AE0008D918193215030408FEF2F3F3807C1F7F0
:102AF000EC89FD8983858871FB018487E881F981F0
:102B000081E08483842FDF91CF9108954E855F8586
:102B100068897989888199810E94DC09482F8823F6
:102B200059F2F0CFCF93DF93EC016C817D810E944D
:102B30003F0B982F882399F44E855F8568897989A2
:102B4000888199810E94DC09982F882341F4EA89C1
:102B5000FB8985EE8083E881F98181E08483892F78
:102B6000DF91CF910895CF93DF93EC0194E018C0EB
:102B7000888199810E94DC09982F8823E1F4EA89F1
:102B8000FB8980818823F9F0853E19F0838583FFD6
:102B900016C0CE0160E00E941B11982F882359F4C3
:102BA0004E855F85688979894115510561057105F3
:102BB000F9F6992321F01E861F86188A198A892F13
:102BC000DF91CF91089594E0F6CFEF92FF920F93AB
:102BD0001F93DF93CF93CDB7DEB72C970FB6F89442
:102BE000DEBF0FBECDBF8C017B01FC016281738112
:102BF000808191810E948A06882359F5CE01019631
:102C0000F801958B848BE114F10431F4C80160E084
:102C100070E00E943F0B1DC0C8010E94B3158430B4
:102C200031F4F80116861786108A118A02C08823AB
:102C300081F4C801B7010E94C605C80160E00E9486
:102C40001B11843031F4F80116861786108A118A18
:102C500080E02C960FB6F894DEBF0FBECDBFCF91AB
:102C6000DF911F910F91FF90EF9008952F923F9267
:102C70004F925F926F927F928F929F92AF92BF928C
:102C8000CF92DF92EF92FF920F931F93DF93CF9338
:102C9000CDB7DEB729970FB6F894DEBF0FBECDBF14
:102CA0009A8389837D836C832A01CE010196BA01C0
:102CB00040E00E94F106882309F0EAC0D201ED91BC
:102CC000FC912685378540895189E68CF78C00A1D7
:102CD00011A1D801C7010297A109B1098217930771
:102CE000A407B50738F0EC81FD812083318342834E
:102CF0005383CDC030803B82232D2130E1F5AA24BF
:102D0000BB24650192E0E92EF12C012D112DD20199
:102D10008D919C91B801A7010E94550A6F3FBFEFAA
:102D20007B07BFEF8B07BFEF9B0711F481E0B0C0BB
:102D3000613071058105910511F482E0A9C061152A
:102D400071058105910529F40894A11CB11CC11CD1
:102D5000D11C0894E11CF11C011D111DD201ED9143
:102D6000FC91868D978DA0A1B1A1E816F9060A07FE
:102D70001B0768F27AC062A073A084A095A0AA2461
:102D8000BB24650160E070E0E0E0F0E061157105F2
:102D9000A9F4F20180819181B401A3010E94DC09B0
:102DA000882309F075C00894611C711C811C911C5A
:102DB000D201ED91FC91F29660E072E0B181B887AA
:102DC000208129873B81323099F4BF831E82822F74
:102DD00090E0AE81BF818A2B9B2B892B29F408942C
:102DE000A11CB11CC11CD11C32966250704032C073
:102DF000238130E040E050E0522F44273327222740
:102E0000828190E0A0E0B0E0DC0199278827282BA0
:102E1000392B4A2B5B2B3984832D90E0A0E0B0E066
:102E2000282B392B4A2B5B2B38842224C101A0E0AC
:102E3000B0E0282B392B4A2B5B2B2115310541059E
:102E4000510529F40894A11CB11CC11CD11C349655
:102E5000645070400894E108F10801091109E11477
:102E6000F1040105110509F091CFD201ED91FC911A
:102E7000A686B786C08AD18ABB81B33011F481E0BF
:102E80008187EC81FD81A082B182C282D38280E001
:102E900029960FB6F894DEBF0FBECDBFCF91DF915C
:102EA0001F910F91FF90EF90DF90CF90BF90AF9068
:102EB0009F908F907F906F905F904F903F902F905A
:102EC00008952F923F924F925F926F927F928F92CE
:102ED0009F92AF92BF92CF92DF92EF92FF920F93A9
:102EE0001F93CF93DF93EC01162F072F4A0119018F
:102EF000F901118210826A817B81888199810E9407
:102F00008A06582E882309F03FC18C8187FD4CC06A
:102F100080FD03C0F7E05F2E37C12A853B854C85D5
:102F20005D858E819F81A885B985281B390B4A0B49
:102F30005B0BC401A0E0B0E0281739074A075B0724
:102F400008F44901812F902F9C01390119C12E816C
:102F50003F8148855985DA01C9019170A070B07030
:102F60000097A105B10509F0BFC0E881F9819D81F5
:102F70008281981750F1211531054105510529F439
:102F80006E857F858889998907C04A895B896C89A4
:102F90007D89CF010E94550A623071058105910536
:102FA00030F48C8180688C83E2E05E2EEDC06F3F50
:102FB000FFEF7F07FFEF8F07FFEF9F0709F4A2C026
:102FC0006A8B7B8B8C8B9D8B1D82088119812A8952
:102FD0003B894C895D892250304040405040F80187
:102FE000868D978DA0A1B1A10297A109B1092817DB
:102FF00039074A075B07A8F64280642D70E080E03D
:1030000090E00E94D02C9B01AC01F80182A593A511
:10301000A4A5B5A5280F391F4A1F5B1F211531052F
:103020004105510509F4BDCF8D8169017A01C80EB2
:10303000D11CE11CF11C5401AB2CBB24A694A1149F
:10304000B10409F44BC0282F30E0C501820F931F53
:10305000642D70E06817790718F45B01A21AB30AAF
:10306000F8018181B301A70196010A2D0E94860211
:10307000882309F047C0E881F9818481882331F1F0
:1030800026A537A540A951A92C193D094E095F096C
:10309000C501A0E0B0E0281739074A075B07B0F484
:1030A00069E0220F331F441F551F6A95D1F7C301F2
:1030B000820F931FDF01D296FC019C0120503E4FEE
:1030C00002C08D918193E217F307D9F78D818A0DA4
:1030D0008D83B501762F6627770F38C0CE8ADF8AB9
:1030E000E88EF98E8F5F8D83CE80DF80E884F9844F
:1030F0004E895F89688D798D888199810E94DC096C
:10310000882331F08C8180688C83552453943CC093
:10311000C601917020E032E0281B390BB40128155C
:10312000390508F4B9019B018E819F819170C29687
:10313000E881F981E80FF91FD30102C081918D93D5
:10314000215030408FEF2F3F3807C1F7660E771EB2
:10315000CB01A0E0B0E02E813F8148855985280F42
:10316000391F4A1F5B1F2E833F8348875987F10110
:1031700080819181860F971F91838083861A970A99
:103180008114910409F0E3CE852DDF91CF911F9139
:103190000F91FF90EF90DF90CF90BF90AF909F90F6
:1031A0008F907F906F905F904F903F902F900895F9
:1031B0006F927F928F929F92AF92BF92CF92DF9247
:1031C000EF92FF920F931F93DF93CF9300D0CDB771
:1031D000DEB76C015B014A018C01EE24FF240894E8
:1031E000A108B1083E010894611C711C16C0C401FD
:1031F000B80141E050E093010E94611789819A81F2
:10320000019771F4F80180818D3039F00894E11C48
:10321000F11C0F5F1F4F8A3019F0EA14FB043CF3D6
:10322000F8011082EF2811F4CC24DD24C6010F90A0
:103230000F90CF91DF911F910F91FF90EF90DF9052
:10324000CF90BF90AF909F908F907F906F90089598
:103250005F926F927F928F929F92AF92BF92CF9226
:10326000DF92EF92FF920F931F93DF93CF93CDB72F
:10327000DEB7A4970FB6F894DEBF0FBECDBF3C01FA
:103280007CA36BA3DC011D921C923FE1532E5422C0
:103290008E01035F1F4F4E71CE018396B8010E94CD
:1032A000F106882311F0282F32C1CE0101969AA38E
:1032B00089A36BA17CA1C8010E949812282F452DDB
:1032C00050E0CA018C719070892B09F484C02223CC
:1032D00079F0243009F01BC1C8010E943B15282F4A
:1032E000882309F014C1B8E05B2A0F8D18A15BC0D8
:1032F00052FE02C028E00BC10F8D18A10115110567
:1033000009F402C1F8018385817109F0FDC053FE03
:103310004AC0958980E0248930E0822B932BA0E07D
:10332000B0E07C01DD24CC24938D80E0228D30E060
:10333000822B932BA0E0B0E0C82AD92AEA2AFB2AE4
:10334000148A158A128E138E148E158E168E178E71
:10335000ED85FE8581E0848386A497A4A0A8B1A80A
:10336000C114D104E104F104A1F0CF01B701A60119
:103370000E941310282F882309F0C9C0ED85FE850F
:103380000894C108D108E108F108C286D386E48612
:10339000F5868D859E85B501A4010E94DC09282F44
:1033A000882309F0B4C053FE27C0D8011B961C9295
:1033B0001B971E961C921E971F961C921F97509645
:1033C0001C92509751961C92ED85FE8581E0848376
:1033D000B0E25B2A11C0222309F099C00F8D18A119
:1033E0000115110509F492C0F801838584FD8EC092
:1033F00051FE02C080FD88C0ED85FE8526A537A55B
:1034000040A951A9D3015A962D933D934D935C93B6
:103410005D978F8D98A15F969C938E935E9714967F
:103420005C92D80155963C91559720E054968C912A
:10343000549790E0282B392B40E050E0A901332726
:1034400022275B969C915B9780E05A966C9170E086
:10345000862B972BA0E0B0E0282B392B4A2B5B2B37
:10346000D3011E962D933D934D935C935197D801B4
:103470005F962C915F9730E040E050E0522F442758
:10348000332722275E968C9190E0A0E0B0E0DC012B
:1034900099278827282B392B4A2B5B2BD8015C9640
:1034A0008C9190E0A0E0B0E0282B392B4A2B5B2BCD
:1034B000D8015D969C9180E0A0E0B0E0282B392BEC
:1034C0004A2B5B2BD3011A962D933D934D935C931E
:1034D0001D9716961D921D921D921C9219978FEFA3
:1034E00015968C93159756961D921D921D921C92BF
:1034F00059971196FC93EE938581968113969C9330
:103500008E93129720E003C027E001C024E0822FB1
:10351000A4960FB6F894DEBF0FBECDBFCF91DF915A
:103520001F910F91FF90EF90DF90CF90BF90AF90E1
:103530009F908F907F906F905F9008952F923F9211
:103540004F925F926F927F928F929F92AF92BF92B3
:10355000CF92DF92EF92FF920F931F93CF93DF935F
:10356000EC01162F072F4A011901F901118210826F
:103570006A817B81888199810E948A06782E8823BE
:1035800009F0A1C18C8187FD60C081FD03C0F7E017
:103590007F2E99C12A853B854C855D85C401A0E0BD
:1035A000B0E0820F931FA41FB51F82179307A407D3
:1035B000B50710F488249924812F902F9C012901AC
:1035C0006AC12E813F8148855985DA01C901917010
:1035D000A070B0700097A105B10509F00CC1E88199
:1035E000F9819D818281981708F440C02115310529
:1035F00041055105A9F46E857F85888999896115F2
:10360000710581059105C9F4CF0140E050E060E00B
:1036100070E00E94270D6E877F87888B998B07C08B
:103620004A895B896C897D89CF010E94270D6115CC
:1036300071058105910509F432C16130710581057B
:10364000910531F48C8180688C83E2E07E2E3BC151
:103650006F3FFFEF7F07FFEF8F07FFEF9F0709F433
:10366000D8C06A8B7B8B8C8B9D8B1D82E881F98106
:1036700026A537A540A951A98E899F89A88DB98D06
:10368000281739074A075B0751F4CF0140E050E0A3
:1036900060E070E00E94DC09882309F0BAC008816C
:1036A00019812A893B894C895D89225030404040EC
:1036B0005040F801868D978DA0A1B1A10297A10974
:1036C000B109281739074A075B0708F0BBCF6280AA
:1036D000662D70E080E090E00E94D02C9B01AC0150
:1036E000F80182A593A5A4A5B5A5280F391F4A1FE7
:1036F0005B1F211531054105510509F4A3CF8D81CB
:1037000059016A01A80EB11CC11CD11C7401EF2C17
:10371000FF24E694E114F10409F44AC0282F30E0B4
:10372000C701820F931F662D70E06817790718F4A0
:103730007B01E21AF30AF8018181B201A601950129
:103740000E2D0E94DF02882309F063C0E881F98111
:1037500026A537A540A951A92A193B094C095D099D
:10376000C701A0E0B0E0281739074A075B07C0F49B
:10377000DF01D29669E0220F331F441F551F6A955F
:10378000D1F7F201E20FF31F9F0120503E4F02C01C
:1037900081918D93E217F307D9F7E881F9811482BB
:1037A0008D818E0D8D83B701762F6627770F59C0D7
:1037B0002E813F81488559858A859B85AC85BD854D
:1037C000281739074A075B0778F0C80140E050E046
:1037D00060E070E00E94DC098823D9F4E881F98177
:1037E000A6A6B7A6C0AAD1AAAE8ABF8AC88ED98E0D
:1037F0008D818F5F8D83CE80DF80E884F9844E8950
:103800005F89688D798D888199810E94DC09882380
:1038100031F08C8180688C837724739454C0C60106
:10382000917020E032E0281B390BB40128153905CE
:1038300008F4B9019B018E819F819170C296E88145
:10384000F981E80FF91FD20102C08D9181932150B7
:1038500030408FEF2F3F3807C1F7E881F98121E031
:103860002483460E571ECB01A0E0B0E02E813F819D
:1038700048855985280F391F4A1F5B1F2E833F83B8
:1038800048875987F10180819181860F971F918325
:103890008083861A970A8114910409F092CE2E81B2
:1038A0003F81488559858A859B85AC85BD85821772
:1038B0009307A407B50720F42A873B874C875D87C9
:1038C0008C8180628C83872DDF91CF911F910F9126
:1038D000FF90EF90DF90CF90BF90AF909F908F9030
:1038E0007F906F905F904F903F902F900895EF9250
:1038F000FF920F931F93DF93CF9300D00F92CDB71A
:10390000DEB77C018B018AE0E816F10421F48DE03A
:1039100090E00E94771C0115110599F0E982C80119
:10392000BE016F5F7F4F41E050E09E012E5F3F4F31
:103930000E949E1A8A819B81892B19F4EE24EA94B5
:10394000FE2CC7010F900F900F90CF91DF911F9128
:103950000F91FF90EF900895EF92FF920F931F93B6
:10396000CF93DF938C017B01C0E0D0E00DC090E0ED
:10397000B7010E94771C8F5F9F4F19F4CFEFDFEFE5
:1039800007C00F5F1F4F2196F8018081882379F7C8
:10399000CE01DF91CF911F910F91FF90EF9008958D
:1039A0002F923F924F925F926F927F928F929F924F
:1039B000AF92BF92CF92DF92EF92FF920F931F933D
:1039C000DF93CF93CDB7DEB763970FB6F894DEBF22
:1039D0000FBECDBF6AA47BA48E01045D1F4F1A8A5F
:1039E000198A20E030E0D3018C91882309F417C1B3
:1039F0000894611C711C853271F090E068A579A56E
:103A00000E94771C9C01BFEF8F3F9B0711F4480178
:103A1000FAC048014CC0D301ED913D01E03311F0F3
:103A20001B8A04C0ED913D01B1E0BB8BAA24BB24ED
:103A300013C0C50153E0880F991F5A95E1F7AA0CEE
:103A4000BB1CA80EB91EAE0EB11CE0EDFFEFAE0E12
:103A5000BF1ED301ED913D018E2F80538A3048F374
:103A6000EC3631F4BB89B260BB8BD301ED913D01E3
:103A7000E33749F492E0892E912C800E911EF801D3
:103A800080819181BBC0E336A9F482E0882E912C1D
:103A9000800E911ED8018D919C9168A579A50E94F8
:103AA000771C9C01BFEF8F3F9B0709F4ACC021E05E
:103AB00030E0A9C0E43639F0E53729F0E83509F0FF
:103AC000AEC020E101C02AE0FB89F1FF0DC0B4E0E7
:103AD0008B2E912C800E911ED801ED90FD900D91B2
:103AE0001C91E43609F513C0C8010296D8016D9106
:103AF0007C91E43639F44C017B010027F7FC0095FA
:103B0000102F05C04C017B0100E010E00DC017FF35
:103B10000BC010950095F094E094E11CF11C011D80
:103B2000111DBB89B460BB8B188AAFE0CA2ED12CA3
:103B3000222E332444245524C801B701A201910147
:103B40000E940E2D862F805D8A3308F0895F0894CD
:103B5000C108D108E1E0F0E0EC0FFD1FEC0DFD1D08
:103B60008083C114D104E9F0C801B701A201910119
:103B70000E940E2DC901DA017C018D01E114F104CE
:103B800001051105C9F6EB89E2FF0BC00894C108D5
:103B9000D108E1E0F0E0EC0FFD1FEC0DFD1D4DE262
:103BA00040838FE090E08A199B090894C108D108EE
:103BB000E1E0F0E0EC0FFD1FEC0DFD1D0894C11CD1
:103BC000D11CAB892A2F30E0217030700BC00894D3
:103BD000C108D1082115310511F440E201C040E3CC
:103BE00040833197C114D10419F08C159D057CF3E5
:103BF00081E090E08C0F9D1F8C0D9D1D68A579A51F
:103C00000E94AC1C9C01E989FA89E20FF31FFA8B30
:103C1000E98BFFEF2F3F3F0741F08401E4CE4FEFE8
:103C20002F3F340711F029893A89C90163960FB6ED
:103C3000F894DEBF0FBECDBFCF91DF911F910F91E2
:103C4000FF90EF90DF90CF90BF90AF909F908F90BC
:103C50007F906F905F904F903F902F9008950F93BB
:103C6000CF93DF93EC0140E050E060E070E00E9411
:103C7000DC09882309F07EC08881833009F072C096
:103C80008985882309F46EC01EA61FA618AA19AA42
:103C9000BE016E5C7F4FFB0180E092E001C011929B
:103CA00001972FEF8F3F9207D1F7C05DDD4F85E57C
:103CB00089938AEA8883C153D24082E58AAB8BAB71
:103CC00021E62CAB91E49DABCA5EDD4F82E7899380
:103CD000899399932883C951D2408E85C65EDD4F62
:103CE0008883CA51D2408F85C55EDD4F8883CB5112
:103CF000D2408E859F85A889B9899D014427552783
:103D0000C45EDD4F288321968B2F9927AA27BB27D6
:103D10008883CD51D2408A85C25EDD4F8883CE51E3
:103D2000D2408B85C15EDD4F8883CF51D2408A85DA
:103D30009B85AC85BD859D0144275527C05EDD4F21
:103D4000288321968B2F9927AA27BB278883C152C6
:103D5000D2402A893B894C895D89898101E00E9492
:103D6000DF021986898160E040E050E00E94500344
:103D7000811181E0DF91CF910F910895CF92DF9271
:103D8000EF92FF920F931F93DF93CF93CDB7DEB7E0
:103D9000CF54D0400FB6F894DEBF0FBECDBF8E011A
:103DA000025B1F4FD8018D939C936B01CE0101964E
:103DB0009FAB8EABA2E2EA2EF12CEC0EFD1EC801E9
:103DC000B70141E00E94F106882309F0FBC08AA1F7
:103DD0009BA199AF88AFF80160817181C7010E94F2
:103DE0009812882309F0EEC0EEA9FFA9838585FF0C
:103DF00002C086E0E7C08CA99DA9009711F484E079
:103E0000E1C0DC01FE013D9604C01A968C911A9720
:103E100081931196EE15FF05C1F7DE01D896F701E3
:103E20009D0102C081918D93E217F307D9F78E01AE
:103E3000085C1F4FC801B6010E949812882311F434
:103E400088E0C0C0843009F0BDC0C8010E943B15A5
:103E5000882309F0B7C0FE01E65BFF4F4081518126
:103E6000DA01FE013F9604C081911C968C931C9749
:103E70001196EE15FF05C1F78D858062DA011B965C
:103E80008C931B97EAA1FBA181E084831B968C9104
:103E90001B9784FF8BC0C8ACD9AC5A962C915A970B
:103EA00030E054968C91549790E0282B392B5596FE
:103EB0009C91559780E0282B392B5B969C9180E054
:103EC000282B392B790100E010E08EEF9FEFAFEF48
:103ED000BFEFE80EF91E0A1F1B1FF601868D978D96
:103EE000A0A1B1A10297A109B109E816F9060A0734
:103EF0001B0708F066C0228130E040E050E0C801B6
:103F0000B7010E94D02CAB01BC01F60182A593A59C
:103F1000A4A5B5A5480F591F6A1F7B1F4115510560
:103F20006105710509F44DC0C6010E94DC09A8AD08
:103F3000B9AD882309F046C0BD016E5A7F4FFB0121
:103F400081818E3299F58C918330B1F4FE01FE9619
:103F5000208131814281538196968D919D910D9062
:103F6000BC91A02D281739074A075B0729F420E0E8
:103F700030E040E050E006C0FE01FE962081318135
:103F800042815381DB015A962C935A97832F9927AC
:103F90005B968C93CA01AA27BB27FB01848B892FD0
:103FA0009927858BE8ADF9AD81E08483CE018296B7
:103FB0000E949215882331F48AA19BA10E942F1E92
:103FC00001C082E0C15BDF4F0FB6F894DEBF0FBEC9
:103FD000CDBFCF91DF911F910F91FF90EF90DF90B8
:103FE000CF900895EF92FF920F931F93DF93CF939B
:103FF000CDB7DEB7A4970FB6F894DEBF0FBECDBF26
:104000009CA38BA38B01BDE0EB2EF12CEC0EFD1ECF
:10401000CE018396B70141E00E94F106882369F53D
:10402000CE0101969AA389A36BA17CA1C7010E942E
:104030009812882311F5E9A1FAA1838585FD1CC09A
:10404000EF8DF8A13097C1F0D80116968C91169794
:10405000868B17968C911797878B14968C91149753
:10406000808F15968C91818FED85FE8581E084830C
:10407000CF010E942F1E01C086E0A4960FB6F894CF
:10408000DEBF0FBECDBFCF91DF911F910F91FF908B
:10409000EF900895EF92FF920F931F93DF93CF93CA
:1040A000CDB7DEB7A4970FB6F894DEBF0FBECDBF75
:1040B0009CA38BA3E62EF42E8E01035F1F4FCE012F
:1040C0008396B80141E00E94F106882331F5CE01C4
:1040D00001969AA389A36BA17CA1C8010E949812A2
:1040E0008823D9F4E9A1FAA1838585FD15C0EF8D58
:1040F000F8A1309789F09F2D9772892F809523859D
:1041000082239E21892B8387ED85FE8581E0848330
:10411000CF010E942F1E01C086E0A4960FB6F8942E
:10412000DEBF0FBECDBFCF91DF911F910F91FF90EA
:10413000EF9008952F923F924F925F926F927F92ED
:104140008F929F92AF92BF92CF92DF92EF92FF92A7
:104150000F931F93DF93CF93CDB7DEB7A8970FB61A
:10416000F894DEBF0FBECDBF9CA38BA37DE0E72EEE
:10417000F12CEC0EFD1ECE018396B70141E00E94AA
:10418000F106182F882309F03FC1CE0101969AA3AA
:1041900089A36BA17CA1C7010E949812182F8823C4
:1041A00051F0843009F030C1E9A1FAA1838585FF7F
:1041B00004C016E029C118E027C18D859E8540E026
:1041C00050E060E070E00E94270D4B015C0161153A
:1041D00071058105910511F417E016C16130710573
:1041E0008105910511F412E00FC16F3F3FEF730796
:1041F0003FEF83073FEF930709F420C18D859E852C
:1042000040E050E060E070E00E94DC09182F882355
:1042100009F0FAC00D851E856EEFC62E6FEFD62E03
:104220006FEFE62E6FEFF62EC80CD91CEA1CFB1CB4
:10423000F801868D978DA0A1B1A10297A109B109BE
:10424000C816D906EA06FB0620F04424552432019C
:1042500014C0F801228130E040E050E0C701B6010F
:104260000E94D02C2B013C01F80182A593A5A4A5A6
:10427000B5A5480E591E6A1E7B1E52E3252E312C11
:10428000200E311EF10180E092E001C011920197F1
:104290002FEF8F3F9207D1F7F1018BE090E020E202
:1042A00001C0219301973FEF8F3F9307D1F78EE233
:1042B000F80182AB80E185AF085B1F4FF8011192D6
:1042C00011921192119288A681928F01892D9927BE
:1042D0008FA38083C501AA27BB278EA30750104058
:1042E000F80181938F01892F99278DA3808307542B
:1042F0001040F10120E230E003C0808180A33196BC
:10430000215030408FEF2F3F3807B9F70D5A1F4F1C
:104310008EE2F8018083035510402B893C894D893A
:104320005E89ED85FE858081833069F486A197A141
:10433000A0A5B1A5281739074A075B0721F420E09B
:1043400030E040E050E004591F4FF80121938F0105
:10435000832F99278083CA01AA27BB2707501040C3
:10436000F8018193892F992780837301620101E00D
:104370001EC0C6A6D7A6E0AAF1AA0483CF0140E0DA
:1043800050E060E070E00E94DC09182F8823E1F51E
:10439000F10180E092E001C0119201972FEF8F3F71
:1043A0009207D1F70894C11CD11CE11CF11CED85CA
:1043B000FE859C2D941982819817D8F2CE010D9616
:1043C0000E943B15182F882339F08D859E85B501F5
:1043D000A4010E94131018C0EF8DF8A180E183871B
:1043E000168A178A108E118E38A5328F8FA1838F6F
:1043F0002EA1248B3DA1358BED85FE8581E0848344
:10440000CF010E942F1E182F812FA8960FB6F89467
:10441000DEBF0FBECDBFCF91DF911F910F91FF90F7
:10442000EF90DF90CF90BF90AF909F908F907F9054
:104430006F905F904F903F902F90089511E0E4CFE0
:10444000CF92DF92EF92FF920F931F93DF93CF9360
:10445000CDB7DEB7EA970FB6F894DEBF0FBECDBF7B
:104460009AAF89AF0DE0C02ED12CCC0EDD1ECE014F
:10447000C996B60141E00E94F106882309F077C091
:10448000CE0101969AA389A369AD7AADC6010E94B7
:104490009812882309F06BC0E9A1FAA1838585FDF4
:1044A00063C0EF8DF8A1309709F45EC08385482F73
:1044B00080FD5CC0958980E0248930E0822B932BBD
:1044C000A0E0B0E08C01FF24EE24938D80E0228DEB
:1044D00030E0822B932BA0E0B0E0E82AF92A0A2BE7
:1044E0001B2B44FF29C082E0E816F10401051105E9
:1044F00010F482E03CC0DE019396F6019D0102C0FB
:1045000081918D93E217F307D9F7E9A6FAA60BA7D5
:104510001CA7E3E2CE2ED12CCC0EDD1EC60160E03E
:1045200070E00E943F0B882311F5C6010E94B3156D
:104530008823E1F08430D9F4CE010D960E949215C3
:104540008823A9F4E114F1040105110541F08D85DA
:104550009E85B801A7010E941310882341F48D8520
:104560009E850E942F1E03C086E001C087E0EA9668
:104570000FB6F894DEBF0FBECDBFCF91DF911F9174
:104580000F91FF90EF90DF90CF900895CF93DF933E
:10459000EC016A817B81888199810E948A06982F2B
:1045A000882309F04FC08C8185FF4CC04A8D5B8DFC
:1045B0006C8D7D8D888199810E94DC09982F8823DC
:1045C00009F040C0EE8DFF8D8385806283878A85E8
:1045D000848F8B85858F8A859B85AC85BD85CD0134
:1045E000AA27BB27868F8A859B85AC85BD858B2FA7
:1045F0009927AA27BB27878F8E85828F8F85838FE8
:104600008E859F85A889B989CD01AA27BB27848B70
:104610008E859F85A889B989CD01AA27BB27892FB7
:104620009927858B168A178A108E118E8C818F7D23
:104630008C83E881F98181E08483888199810E945B
:104640002F1E982F892FDF91CF910895CF93DF935D
:10465000EC010E94C622882311F419821882DF918E
:10466000CF91089508950F93FC0110C0013011F00F
:10467000023009F431962115310519F44A5F5F4F74
:1046800002C0485F5F4F443851051CF48081882385
:1046900069F70F91089508950F931F93182F062F10
:1046A0008BE20E943F01812F0E943801812F0E94DE
:1046B00038018AE20E943F01802F0E943801802F3A
:1046C0000E9438011F910F9108950F931F938A0143
:1046D0000E944C238CE20E943F01C80124E0959582
:1046E00087952A95E1F70E943801802F8295807F77
:1046F0000E94380180E00E943F011F910F910895B0
:104700002F923F924F925F926F927F928F929F92E1
:10471000AF92BF92CF92DF92EF92FF920F931F93CF
:10472000DF93CF9300D000D000D0CDB7DEB72C01FF
:104730003B018A013E832D8341E0242E312C201A37
:10474000310AC801880F991F22273327281B390BEC
:104750003C832B83B801660D771DC2014D815E81BC
:104760000E946523B301601B710BC2014D815E8104
:104770000E946523C801840D951DB3014D815E81A2
:104780000E946523C201801B910BB3014D815E81A4
:104790000E9465234801AA24BB2483E090E05EC008
:1047A00037FC0AC0089481089108EB81FC8132969D
:1047B000FC83EB832E0E3F1E0894A11CB11C2981A3
:1047C0003A81220E331E6501C40CD51C8401060DEE
:1047D000171DC601B8014D815E810E9465237201DB
:1047E000EA18FB08C701B8014D815E810E9465236C
:1047F000830108191909C601B8014D815E810E9423
:104800006523C701B8014D815E810E946523640163
:10481000C40CD51C8501060D171DC601B8014D81BC
:104820005E810E9465237201E818F908C701B8018A
:104830004D815E810E94652383010A191B09C6010F
:10484000B8014D815E810E946523C701B8014D8189
:104850005E810E94652389819A8102969A83898369
:10486000A814B9040CF49CCF26960FB6F894DEBFBA
:104870000FBECDBFCF91DF911F910F91FF90EF90B1
:10488000DF90CF90BF90AF909F908F907F906F9070
:104890005F904F903F902F9008952F923F924F92AC
:1048A0005F926F927F928F929F92AF92BF92CF92C0
:1048B000DF92EF92FF920F931F93DF93CF9300D07D
:1048C00000D0CDB7DEB76C017B015A834983190153
:1048D0002801261B370BCA018C199D0937FD04C01E
:1048E000A1E06A2E712C06C0309521953F4F6624B9
:1048F0006A94762C97FD04C0F1E08F2E912C06C0AF
:10490000909581959F4F88248A94982C5901AA0CE0
:10491000BB1C8C01000F111FC601B701A2010E9430
:104920006523A016B106E4F4C80195958795150195
:10493000281A390A0FC037FC04C0E60CF71C201AED
:10494000310AC80CD91C2A0C3B1CC601B701A201B4
:104950000E94652329813A81C216D30661F723C0DC
:10496000C50195958795F801E81BF90BFC83EB834E
:1049700017C02B813C8137FD06C0C80CD91C2A19F1
:104980003B093C832B83E60CF71C8B819C81800FB9
:10499000911F9C838B83C601B701A2010E946523EE
:1049A000E214F30431F70F900F900F900F90CF9116
:1049B000DF911F910F91FF90EF90DF90CF90BF900C
:1049C000AF909F908F907F906F905F904F903F90AF
:1049D0002F9008954F925F926F927F928F929F9245
:1049E000AF92BF92CF92DF92EF92FF920F931F93FD
:1049F000CF93DF936C015B01742E652E522E432EF4
:104A0000013009F06FC0842F952F9C014901C21617
:104A1000D3060CF44601872D962D9C01E9012C1537
:104A20003D050CF4E601852D942D9C016901A2162B
:104A3000B3060CF46501852D942D9C0189012A157E
:104A40003B050CF485018BE20E943F01882D0E94FA
:104A500038018C2F0E9438018AE20E943F018C2D80
:104A60000E943801802F0E9438018CE20E943F0191
:104A70000F5F1F4F0C191D092196C819D9090C9FEA
:104A8000C0010D9F900D1C9F900D112462E070E0FD
:104A90000E94FB2CEB01C70124E0959587952A9590
:104AA000E1F7C82E8F2D992787FD9A951FE0D12E0B
:104AB000D822C701B4E0880F991FBA95E1F7D82A28
:104AC00000E010E00BC08C2D0E9438018D2D0E945B
:104AD00038018E2D0E9438010F5F1F4FC017D1077C
:104AE00094F71DC0950187010E944D24C601652DD4
:104AF000742D472D562D252D342D0E944D24C60191
:104B0000B501A601252D342D0E944D24872D962D0B
:104B1000B501472D562D252D342D0E944D24DF91B2
:104B2000CF911F910F91FF90EF90DF90CF90BF90AA
:104B3000AF909F908F907F906F905F904F9008956F
:104B4000FF920F931F93CF93DF93182F8BE20E9456
:104B50003F0180E00E94380183E80E9438018AE228
:104B60000E943F0180E00E94380183E80E943801E2
:104B70008CE20E943F01F12EF2943FE0F322012FDC
:104B80000295007FC0E0D0E08F2D0E943801802F79
:104B90000E943801812F0E943801219681E2C43899
:104BA000D80791F7DF91CF911F910F91FF90089552
:104BB00086E30E943F0188EC0E94380188E20E944F
:104BC0003F018AE20E943F0180E00E94380183E8B1
:104BD0000E9438018BE20E943F0180E00E94380170
:104BE00083E80E9438018CE20E943F0186E30E9424
:104BF0003F0188E40E94380189E20E943F0189E276
:104C00000E943F0108950F931F932C982D982F9A7F
:104C10002B9A2B982B9A2F982D9A2F9A00E41CE907
:104C2000C8010197F1F781E00E943F0181E10E94F4
:104C30003F0183E00E943F01C8010197F1F789E23B
:104C40000E943F0183E10E943F0180E20E943F01F8
:104C50008AEB0E943F0186E30E943F0188E40E94A4
:104C600038018AE30E943F0183E00E94380185E217
:104C70000E943F018FE30E9438018AE20E943F01B7
:104C800080E00E94380183E80E9438018BE20E9494
:104C90003F0180E00E94380183E80E9438018CE2E5
:104CA0000E943F011F910F910895159887FD159A55
:104CB000149886FD149A139885FD139A129884FD12
:104CC000129A119A85E08A95F1F7119808951F9329
:104CD000182F0E945526812F8295807F0E9455268D
:104CE00088EC90E00197F1F71F9108951F93182F1A
:104CF00010980E946726143020F480E49FE1019709
:104D0000F1F71F910895109A0E946726809117026B
:104D10008F5F809317020895CF93DF93EC0103C058
:104D20000E948326219688818823D1F7DF91CF9135
:104D300008951F93182F04C080E20E94832611500B
:104D40001123D1F71F9108950F931F930A9A0B9A7D
:104D50000C9A0D9A089A099A119810982CE231E051
:104D600040E951E0CA010197F1F721503040D1F7F5
:104D700088E30E94552680E190E40197F1F788E3EB
:104D80000E94552680E991E00197F1F788E30E949F
:104D9000552608EC10E0C8010197F1F780E20E9467
:104DA0005526C8010197F1F788E20E94762688E02F
:104DB0000E94762681E00E94762686E00E94762672
:104DC0008EE00E9476261F910F910895843009F19C
:104DD000853048F48130B9F0813098F08230A9F004
:104DE000833031F514C08730D1F0883028F4853015
:104DF00091F08630E9F411C0883099F08930C1F41F
:104E000014C080E30FC081E30DC082E30BC083E3D5
:104E100009C084E307C085E305C086E303C087E3D8
:104E200001C088E30E948326089589E30E948326B7
:104E30000895CF93DF93EC018A30910510F40E941E
:104E4000E626CE010A978A35910578F4CE016AE00C
:104E500070E00E94FB2C862F0E94E626CE016AE0BD
:104E600070E00E94FB2C0E94E626CE018456904002
:104E70008458934038F4CE0164E670E00E94FB2C25
:104E8000862F2FC0CE01885E93408852934238F41B
:104E9000CE0168EE73E00E94FB2C862F16C087E2DD
:104EA000C031D8079CF1CE0160E177E20E94FB2C73
:104EB000862F0E94E626CE0168EE73E00E94FB2C4E
:104EC000CB016AE070E00E94FB2C0E94E626CE0136
:104ED00064E670E00E94FB2CCB016AE070E00E9467
:104EE000FB2C0E94E626CE016AE070E00E94FB2CBB
:104EF000CB016AE070E00E94FB2C0E94E626CE0106
:104F00006AE070E00E94FB2C0E94E626DF91CF91C0
:104F100008951F93182F8A3010F40E94E626812FDF
:104F20008A508A3568F4812F6AE00E94EF2C0E9433
:104F3000E626812F6AE00E94EF2C892F0E94E62648
:104F40001436B0F0812F64E60E94EF2C0E94E62612
:104F5000812F6AE00E94EF2C0E94EF2C892F0E9483
:104F6000E626812F6AE00E94EF2C892F0E94E62618
:104F70001F9108952C9A08952C9808958EBD0DB414
:104F800007FEFDCF8EB50895882311F05C98089533
:104F90005C9A0895AF92BF92CF92DF92EF92FF9208
:104FA0000F931F93CF93DF93789400D08BE091E021
:104FB000ADB7BEB712969C938E9311970E94862D23
:104FC0002C98249A85B1806B85B984B1806B84B9A3
:104FD00081E08DBD82E58CBD5C9A549A20E137E278
:104FE0000F900F9040E951E0CA010197F1F721506D
:104FF0003040D1F78AEB97E290933A0280933902DE
:105000008CEB97E290933E0280933D028EEB97E209
:1050100090933C0280933B0284EC97E29093400291
:1050200080933F0289E392E00E94112B182F00D059
:1050300000D0EDB7FEB731968DE691E0ADB7BEB7C3
:1050400012969C938E931197128313820E949B2D2C
:105050000F900F900F900F90112321F481E08DBDE0
:1050600080E58CBD00D086E191E0EDB7FEB792837C
:1050700081830E94862D0F900F9085E592E00E941B
:105080007D2C80915A028F7071E0A72EB12C02C046
:10509000AA0CBB1C8A95E2F7CC24B7FCC094DC2C8C
:1050A00000D000D000D08AE391E0ADB7BEB7129631
:1050B0009C938E931197EDB7FEB7A382B482C582FD
:1050C000D6820E94862D89E591E0ADB7BEB71296D3
:1050D0009C938E9311972091610230E02370307081
:1050E000220F331F220F331F809162028295869513
:1050F00086958370280F311D81E090E0A0E0B0E03C
:1051000004C0880F991FAA1FBB1F2A95D2F7EDB7BD
:10511000FEB783839483A583B6830E94862D8091F6
:105120005D028295869586958370E0905C02FF24EF
:1051300000E010E052E0EE0CFF1C001F111F5A951A
:10514000D1F7E80EF11C011D111D0894E11CF11CA2
:10515000011D111D80915B0290E0A0E0B0E0837022
:105160009070A070B0704AE0880F991FAA1FBB1FF3
:105170004A95D1F7E80EF91E0A1F1B1F20915F0206
:10518000221F2227221F80915E0290E08370907080
:10519000880F991F820F911D029604C0EE0CFF1C10
:1051A000001F111F8A95D2F789E791E0ADB7BEB70E
:1051B00012969C938E931197EDB7FEB7E382F4821B
:1051C000058316830E94862D81E991E0ADB7BEB7B5
:1051D00012969C938E931197C801B701A601950171
:1051E0000E94D02CEDB7FEB76383748385839683CA
:1051F0000E94862D0F900F900F900F9089EA91E0FA
:10520000ADB7BEB712969C938E9311970E94862DD0
:1052100078940F900F900DEB11E0C2ECD1E08091EB
:105220006504909166040E94442D00D000D0EDB733
:10523000FEB73196ADB7BEB712961C930E93119779
:10524000828313820E94862D0F900F900F900F90F3
:105250006091260270912702809128029091290284
:1052600045E652E00E949F2B00D000D0EDB7FEB77C
:10527000D283C183948383830E94862D0F900F90E5
:105280000F900F90CCCF2F923F924F925F926F92E0
:105290007F928F929F92AF92BF92CF92DF92EF92C6
:1052A000FF920F931F93CF93DF93182F092FEB01DA
:1052B0006091260270912702809128029091290224
:1052C00045E652E00E94322C9C018FEF2F3F3807B9
:1052D000E9F0812F902F9C016901EE24FF2410EF4B
:1052E000A12E1FEFB12EAC22BD22B7EF2B2EB1E0C5
:1052F0003B2EAEEF4A2EA1E05A2EF4E06F2EF2E0E4
:105300007F2EE7E08E2EE2E09E2E65C000D000D01A
:1053100082EE91E0ADB7BEB712969C938E93119733
:1053200014963C932E9313976CC000D000D0EDB729
:10533000FEB732822182F482E3820E94862D8601AA
:10534000C0E0D0E00F900F900F900F9000D000D0F1
:10535000EDB7FEB73196ADB7BEB712965C924E92DE
:105360001197D8018D918D01828313820E94862D21
:1053700021960F900F900F900F90C031D10531F70B
:1053800000D0EDB7FEB7728261820E94862D860141
:10539000C0E0D0E00F900F90D8018C91803218F4CB
:1053A0008EE290E001C090E00E94C12D21960F5F37
:1053B0001F4FC031D10581F700D0EDB7FEB7928203
:1053C00081820E94862D80E190E0C80ED91EE80EF1
:1053D000F91E0F900F90EA14FB0409F0A6CF00D03D
:1053E00000D08AE092E0ADB7BEB712969C938E9340
:1053F0001197809126029091270214969C938E9388
:1054000013970E94862D0F900F900F900F90DF91B1
:10541000CF911F910F91FF90EF90DF90CF90BF90B1
:10542000AF909F908F907F906F905F904F903F9044
:105430002F90089580912A02882319F42EEF3FEFD0
:1054400002C020E030E0C9010895DF92EF92FF92A0
:105450000F931F93182FF62E072FD42EE52E809131
:105460002A02882311F48EEF3CC0E0912B02F091C8
:105470002C020995E0912D02F0912E028FEF0995F3
:10548000E0912D02F0912E02812F80640995E09128
:105490002D02F0912E02802F0995E0912D02F091BE
:1054A0002E028F2D0995E0912D02F0912E028E2D66
:1054B0000995E0912D02F0912E028D2D0995E09134
:1054C0002D02F0912E0285E90995E0912D02F091CF
:1054D0002E028FEF0995E0912D02F0912E028FEFB1
:1054E00009951F910F91FF90EF90DF9008951F9302
:1054F000DF93CF9300D00F92CDB7DEB7182FE09196
:105500003102F0913202309709F00995112309F424
:1055100080C0E0912F02F091300209951B821A821F
:105520000BC0E0912D02F0912E028FEF09958A8138
:105530009B8101969B838A838A819B810A9788F34A
:105540001B821A8221C080E060E070E040E050E001
:105550000E94252A8983E0912F02F091300209955B
:10556000E0912D02F0912E028FEF0995E0912D022E
:10557000F0912E028FEF09958981813051F08A8157
:105580009B8101969B838A838A819B818E3F9105B3
:10559000D0F28981813011F081E03CC01B821A82F7
:1055A0002EC087E360E070E040E050E00E94252AD2
:1055B0008983E0912F02F09130020995E0912D024C
:1055C000F0912E028FEF099589E260E070E040E0F3
:1055D00050E00E94252A8983E0912F02F091300249
:1055E0000995E0912D02F0912E028FEF09958981A6
:1055F000813051F48A819B8101969B838A838A81C1
:105600009B818E5F9F4F68F28981813011F482E027
:1056100001C080E00F900F900F90CF91DF911F910C
:105620000895FC012081318130932C0220932B02BC
:105630006281738170932E0260932D0244815581A3
:105640005093300240932F028681978190933202CB
:105650008093310210922A02232B39F0672B29F014
:10566000452B19F081E080932A0280912A02882339
:1056700011F48EEF089581E00E94772A08951F9318
:10568000CF93DF93182F80912A02882319F42EEFED
:105690003FEF14C0CFEFDFEFE0912D02F0912E022B
:1056A0008FEF0995811719F02197B1F705C0CD2B20
:1056B00019F020E030E002C02FEF3FEFC901DF9189
:1056C000CF911F91089580912A02882359F0E0918B
:1056D0002F02F09130020995E0912D02F0912E02F7
:1056E0008FEF099508951F93CF93DF9380912A023E
:1056F000882311F48EEF1FC0E0912B02F0912C0251
:105700000995E0912D02F0912E028FEF0995C8E8DE
:10571000D3E1E0912D02F0912E028FEF0995182F21
:105720008F3F11F02197A9F70E94632B1F3F11F0C3
:105730008FEF01C080E0DF91CF911F9108950F930B
:105740001F93CF93DF938B019C01EA0180912A0282
:10575000882319F42EEF3FEF55C0A801542F44279A
:10576000550F88E197E036952795179507959A95F7
:10577000D1F7B8010E94252A80E00E943F2B8F5F5D
:105780009F4F19F40E94632B29C0E0912D02F091E4
:105790002E028EEF099500E010E0E0912D02F091CD
:1057A0002E02899109950F5F1F4F82E00030180784
:1057B000A1F7E0912D02F0912E028FEF0995E09173
:1057C0002D02F0912E028FEF0995E0912D02F091BC
:1057D0002E028FEF09958F70853019F02FEF3FEF74
:1057E00011C00FEF1FEFE0912D02F0912E028FEF0D
:1057F0000995882319F401501040A9F70E94632BE2
:1058000020E030E0C901DF91CF911F910F91089501
:105810000F931F93DF93CF9300D0CDB7DEB700E097
:1058200012E08FEF15C01A82198205C089819A8112
:1058300001969A83898389819A81885E9340B0F327
:10584000E0912D02F0912E028FEF09958E3F19F015
:105850000150104041F70F900F90CF91DF911F91B1
:105860000F9108950F931F93CF93DF938B019C01AA
:10587000EA0180912A02882319F42EEF3FEF37C006
:10588000A801542F4427550F81E177E036952795DD
:10589000179507957A95D1F7B8010E94252A0E949D
:1058A000082C8E3F29F00E94632B2FEF3FEF1FC083
:1058B00000E010E0E0912D02F0912E028FEF0995AB
:1058C00089930F5F1F4F82E00030180799F7E0912E
:1058D0002D02F0912E028FEF0995E0912D02F091AB
:1058E0002E028FEF09950E94632B20E030E0C90162
:1058F000DF91CF911F910F9108951F93CF93DF9365
:10590000EC0180912A02882319F42EEF3FEF2BC07F
:1059100089E060E070E040E050E00E94252A0E94AB
:10592000082C8E3F29F00E94632B2FEF3FEF1BC006
:1059300010E0E0912D02F0912E028FEF09958993EE
:105940001F5F1031B1F7E0912D02F0912E028FEF21
:105950000995E0912D02F0912E028FEF09950E949A
:10596000632B20E030E0C901DF91CF911F910895B2
:1059700080E58CBD1DBC2A9A229A08958FEF8EBDBA
:105980000DB407FEFDCF8EB508958EBD0DB407FE94
:10599000FDCF8EB5089580E991E00197F1F7089564
:1059A000629FD001739FF001829FE00DF11D649F03
:1059B000E00DF11D929FF00D839FF00D749FF00D8F
:1059C000659FF00D9927729FB00DE11DF91F639F30
:1059D000B00DE11DF91FBD01CF0111240895991BE0
:1059E00079E004C0991F961708F0961B881F7A95D6
:1059F000C9F78095089597FB092E07260AD077FDF1
:105A000004D02ED006D000201AF4709561957F4FF7
:105A10000895F6F7909581959F4F0895A1E21A2E6B
:105A2000AA1BBB1BFD010DC0AA1FBB1FEE1FFF1F42
:105A3000A217B307E407F50720F0A21BB30BE40B92
:105A4000F50B661F771F881F991F1A9469F76095D9
:105A50007095809590959B01AC01BD01CF01089593
:105A6000AA1BBB1B51E107C0AA1FBB1FA617B70784
:105A700010F0A61BB70B881F991F5A95A9F78095A0
:105A80009095BC01CD010895CF93DF93EC014B813C
:105A900040FF1AC046FF0AC04F7B4B838E819F8117
:105AA00001969F838E838A81282F2BC042FF13C0CB
:105AB000E881F9818081282F332727FD3095211532
:105AC000310529F440624B832FEF3FEF1BC0319625
:105AD000F983E88311C0EA85FB85CE0109959C0115
