:100000001CC053C135C034C033C032C031C030C051
:100010002FC0B2C12DC02CC02BC02AC029C028C0FF
:1000200027C026C025C0AAC0ABC0ACC0ADC0AEC002
:10003000AFC0B0C0B1C0B2C0B4C011241FBECFE5C4
:10004000D4E0DEBFCDBF11E0A0E6B0E0E0E3FDE02C
:1000500002C005900D92A439B107D9F711E0A4E9C7
:10006000B1E001C01D92A63AB107E1F7D5D15EC655
:10007000C7CFC59887FDC59AC49886FDC49AC39812
:1000800085FDC39AC29884FDC29AC19A81E08A957F
:10009000F1F7C19808951F93182FEBDF812F8295F8
:1000A000807FE7DF80E18A95F1F71F9108951F9324
:1000B000182FC098F0DF143020F484EF91E00197FE
:1000C000F1F71F910895C09AE6DF809171008F5F6C
:1000D000809371000895CF93DF93EC0102C0F3DFAA
:1000E000219688818823D9F7DF91CF9108950F93C6
:1000F0001F9380E8DCDF00E610E0C801ECDF80EC55
:10010000D6DFC801E8DF80E8D2DF1F910F910895A4
:100110001F93BA9ABB9ABC9ABD9AB89AB99AC198D9
:10012000C0988CE49DE10197F1F788E3A2DF81E0BC
:1001300094E00197F1F788E39CDF81E28A95F1F77B
:1001400088E397DF10E1812F8A95F1F780E291DF54
:100150001A95F1F788E2ABDF88E0A9DF81E0A7DF3D
:1001600086E0A5DF8EE0A3DF1F910895E82FF0E081
:10017000EA30F105C0F4ED5EFF4F099480E30FC053
:1001800081E30DC082E30BC083E309C084E307C0B1
:1001900085E305C086E303C087E301C088E393DFFE
:1001A000089589E390DF0895CF93DF93EC018A30BF
:1001B000910508F4DBDFCE010A978A35910558F4E2
:1001C000CE016AE070E054D5862FD0DFCE016AE020
:1001D00070E04ED5CBDFCE018456904084589340DA
:1001E00030F4CE0164E670E043D5862F27C0CE01FF
:1001F000885E93408852934230F4CE0168EE73E0FB
:1002000037D5862F12C087E2C031D80734F1CE012E
:1002100060E177E22DD5862FA9DFCE0168EE73E08D
:1002200027D5CB016AE070E023D5A0DFCE0164E6DC
:1002300070E01ED5CB016AE070E01AD597DFCE01E1
:100240006AE070E015D5CB016AE070E011D58EDF71
:10025000CE016AE070E00CD589DFDF91CF9108957F
:100260001F93182F8A3008F481DF812F8A508A3536
:1002700048F4812F6AE0F0D479DF812F6AE0ECD472
:10028000892F74DF143678F0812F64E6E5D46EDFB1
:10029000812F6AE0E1D4E0D4892F68DF812F6AE002
:1002A000DBD4892F63DF1F9108951F920F920FB641
:1002B0000F9211248F939F938091970190919801B1
:1002C00082309105F9F083309105B1F1019709F081
:1002D00048C08091A4019091A501863991050CF048
:1002E00040C08091A4019091A5019093A3018093B7
:1002F000A20188EC90E09093A5018093A40182E094
:1003000090E02BC08091A4019091A50186399105C0
:1003100044F58091A4019091A5019093960180935A
:10032000950188EC90E09093A5018093A401909AA8
:10033000979A83E090E011C08091A4019091A5016B
:100340008639910574F488EC90E09093A501809330
:10035000A4019098979881E090E090939801809301
:10036000970180E593EC0197F1F79F918F910F90A2
:100370000FBE0F901F9018951F920F920FB60F92FD
:1003800011248F939F9380919C0190919D010196E0
:1003900090939D0180939C0180349105B1F58091EB
:1003A000970190919801039761F580919501909143
:1003B00096011816190634F48091950190919601D2
:1003C000019712C08091A2019091A30118161906FD
:1003D00084F48091A2019091A30101979093A301CD
:1003E0008093A2018BE390E0909396018093950116
:1003F00008C081E090E090939801809397019098D5
:10040000979810929D0110929C019F918F910F904F
:100410000FBE0F901F9018958A98A098889A8E9A70
:100420008F9AA898929A90989698979880EC87B906
:1004300085E886B985E083BF84EF82BF81E089BF0C
:1004400082E085BF80E48BBF63DE82E790E043DE1D
:1004500078944DDE80E82BDE87E790E03CDE36982E
:10046000369A88EB9BE029E130E0F9013197F1F70A
:100470000197D9F734B125B1922F80E0830F911DF8
:100480009093A5018093A40181E090E0909398015E
:100490008093970199E1E92EF12C80E5C82E83EC39
:1004A000D82E80E804DE87E790E015DE2BC0369872
:1004B000369A88E893E1F7013197F1F70197D9F778
:1004C00094B185B1D82FC0E0BE01690F711D882796
:1004D00077FD8095982F79D12AEF3DEE4BE65DE3CD
:1004E0007FD0CDD17093A5016093A40185E8DFDDB5
:1004F0008CE790E0F0DD85E8DADD8091A401909151
:10050000A501AEDE8091970190919801019779F253
:1005100080ECCDDD82E890E0DEDD37C03698369A9B
:1005200088E893E1F7013197F1F70197D9F794B192
:1005300085B1182F00E0B801690F711D882777FD7C
:100540008095982F42D12AEF3DEE4BE65DE348D0EF
:1005500096D17093A5016093A40185E8A8DD8CE78E
:1005600090E0B9DD85E8A3DD8091A2019091A3011F
:1005700077DE85EC9CDD8CE790E0ADDD85EC97DDEA
:100580008091A4019091A5016BDE809197019091DB
:100590009801029709F4C2CF1BC0C6010197F1F779
:1005A00085E885DD8CE790E096DD85E880DD80914B
:1005B000A2019091A30154DE85EC79DD8CE790E0F7
:1005C0008ADD85EC74DD809195019091960148DE7D
:1005D0008091970190919801039709F062CFDDCF48
:1005E000A0E2B0E0E5EFF2E06AC369837A838B832F
:1005F0009C832D833E834F835887CE010196BE0195
:10060000675F7F4FB1D2CE010596BE016F5E7F4F0F
:10061000ABD29985923088F089898230C8F09430C5
:1006200019F4823051F404C0843029F4923081F4FA
:100630008BE890E0C6C0923049F420E09A858A8920
:10064000981321E02A87CE010996BBC0823049F475
:1006500020E09A858A89981321E02A8BCE01419661
:10066000B0C02D843E844F8458886D887E888F88E2
:10067000988CEE24FF248701AA24BB24650140E066
:1006800050E060E070E0E0E0F0E0C1018170907067
:10069000892BE9F0E60CF71C081D191D9A01AB0126
:1006A0002A0D3B1D4C1D5D1D80E090E0A0E0B0E0F8
:1006B000E614F7040805190520F481E090E0A0E0B5
:1006C000B0E0BA01A901480F591F6A1F7B1FAA0C8D
:1006D000BB1CCC1CDD1C97FE08C081E090E0A0E0B4
:1006E000B0E0A82AB92ACA2ADB2A3196E032F105FD
:1006F00049F0660C771C881C991C569447943794D3
:100700002794C3CFFA85EA892B893C898B859C8500
:10071000280F391F2E5F3F4F17C0CA01817090709C
:10072000892B61F016950795F794E79480E090E0A7
:10073000A0E0B0E8E82AF92A0A2B1B2B76956795EA
:10074000579547952F5F3F4F77FDE7CF0CC0440F7C
:10075000551F661F771F17FD4160EE0CFF1C001F21
:10076000111F21503040403090E0590790E0690758
:1007700090E4790760F32B8F3C8FDB01CA018F7700
:100780009070A070B07080349105A105B10561F43E
:1007900047FD0AC0E114F1040105110529F0405C90
:1007A0005F4F6F4F7F4F40781A8EFE1711F081E038
:1007B0008A8F4D8F5E8F6F8F78A383E0898FCE01F4
:1007C0004996FDD0A096E2E196C2A8E0B0E0EAEE3C
:1007D000F3E07EC29B01AC0183E08983DA01C901A9
:1007E0008827B7FD83959927AA27BB27B82E2115FF
:1007F00031054105510519F482E0898339C0882308
:10080000A9F0203080E0380780E0480780E85807EA
:1008100029F460E070E080E09FEC2EC0EE24FF241D
:100820008701E21AF30A040B150B02C079018A0151
:100830008EE1C82ED12CDC82CB82ED82FE820F832A
:100840001887C801B7016CD001971816190684F4EF
:10085000082E04C0EE0CFF1C001F111F0A94D2F7D3
:10086000ED82FE820F831887C81AD90ADC82CB82F8
:10087000BA82CE010196A3D02896E9E045C2ACE049
:10088000B0E0E4E4F4E02BC269837A838B839C8339
:10089000CE010196BE016B5F7F4F66D18D818230A4
:1008A00061F1823050F1843021F48E81882351F13E
:1008B0002EC02F81388537FD20C06E812F31310544
:1008C0001CF06623F9F023C08EE190E0821B930BAD
:1008D00029853A854B855C8504C0569547953795A3
:1008E00027958A95D2F76623B1F0509540953095BB
:1008F00021953F4F4F4F5F4F0EC020E030E040E06A
:1009000050E009C02FEF3FEF4FEF5FE704C020E05A
:1009100030E040E050E8B901CA012C96E2E0FBC1AA
:10092000EF92FF920F931F937B018C0180E0E816FA
:1009300080E0F80681E0080780E0180788F48FEF70
:10094000E816F1040105110531F028F088E090E087
:10095000A0E0B0E017C080E090E0A0E0B0E012C0FE
:1009600080E0E81680E0F80680E0080781E01807DC
:1009700028F088E190E0A0E0B0E004C080E190E0E1
:10098000A0E0B0E020E230E040E050E0281B390B6E
:100990004A0B5B0B04C016950795F794E7948A956C
:1009A000D2F7F701ED56FF4F8081281B310941092D
:1009B0005109C9011F910F91FF90EF900895DF92A7
:1009C000EF92FF920F931F93FC01E480F580068164
:1009D0001781D1808081823048F480E090E0A0E1EE
:1009E000B0E0E82AF92A0A2B1B2BA5C0843009F4B1
:1009F0009FC0823021F4EE24FF24870105C0E1145A
:100A0000F1040105110519F4E0E0F0E096C06281FF
:100A100073819FEF623879070CF05BC022E83FEFEB
:100A2000261B370B2A3131052CF020E030E040E066
:100A300050E02AC0B801A701022E04C07695679540
:100A4000579547950A94D2F781E090E0A0E0B0E096
:100A500004C0880F991FAA1FBB1F2A95D2F70197C0
:100A6000A109B1098E219F21A023B1230097A105DF
:100A7000B10521F081E090E0A0E0B0E09A01AB0187
:100A8000282B392B4A2B5B2BDA01C9018F77907009
:100A9000A070B07080349105A105B10539F427FF2D
:100AA00009C0205C3F4F4F4F5F4F04C0215C3F4F58
:100AB0004F4F5F4FE0E0F0E02030A0E03A07A0E0C9
:100AC0004A07A0E45A0710F0E1E0F0E079018A015A
:100AD00027C06038710564F5FB01E158FF4FD8016C
:100AE000C7018F779070A070B07080349105A10518
:100AF000B10539F4E7FE0DC080E490E0A0E0B0E07D
:100B000004C08FE390E0A0E0B0E0E80EF91E0A1FF9
:100B10001B1F17FF05C016950795F794E7943196AC
:100B200087E016950795F794E7948A95D1F705C065
:100B3000EE24FF248701EFEFF0E06E2F6795662724
:100B40006795902F9F77D794DD24D7948E2F869525
:100B5000492F462B582F5D29B701CA011F910F91CC
:100B6000FF90EF90DF900895FC01DB0140815181FF
:100B70002281622F6F7770E0221F2227221F93812C
:100B8000892F880F822B282F30E0991F9927991FD2
:100B900011969C93119721153105A9F54115510521
:100BA0006105710511F482E037C082E89FEF13966A
:100BB0009C938E9312979A01AB0167E0220F331F2B
:100BC000441F551F6A95D1F783E08C930DC0220F07
:100BD000331F441F551F12968D919C9113970197B7
:100BE00013969C938E931297203080E0380780E014
:100BF000480780E4580758F314962D933D934D937E
:100C00005C93179708952F3F310579F441155105ED
:100C10006105710519F484E08C93089564FF03C0A5
:100C200081E08C9312C01C9210C02F573040139655
:100C30003C932E93129783E08C9387E0440F551FCB
:100C4000661F771F8A95D1F7706414964D935D9354
:100C50006D937C9317970895991B79E004C0991FB1
:100C6000961708F0961B881F7A95C9F78095089506
:100C700097FB092E07260AD077FD04D00CD006D0AA
:100C800000201AF4709561957F4F0895F6F79095BE
:100C900081959F4F0895AA1BBB1B51E107C0AA1F56
:100CA000BB1FA617B70710F0A61BB70B881F991F0D
:100CB0005A95A9F780959095BC01CD0108952F9282
:100CC0003F924F925F926F927F928F929F92AF92DC
:100CD000BF92CF92DF92EF92FF920F931F93CF9329
:100CE000DF93CDB7DEB7CA1BDB0B0FB6F894DEBFC0
:100CF0000FBECDBF09942A88398848885F846E84E6
:100D00007D848C849B84AA84B984C884DF80EE802F
:100D1000FD800C811B81AA81B981CE0FD11D0FB638
:100D2000F894DEBF0FBECDBFED010895F894FFCF5C
:100D300020202020202020202020202020202020B3
:100D4000008031323334004D696E3A00202020207B
:100D5000200053656B3A0000010203000000000010
:100D6000000000000102020303030304040404045E
:100D70000404040505050505050505050505050526
:100D80000505050606060606060606060606060606
:100D900006060606060606060606060606060606F3
:100DA00006060607070707070707070707070707D6
:100DB00007070707070707070707070707070707C3
:100DC00007070707070707070707070707070707B3
:100DD00007070707070707070707070707070707A3
:100DE0000707070808080808080808080808080886
:100DF0000808080808080808080808080808080873
:100E00000808080808080808080808080808080862
:100E10000808080808080808080808080808080852
:100E20000808080808080808080808080808080842
:100E30000808080808080808080808080808080832
:100E40000808080808080808080808080808080822
:100E50000808080808080808080808080808080812
:040E60000808080076
:00000001FF
