:100000000C943E000C945B000C945B000C945B0021
:100010000C945B000C945B000C945B000C945B00F4
:100020000C945B000C945B000C945B000C945B00E4
:100030000C945B000C945B000C945B000C945B00D4
:100040000C945B000C945B000C945B000C945B00C4
:100050000C945B000C945B000C945B000C945B00B4
:100060000C945B000C945B000C945B000C945B00A4
:100070000C945B000C945B000C945B0011241FBE7D
:10008000CFEFD0E1DEBFCDBF11E0A0E0B1E0E4E909
:10009000F7E002C005900D92A230B107D9F711E048
:1000A000A2E0B1E001C01D92AB30B107E1F70E94C0
:1000B00026030C94C8030C940000409A419A429A7B
:1000C000439A389839983A983B983C9A3D9A3E9A88
:1000D0003F9A449845984698479880E090E0089564
:1000E000449A459A469A479A3C983D983E983F983C
:1000F0004098419842984398389A399A3A9A3B9A4C
:1001000080E090E0089520E030E068E04CE85AE0BC
:1001100085B1862785B9CA010197F1F72F5F3F4F57
:1001200081E027373807A1F72B9A80E090E0089507
:100130008091090190910A010A970CF06BC080919F
:1001400000018130C1F440910701509108012091D4
:10015000090130910A0188EE93E0BC01269FC0019D
:10016000279F900D369F900D1124840F951F90931B
:10017000080180930701809100018230C1F4409111
:100180000701509108012091090130910A0184E68C
:1001900090E0BC01269FC001279F900D369F900DD7
:1001A0001124840F951F909308018093070180917B
:1001B00000018330C1F480910701909108012091E2
:1001C000090130910A01A90173E0440F551F7A9586
:1001D000E1F7220F331F420F531F480F591F50934F
:1001E00008014093070180910001843071F420914F
:1001F0000701309108018091090190910A01820F55
:10020000931F9093080180930701809100018F5FF5
:10021000809300018091090190910A010A9739F4B5
:10022000109208011092070181E0809300018091F3
:10023000090190910A010B9719F481E08093020162
:1002400080E090E008958091090190910A010A9759
:100250000CF06BC0809100018130C1F44091050128
:10026000509106012091090130910A0188EE93E036
:10027000BC01269FC001279F900D369F900D112431
:10028000840F951F909306018093050180910001D2
:100290008230C1F44091050150910601209109017D
:1002A00030910A0184E690E0BC01269FC001279F9F
:1002B000900D369F900D1124840F951F9093060189
:1002C00080930501809100018330C1F48091050184
:1002D000909106012091090130910A01A901F3E0F2
:1002E000440F551FFA95E1F7220F331F420F531F9A
:1002F000480F591F5093060140930501809100015A
:10030000843071F42091050130910601809109013A
:1003100090910A01820F931F90930601809305012B
:10032000809100018F5F809300018091090190917D
:100330000A010A97A1F48091090190910A010A9794
:1003400071F4109206011092050181E08093000182
:1003500080910401833018F082E080930401809141
:10036000090190910A010B9719F481E08093020131
:1003700080E090E0089580910401833030F085B1F1
:1003800094E0892785B90E948300309956C00E9465
:100390007000349918C080910001853090F481E09C
:1003A00090E090930A0180930901809103018823D2
:1003B00011F40E94980080910301813011F40E9491
:1003C00023010E948300359918C080910001853077
:1003D00090F482E090E090930A018093090180916B
:1003E0000301882311F40E94980080910301813059
:1003F00011F40E9423010E948300369918C0809155
:100400000001853090F483E090E090930A0180939E
:10041000090180910301882311F40E9498008091C2
:100420000301813011F40E9423010E948300379957
:1004300002C00E9483000E945D00319956C00E9454
:100440007000349918C080910001853090F484E0E8
:1004500090E090930A018093090180910301882321
:1004600011F40E94980080910301813011F40E94E0
:1004700023010E948300359918C0809100018530C6
:1004800090F485E090E090930A01809309018091B7
:100490000301882311F40E949800809103018130A8
:1004A00011F40E9423010E948300369918C08091A4
:1004B0000001853090F486E090E090930A018093EB
:1004C000090180910301882311F40E949800809112
:1004D0000301813011F40E9423010E9483003799A7
:1004E00002C00E9483000E945D00329956C00E94A3
:1004F0007000349918C080910001853090F487E035
:1005000090E090930A018093090180910301882370
:1005100011F40E94980080910301813011F40E942F
:1005200023010E948300359918C080910001853015
:1005300090F488E090E090930A0180930901809103
:100540000301882311F40E949800809103018130F7
:1005500011F40E9423010E948300369918C08091F3
:100560000001853090F489E090E090930A01809337
:10057000090180910301882311F40E949800809161
:100580000301813011F40E9423010E9483003799F6
:1005900002C00E9483000E945D00339954C00E94F3
:1005A0007000349918C080910001853090F48AE081
:1005B00090E090930A0180930901809103018823C0
:1005C00011F40E94980080910301813011F40E947F
:1005D00023010E948300359916C080910001853067
:1005E00080F410920A01109209018091030188237E
:1005F00011F40E94980080910301813011F40E944F
:1006000023010E948300369918C080910001853033
:1006100090F48BE090E090930A018093090180911F
:100620000301882311F40E94980080910301813016
:1006300011F40E9423010E948300379902C00E9496
:1006400083000E945D0080E090E00895EF92FF92A9
:100650000F931F93CF93DF93389839983A983B982C
:100660003C9A3D9A3E9A3F9A409A419A429A439ABE
:100670004498459846984798209A219A229A239A16
:100680002998289A2B9AC0E0D0E011E012C081E0AE
:10069000C43FD80729F485B1812785B9C0E0D0E0EF
:1006A0000E94BB0180910001853011F41093030179
:1006B000219680910001853050F3EE24E394A4E06C
:1006C000FA2E08EC10E0289A80910001853021F480
:1006D000E0920301E09200010E94BB0180910201BF
:1006E000813089F72091070130910801809105013F
:1006F0009091060128173907F9F4299AC0E0D0E053
:100700000E94830088EB9BE0F8013197F1F7019795
:10071000D9F72196C430D10599F72B9A109202018E
:10072000109204012A9880E593ECF8013197F1F7D3
:100730000197D9F72998C7CF209107013091080177
:1007400080910501909106012817390709F4BBCF64
:1007500085B18F2585B9C0E0D0E00E94830085B1C6
:100760008F2585B92196C830D105B9F72B9A1092FB
:100770000201809104018F5F809304012A9A80E531
:1007800093ECF8013197F1F70197D9F72A989BCFAD
:04079000F894FFCF0B
:02079400010062
:00000001FF
